:020000040000FA
:100000000C945D000C9485000C9485000C94850084
:100010000C9485000C9485000C9485000C9485004C
:100020000C9485000C9485000C9485000C9485003C
:100030000C9485000C9485000C9485000C9485002C
:100040000C94E0020C9485000C94AE020C9488028F
:100050000C9485000C9485000C9485000C9485000C
:100060000C9485000C9485000000000024002700FB
:100070002A0000000000250028002B0004040404CE
:100080000404040402020202020203030303030342
:10009000010204081020408001020408102001021F
:1000A00004081020000000080002010000030407FB
:1000B00000000000000000002A0511241FBECFEF41
:1000C000D8E0DEBFCDBF11E0A0E0B1E0E0E0FFE0AE
:1000D00002C005900D92A234B107D9F721E0A2E445
:1000E000B1E001C01D92AA3EB207E1F710E0CDE5F4
:1000F000D0E004C02197FE010E947807CC35D107DB
:10010000C9F70E942A030C947E070C940000E7EACA
:10011000F0E02491E3E9F0E09491EFE7F0E0E4917E
:10012000EE23C9F0222339F0233001F1A8F4213065
:1001300019F1223029F1F0E0EE0FFF1FEE58FF4FCA
:10014000A591B4912FB7F894EC91811126C09095A8
:100150009E239C932FBF08952730A9F02830C9F023
:10016000243049F7209180002F7D03C0209180002A
:100170002F7720938000DFCF24B52F7724BDDBCFEE
:1001800024B52F7DFBCF2091B0002F772093B000B6
:10019000D2CF2091B0002F7DF9CF9E2BDACFAF9236
:1001A000BF92CF92DF92EF92FF920F931F93CF9364
:1001B000DF936C017B018B01040F151FEB015E01C6
:1001C000AE18BF08C017D10759F06991D601ED915B
:1001D000FC910190F081E02DC6010995892B79F7FA
:1001E000C501DF91CF911F910F91FF90EF90DF90AC
:1001F000CF90BF90AF900895FC01538D448D252F73
:1002000030E0842F90E0821B930B541710F0CF96B0
:10021000089501970895FC01918D828D981761F0E2
:10022000A28DAE0FBF2FB11D5D968C91928D9F5FF9
:100230009F73928F90E008958FEF9FEF0895FC01D8
:10024000918D828D981731F0828DE80FF11D858D8B
:1002500090E008958FEF9FEF0895FC01918D228D1E
:10026000892F90E0805C9F4F821B91098F739927A3
:1002700008958DE491E00E942D0121E0892B09F47D
:1002800020E0822F089580E090E0892B29F00E94E1
:10029000390181110C9400000895FC01A48DA80F70
:1002A000B92FB11DA35ABF4F2C91848D90E00196B8
:1002B0008F739927848FA689B7892C93A089B189D8
:1002C0008C91837080648C93938D848D981306C079
:1002D0000288F389E02D80818F7D80830895EF92DD
:1002E000FF920F931F93CF93DF93EC0181E0888FF0
:1002F0009B8D8C8D98131AC0E889F989808185FFC0
:1003000015C09FB7F894EE89FF896083E889F98961
:1003100080818370806480839FBF81E090E0DF9163
:10032000CF911F910F91FF90EF900895F62E0B8DB6
:1003300010E00F5F1F4F0F731127E02E8C8D8E1171
:100340000CC00FB607FCFACFE889F989808185FFD8
:10035000F5CFCE010E944D01F1CFEB8DEC0FFD2FBB
:10036000F11DE35AFF4FF0829FB7F8940B8FEA8993
:10037000FB8980818062CFCFCF93DF93EC01888DA2
:100380008823B9F0AA89BB89E889F9898C9185FD10
:1003900003C0808186FD0DC00FB607FCF7CF8C919E
:1003A00085FFF2CF808185FFEDCFCE010E944D0108
:1003B000E9CFDF91CF9108953FB7F894809147013D
:1003C00090914801A0914901B0914A0126B5A89B9E
:1003D00005C02F3F19F00196A11DB11D3FBFBA2FD7
:1003E000A92F982F8827BC01CD01620F711D811D97
:1003F000911D42E0660F771F881F991F4A95D1F71C
:1004000008958F929F92AF92BF92CF92DF92EF9218
:10041000FF920E94DC014B015C0188EEC82E83E054
:10042000D82EE12CF12C0E94DC01681979098A0987
:100430009B09683E734081059105A8F321E0C21A2B
:10044000D108E108F10888EE880E83E0981EA11C0F
:10045000B11CC114D104E104F10429F7FF90EF901D
:10046000DF90CF90BF90AF909F908F900895FC0148
:1004700001900020E9F73197AF01481B590BBC01EF
:100480008DE491E00C94CF008F929F92AF92BF9237
:100490000F931F93CF93DF93CDB7DEB7A1970FB61E
:1004A000F894DEBF0FBECDBF19A2423008F44AE077
:1004B0008E010F5D1F4F842E912CB12CA12CA50114
:1004C00094010E947605E62FB901CA01EA30F4F4DE
:1004D000E05DD801EE938D01232B242B252B79F79A
:1004E00090E080E0109719F0CD010E943702A196AC
:1004F0000FB6F894DEBF0FBECDBFDF91CF911F9135
:100500000F91BF90AF909F908F900895E95CE1CFDD
:100510001F920F920FB60F9211242F933F934F9378
:100520005F936F937F938F939F93AF93BF93EF935B
:10053000FF938DE491E00E944D01FF91EF91BF91F7
:10054000AF919F918F917F916F915F914F913F916B
:100550002F910F900FBE0F901F9018951F920F9222
:100560000FB60F9211242F938F939F93EF93FF93C6
:10057000E0915D01F0915E018081E0916301F09175
:10058000640182FD1BC09081809166018F5F8F7333
:1005900020916701821741F0E0916601F0E0E35B92
:1005A000FE4F958F80936601FF91EF919F918F9100
:1005B0002F910F900FBE0F901F9018958081F4CF50
:1005C0001F920F920FB60F9211242F933F938F9388
:1005D0009F93AF93BF938091430190914401A09169
:1005E0004501B09146013091420123E0230F2D37A0
:1005F00058F50196A11DB11D20934201809343013E
:1006000090934401A0934501B09346018091470126
:1006100090914801A0914901B0914A010196A11D14
:10062000B11D8093470190934801A0934901B09375
:100630004A01BF91AF919F918F913F912F910F9060
:100640000FBE0F901F90189526E8230F0296A11D4C
:10065000B11DD2CF789484B5826084BD84B58160A9
:1006600084BD85B5826085BD85B5816085BD80917D
:100670006E00816080936E001092810080918100F5
:1006800082608093810080918100816080938100ED
:10069000809180008160809380008091B1008460AF
:1006A0008093B1008091B00081608093B000809110
:1006B0007A00846080937A0080917A0082608093CF
:1006C0007A0080917A00816080937A0080917A002C
:1006D000806880937A001092C100E0915D01F091F2
:1006E0005E0182E08083E0915901F0915A0110820D
:1006F000E0915B01F0915C018FEC808310926501C9
:10070000E0916101F091620186E08083E0915F01F8
:10071000F0916001808180618083E0915F01F091C0
:100720006001808188608083E0915F01F0916001C9
:10073000808180688083E0915F01F0916001808119
:100740008F7D80830E94010288248A94F3E09F2E8B
:10075000A12CB12CC3E9D0E0A7EA2A2EA0E03A2EC2
:1007600000E010E081E480937C0080917A00806456
:1007700080937A0080917A0086FDFCCFA09178006A
:10078000B09179006D010B2E000CEE08FF082FEFE1
:1007900030E00E947107A50194010E945705B9013C
:1007A00030934C0120934B01A901FE013491EFE7F6
:1007B000F0E08491882399F090E0880F991FFC0164
:1007C000E859FF4FA591B491FC01EE58FF4F859178
:1007D00094918FB7F8949C91392B3C938FBF41151E
:1007E000510509F05FC080E00E948700C701B60193
:1007F0000E944A062AE038E240EA5BE30E94FF06D4
:100800002B013C0182E191E00E9437024AE0C701DE
:10081000B601F7FE0DC06DE28DE491E00E946F011C
:1008200066277727CB016C197D098E099F094AE05D
:100830000E9444028CE191E00E9437028FE191E036
:100840000E943702A3019201C301B2010E946C070A
:10085000882309F46DC089E291E00E9437028CE19F
:1008600091E00E94370285E391E00E943702609197
:100870004B0170914C0190E080E04AE00E944402FC
:100880008CE191E00E9437020E94010201151105DE
:1008900009F468CF0E943901882309F463CF0E94CC
:1008A000000060CF4F3F510511F481E09DCFF10171
:1008B0008491833019F140F48130B1F08230C9F075
:1008C0004038510594F78FCF873011F1883041F1CE
:1008D0008430B1F7809180008062809380007093B3
:1008E0008B0060938A0082CF84B5806884BD27BD69
:1008F0007DCF84B5806284BD28BD78CF8091800093
:1009000080688093800070938900609388006ECF28
:100910008091B00080688093B0002093B30066CFD0
:100920008091B00080628093B0002093B4005ECFCD
:1009300073016201E894F7F82FEF3FEF4FE75FE7AD
:10094000C701B6010E946C0781110DC02FEF3FEF68
:100950004FE75FE7C701B6010E94140618161CF4A2
:100960008DE291E07ACF2FEF3FEF4FE75FE4C301D5
:10097000B2010E94FA0618161CF481E391E06DCFD3
:100980002FEF3FEF4FE75FECC301B2010E94140667
:1009900087FDF3CF20E030E0A901C301B2010E943E
:1009A000140687FF09C06DE28DE491E00E946F019B
:1009B00077FA709477F870942AE037ED43EA5BE3B6
:1009C000C301B2010E94A8052B013C010E94190637
:1009D0006B017C010E9448069B01AC01C301B2017E
:1009E0000E94A7052B013C014AE0C701B6010E9405
:1009F00044026EE28DE491E00E946F0120E030E05D
:100A000040E251E4C301B2010E94FF062B013C0108
:100A10000E9419066B01F12CE12C4AE0C701B601D6
:100A20000E944402C701B6010E9448069B01AC0126
:100A3000C301B2010E94A70520E030E040E251E48A
:100A40000E94FF060E94190690E080E04AE00E94A2
:100A5000440205CFEDE4F1E01382128288EE93E0C8
:100A6000A0E0B0E084839583A683B78384E091E01F
:100A70009183808385EC90E09587848784EC90E077
:100A80009787868780EC90E0918B808B81EC90E05B
:100A9000938B828B82EC90E0958B848B86EC90E03C
:100AA000978B868B118E128E138E148E0895052EC1
:100AB00097FB1EF400940E946E0557FD07D00E941C
:100AC000760507FC03D04EF40C946E0550954095C6
:100AD000309521953F4F4F4F5F4F089590958095EA
:100AE000709561957F4F8F4F9F4F0895A1E21A2E09
:100AF000AA1BBB1BFD010DC0AA1FBB1FEE1FFF1FC2
:100B0000A217B307E407F50720F0A21BB30BE40B11
:100B1000F50B661F771F881F991F1A9469F7609558
:100B20007095809590959B01AC01BD01CF01089512
:100B3000A29FB001B39FC001A39F700D811D11241E
:100B4000911DB29F700D811D1124911D0895505863
:100B5000BB27AA270E94BF050C94C0060E94B206BC
:100B600038F00E94B90620F039F49F3F19F426F4BA
:100B70000C94AF060EF4E095E7FB0C94A906E92F60
:100B80000E94D10658F3BA176207730784079507C6
:100B900020F079F4A6F50C94F3060EF4E0950B2EF4
:100BA000BA2FA02D0B01B90190010C01CA01A001BF
:100BB0001124FF27591B99F0593F50F4503E68F11A
:100BC0001A16F040A22F232F342F4427585FF3CF5B
:100BD000469537952795A795F0405395C9F77EF42C
:100BE0001F16BA0B620B730B840BBAF09150A1F075
:100BF000FF0FBB1F661F771F881FC2F70EC0BA0FFB
:100C0000621F731F841F48F4879577956795B79582
:100C1000F7959E3F08F0B0CF9395880F08F099277D
:100C2000EE0F9795879508950E94850608F481E058
:100C300008950E94D90688F09F5798F0B92F9927F8
:100C4000B751B0F0E1F0660F771F881F991F1AF0B7
:100C5000BA95C9F714C0B13091F00E94F306B1E023
:100C600008950C94F306672F782F8827B85F39F022
:100C7000B93FCCF3869577956795B395D9F73EF450
:100C800090958095709561957F4F8F4F9F4F0895F8
:100C9000E89409C097FB3EF4909580957095619516
:100CA0007F4F8F4F9F4F9923A9F0F92F96E9BB27CC
:100CB0009395F695879577956795B795F111F8CF48
:100CC000FAF4BB0F11F460FF1BC06F5F7F4F8F4FB3
:100CD0009F4F16C0882311F096E911C0772321F0A9
:100CE0009EE8872F762F05C0662371F096E8862F41
:100CF00070E060E02AF09A95660F771F881FDAF798
:100D0000880F9695879597F90895990F0008550FC4
:100D1000AA0BE0E8FEEF16161706E807F907C0F081
:100D200012161306E407F50798F0621B730B840B89
:100D3000950B39F40A2661F0232B242B252B21F463
:100D400008950A2609F4A140A6958FEF811D811D03
:100D5000089597F99F6780E870E060E008959FEF3D
:100D600080EC089500240A94161617061806090642
:100D7000089500240A941216130614060506089511
:100D8000092E0394000C11F4882352F0BB0F40F499
:100D9000BF2B11F460FF04C06F5F7F4F8F4F9F4FD9
:100DA000089557FD9058440F551F59F05F3F71F05B
:100DB0004795880F97FB991F61F09F3F79F08795C2
:100DC0000895121613061406551FF2CF4695F1DF4B
:100DD00008C0161617061806991FF1CF86957105DB
:100DE000610508940895E894BB2766277727CB010F
:100DF00097F908950E94850608F48FEF08950E94E0
:100E000012070C94C0060E94B20638F00E94B90680
:100E100020F0952311F00C94A9060C94AF06112430
:100E20000C94F4060E94D10670F3959FC1F3950FC0
:100E300050E0551F629FF001729FBB27F00DB11D5E
:100E4000639FAA27F00DB11DAA1F649F6627B00DEE
:100E5000A11D661F829F2227B00DA11D621F739FD7
:100E6000B00DA11D621F839FA00D611D221F749FE5
:100E70003327A00D611D231F849F600D211D822F2C
:100E8000762F6A2F11249F5750409AF0F1F0882353
:100E90004AF0EE0FFF1FBB1F661F771F881F915080
:100EA0005040A9F79E3F510580F00C94A9060C9480
:100EB000F4065F3FE4F3983ED4F386957795679503
:100EC000B795F795E7959F5FC1F7FE2B880F911DAA
:100ED0009695879597F908950E948506880B990B3A
:100EE00008950E949805B7FF0895821B930B0895FB
:100EF000EE0FFF1F0590F491E02D0994F894FFCFB9
:100F0000000000006F01CF00FC00BC012D010B01AF
:100F10001F0173656E736F72203D20000D0A00760D
:100F2000616C746963203D20006E616E00696E66BD
:100F3000006F76660009206F7574707574203D200F
:020F40000000AF
:107E0000112484B714BE81FFF0D085E080938100F7
:107E100082E08093C00088E18093C10086E0809377
:107E2000C20080E18093C4008EE0C9D0259A86E02C
:107E300020E33CEF91E0309385002093840096BBD3
:107E4000B09BFECF1D9AA8958150A9F7CC24DD24C4
:107E500088248394B5E0AB2EA1E19A2EF3E0BF2EE7
:107E6000A2D0813461F49FD0082FAFD0023811F036
:107E7000013811F484E001C083E08DD089C08234E0
:107E800011F484E103C0853419F485E0A6D080C0E4
:107E9000853579F488D0E82EFF2485D0082F10E0AE
:107EA000102F00270E291F29000F111F8ED06801E7
:107EB0006FC0863521F484E090D080E0DECF843638
:107EC00009F040C070D06FD0082F6DD080E0C81688
:107ED00080E7D80618F4F601B7BEE895C0E0D1E017
:107EE00062D089930C17E1F7F0E0CF16F0E7DF06D8
:107EF00018F0F601B7BEE89568D007B600FCFDCFD4
:107F0000A601A0E0B1E02C9130E011968C91119780
:107F100090E0982F8827822B932B1296FA010C0160
:107F200087BEE89511244E5F5F4FF1E0A038BF0790
:107F300051F7F601A7BEE89507B600FCFDCF97BE46
:107F4000E89526C08437B1F42ED02DD0F82E2BD052
:107F50003CD0F601EF2C8F010F5F1F4F84911BD097
:107F6000EA94F801C1F70894C11CD11CFA94CF0C13
:107F7000D11C0EC0853739F428D08EE10CD085E9AC
:107F80000AD08FE07ACF813511F488E018D01DD067
:107F900080E101D065CF982F8091C00085FFFCCF94
:107FA0009093C60008958091C00087FFFCCF809118
:107FB000C00084FD01C0A8958091C6000895E0E648
:107FC000F0E098E1908380830895EDDF803219F02E
:107FD00088E0F5DFFFCF84E1DECF1F93182FE3DFCA
:107FE0001150E9F7F2DF1F91089580E0E8DFEE27F6
:047FF000FF270994CA
:027FFE00040479
:00000001FF
