:100000000C9462000C948A000C948A000C948A0070
:100010000C948A000C948A000C948A000C948A0038
:100020000C948A000C948A000C948A000C948A0028
:100030000C948A000C948A000C948A000C948A0018
:100040000C94DD050C948A000C948A000C948A00B0
:100050000C948A000C948A000C948A000C948A00F8
:100060000C9427060C948A00000000002300260050
:10007000290000000008000201000003040700003E
:1000800000000000000000000000250028002B00F8
:1000900000000000240027002A00040404040404D3
:1000A0000404020202020202030303030303010227
:1000B00004081020408001020408102001020408F6
:1000C0001020460711241FBECFEFD8E0DEBFCDBF02
:1000D00011E0A0E0B1E0E4EBF2E102C005900D9286
:1000E000AA33B107D9F722E0AAE3B1E001C01D921B
:1000F000A934B207E1F710E0C2E6D0E004C02197CE
:10010000FE010E945209C136D107C9F70E9490072B
:100110000C9458090C9400000895089590E0FC0197
:10012000E255FF4F249186569F4FFC01849188230E
:1001300099F090E0880F991FFC01E057FF4FA591BF
:10014000B491FC01EA57FF4F859194918FB7F894D1
:10015000EC91E22BEC938FBF0895AF92BF92CF92B8
:10016000DF92EF92FF920F931F93CF93DF936C0177
:100170007B018B01040F151FEB015E01AE18BF0858
:10018000C017D10759F06991D601ED91FC9101900A
:10019000F081E02DC6010995892B79F7C501DF9122
:1001A000CF911F910F91FF90EF90DF90CF90BF9074
:1001B000AF900895833081F028F4813099F0823037
:1001C000A9F008958730A9F08830C9F08430B1F4DF
:1001D000809180008F7D03C0809180008F77809315
:1001E0008000089584B58F7784BD089584B58F7D90
:1001F000FBCF8091B0008F778093B00008958091FD
:10020000B0008F7DF9CF1F93CF93DF93282F30E07D
:10021000F901EE58FF4F8491F901E255FF4FD49157
:10022000F901E656FF4FC491CC23A9F0162F811196
:100230000E94DA00EC2FF0E0EE0FFF1FEA57FF4FAD
:10024000A591B4918FB7F894EC91111108C0D09595
:10025000DE23DC938FBFDF91CF911F910895DE2BBA
:10026000F8CF3FB7F89480917F0190918001A091E1
:100270008101B091820126B5A89B05C02F3F19F0DE
:100280000196A11DB11D3FBFBA2FA92F982F882716
:10029000BC01CD01620F711D811D911D42E0660FF1
:1002A000771F881F991F4A95D1F7089508952091C7
:1002B0005B01260F3327331F21323105ECF42091E7
:1002C000F301FC0190E080E0243069F082E00895C1
:1002D000A0915B012191AC01455C5E4FA40FB52F4D
:1002E000B11D2C930196861798F380915B01680FDE
:1002F00060935B0180E0089581E008951092F3011E
:1003000081E08093D2011092CD0161E082E10E94F0
:10031000030161E083E10E940301E9EBF0E08081E9
:100320008E7F808380818D7F808388E48093B80076
:1003300085E48093BC000895CF93DF9391E0909380
:100340003A018823B9F0C091B800D091BA008091E9
:10035000BC008A7B8093BC0060E082E10E940301C4
:1003600060E083E10E9403010E947E01D093BA0005
:10037000C093B800DF91CF910895CF92DF92EF92B2
:10038000FF920F931F93CF93DF93D82FC62F613225
:1003900008F098C00E9431016B017C018091F3014B
:1003A00081116BC081E08093F3018093D2019FEFB4
:1003B0009093D1011092D0019C0F9093CF01809324
:1003C000CE018091CE01DD0FD82BD093CE0180914C
:1003D000CD01813009F078C01092CD010E94310129
:1003E0006B017C018091CE018093BB008091F5016F
:1003F0009091F601A091F701B091F801892B8A2B19
:100400008B2BA1F00E9431010091F5011091F601B2
:100410002091F7013091F8016C197D098E099F092F
:10042000061717072807390708F448C08091BC0051
:1004300083FDD8CF85EC8093BC000E9431016B0115
:100440007C018091F301813009F440C08091D0019A
:100450008C1710F4C091D001EDEAF1E0A3EDB1E00A
:1004600080E08C1355C08C2FDF91CF911F910F919D
:10047000FF90EF90DF90CF9008958091F5019091DB
:10048000F601A091F701B091F801892B8A2B8B2BF3
:1004900009F484CF0E9431010091F5011091F60119
:1004A0002091F7013091F8016C197D098E099F099F
:1004B000061717072807390708F070CF8091F40155
:1004C0000E949C01C0E0CFCF85EEB5CF8091F501B1
:1004D0009091F601A091F701B091F801892B8A2B38
:1004E0008B2B09F4AECF0E9431010091F5011091E0
:1004F000F6012091F7013091F8016C197D098E0900
:100500009F09061717072807390708F09ACFD6CF93
:1005100091919D938F5FA5CFCF92DF92EF92FF9243
:100520000F931F93CF93DF93D091FD0181E0D132E0
:1005300008F09CC0C091AC010E9431016B017C01AC
:100540008091F30181116CC082E08093F30181E01E
:100550008093D2018FEF8093D1011092D001D0937C
:10056000CF01ACE8B1E0EDEAF1E080E0D8138DC056
:100570001092CE018091CE01CC0FC82BC093CE013A
:100580008091CD01813009F084C01092CD010E948C
:1005900031016B017C018091CE018093BB00809181
:1005A000F5019091F601A091F701B091F801892B26
:1005B0008A2B8B2BA1F00E9431010091F501109143
:1005C000F6012091F7013091F8016C197D098E092F
:1005D0009F09061717072807390708F442C08091BA
:1005E000BC0083FDD8CF85EC8093BC000E94310114
:1005F0006B017C018091F301823009F44CC0809141
:10060000D1018F3F09F469C08091D101803209F492
:1006100066C08091D101803309F463C084E026C0B4
:100620008091F5019091F601A091F701B091F80148
:10063000892B8A2B8B2B09F483CF0E9431010091E7
:10064000F5011091F6012091F7013091F8016C1934
:100650007D098E099F09061717072807390708F033
:100660006FCF8091F4010E949C0185E01092FE0101
:100670001092FD0110928B01DF91CF911F910F918C
:10068000FF90EF90DF90CF9008959D9191938F5FB1
:100690006DCF85EEA9CF8091F5019091F601A091E3
:1006A000F701B091F801892B8A2B8B2B09F4A2CF8B
:1006B0000E9431010091F5011091F6012091F7019E
:1006C0003091F8016C197D098E099F0906171707EB
:1006D0002807390708F08ECFC4CF80E0C7CF82E06B
:1006E000C5CF83E0C3CF0895E09100028091FF0160
:1006F000E81730F4F0E0ED52FE4F808190E008956D
:100700008FEF9FEF0895909100028091FF012FEFEE
:100710003FEF981748F4E92FF0E0ED52FE4F2081AB
:1007200030E09F5F90930002C90108958091FF011E
:1007300090910002891B990B0895CF92DF92EF925E
:10074000FF920F931F93CF93DF937C01CB018A011C
:1007500020918B01222389F0EB016B01C40ED51E81
:10076000CC15DD0569F06991D701ED91FC910190FF
:10077000F081E02DC7010995F3CF642F0E94570146
:10078000C801DF91CF911F910F91FF90EF90DF9003
:10079000CF900895CF93DF931F92CDB7DEB76983D3
:1007A00020918B012223F9F02091FD01203258F095
:1007B00021E030E0FC013383228390E080E00F9061
:1007C000DF91CF9108958091FE01E82FF0E0E4578A
:1007D000FE4F998190838F5F8093FE018093FD018E
:1007E00081E090E0ECCF61E0CE0101960E945701DC
:1007F000F7CF90E080E00895009769F0FC01019048
:100800000020E9F73197AF01481B590BBC018DE07F
:1008100092E00C94AD0090E080E00895CF93809139
:10082000470291E090938B018093AC011092FE01FE
:100830001092FD0165E081E092E00E94CA030E94EF
:100840008C0264E0809147020E94BD011092000278
:100850008093FF0181E092E00E948303982F92959C
:100860009370CAE08F709C9F800D112480932802A2
:1008700081E092E00E94830387708093290281E0E7
:1008800092E00E948303982F991F9927991F9093B4
:10089000320284FB992790F98F709C9F800D112460
:1008A00080932A0281E092E00E948303982F929520
:1008B0009F708F709C9F800D112480932B02CF918D
:1008C0000895CF93DF93EC0160E08E810E940301D5
:1008D00061E08E810E94030160E08E810E9403012D
:1008E0008BE891E00197F1F7DF91CF910895CF92D6
:1008F000DF92EF92FF920F931F93CF93DF936C01E0
:100900007C0187E0E80EF11CD0E0C0E0062F10E08B
:10091000B8010C2E02C0759567950A94E2F76170D4
:10092000F70181917F010E9403012196C430D10516
:1009300079F7C601DF91CF911F910F91FF90EF9052
:10094000DF90CF900C946104CF92DF92EF92FF92F0
:100950000F931F93CF93DF93EC01F62E642F8C81BE
:100960000E9403018D818F3F19F060E00E94030116
:100970000F2D10E08F8584FF25C06E0187E0C80E23
:10098000D11CF12CE12CB8010E2C02C07595679595
:100990000A94E2F76170F60181916F010E940301F0
:1009A000FFEFEF1AFF0A88E0E816F10461F7CE01C5
:1009B000DF91CF911F910F91FF90EF90DF90CF903B
:1009C0000C946104B80184E0759567958A95E1F708
:1009D000CE010E9477046F2DCE01DF91CF911F9140
:1009E0000F91FF90EF90DF90CF900C94770440E050
:1009F000682F8DE092E00C94A404CF93DF938230B3
:100A000029F490911C02986090931C02809320021C
:100A10001092210280E48093220280E180932302DD
:100A200080E580932402809111020E948E008091C3
:100A300012028F3F11F00E948E00809113020E94DB
:100A40008E00CDE0D2E09E012D50324080911C02FC
:100A500084FD0AC084E090E02196281739073CF411
:100A60008E810E948E00EFCF88E090E0F5CF8BE37F
:100A70009DE00197F1F760E0809111020E9403016F
:100A800060E0809113020E940301809112028F3F67
:100A900019F060E00E94030180911C0284FD39C0BE
:100AA00063E08DE092E00E947704CBE4D6E4CE01CF
:100AB0000197F1F763E08DE092E00E9477042197BF
:100AC000F1F763E08DE092E00E94770483E592E025
:100AD0000197F1F762E08DE092E00E947704809147
:100AE0001C0280620E94F70484E080931D028CE067
:100AF0000E94F70481E00E94F7048BE39FE10197D5
:100B0000F1F782E080931E0286E0DF91CF910C9492
:100B1000F70480620E94F7048BE496E40197F1F7F2
:100B200080911C0280620E94F70483E592E00197A5
:100B3000F1F780911C0280620E94F704D0CF41E05F
:100B40000E94A40481E090E0089585ED8093BC00AC
:100B50008091F5019091F601A091F701B091F80113
:100B60000796A11DB11D23E0B695A795979587958A
:100B70002A95D1F72091BC0024FD03C01092F30107
:100B800008954091F5015091F6016091F70170913F
:100B9000F801452B462B472B69F30097A105B105BA
:100BA00041F025E32A95F1F700000197A109B10969
:100BB000E1CF8091F4010C949C011F920F920FB62B
:100BC0000F9211242F933F938F939F93AF93BF93D3
:100BD0008091830190918401A0918501B09186015B
:100BE00030917E0123E0230F2D3758F50196A11D8A
:100BF000B11D20937E018093830190938401A09383
:100C00008501B093860180917F0190918001A09130
:100C10008101B09182010196A11DB11D80937F01D8
:100C200090938001A0938101B0938201BF91AF9115
:100C30009F918F913F912F910F900FBE0F901F901A
:100C4000189526E8230F0296A11DB11DD2CF1F9241
:100C50000F920FB60F9211242F933F934F935F93F0
:100C60006F937F938F939F93AF93BF93EF93FF9374
:100C70008091B900887F803609F44AC0F0F5883247
:100C800009F4A7C018F5803109F49BC0B8F4882393
:100C900009F4F9C0883009F494C0FF91EF91BF9135
:100CA000AF919F918F917F916F915F914F913F9104
:100CB0002F910F900FBE0F901F901895883109F457
:100CC00088C0803251F78093D10114C0803409F478
:100CD0009DC040F48033B9F38833F9F68093D10195
:100CE00085ECB0C0803509F485C0883509F496C01C
:100CF000883499F60E94A505D0CF883909F48CC0B4
:100D000038F5883729F050F4883611F0803729F605
:100D100083E08093F30110927D0157C0883809F475
:100D20007BC0803919F0803809F0B7CF80917D0100
:100D3000803208F071C0E0917D0181E08E0F8093D8
:100D40007D018091BB00F0E0E35AFE4F80833DC0FF
:100D5000803B39F0E0F4803A09F479C0883A09F030
:100D60009CCF84E08093F30110925C0110925B01B0
:100D7000E091FB01F091FC01099580915B018111EB
:100D80000FC081E080935B0110923B0109C0803C61
:100D900009F4A6CF883C09F4A3CF883B09F07DCFA6
:100DA000E0915C0181E08E0F80935C01F0E0E55CF6
:100DB000FE4F80818093BB0090915C0180915B012C
:100DC00029C08091CE018093BB0085EC8093BC004C
:100DD00064CF9091D0018091CF01981758F5E091A0
:100DE000D00181E08E0F8093D001F0E0E355FE4FFB
:100DF0008081E9CFE091D00181E08E0F8093D00116
:100E00008091BB00F0E0E355FE4F80839091D001CC
:100E10008091CF019817C8F285E8D8CFE091D00132
:100E200081E08E0F8093D0018091BB00F0E0E3550C
:100E3000FE4F80838091D20181115CCF81E080934D
:100E4000CD0184EA8093BC001092F30126CF85EC9B
:100E50008093BC001092F30180917D01803230F4C8
:100E6000E0917D01F0E0E35AFE4F108260917D0138
:100E700070E0E091F901F091FA018DE591E00995BA
:100E800010927D010ACF1092D10134CFE1E0F2E05F
:100E90001382128288EE93E0A0E0B0E08483958311
:100EA000A683B78384E091E091838083109200024F
:100EB0001092FF011092FE011092FD010E947E012E
:100EC0008CE890E09093FC018093FB018DE890E02A
:100ED0009093FA018093F90181E590E090934802A4
:100EE00080934702EDE0F2E01382128286E191E006
:100EF0009183808384E084838FEF858389E0868378
:100F000085E0878386E0808787E0818788E0828725
:100F10001386148615861686178681E00C94FD04C8
:100F2000789484B5826084BD84B5816084BD85B5C4
:100F3000826085BD85B5816085BD80916E008160D0
:100F400080936E0010928100809181008260809376
:100F50008100809181008160809381008091800078
:100F60008160809380008091B10084608093B100A3
:100F70008091B00081608093B00080917A0084609D
:100F800080937A0080917A00826080937A008091C9
:100F90007A00816080937A0080917A0080688093E3
:100FA0007A001092C1008DE00E948E0082E00E94C3
:100FB000FD044FE7E42E40E0F42E5BEBC52E50E03D
:100FC000D52E67EAA62E60E0B62EDAE000E010E04B
:100FD0009AE3892E2DE2322E31E3232E8FB7F89437
:100FE000409083015090840160908501709086014B
:100FF0008FBF8091870190918801A0918901B09164
:101000008A01A3019201281B390B4A0B5B0BDA0101
:10101000C901883E9340A105B10508F417C1F70145
:101020008491F6019490F501C49170E060E0CC23C6
:1010300099F081110E94DA00EC2FF0E0EE0FFF1F13
:10104000E859FF4FA591B4918C91982291E080E0EE
:1010500009F490E0692F782FF1E06F278DE00E946E
:101060000301E0912002E23008F09FC0E150F0E07F
:10107000E35FFD4F84898D5F80680E94F704809153
:10108000470221E020938B018093AC011092FE0176
:101090001092FD0160E081E092E00E94CA030E948C
:1010A0008C0265E0809147020E94BD01109200020F
:1010B0008093FF0181E092E00E94830380933002DD
:1010C00081E092E00E9483038093310281E092E00C
:1010D0000E948303982F929597708F709D9F800D2B
:1010E00011248093270281E092E00E948303982FCD
:1010F000929597708F709D9F800D1124809326028A
:1011000081E092E00E948303982F929593708F70F4
:101110009D9F800D1124809325026D2F0E9446090A
:10112000805D80933302905D90933402809235020B
:10113000809126020E944609805D80933602905D70
:101140009093370280923802809127020E944609CC
:10115000805D80933902905D90933A0210923B0239
:1011600083E392E00E94FC03E1E080912002811180
:10117000E0E0E195F0E0E35FFD4F8489835F806804
:101180000E94F7040E940E04E0912902E150E7302A
:1011900090F4F0E0E253F74F0C9452093C093909FE
:1011A0003609330930092D09D708E1E060CF8EE117
:1011B00091E00E94FC03E1E0809120028111E0E0D7
:1011C000E195F0E0E35FFD4F84898E5F80680E94C7
:1011D000F7040E940E0480913202813009F04FC062
:1011E00020923C0289E380933D0280912B026D2F77
:1011F0000E944609805D80933E02905D90933F027D
:101200003092400280912A020E944609805D8093BC
:101210004102905D909342023092430280912802F5
:101220000E944609805D80934402905D9093450240
:10123000109246028CE392E00E94FC0340928701E8
:10124000509288016092890170928A0101151105FE
:1012500009F4C4CE0E940000BBCE82E291E0A9CF87
:1012600086E291E0A6CF8AE291E0A3CF8EE291E000
:10127000A0CF82E391E09DCF86E391E09ACF32E365
:1012800030933C0240E340933D02AFCF991B79E09D
:1012900004C0991F961708F0961B881F7A95C9F706
:1012A00080950895EE0FFF1F0590F491E02D0994AD
:0412B000F894FFCFE0
:1012B40000000000CA039D03F9037303960383032C
:1012C4007403000000009F05AD00F903560153614B
:1012D400740046726900546875005765640054755B
:0A12E40065004D6F6E0053756E003B
:00000001FF
