:100000000C9461000C947E000C947E000C947E0095
:100010000C947E000C947E000C947E000C947E0068
:100020000C947E000C947E000C947E000C947E0058
:100030000C947E000C947E000C947E000C947E0048
:100040000C94CD000C947E000C947E000C947E00E9
:100050000C947E000C947E000C947E000C947E0028
:100060000C947E000C947E00000000002400270009
:100070002A0000000000250028002B0000000000DE
:1000800023002600290004040404040404040202DA
:100090000202020203030303030301020408102007
:1000A0004080010204081020010204081020000012
:1000B0000008000201000003040700000000000027
:1000C000000011241FBECFEFD8E0DEBFCDBF11E08E
:1000D000A0E0B1E0E0ECF3E002C005900D92A230A8
:1000E000B107D9F721E0A2E0B1E001C01D92AC3028
:1000F000B207E1F70E9417010C94DE010C94000096
:10010000833081F028F4813099F08230A9F008958D
:100110008730A9F08830C9F08430B1F48091800034
:100120008F7D03C0809180008F7780938000089539
:1001300084B58F7784BD089584B58F7DFBCF809182
:10014000B0008F778093B00008958091B0008F7DCC
:10015000F9CFCF93DF93E3EBF0E08491EFE9F0E0A8
:10016000D491EBE8F0E0C491CC23A1F081110E947E
:100170008000EC2FF0E0EE0FFF1FE458FF4FA59139
:10018000B491EC91ED2381E090E009F480E0DF91FF
:10019000CF91089580E090E0FACF1F920F920FB6B2
:1001A0000F9211242F933F938F939F93AF93BF93FD
:1001B0008091080190910901A0910A01B0910B0171
:1001C0003091070123E0230F2D3758F50196A11D2B
:1001D000B11D209307018093080190930901A0931A
:1001E0000A01B0930B018091030190910401A09149
:1001F0000501B09106010196A11DB11D8093030177
:1002000090930401A0930501B0930601BF91AF91B3
:100210009F918F913F912F910F900FBE0F901F9044
:10022000189526E8230F0296A11DB11DD2CF789410
:1002300084B5826084BD84B5816084BD85B58260EB
:1002400085BD85B5816085BD80916E00816080939C
:100250006E00109281008091810082608093810005
:100260008091810081608093810080918000816015
:10027000809380008091B10084608093B100809170
:10028000B00081608093B00080917A008460809398
:100290007A0080917A00826080937A0080917A005F
:1002A000816080937A0080917A00806880937A00E0
:1002B0001092C100C0EAD0E0FE0124910CE810E0E9
:1002C000F8018491882399F090E0880F991FFC0130
:1002D000E859FF4FA591B491FC01EE58FF4F85916D
:1002E00094918FB7F8949C91292B2C938FBFEFE9B1
:1002F000F0E02491EBE8F0E084918823C9F090E0ED
:10030000880F991FFC01E859FF4FA591B491FC019A
:10031000EE58FF4F459154919FB7F8943C91822F2E
:10032000809583238C93DA01EC912E2B2C939FBF25
:1003300094EBC92E90E0D92E20E0E22E20E0F22EA0
:10034000992493940E94A900813079F5909100013D
:10035000992319F1A0900201A826A0920201F601AA
:100360008491FE01B490F80184908820A1F081115D
:100370000E948000E82DF0E0EE0FFF1FEE58FF4FC7
:10038000A591B4918FB7F8949C91A1100CC0B09432
:10039000B922BC928FBF10920001E114F10491F2D6
:1003A0000E940000CFCFB92AF4CF8111F6CF9092EE
:1003B00000010E94A900892BE1F3EFCFF894FFCF51
:0203C00001003A
:00000001FF
