:100000000C949A040C94B7040C94B7040C94B704A1
:100010000C94B7040C94B7040C94B7040C94200F00
:100020000C94B7040C94B7040C94B7040C943F32AE
:100030000C94B7040C94B7040C94B7040C94B70454
:100040000C9428320C94B7040C94B7040C94B704A5
:100050000C94B7040C94B7040C94B7040C94B70434
:100060000C94B7040C94B704D50E850E880E8B0E35
:100070008D0E910E940ED30EAC0EAF0EB20EB50EC9
:10008000B80EBB0EBE0ED30ED30ED30ED30ED30EB0
:10009000D30ED30EC10EC40EC70ED30ECB0ECE0E92
:1000A000D10E050A0605060A050A0609060A050A0A
:1000B0000609060A050A0609060A050A0609060AC5
:1000C000050A06050A06090A06090A0600000000D4
:1000D0008060101008C8C40404048448281F1060FD
:1000E000800000000808083EC908080808FFFF143F
:1000F000224180C000000000C13E0000000000005E
:100100000003040408091110101111090A7C0403EA
:1001100000000000000000008060101008C8C40447
:1001200004C48448281F1060800000000808083EAE
:10013000C908080808FFFF142241810100000000DF
:10014000C13E000000000000000304040809111073
:10015000101010090A7C04030000000000000000D9
:1001600080601010C808E44444444448487F10604C
:10017000800000000000003EC1000000FF009C085D
:10018000081C3E0808F80000C13E00000101010102
:10019000010305050908131111111109097F040351
:1001A0000000000040404040C0605050C808E44497
:1001B0004444444848FF1060800000000000003EB6
:1001C000C1000000FF009C08083E1C08080F00004A
:1001D000C13E0000000000000003040409081311E0
:1001E00011111109097F0403000000000000000044
:1001F00080601010C808E44444444448487F1060BC
:10020000800000000000003EC1000000FF00FF0869
:10021000081C3E0808F80000C13E00000101010171
:10022000010305050908131111111109097F0403C0
:100230000000000040404040C0605050C808E44406
:100240004444444848FF1060800000000000003E25
:10025000C1000000FF00FF08083E1C08080F000056
:10026000C13E00000000000000030404090813114F
:1002700011111109097F04030000000000000000B3
:1002800080601010080804E48484848888FF10606B
:1002900080000000808080BEC1808080E0C080FF40
:1002A0008080808080800000C13E0000000000004F
:1002B000000304040B09101310101008087F040336
:1002C000000000008080808080E09090C8E884E496
:1002D0008484848888FF1060800000000000003E55
:1002E000C1000000010300FF80808080808000004A
:1002F000C13E0000000000000003040408081013C1
:1003000010101008087F0403000000000000000027
:10031000806010108808C40404048448281F1060FA
:10032000800000000808083EC9080808FF00FF1404
:10033000224180C000000000C13E0000000000001B
:100340000003040408081110101111090A7C0403A9
:100350000000000000000000806010108808C40445
:1003600004C48448281F1060800000000808083E6C
:10037000C9080808FF00FF142241810100000000A5
:10038000C13E000000000000000304040808111032
:10039000101010090A7C0403000000000000000097
:1003A00000000020E0E0E0E0FEE0E0E0E02000000F
:1003B00000000000000000000000008080838FBF6C
:1003C000FFBF8F8380800000000000000008080845
:1003D00008080808080402017F000000000000006F
:1003E000000000000000008080808080808080808D
:1003F000FE808080808080808080000000000080FF
:10040000E0F8FEFFFEF8E0800001071F7FFF7F1F7E
:10041000070100001010101111090503010101016D
:10042000FF01010101010101010100000010101094
:100430001010101010204080FE000000000000008E
:10044000000000000000000000000001071F7FFF07
:10045000FFFF7F1F070100000000000000000000F8
:1004600000000004040404057F05040404040000E3
:100470000000000040404040C0609010080804E4C4
:100480008484848888FF1060800000000000003EA3
:10049000C1000005060708FF808080808080000082
:1004A000C13E00000000000000030404080810130F
:1004B00010101008087F040300000000FF01020371
:1004C00004050607FFFFFFFFFFFFFFFFFFFFFFFF22
:1004D000FFFFFFFFFFFFFFFFFFFFFFFF10111213E2
:1004E0001415161718191A1B1C1D1E1F2021222354
:1004F0002425262728292A2B2C2D2E2F3031323344
:100500003435363738393A3B3C3D3E3F4041424333
:100510004445464748494A4B4C4D4E4F5051525323
:100520005455565758595A5B5C5D5E5F6061626313
:100530006465666768696A6B6C6D6EFFFFFFFFFF3D
:10054000FFFFFFFFFFFFFFFFFFFFFFFFFFFFFFFFBB
:10055000FFFFFFFFFFFFFFFFFFFFFFFFFFFFFFFFAB
:10056000FFFFFFFFFFFFFFFFFFFFFFFF0FFFFFFF8B
:10057000FF05FFFFFFFFFFFFFFFFFFFFFFFFFFFF85
:1005800008FFFFFFFFFFFFFFFFFFFFFFFFFFFFFF72
:10059000FFFF09FFFFFFFFFF0AFFFF0BFFFFFFFF4A
:1005A0000CFFFFFFFFFFFFFFFFFFFFFFFFFFFFFF4E
:1005B000FFFF0DFFFFFFFFFF0EFFFFFF000000002A
:1005C00000000000087F3E1C087F7F08087F7F082E
:1005D0001C3E7F08087F7F00007F7F084C5E720210
:1005E000725E4C00C07E3E201E3E2000087F4141CE
:1005F000414141414141414141417F087D7E1311CB
:10060000137E7D001D3E6341633E1D003F7F4140E0
:10061000417F3F00FFFF4949497F3600317A4A4A0E
:100620007E3D4000183D6642663D18003E7E4140DA
:10063000217E7E0000000205020000000000000094
:100640000000000000066F6F06000000000B0700AE
:10065000000B0700367F7F367F7F3600042E2A6B23
:100660002A3A10006373381C0E676300367F49799D
:100670003B6A48000000070B0000000000001C3E21
:1006800063410000000041633E1C000000150A1F8A
:100690001F0A15000018187E7E1818000000B070A0
:1006A0000000000008080808080808000000606052
:1006B000000000006070381C0E0703001C3E634100
:1006C000633E1C0000427F7F40000000627351596E
:1006D000494F46002263414949773600181C1613DA
:1006E0007F7F100027674545457D38003C7E4B499C
:1006F00049793000030371790D070300367F4949BA
:10070000497F3600064F4949693F1E0000000066D8
:1007100066000000000000A66600000000081C360D
:100720006300000036363636363636000041633612
:100730001C0800000203696D070600003E635D555A
:100740005D6B2E007C7E1311137E7C007F7F4949F8
:10075000497F36001C3E6341416322007F7F414157
:10076000633E1C007F7F4949494941007F7F090959
:10077000090901001C3E6341497979007F7F08081F
:10078000087F7F000000417F7F41000030704040C3
:10079000407F3F007F7F183C366341007F7F4040B1
:1007A000404040007F7F0E1C0E7F7F007F7F0E1C2D
:1007B000387F7F001C3E6341633E1C007F7F111128
:1007C000111F0E003E7F4151713F5E007F7F09196E
:1007D000396F4600266F4949497B32000001017F8D
:1007E0007F0101003F7F4040407F3F000F1F387076
:1007F000381F0F003F7F4038407F3F0063773E1C2B
:100800003E77630000070F78780F07006171795D0C
:100810004F474300007F7F414100000003070E1C4B
:10082000387060000041417F7F000000080C060323
:10083000060C080080808080808080000000070B0C
:1008400000000000307A4A4A7E3C40007F7F4442EC
:10085000627E3C00183C6642426624003C7E424276
:10086000447F7F003C7E4A4A4A6E2C0000087E7F0F
:10087000090A00001C3EA2A292FE7C007F7F0402B7
:10088000027E7C000000487B7B4000000040C08866
:10089000FB7B0000007F7F08346642000000017F80
:1008A0007F0000007E7E027E047E7C007E7E04024D
:1008B000067C7800183C6642663C1800FEFE224228
:1008C000427E3C003C7E424222FEFE007E7E0402CE
:1008D000020E0C00246E4A4A4A7A300004043F7F1C
:1008E000446420003E7E4040207E7E000E1E30602C
:1008F000301E0E003E7E4030407E3E0062761C0878
:100900001C7662001E3EA0A090FE7E004262725ADB
:100910004E460000083E7741410000000000007F85
:100920007F00000000004141773E08001C1C1C7F36
:100930003E1C080011241FBECFEFD8E0DEBFCDBFA4
:1009400011E0A0E0B1E0EAEEFFE702C005900D92F1
:10095000AA30B107D9F721E0AAE0B1E001C01D92A9
:10096000AF3EB207E1F70E94063D0C94F33F0C94B2
:1009700000000F931F93CF93DF93D82F162F042FD0
:1009800080E00E943E1881E00E943E1882E00E94B2
:100990003E188DE30E94673CC0E08091AB01C81710
:1009A00031F08091AC01C81304C0812F03C08D2F9A
:1009B00001C0802F0E94673CCF5FC33071F7DF9189
:1009C000CF911F910F910895A3E0B0E0EAEEF4E01B
:1009D0000C94503F89836A834B838E010F5F1F4FB6
:1009E000F12CF801E1908F01EE2051F08F2D0E9443
:1009F0003E180E944A188E2D0E94673C0E944218A1
:100A0000F394F3E0FF12EDCF2396E6E00C946C3FF5
:100A1000EF920F931F93CF93DF93122FC02F0E945B
:100A20003016D82F0E940D1885E40E94673C612F74
:100A300070E080E090E020E040E00E9495180E9485
:100A4000421841E0CA3008F040E08C2F6AE00E9472
:100A50009A3E682F70E080E090E025E20E949518B1
:100A60000E944218DD23F1F0C0912C014E2D6091BF
:100A7000C1018091BD019091BE010E94B719D23091
:100A800099F40E940D1860912D018C2F0E94E73B74
:100A90004E2D6091C6018091C2019091C3010E94C8
:100AA000B71902C00E944618DF91CF911F910F9194
:100AB000EF90089580EA93E00E942F1889E993E06F
:100AC0000E945318089580910C018130C9F480E48C
:100AD00093E00E942F180E940D18809111010E942E
:100AE0003E180E944A180E944218609112017091AB
:100AF000130180E090E026E54DEF0E940019089573
:100B0000823011F40E945A050895A1E0B0E0EBE8AC
:100B1000F5E00C94543F69830E94673C85E391E0C3
:100B20000E942F186981862F0E94673C0E944218FC
:100B30006091190170911A0180911B0190911C0123
:100B400024E0409118010E9400192196E2E00C94E3
:100B5000703FCF92DF92EF920F931F93CF93DF936B
:100B600080910F01813039F4D090160100E010E03F
:100B7000C6E1D1E05CC0833009F04DC0009119019D
:100B800010911A0120911B0130911C0160912001EC
:100B9000709121018091220190912301E090180130
:100BA00040911F010E94960B813029F066E1C62E0C
:100BB00061E0D62E04C05DE1C52E51E0D52EF601D0
:100BC000038114812581368160912701709128016C
:100BD0008091290190912A01E280409126010E9492
:100BE000960B813031F0F6E1CF16F1E0DF0629F403
:100BF00007C044E2C42E41E0D42EC6E1D1E002C0D9
:100C0000CDE1D1E08E01095F1F4F0C151D0539F4B0
:100C1000095F1F4F04C00DE111E0C6E1D1E0D880AB
:100C2000F8018081D81619F08181D812D980888185
:100C30008D1101C089810E943E1885E391E00E94D8
:100C40002F188D2D0E943E180115110561F085E3C6
:100C500091E00E942F18F80180818D1102C0F801E7
:100C600081810E943E180E940D186B817C818D81CC
:100C70009E8124E04A810E9400190115110561F04E
:100C80000E944218F801638174818581968124E075
:100C900042810E94001945C0CE010E94522B813032
:100CA00061F50E9442186091E5017091E601809122
:100CB000E7019091E80128E44091E4010E940019C5
:100CC0006091E5017091E6018091E7019091E80162
:100CD00038E4E32E08EC26E04091E4010E94080588
:100CE0006091E5017091E6018091E7019091E80142
:100CF00004E62CE04091E40112C06B817C818D817F
:100D00009E8124E0E22E02E328E14A810E94080548
:100D10006B817C818D819E810AE028E14A810E945D
:100D20000805DF91CF911F910F91EF90DF90CF9049
:100D30000895EF920F931F93CF93DF9300914E018D
:100D400010914F01209150013091510160915D014E
:100D500070915E0180915F0190916001E0904D0182
:100D600040915C010E94960B813019F0CBE4D1E0F8
:100D700002C0CAE5D1E00B811C812D813E816091CA
:100D80006C0170916D0180916E0190916F01EA800C
:100D900040916B010E94960B813011F4C9E6D1E0BD
:100DA00088810E943E1882E491E00E942F18898178
:100DB0000E943E180E940D186B817C818D819E815E
:100DC00026E44A810E940019CE010E94EA1D8C018E
:100DD0000F3F8FEF180749F00E944218B80180E0DA
:100DE00090E024E04EEF0E9400198B859C85AD8534
:100DF000BE85892B8A2B8B2B61F084EE91E00E94BB
:100E000065186B857C858D859E8521E448EF0E9461
:100E100000196B817C818D819E81E6E4EE2E08ECC9
:100E200026E04A810E9408056B817C818D819E812C
:100E300004E62CE04A810E940805DF91CF911F91C2
:100E40000F91EF900895EF920F931F93CF93DF933D
:100E5000EC016091BD017091BE018091BF01909144
:100E6000C001F7EFEF2E02E310E020E030E0409108
:100E7000C1010E94960B87FD10C0CE010E9465182B
:100E80006091BD017091BE018091BF019091C00140
:100E900021E44091C1010E940019DF91CF911F917F
:100EA0000F91EF90089540E0FC01608181810E94E4
:100EB000A52160914E0170914F0180915001909158
:100EC000510126E440914D010E9400190895A0E0CF
:100ED000B0E0EDE6F7E00C944D3F809110018130D9
:100EE00051F4C090790135E0D32E45E0E42E85E041
:100EF000C0E0D0E003C18230F9F4E0907801D090F6
:100F00007E01C090790180917F01ED1007C0BC2C5B
:100F1000D82E25E0C22EFF24F39442C0C81609F44F
:100F2000EAC0E812E2C0CD10E0C0CE2CD5E0DD2E44
:100F300015E0B12EF12C34C0833041F580E026E07D
:100F4000289F8001112408581E4F90E0299FE0013E
:100F50001124C858DE4F891739F0F80141813881D2
:100F6000431302C095E085E09F5F933078F38F5F75
:100F7000833030F3853010F4C0E0D0E0F801C18058
:100F800085E0D82E95E0E92E83E0BAC08EE391E0AB
:100F90000E944E1880911001805D0E94673CB5C090
:100FA000F2E0FE1580F0809179010E943E188AE3FC
:100FB00091E00E942F188E2D0E943E18CEE7D1E0BE
:100FC00008E711E00FC0CEE7D1E008E711E0F80133
:100FD00080810E943E188EE391E00E942F188C2D94
:100FE0000E943E18209789F0EC1439F0F3E0FE15CA
:100FF00020F0C9808EE391E003C0C8808AE391E0CD
:101000000E942F188C2D0E943E1884E08B15F8F05A
:1010100049E16D2D8B2D0E94A71D8130C1F40E94E6
:101020004218E2E0EE1518F08DE492E002C081E58E
:1010300092E00E942F188FE30E94673C0E940D18D7
:1010400061E36D0D81E38B0D0E948505F12C88E332
:1010500092E00E946518F8016281738180E090E05F
:1010600026E54DEF0E9400190E944218209719F5BD
:10107000F801848195818A3F910578F488E20E9485
:10108000673CF8016481758180E090E020E040E0F9
:101090000E94001989E20E94673C40E0F8016081EB
:1010A00081810E94EC1381E00E9458228EE292E03E
:1010B0000E94230708C06A817B8180E090E026E5DA
:1010C0004DEF0E940019F1E0FF121FC086E392E08D
:1010D0000E946518C8010E9453072097B1F00E9432
:1010E0004218CE010E94530710C0A5E0DA2EB5E0E9
:1010F000EB2EC5E0CC2E85E0CEE7D1E008E711E08D
:10110000BE2CE82EFF24F39462CFCDB7DEB7E9E022
:101110000C94693FA0E0B0E0E0E9F8E00C944C3FAB
:1011200090910C018091AB010091AD01C090AC0198
:1011300090FF0CC0182FBC2CDC2CE82EC02EFF24F6
:10114000F39462E0A62EC1E5D2E00BC0102F082F69
:10115000D82EEC2CB12E52E0F52EAA24A394CDE487
:10116000D2E087E293E00E944E18CE010E942F1831
:1011700080910C0182FF03C08BE20E94673C0E94B9
:101180000D1845E463E482E40E94B9046B2D8C2DB4
:101190000E94BB22EC01009759F00E94421883E4A0
:1011A0000E94673C8A2D0E94673C85E40E94673C50
:1011B00049E1612F802F0E94A71D813049F40E94D0
:1011C0000D1865E482E40E94850584E08093310176
:1011D00089E492E00E9465186091B5017091B601B2
:1011E0008091B7019091B80120E040E00E94001981
:1011F0000E9442188091AE0180FF02C085E603C0C4
:1012000081FF03C083E60E94673C85E691E00E946F
:1012100053188091AE0180FF02C083E403C081FFB8
:1012200003C085E40E94673C0E9442186091B301AC
:101230007091B401882777FD8095982F21E44AEFBB
:101240000E949419CD2BE1F48091B9019091BA01DB
:10125000A091BB01B091BC01892B8A2B8B2B81F013
:1012600080E691E00E9465186091B9017091BA0121
:101270008091BB019091BC0120E040E00E940019E8
:10128000602F812F0E94BB228C010097B1F185E471
:1012900092E00E946518D8011296CD91DC911397C7
:1012A0001496ED91FC9115970091B5011091B6013E
:1012B0002091B7013091B80104361105210531059F
:1012C00090F0CE018E1B9F0B63E070E00E94C83E41
:1012D0000A3F11052105310518F4C61BD70B03C0C1
:1012E000EB01CE0FDF1FCE01A0E0B0E026E54DEF11
:1012F000BC01CD010E94001902C0C0E0D0E08BE328
:1013000092E00E942307C53FD14008F16D2D8E2D3C
:101310000E94BB22EC010097D1F08A819B81823C24
:101320009140A8F40E940D1882E40E94673C8F2D22
:101330000E94673C83E40E94673C0E9442186A81D5
:101340007B8180E090E026E54DEF0E940019CDB74B
:10135000DEB7EAE00C94683FFF920F931F93CF93A0
:10136000DF9380910C019091AD016091AC0180FF01
:1013700003C0892F02E003C0862F692F01E09091FE
:101380000B019F3121F413E5E4E4FE2E03C015E4C4
:1013900073E4F72E0E94BB22EC01009759F00E94E3
:1013A00042188F2D0E94673C802F0E94673C812F3E
:1013B0000E94673C80910C0183FD49C08091B1017E
:1013C0009091B201892B81F082E392E00E9465182E
:1013D0006091B1017091B201882777FD8095982FB7
:1013E00026E54DEF0E94941985E592E00E9465186C
:1013F0006091C2017091C3018091C4019091C501B7
:1014000026E44091C6010E9400198091AF0190919D
:10141000B001892B71F080EE91E00E946518609117
:10142000AF017091B00180E090E024E04EEF0E94A7
:101430000019209761F088E392E00E9465186A81A4
:101440007B8180E090E026E54DEF0E940019CDB74A
:10145000DEB7E5E00C946D3F0E94421880910C01CC
:1014600080FF02C08EE401C080E50E94673C88E6F0
:1014700092E00E942F1808950E94421880910C015A
:1014800082FF03C083E692E002C08EE592E00E94F4
:101490002F18089580910C0184FF05C080E792E029
:1014A0000E942F1803C08AE40E94673C8CE692E0F9
:1014B0000E942F180E942C0A80910C0184FD0E942A
:1014C0003C0A0E940D1880910C0186FF03C048E77A
:1014D00068E702C043E564E487E40E94B9048091B0
:1014E0000C0184FD0E94AC0980910C0183FF1EC099
:1014F00088EE91E00E9423078091B3019091B4019E
:10150000892BA1F086ED91E00E9465180E940D18CC
:101510000E9442186091B3017091B401882777FD51
:101520008095982F26E54DEF0E949419089589E53E
:1015300092E00E942F180E942C0A0E943C0A0E94EE
:101540000D1845E463E487E40E94B9040E94AC09E5
:10155000089580910B01823249F483E293E00E9466
:101560002F180E940D1843E461E408C08DE193E058
:101570000E942F180E940D1841E362E387E40E9445
:10158000B9048091AF019091B001892B71F080E492
:1015900092E00E9465186091AF017091B00180E007
:1015A00090E026E54DEF0E940019089589E193E04F
:1015B0000E942F180E940D1843E461E487E40E9402
:1015C000B9048BE292E00E94651860913D01709130
:1015D0003E0180E090E026E54DEF0E94001988E38F
:1015E00092E00E94651860913B0170913C0180E09F
:1015F00090E026E54DEF0E940019089585EA92E0FB
:101600000E942F180E940D1841E362E385E40E94B6
:10161000B90488E691E00E94651860911901709103
:101620001A0180911B0190911C0124E04091180146
:101630000E9400190895CF9388EC80939E0184E066
:101640000E946B13AC018B5C9840C0919C01833F5E
:10165000914098F42091A3013091A401AFEBB9E03F
:101660000E94233F9A0140E050E00E94DC3E30930C
:10167000A4012093A301C46001C0CB7FC0939C014F
:101680008EE00E946B139093A2018093A10188ECDD
:1016900080939E018EE00E946B132091E001820FE7
:1016A000911D27FD9A959093A2018093A10189E154
:1016B00080939E01CF9108950E94243C84E193E0A1
:1016C0000E942F18F89488E10FB6F8948093600078
:1016D000109260000FBE83B7817F846083BF83B7A1
:1016E000816083BF889583B78E7F83BF0895CF9233
:1016F000DF92EF92FF92CF93C1E02AE0C22ED12C6D
:10170000E12CF12C6A3071058105910540F0A701AB
:1017100096010E94DC3ECA01B901CF5FF3CF8C2F46
:10172000CF91FF90EF90DF90CF9008954F925F920E
:101730006F927F928F929F92AF92BF92EF920F9390
:101740001F93CF93DF931F92CDB7DEB74B015C01A0
:101750002801390149830E94770B182FC301B20178
:101760000E94770B498181149104A104B10451F1C5
:10177000411451046104710401F1410FE80EE416B3
:1017800054F14E112AC0F12FE82FE11754F4AAE0CA
:10179000B0E0A30192010E94393F2B013C01EF5FB1
:1017A000F4CFFE1754F4AAE0B0E0A50194010E9422
:1017B000393F4B015C01FF5FF4CF481459046A04C0
:1017C0007B0448F081E084149504A604B70408F073
:1017D00080E0819503C081E001C08FEF0F90DF9121
:1017E000CF911F910F91EF90BF90AF909F908F90EE
:1017F0007F906F905F904F900895CF92DF92EF921D
:10180000FF92CF93DF93C42FD22F3AE0C32ED12C77
:10181000E12CF12CCD1791F0CD1744F4A7019601DE
:101820000E94DC3ECA01B901CF5FF4CFAAE0B0E06C
:101830009B01AC010E94393FC150ECCFDF91CF91A9
:10184000FF90EF90DF90CF900895A1E0B0E0EBE241
:10185000FCE00C944C3F5C0162FF08C080919C014D
:1018600080FD02C06C7F02C0A12CB12C862F83703A
:10187000E82E29F081E069830E94A13C698110E093
:1018800001E0F12C862F8270D82E6870C62EA1142C
:10189000B10449F0E6E0AE16B10420F0F5E0AF1A6D
:1018A000B10801C000E04F9936C08EE190E00E947F
:1018B000E40E10E0002311F04F9B04C01B3108F030
:1018C00041C008C01F5F1B31C8F78AE090E00E944A
:1018D000E40EF0CFCC20D1F182E390E00E94E40E40
:1018E00014E1FF24F3944F990DC08EE190E00E9423
:1018F000E40E4F9907C088EC90E00E94E40E11E0DE
:1019000053E0F52E11508AE090E00E94E40E111190
:10191000EACF00E020C085E090E00E94E40E1F5F67
:101920001436C9F4DD20B1F0013031F480E00E94BA
:10193000A13C10E002E00FC081E00E94A13C10E059
:1019400001E009C000E042E0F42E05C000E0FF2401
:10195000F39401C010E080919D0180FF06C080914A
:101960009D018E7F80939D0102C0011190CFEE20DA
:1019700019F080E00E94A13C8F2D2196EAE00C94A2
:10198000683F65E188EB9BE00E94250C08950F936A
:101990001F93CF93DF93082F811104C0CFE5D3E0CD
:1019A00010E003C0C8E5D3E013E00E94A61481173D
:1019B00069F00E94243CCE010E942F180E940D184D
:1019C00089E493E00E942F1882E001C081E0823018
:1019D000A1F40E94A614811306C088EC90E00E9436
:1019E000E40E81E00AC060E184E690E00E94250CEC
:1019F000013079F7882369F380E0DF91CF911F915F
:101A00000F910895681304C08AE20E94673C08950C
:101A10000E94421808954F925F926F927F928F9228
:101A20009F92AF92CF92DF92FF920F931F93CF932B
:101A3000DF93962E742E652E2901AA24AA94A80E4F
:101A400080902F010FEF080D0E944A1812E0D12C50
:101A5000F12C8A948A94013011F41F5FDF2CC72D7A
:101A6000D62DCD0DD11DCD0DD11DC12CC01678F5B3
:101A700062E06C0D81E00E94E73B013029F06F2DA0
:101A80008C2D8D0D0E94020D1230D8F081E098123D
:101A900005C0888199810E942F180AC0CE010E943A
:101AA000BF3FBC0180E090E020E040E00E940019D0
:101AB0004114510419F0C2010E942F1880E00E94C5
:101AC000F73B2296C394AC1488F6C02ECFCF0130DA
:101AD00049F460912F0180912E010E94E73B8CE335
:101AE0000E94673C84E690E00E94E40E60E180E0A2
:101AF00090E00E94250C813091F4FA1004C0F01699
:101B000030F511E025C0F394882D8D0DF81611F0F5
:101B100011E0A1CFFA14E0F7D39412E09CCF823009
:101B2000B9F70E94243C84EF91E00E94E40E8F2DCF
:101B3000DF91CF911F910F91FF90DF90CF90AF90E9
:101B40009F908F907F906F905F904F90089512E0DC
:101B5000D12CF12C80CFA9E0B0E0E1EBFDE00C94BA
:101B6000533F182F20EF31E03A83298381E08F83A0
:101B70002DEE31E03C832B8382E0888724E333E041
:101B80003E832D8319860E94243C123019F487E786
:101B900093E002C082E793E00E942F1820E030E03B
:101BA000AE014F5F5F4F61E083E00E940B0DFE01CD
:101BB000E80FF11D6781662319F0812F0E94560FEF
:101BC0002996E3E00C946F3FACE3B0E0EAEEFDE071
:101BD0000C94543F8DE093E09A83898386E089A733
:101BE00087E093E09C838B8388E08AA782ED91E075
:101BF0009E838D8389E08BA78BE992E098878F8302
:101C000086E18CA781E992E09A87898787E18DA791
:101C100087E892E09C878B878BE18EA78BE792E029
:101C20009E878D878CE18FA785EF92E0988B8F87B9
:101C30008AE088AB86EE92E09A8B898B8BE089AB49
:101C400085EC92E09C8B8B8B8DE08AAB88EB92E0ED
:101C50009E8B8D8B8EE08BAB8AE591E0988F8F8B7E
:101C600088E18CAB87E893E09A8F898F81E08DAB18
:101C70008CE793E09C8F8B8F82E08EAB81ED92E0BE
:101C80009E8F8D8F8CE08FAB87E793E098A38F8F2B
:101C900083E088AF82E793E09AA389A384E089AFC9
:101CA00086E693E09CA38BA385E08AAF86E491E06F
:101CB0009EA38DA38AE18BAF84E393E098A78FA3C3
:101CC0001CAE0E94243C8CE893E00E942F1820E078
:101CD00030E0AE014F5F5F4F61E084E10E940B0D89
:101CE000FE01E80FF11D81A5EC96E2E00C94703F37
:101CF000CF930E94E40D90E08D31910508F053C020
:101D0000FC01EC5CFF4F0C941D3F0E94261241C069
:101D10000E9411103EC082E001C081E00E94AB0D24
:101D200042C00E949E0F3FC00E94243C8DE093E081
:101D30000E942F1821E133E04FEA50E062E088E092
:101D40000E940B0D90E0880F991F81559F4F0E94B4
:101D5000BF3F0E94523127C00E94CA2C24C00E945B
:101D6000472D21C00E9457321EC00E94052E1BC065
:101D70000E94311A18C00E94763915C00E946E2E3A
:101D800012C00E9407300FC00E943D300CC00E945C
:101D90000D3BC82F0BC00E946A1A05C00E948330F9
:101DA00002C00E94B930C1E001C0C9E60E94243CD3
:101DB000C11103C089E393E002C083E993E00E946C
:101DC0002F188C2FCF910895A0E0B0E024E0880F69
:101DD000991FAA1FBB1F2A95D1F71092B10010922C
:101DE000B20022E02093B000209370000FB607FCF1
:101DF00003C0789430E001C031E047E00097A105CE
:101E0000B105D1F0A8958F3F9105A105B10509F065
:101E100010F4282F01C02FEF821B9109A109B109ED
:101E200021502093B3004093B1002091B1002223B0
:101E300029F300000000F9CF311101C0F894089592
:101E40001F920F920FB60F9211241092B1000F90B3
:101E50000FBE0F901F90189588EC90E09093DA01D8
:101E60008093D9018CED90E09093DC018093DB01AD
:101E700084E190E09093DE018093DD018BE280931A
:101E8000DF011092E0011092E1018FE78093E201FF
:101E90000895E9EDF1E080E09191890F91E0E33E52
:101EA000F907D1F7811101C081E00895FF920F93E6
:101EB0001F93CF93DF93F82E623019F4C1EDD3E076
:101EC00002C0CCEDD3E00E94490F8093E30109EDFD
:101ED00011E082E0F81206C0F8016081CE010E9494
:101EE000C53F05C0CE010E94B73FF80180830F5F58
:101EF0001F4F2196F1E0043E1F0759F782E0F816C4
:101F0000C1F00E94490F9091E301992391F0981735
:101F100081F00E94243C8BE293E00E942F1889E319
:101F200093E00E94531880ED97E00E94E40E0E9417
:101F30002C0FCDB7DEB7E5E00C946D3F81E08093C8
:101F40002B010E94243C8AE192E00E944E1860918D
:101F5000D9017091DA0180E090E024E04FEF0E9417
:101F6000001986E192E00E9465186091DB01709192
:101F7000DC0180E090E024E04FEF0E94001980E057
:101F800092E00E9465186091DF0170E080E090E0CF
:101F900026E444EF0E9400198DEF91E00E9465183D
:101FA0006091DD017091DE0180E090E024E04EEF71
:101FB0000E94001986E292E00E9465186091A101DA
:101FC0007091A20180E090E026E54DEF0E9400199B
:101FD00089EF91E00E9465186091A3017091A401BE
:101FE00080E090E026E54DEF0E94001980919C0171
:101FF00082FF05C00E9442188AE20E94673C83EF7C
:1020000091E00E9465186091E101772767FD709566
:10201000872F972F26E54DEF0E9494190E94C10C3F
:102020000895A5E0B0E0E7E1F0E10C94443F81E0E1
:102030000E94C70C882319F072E0572E02C06AE094
:10204000562E612C712C1B82812C912C1A82C12C52
:10205000D12C412CA12CB12C312CE12CF12C00E005
:1020600010E01D821C822224239486E0851508F44A
:1020700062C131E039830E94243C81E40E94673CC4
:1020800080E3850D0E94673C0E94421824E05216AE
:1020900009F450C0251568F032E0531699F083E03A
:1020A000581207C180E00E94C70C80E034E63983F3
:1020B00001C195E0591609F466C0E6E05E1609F420
:1020C000A1C0F7C08DEF91E00E944E1883E092E02E
:1020D0000E942F1840E060E081E00E94EC1380E055
:1020E0000E94AD1A9D838C838639910518F4C80E21
:1020F000D91E439440E060E082E00E94EC1380E04F
:102100000E94AD1A8C018639910518F4C80ED91EAB
:10211000439440E061E082E00E94EC1380E00E9482
:10212000AD1A7C018639910508F0C3C0C80ED91ECE
:102130004394BFC08AE192E00E942F1818B827B8D4
:1021400025B824B880E00E94CC139D838C8382E064
:1021500087B955B854B881E00E94CC138C018C81AA
:102160009D81800F911F880E991E57B890E195B9F7
:1021700094B982E00E94CC137C01880E991E3A81AA
:102180003D5F3A8396C086E192E00E942F1815B811
:1021900028B827B824B88091A3019091A4019D8309
:1021A0008C8380E00E94CC13EC81FD81E81BF90B4D
:1021B000FD83EC83F2E0F8B9F7B924E024B900918B
:1021C000A3011091A40181E00E94CC13081B190BFC
:1021D0008C819D81800F911F680E791E34E038B983
:1021E00037B980E184B9E090A301F090A40182E0C6
:1021F0000E94CC13E81AF90A6E0C7F1C3B813D5FEC
:102200003B8357C080E092E00E944E1883E092E04A
:102210000E942F1840E060E081E00E94A52180919B
:102220004D01843F91F48091520190915301A0910E
:102230005401B091550185369105A105B10528F4E9
:102240009D838C83A80EB91E339441E060E082E048
:102250000E94A52180915C01843F89F480916101F5
:1022600090916201A0916301B0916401853691055E
:10227000A105B10520F48C01A80EB91E339442E0EB
:1022800061E082E00E94A52180916B01843F89F486
:102290008091700190917101A0917201B0917301D0
:1022A00085369105A105B10520F47C01A80EB91E63
:1022B000339481E017B818B814B815B8882319F109
:1022C0000E940D18EC81FD81CF01A0E0B0E020E07C
:1022D00040E0BC01CD010E9400190E944218C801D3
:1022E000A0E0B0E020E040E0BC01CD010E94001978
:1022F0000E944218C701A0E0B0E020E040E0BC012D
:10230000CD010E9400193981343669F060E188EE10
:1023100093E00E94250C882331F0823011F454E6BA
:10232000552E34E6398339813F5F3983363008F4DE
:10233000A2CE53949ACE8FE038120AC0C5016FE046
:1023400070E00E94B43E6093DF01BB24B39401C0EF
:10235000B12C9FE049120AC0C6016FE070E00E94F4
:10236000B43E7093DE016093DD01B3943A813F3057
:1023700009F062C03B813F3009F05EC0E5E0F0E06B
:10238000C401BF010E94B43E9B01C301BF010E9472
:10239000B43E8B018091A3019091A4016C01CC0CFF
:1023A000DD1CC80ED91EC21AD30AC61AD70AE12CE0
:1023B000F12CD90120EA39E041E050E00E94393F98
:1023C000A70196010E94DC3ECA01B9016B5F7F4FF5
:1023D0008F4F9F4F2AE030E040E050E00E94DC3E0B
:1023E0002A3F31054105510528F43093DA01209345
:1023F000D901B394D80120EA39E041E050E00E94CD
:10240000393FA70196010E94DC3E2B5F3F4F4F4FA3
:102410005F4FCA01B9012AE030E040E050E00E947D
:10242000DC3E283181E038074105510528F430931E
:10243000DC012093DB01B3940E949E0F81E094E0C5
:10244000B91280E02596E2E10C94603FA6E0B0E08E
:10245000ECE2F2E10C94443F81E00E94C70C882337
:1024600019F07724739402C04AE0742EA12CB12C89
:1024700000E010E01E821D8282E0482E98E0592E76
:1024800028E2222E34EFC32E36E0D32EE12CF12C9D
:1024900096E0971508F41AC166246394E0E23E2E94
:1024A0000E94243C84E50E94673C80E3870D0E94E3
:1024B000673C0E94421883E0781609F483C08715B0
:1024C00008F44DC091E0791609F466C0E2E07E128E
:1024D000BEC081E192E00E944E1883E092E00E942B
:1024E0002F182091A3013091A401A0E7B3E00E942E
:1024F000233FA70196010E94FE3E91E095B9E5E0D9
:10250000E4B982E029833A834B835C830E94DC1325
:102510005C0129813A814B815C81A21AB30AF1E105
:10252000F4B981E029833A834B835C830E94DC13F6
:102530008C0129813A814B815C81021B130B84E061
:1025400085B994E194B980E029833A834B835C8315
:102550000E94DC1329813A81821B930B59C0F5E05C
:102560007F1609F45FC07F1608F455C086E0781224
:102570006EC08EE192E00E942F1845B844B880E00A
:102580000E94DC139E838D8355B854B881E00E946D
:10259000DC138C0135B856C08EE00E946B138EE0C0
:1025A0000E946B134C0186E292E00E942F180E9459
:1025B0000D18B40180E090E026E54DEF0E9400196F
:1025C00080E046C08CE092E00E944E1883E092E0EA
:1025D0000E942F188090A3019090A4019694879454
:1025E00045B8EAE0E4B982E00E94DC135C01A81877
:1025F000B908F2E2F4B981E00E94DC138C010819F9
:10260000190955B824B880E00E94DC13881999098B
:102610009E838D831CC080E00E94C70C80E0B4E6DE
:102620006B2E16C082E292E00E942F1815B844B8B3
:1026300080E00E94DC139E838D8354B881E00E9469
:10264000DC138C0134B882E00E94DC135C0181E071
:1026500014B815B8882319F10E940D1820E040E045
:10266000ED81FE81BF01882777FD8095982F0E941C
:1026700094190E94421820E040E0B801882777FDB5
:102680008095982F0E9494190E94421820E040E003
:10269000B501882777FD8095982F0E949419F4E65C
:1026A0006F1669F060E188EE93E00E94250C8823A4
:1026B00031F0823011F4A4E67A2EF4E66F2E6394A2
:1026C00085E0861508F0ECCE7394E2CE81E0269684
:1026D000E2E10C94603FCF93DF93C82FCF70C064CA
:1026E000C0937C00DC2FD07C8091A001D81721F012
:1026F0000E94F93CD093A00180917A00806480937D
:102700007A0080917A0086FDFCCF20E030E0A901BC
:1027100080E0E0919E018E1708F590917A00906418
:1027200090937A0090917A0096FDFCCF60917800AA
:1027300070917900260F371F411D511D843061F4BF
:10274000211594E0390740F4D03C31F090919F017D
:10275000913011F4C06CC4CF8F5FDBCFD03C29F433
:10276000A091A101B091A20104C0A091A301B091D8
:10277000A4010E94393F2AE0969587957795679541
:102780002A95D1F72E2F30E040E050E00E94DC3E49
:10279000C901DF91CF910895A1E0B0E0E2EDF3E14E
:1027A0000C94543F89830E94F03C89810E946B13F2
:1027B0002196E2E00C94703FA1E0B0E0E2EEF3E19C
:1027C0000C94543F89830E94EE3C89810E946B13D4
:1027D0002196E2E00C94703FEF92FF920F931F93CB
:1027E000CF93DF93062FC42F8093C7016093C80156
:1027F0004093C901E82EF12CC701875F9F4F0E94CB
:10280000B73F8093CD0110E0C801875F9F4F0E94C2
:10281000B73F8093CE01D0E0CE01875F9F4F0E94EB
:10282000B73F8093CF01C7018A5F9F4F0E94B73F98
:102830008093D001C8018A5F9F4F0E94B73F809369
:10284000D101CE018A5F9F4F0E94B73F8093D20192
:10285000C7018D5F9F4F0E94B73F8093D301C8018E
:102860008D5F9F4F0E94B73F8093D401CE018D5F53
:102870009F4F0E94B73F8093D501C7018050904081
:102880000E94B73F8093D601C801805090400E94BB
:10289000B73F8093D701CE01805090400E94B73F50
:1028A0008093D801CDB7DEB7E6E00C946C3F409141
:1028B000CC016091CB018091CA010E94EC13089574
:1028C0008091C7018093CA018091C8018093CB0198
:1028D0008091C9018093CC01089593E0981B892FC2
:1028E000861B0895CF93DF9340E00E94EC1317B846
:1028F0009091CD0195B98091CE01892B84B98091B9
:10290000D6010E94CC13EC018091D7010E946B1379
:102910002091A3013091A40136952795A9014E512C
:1029200051094C175D0760F4225E3F4FC217D30771
:1029300038F44817590720F441E08217930708F04C
:1029400040E014B8842FDF91CF910895CF9361E0D8
:1029500080E00E947214C82F62E080E00E9472142E
:10296000C80F62E081E00E9472148C0FCF9108952D
:102970000F931F93CF93DF93082F162F17B818B814
:1029800014B815B840E00E94EC138091D30187B9C8
:102990008091D7010E946B13EC018091D40187B91B
:1029A0008091D6010E946B13C817D90728F440E024
:1029B000602F812F0E94EC138091D30187B9809101
:1029C000CE0184B9C2E38091D7010E946B13803994
:1029D00021E0920738F0C15061F084E690E00E9457
:1029E000E40EF1CF27B13091D401232B27B988977A
:1029F00090F717B814B8DF91CF911F910F910895F8
:102A0000A7E0B0E0E6E0F5E10C944C3F17B818B849
:102A100015B88FE384B980E00E946B139A83898391
:102A200081E00E946B139C838B8382E00E946B1376
:102A30009E838D83D12C62E0C62E68E2BB24B394C2
:102A4000EE24E394F12CC39423E0C21201C0C12C04
:102A50000C2D10E02D2D30E00C2C02C03595279563
:102A60000A94E2F720FD76C08C2D6F830E946B13D1
:102A7000F801EE0FFF1F21E030E02C0F3D1FE20FA9
:102A8000F31F408151816F818417950768F491830A
:102A90008083462F50E04B1951094431510564F4AD
:102AA0006B3E50F46C5E08C08A30910518F46832B1
:102AB00009F460E5B39402C0BB24B394833091055C
:102AC00040F49701002E01C0220F0A94EAF7D22A9F
:102AD0000DC08032934050F4A7B0C8018D5F9F4F66
:102AE0006F830E94B73F8A2987B96F8187E0D81624
:102AF00099F16B1540F581E080930B0180930C01F7
:102B0000C0921101C8018D5F9F4F0E94B73F97B1DE
:102B10008095892387B9C8018A5F9F4F0E94B73F7C
:102B2000F82EC801875F9F4F0E94B73F94B18F294D
:102B30008095892384B98C2D0E946B139093130187
:102B40008093120109C0A89582E390E06F830E94F0
:102B5000E40E6F81B11077CF14B817B82796EAE06A
:102B60000C94683FCF93C82FC09595B160FF02C009
:102B7000982B01C09C2395B994B1982B94B963FF0D
:102B800003C00E94F43C02C00E94EF3C84B18C233D
:102B900084B985B18C2385B9CF910895A0E0B0E0C8
:102BA000E4EDF5E10C944F3F613071F06230A9F033
:102BB000633009F04DC00FE610E02EE130E0C9E1CE
:102BC000D0E048EC50E011C00FEB10E027E030E01F
:102BD000C2E3D0E048EE53E008C001ED10E02CE283
:102BE00030E0C9E1D0E04CE251E08417950718F0DD
:102BF000841B950B02C080E090E0BE010E94B43EB1
:102C0000DC2ED81ACB0199272817390708F0262F70
:102C1000020F111D020F111DC8010E94BF3F7C0150
:102C2000C80102960E94BF3FFC01E81AF90ADE9C27
:102C30009001DF9C300D1124CE0196958795280FC9
:102C4000391FC901BE010E94B43E6E0F7F1F02C032
:102C500060E070E0CB01CDB7DEB7E7E00C946B3FEE
:102C6000A9E0B0E0E6E3F6E10C94443F742E09835A
:102C70002C3089F0283149F0263009F000C106E0F7
:102C8000E4E52E2EE0E03E2E0BC008E15CE0252EB0
:102C900050E0352E05C00CE04CE3242E40E0342EED
:102CA0003AE0C32ED12CE12CF12C603A26E87207D1
:102CB00021E08207910540F0A70196010E94DC3EC9
:102CC000CA01B9017394F1CF603137E2730781050E
:102CD000910540F4AAE0B0E09B01AC010E94393FAD
:102CE0007A94F2CF6A837B838C839D8373942AE0EA
:102CF000822E912CA12CB12CA50194010E94DC3EC6
:102D0000CA01B901172D66246394670C283EA3E01D
:102D10003A074105510510F0762CEECF812C912C0D
:102D2000512CC1012E833F83488759870E94BF3FA2
:102D30005C012E813F81488559858217930748F4AD
:102D4000B2E02B0E311C53944C01501650F3A12CC1
:102D5000B12C501204C008EEA02E03E0B02E940156
:102D6000A4E6B0E00E94233F1B012C01E981CE2E96
:102D7000D12CE12CF12C9B01AC01C701B6010E94C2
:102D80008A3E28EE33E040E050E00E94DC3E220D17
:102D9000331D441D551D8A819B81AC81BD8128173F
:102DA00039074A075B07C8F09981923338F0C401AC
:102DB0006AE070E00E94B43E4B01762CC401A0E0B2
:102DC000B0E08093BD019093BE01A093BF01B0938A
:102DD000C0017092C10101E001C000E09501A4E6CC
:102DE000B0E00E94233F1B012C019B01AC01C701F5
:102DF000B6010E948A3E28EE33E040E050E00E9497
:102E0000DC3ED201C101821B930BA40BB50B2A81BE
:102E10003B814C815D81281739074A075B0780F1A8
:102E200038EEA31633E0B30621F4162DB4E6AB2E2C
:102E3000B12C4981423338F0C5016AE070E00E944C
:102E4000B43E5B011F5FC501A0E0B0E001110BC003
:102E50008093BD019093BE01A093BF01B093C001C8
:102E60001093C1010AC08093C2019093C301A09343
:102E7000C401B093C5011093C6010F5F01C000E00B
:102E8000802F2996E2E10C94603F0F931F93CF931C
:102E9000DF93182F062F80910B01813009F497C022
:102EA000A895812F0E94EC1315B88091CE0184B9AA
:102EB0008091D30187B988B960E18091CF010E94E8
:102EC000B2158091D7010E94CC13EC01813D23E023
:102ED000920750F061E18091CF010E94B21580917C
:102EE000D7010E94CC13EC01C031D10528F48091A8
:102EF0000D01811128C00DC080910D01811103C009
:102F0000CE010E944F27C13D83E0D80708F043C09F
:102F1000EECF8091CE0184B915B88091D30187B9E5
:102F200088B90E94F03C9091CF018091CE01982BFE
:102F300094B9802F0E94CC138F359D4020F0BE01A4
:102F400082E00E94572580910D0181111DC0809162
:102F5000D40187B918B89091CF018091CD01982BF9
:102F600094B995B9812F0E94CC138034964060F4B7
:102F70000E94F428811108C080910B01813221F058
:102F8000BE0181E00E94572580910D0181110BC087
:102F90000E94E92908C080910D01811102C00E94A0
:102FA00098290E94D12280910B01882311F08A3048
:102FB00019F40E946C1B07C08F3129F480910C0119
:102FC00084FD0E94CC2317B818B814B815B8DF9147
:102FD000CF911F910F91089580910E018823E1F008
:102FE00090910D0190FD18C091FD04C090910B01CE
:102FF0009E3190F480930B01809138018093AB0156
:10300000809139018093AC0180913A018093AD01A8
:1030100080911501809314010895CF93C0912B01E5
:1030200060912D0180912F01681313C0C0FD0E9493
:10303000C10CC1FF0BC0C0912F01C23028F08C2FF2
:103040000E94F73BC150F9CF62E004C00E94243CCB
:1030500004C06F5F81E00E94E73BCF910895CF935A
:10306000DF93EC01CE010E94B73F882321F00E943C
:10307000673C2196F7CFDF91CF9108958F5C0E9436
:10308000673C089580E20E94673C08958DE20E94AB
:10309000673C08958AE30E94673C08950E942F18B8
:1030A0000E9442180895A2E0B0E0E9E5F8E10C942E
:1030B000543F89839A830E940D1889819A810E94C6
:1030C0002F182296E2E00C94703FA2E0B0E0EBE60D
:1030D000F8E10C94543F89839A830E940D188981EA
:1030E0009A810E942F180E9442182296E2E00C94C6
:1030F000703F82E00E94F73B62E081E00E94E73B84
:1031000008958A3010F4805D01C0895C0E94673C9C
:103110000895CF93C82F82958F700E9481188C2FAD
:103120008F700E948118CF910895A0E0B0E0EBE984
:10313000F8E10C944E3FF42ED22E2AE04FE351E0FA
:103140000E947B3FEFE3F1E001900020E9F7319727
:10315000EF53F140CE2EFF2069F0EF1528F0EE2E50
:10316000EF18F12C49F401C0FE1A80E30E94673C7D
:10317000E12C02C084E6E82E0FE311E0E8018C2F79
:10318000801B8C1580F48E110AC08EE20E94673C71
:10319000FF2029F080E30E94673CFA94F9CF8991DF
:1031A0000E94673CECCFDD2019F08D2D0E94673C1A
:1031B000CDB7DEB7E8E00C946A3FA6E0B0E0E3EEFE
:1031C000F8E10C94543F97FF15C02E834D8369831B
:1031D0007A838B839C830E94461869817A818B81D4
:1031E0009C8190958095709561957F4F8F4F9F4FF3
:1031F0004D812E810E9495182696E2E00C94703F36
:103200008F929F92AF92BF92CF92DF92EF92FF92F6
:103210000F931F93CF936B017C01142FC22F9AE061
:10322000892E912CA12CB12C80E1C81687E2D806FA
:10323000E104F10470F0C701B6016B5F7F4F8F4F5F
:103240009F4FA50194010E94DC3E69017A011F5F36
:10325000EBCF113FACF08FE0810F23E0622F0E9493
:10326000A63E192F992319F08F5F291B122F883042
:1032700040F490E0835D9E4F0E94B73FB82E02C09D
:1032800010E0B12C4AE06FE371E0C6010E949D3F5F
:10329000EFE3F1E001900020E9F73197EF53F140BF
:1032A000AE2E0E2F011B10165CF080E30E94673CCF
:1032B0008EE20E94673C002319F080E30E94673C85
:1032C000111101C00FEFEFEFE00F0FE311E0E12C60
:1032D000F12CCE2EDD24C7FCD094EA1478F4F8014A
:1032E00081918F010E94673CEC14FD0419F48EE279
:1032F0000E94673CFFEFEF1AFF0AEFCFBB2019F0E7
:103300008B2D0E94673CCC2319F08C2F0E94673CC8
:10331000CF911F910F91FF90EF90DF90CF90BF90D2
:10332000AF909F908F900895A6E0B0E0EAE9F9E1B0
:103330000C94543F97FF15C02E834D8369837A8385
:103340008B839C830E94461869817A818B819C8142
:1033500090958095709561957F4F8F4F9F4F4D81D0
:103360002E810E9400192696E2E00C94703FFC0129
:10337000362F242F8CE0860F63E00E94A63E91300A
:1033800059F4E436F10540F48AE0AF01849FF0017E
:10339000859FF00D11243150BF0180E090E0432F54
:1033A0000E9400190895CF93C82F90911401E92F1E
:1033B000EE0FE90FF0E0EE55FF4FE60FF11DE4913F
:1033C000EE23B9F090913401915060913501E1FF05
:1033D00004C0209132012F5F920FE2FF04C0809160
:1033E0003301680F6150892F0E94E73B8C2F0E94A8
:1033F0003E18CF9108953091330190912F013917E4
:1034000078F520912E01203118F0380F391738F057
:1034100090932D010E940D1893E082E004C09091DA
:103420003201291B922F909334018093350160E083
:103430008091AB010E94D31961E08091AC010E94A0
:10344000D31962E08091AD010E94D31960913501DA
:10345000809134010E94E73B809114010E94B03CAE
:1034600008951F93CF93DF930E94243C81ED92E057
:103470000E944E18C091E201109130010E9479180B
:103480008C2F90E0A0E0B0E020E040E0BC01CD0156
:103490000E9400198CE291E00E94E40E68E180E055
:1034A00090E00E94250CD82F813021F4C11748F4F8
:1034B000CF5F07C0833021F0CC2319F0C15001C089
:1034C000D0E08C2F0E94323CD111D8CFDF91CF9128
:1034D0001F910895FF920F931F93CF93DF930E9444
:1034E000243C86E491E00E942F1882E080932B0117
:1034F00010912F011150C0E0D1E00E940D188C2FC7
:103500000E9489180E94421808E00C0FF0902C01CC
:103510008C2F0E94673C80912C018F1103C08F5F1C
:1035200080932C01CF5FC013F1CF002339F0D11766
:1035300039F0DF5FDD2361F0C02FDFCFD0E001C0C5
:10354000D1E06AE180E090E00E94250C833091F7A1
:10355000CDB7DEB7E5E00C946D3FA4E0B0E0E3EB5F
:10356000FAE10C94463F082F0E94001580910B0150
:10357000813009F45EC018B88091D40187B9809178
:10358000CD0185B984B90E94EF3C812C912C540166
:1035900081E0982F9170792E80FF03C08091D60131
:1035A00002C08091D701A895806C80937C000E9416
:1035B000F93C80917A00806480937A0080917A004F
:1035C00086FDFCCF14E620E030E0A90180917A006E
:1035D000806480937A0080917A0086FDFCCF809190
:1035E000780090917900280F391F411D511D2983C2
:1035F0003A834B835C830E94F63C115029813A81C7
:103600004B815C811111E2CFA091A101B091A20187
:103610000E94393F6B017C018AE0F694E794D794CD
:10362000C7948A95D1F7772039F082E04601570197
:10363000B0CF80E090E04CC015B88091D30190915C
:10364000D401892B87B9C814D904EA04FB04D8F53E
:103650002091A3013091A401A4E6B0E00E94233F91
:103660009B01AC01281939094A095B090E94393FBD
:103670002B013C01A50194012C193D094E095F095C
:10368000A8EEB3E00E94393F6B017C012091DB0181
:103690003091DC012057354E40E050E0C301B201CB
:1036A0000E94DC3EC701B6010E94DC3EC901013028
:1036B00061F46091DD017091DE016217730718F407
:1036C000861B970B02C080E090E020EC2093A001C5
:1036D0002496E0E10C94623FA1E0B0E0E2E7FBE178
:1036E0000C94443FA89518B88091D40187B9809173
:1036F000CD0184B985B98091D7010E94CC138C018A
:103700008091D6010E946B132C0115B88091D001D5
:1037100084B98091D6010E94CC13459708F013C25A
:103720008091D00185B98091D6010E94CC135C01B3
:103730008091D30187B988B915B88091CE0184B939
:103740008091D6010E94CC133C018091D7010E9448
:103750006B136C018091D10184B98091D7010E94D3
:10376000CC134C0120E3421621E1520628F432E644
:10377000A316B10438F0E7C18CE6A81683E1B806B9
:1037800008F0E1C1E9EACE16D10408F068C0F6E21B
:103790008F16910408F4D7C1D50120EF3BE247E032
:1037A00050E00E94393F0091A3011091A4019801BB
:1037B0002A193B0940E050E00E94DC3E29013A0111
:1037C000D801A819B90920EF3BE247E050E00E9478
:1037D000393F840120E030E0A90198010E94DC3EDD
:1037E0008EEDA81683E0B80670F4C301B201E2E0E2
:1037F000660F771F881F991FEA95D1F7620F731F15
:10380000841F951F12C0EEED8E16E3E09E06A0F415
:10381000CA01B901B2E0660F771F881F991FBA95D8
:10382000D1F7640D751D861D971D25E030E040E041
:1038300050E00E94DC3E08C0240D351D461D571D7A
:103840005695479537952795225A3E4F4F4F5F4FD4
:10385000AAE0B0E00E94393F4B015C0162C1401612
:10386000510608F47FC06C147D0408F47BC04091BD
:10387000A3015091A4014416550619F4F1E04F1A22
:103880005108A091DB01B091DC01A057B54E920127
:10389000201B310B0E94233F9A012419350940E077
:1038A00050E00E94DC3E49015A01A091D901B0913B
:1038B000DA01A057B54E93012C193D090E94233F10
:1038C000860120E030E0A90198010E94DC3E8EEDE7
:1038D000481683E0580670F4C501B401F2E0660FA3
:1038E000771F881F991FFA95D1F7620F731F841FE6
:1038F000951F19C0EEEDCE16E3E0DE0650F5283F29
:10390000F4E23F07F1E04F07510590F4CA01B90115
:10391000E2E0660F771F881F991FEA95D1F7680DBF
:10392000791D8A1D9B1D25E030E040E050E00CC071
:10393000A9E0B0E00E94393F680D791D8A1D9B1DEA
:103940002AE030E040E050E00E94DC3E49015A01AC
:10395000E8C0820E931EA41EB51EB694A794979439
:103960008794DFC02FE8C21622E1D20608F0E5C036
:10397000412C512C320181E00E94AD1A4C01A12C46
:10398000B12CA3019201220F331F441F551F85E064
:10399000481651046104710420F4240D351D461DA0
:1039A000571DAAE0B0E00E94393F611571058105FD
:1039B000910521F464E670E080E090E086169706B9
:1039C000A806B90618F053014201B4C05EEFF52E07
:1039D00080E037E0C32E4AE0D42E90910F01891782
:1039E00008F086C0C89E10011124F101EA5EFE4F66
:1039F0001F0120819091C701291376C021819091E8
:103A0000C801291371C0E12C02E010E020E030E091
:103A10004F2DC501B4010E94960B8F3FB1F5F10106
:103A2000638174818581968102E010E020E030E0BE
:103A300042810E94960B8F3F09F5F10142814F119F
:103A400002C051E001C05FEFF101638174818581A3
:103A50009681EF2C9501840159830E94960B598120
:103A6000F101851306C083809480A580B680F28022
:103A700005C083829482A582B682F2822401350138
:103A800076946794579447940AC0C501B40124E121
:103A900030E040E050E00E94DC3E29013A01F101B3
:103AA0006381748185819681EF2C950184010419CD
:103AB00015092609370942810E94960B87FD16C019
:103AC00093018201080D191D2A1D3B1DF10163811F
:103AD00074818581968142810E94960B181634F07C
:103AE000D0920B0184E679CF8F5F77CF88EC75CFCA
:103AF000843649F1933038F527E0929FF001112484
:103B0000EA5EFE4F8091C80180838091C701818366
:103B100083829482A582B682F2829F5F90930F0186
:103B200012C034E683169104A104B10418F42401F0
:103B3000350121CFFF24FA944BCF9AE0492E512C26
:103B4000612C712C18CF2196E2E10C94603FEF922A
:103B50000F931F93CF93C42F10920F0140E00E9448
:103B6000EC130E946C1B80910F018130B1F4CC23C7
:103B7000B1F00091190110911A0120911B013091AF
:103B80001C016C2F70E080E090E0E090180143E0B1
:103B90000E94960B91E0813019F090E001C091E015
:103BA000892FCF911F910F91EF900895813138F0B7
:103BB000815115BC92E094BD87BD81E0089580E0FD
:103BC000089516BC81E085BDA99BFECF15BC82E09F
:103BD00085BB0895A4E0B0E0E0EFFDE10C94443F24
:103BE0009C838B83892B19F40FEF1FEF35C1EB8179
:103BF000FC816381748185819681A7EFEA2E0AE0BA
:103C000010E020E030E042810E94960B87FDECCF6F
:103C10000E94001580910B01813031F3EB81FC8112
:103C2000618180810E94B81440E0EB81FC81618158
:103C300080810E94EC139090D6012091D701892DAC
:103C4000806C982E206C298315BC82E084BD85E6AB
:103C500087BD18B890927C000E94EF3C9FEF9A833A
:103C6000C12CD12C7601C394412C512C32014394A8
:103C700080E090E002E310E057ED852EA895C29712
:103C800058F48091D40187B98091CD0185B984B968
:103C90000E94023D14B815B80233110558F4809102
:103CA000D30187B98091CE0185B984B90E94023DC4
:103CB00014B815B88091D30187B98091CD0185B929
:103CC00084B990927C0080927A0080917A0086FD7F
:103CD000FCCF80927A0080917A0086FDFCCFA09084
:103CE0007800B0907900298120937C0080927A003E
:103CF00080917A0086FDFCCF80927A000E94FE3C83
:103D00000E94E11D8091CE0185B984B90E94023DD7
:103D100014B880917A0086FDFCCF00917800109154
:103D200079008091D40187B98091CE0185B984B999
:103D3000898180937C0080927A0080917A0086FD50
:103D4000FCCF80927A0080917A0086FDFCCF209093
:103D500078003090790090927C0080927A00809177
:103D60007A0086FDFCCF80927A000E94FE3C0E9481
:103D7000E11D8091CD0185B984B90E94023D14B83E
:103D800080917A0086FDFCCF809178009091790037
:103D9000A50160E070E0420D531D611D711D440ED0
:103DA000551E661E771EA80160E070E0480F591F7F
:103DB000611D711DC40ED51EE61EF71E2A812150FD
:103DC0002A8321115BCF17B815B84C145D046E041B
:103DD0007F04D8F58091D9019091DA012AE0289FDB
:103DE000D001299FB00D1124A7019601241935098E
:103DF000460957090E94393FA30192010E94DC3E07
:103E00008091DD019091DE018217930720F48901F2
:103E1000081B190B1CC0EB81FC81638174818581B7
:103E200096812AEFE22E08EE13E020E030E0428196
:103E30000E94960B21E030E0181614F420E030E0E8
:103E400000271127021B130B02C00FEF1FEF80EC9E
:103E50008093A0010E940015C8012496E2E10C9411
:103E6000603FA0E0B0E0E7E3FFE10C94493FEC01E4
:103E700041E1B42E53E0A52E0E94001580910B0164
:103E8000813009F40EC118B88091D40187B915B8F2
:103E900014B88091D6010E946B138C01C12CD12CD7
:103EA0008FEFC81AD80A6B2D8091CD010E94B215F0
:103EB0008091D6010E946B130817190760F47C01EA
:103EC000E01AF10A9EE7C916D10459F48BE4E8160A
:103ED000F10490F00BC0E12CF12C8EE7C816D10450
:103EE00059F094EFC91691E0D90631F081E09CE2D7
:103EF000E91691E0F90608F080E0A8958111D0CF8D
:103F00008CE2E81681E0F80610F4AA24A39491E06C
:103F1000C916D10461F485E1E81685E0F80638F0A9
:103F20008B2D807109F4C1C039E0B32EA5CF7A2C56
:103F300093E0A912BCC0460180E090E08114910496
:103F400059F081E0881A91088091D6010E946B1384
:103F5000801B910BA895F2CF8E159F0548F4470161
:103F6000881A990A95E68916910420F0712C02C0EE
:103F7000812C912C8091D6010E946B138C018B2D8A
:103F80008071A82E19F00E94E43C02C00E94E93C16
:103F90008091D6010E946B138017910718F4081BBB
:103FA000190B02C000E010E093E079127CC062E0DF
:103FB000C4018E0D9F1D0E94CE159C01D6010E944A
:103FC000233F6B017C01AA2041F0AAE0B0E09B01F5
:103FD000AC010E94393F6B017C0188E3C81689E877
:103FE000D80681E4E806F10468F0C701B60128EEBE
:103FF00033E040E050E00E94DC3E69017A012AEFA4
:10400000922E02C097EF992EA8EEB3E0A701960179
:104010000E94393FAA2029F022E434E040E050E039
:1040200004C020E134E040E050E00E94DC3E80919A
:10403000C80188838091C70189839A82CF82D886FC
:10404000E986FA862B833C834D835E838AE0C82E03
:10405000D12CE12CF12C213095E339079CE0490764
:10406000510540F0CA01B901A70196010E94DC3E4A
:104070009394F1CFD8010E94393F28EE33E040E01D
:1040800050E00E94DC3ECA01B901B3FC939428EFD2
:10409000492D0E94FD0B6B877C878D879E8783E06F
:1040A00007C080E005C0872D03C0B2E0AB2E8A2D8B
:1040B000CDB7DEB7EDE00C94653FA4E0B0E0E3E6F9
:1040C000F0E20C944A3F4C010E94001580910B01D4
:1040D000813009F46EC015B897E097B918B880918F
:1040E000D00184B980E480937B0084E480BF809118
:1040F000D601806480937C0090937A000E94F83C03
:10410000109280001092810010928500109284001D
:1041100087E286BB8091D00185B980910B018F31F8
:1041200029F48091D3018095877002C08091D401D9
:1041300091E09093810087B900E010E081E046B300
:1041400045FD0AC040FFFBCF86BBA8950F5F1F4F00
:1041500000382CE0120799F71092810080E286BBAC
:10416000E0908600F090870014B8809184009091D0
:104170008500E816F90630F440FF04C081E086BBF4
:104180000F5F1F4F87E980937A0080917B008F7BC0
:1041900080937B008091D6010E946B135C0115B85F
:1041A0008091D00184B900388CE0180720F081E0BC
:1041B000C8C080E0C6C0C701A0E0B0E0A80160E0D0
:1041C00070E033272227282B392B4A2B5B2B2330F7
:1041D000310541055105A8F0225031094109510925
:1041E000283399E8390791E44907510550F0CA018D
:1041F000B90128EE33E040E050E00E94DC3E17EFCA
:1042000001C014EF7091E1018091A1019091A20190
:1042100061E0870F911D77FD9A9529833A834B833F
:104220005C830E94CE15DC0129813A814B815C813F
:104230000E94393F20E436E040E050E00E94DC3E3E
:10424000143F89F48091DF0190E0A0E0B0E02817EE
:1042500039074A075B0750F069017A01C81AD90A81
:10426000EA0AFB0A06C069017A0103C0C12CD12CFD
:1042700076018091C801F40180838091C701818318
:1042800012832783308741875287C382D482E58295
:10429000F682143F49F4F0EACF16F6E8DF06F1E0C3
:1042A000EF06F10460F44CC0173F09F049C081E209
:1042B000C8168EE4D806E104F10408F041C08091EC
:1042C000D6010E946B13853D9340C8F714B8109235
:1042D0009F018091D6010E946B138C0181E0809335
:1042E0009F018091D6010E946B13AC018091D00197
:1042F00084B9D801A41BB50B0091A1011091A201B2
:10430000CD010496099788F098010E94323F9A01E6
:1043100040E050E00E94FE3E8091E001820F8093D9
:10432000E0010C0D111DC7FC1A95F501E01BF10B06
:104330008F01CF01C1968336910510F4E093E1011E
:1043400083E02496ECE00C94663F6F927F929F92FC
:10435000AF92BF92CF92DF92EF92FF920F931F9393
:10436000CF93DF931F92CDB7DEB7F82E962E8FE056
:10437000489F30011124F301E55BFE4F3F0110829D
:10438000118284EF8283178210861186128613822F
:1043900014821582168213861486158616868091DD
:1043A0000B01813009F475C08A3039F0692D8F2DE9
:1043B0000E94BB220097D9F540C0F7E1CF2EF1E073
:1043C000DF2EA8E1AA2EA1E0BA2E50E080910F01C5
:1043D000581750F5F601319780818F1104C0F6010E
:1043E0009081991531F0891117C0F60180818F11E4
:1043F00013C0F6016281738184819581E12C0AE00A
:1044000010E020E030E0F501408159830E94960BD6
:1044100059818F3F09F453E65F5FF7E0CF0ED11C5F
:1044200087E0A80EB11CD2CF543699F5BFCFFC015E
:10443000228133812C3D354060F140E0692D8F2D84
:104440000E94EC13C3010E94311F823019F4C30192
:104450000E945D2090910B019431A8F4F3018281B8
:104460009A3031F48A3F7CF08BE080930B010BC0D3
:10447000853FD4F7F30183819481A581B6810597A7
:10448000A105B10588F70E94001517B818B814B82F
:1044900015B80F90DF91CF911F910F91FF90EF9082
:1044A000DF90CF90BF90AF909F907F906F900895D6
:1044B000CF92DF92EF92FF92CF93C82F15B88091E1
:1044C000CE0184B99091D30197B998B98091D70161
:1044D0000E94CC138430910500F1C090D901D09096
:1044E000DA01E12CF12C893725E0920770F0C13018
:1044F00061F414B88091D4019091D301892B87B9CC
:104500008091D7010E946B1306C020E9C20E2AE1F8
:10451000D21EE11CF11CC9EF0FC08091D10184B9FA
:104520008091D7010E94CC1320EFC22E2BE2D22E15
:1045300027E0E22EF12CC8EF17B818B814B815B858
:10454000DC0120EA36E841E050E00E94393FA70153
:1045500096010E94DC3E2093BD013093BE01409342
:10456000BF015093C001C093C101CF91FF90EF9064
:10457000DF90CF90089590911001A9E7B1E0E8E7AE
:10458000F1E0992351F02081821303C02C9162172E
:1045900031F0915036961696F4CFE0E0F0E0CF017E
:1045A0000895A0E0B0E0E7EDF2E20C944A3FA89550
:1045B0000E94001580910B01813009F4E8C018B801
:1045C0008091D40187B98091D6010E946B134C0170
:1045D0008091D00184B985B961E18091CF010E94B9
:1045E000B2158091D6010E94CC135C018091CD015F
:1045F00084B985B961E18091CF010E94B2158091A3
:10460000D6010E94CC136C018091D7010E946B13DC
:104610008C010E94001580910B01813009F4B7C014
:1046200018B88091D40187B98091D6010E946B138C
:104630007C0117B88091D30188B987B915B88091EA
:10464000D10184B960E18091CF010E94B2158091BF
:10465000D6010E94CC13EC018091D7010E946B130C
:10466000C817D90718F0C81BD90B02C0C0E0D0E0AA
:10467000C01AD10A8091CE0184B960E18091CF0146
:104680000E94B2158091D6010E94CC138C018091BA
:10469000D7010E946B13081B190B17B80C151D05C9
:1046A00038F4C601801B910B7401E501860103C03B
:1046B000C8018C199D09893E934008F068C0C63036
:1046C000D10508F464C0EC16FD0620F4CE018E1965
:1046D0009F0903C0C7018C1B9D0B23E0E216F10468
:1046E00020F08436910508F452C0C832D10538F064
:1046F000C801875991098938914158F148C015B8C6
:104700008091CE0184B98091D30188B987B9809115
:10471000D7010E94CC137C018091CD0184B9809196
:10472000D40188B987B98091D6010E94CC139C012D
:10473000C70164E170E00E94B43EC701861B970B7D
:1047400082179307A8F6E60EF71E2E153F0580F692
:104750001EC080910B01882311F08A3019F484E186
:1047600080930B018091100196E0899FF001112444
:10477000E858FE4F9091C70190839091C8019183B2
:1047800013830283D583C4838F5F80931001CDB7D9
:10479000DEB7ECE00C94663F20910C018091AD01F6
:1047A0009091AC0120FF03C0682F892F01C0692FB1
:1047B0000E94BB22892B49F010920B0110920C0130
:1047C00080910D018E7F80930D010895A0E0B0E0EF
:1047D000ECEEF3E20C944B3F282F2170922E80FFD9
:1047E00007C00091CD018091D30140E1B42E06C0F5
:1047F0000091CE018091D40131E1B32E8770A82EB3
:104800008091D801806480937C000E94F93C1AE07A
:10481000C12CD12C7601CFEFD3E0A8956B2D8091E0
:10482000CF010E94B2158091D201802B84B99920CA
:1048300021F086B18A21E9F703C086B18A21E9F324
:1048400004B980917A00806480937A0080917A0024
:1048500086FDFCCF8091780090917900992029F015
:10486000C80ED91EE11CF11C07C09E01281B390B84
:10487000C21AD30AE108F108115079F6C701B6014E
:104880002AE030E040E050E00E94FE3EA091A3010B
:10489000B091A4010E94393F20E034E040E050E0B4
:1048A0000E94FE3E3093B2012093B10180E48093D8
:1048B000A001CDB7DEB7EBE00C94673FA4E0B0E019
:1048C000E4E6F4E20C94463FB82E8091CF0121E05B
:1048D000B21220C09091D30197B998B99091CE01AE
:1048E000982B94B985B98091D7010E94CC137C0193
:1048F0008090A3019090A4018091D8010E946B1335
:10490000881A990A870120E030E0E091D901F091FE
:10491000DA0126C018B89091D40197B99091CD01D1
:1049200095B9892B84B9E090A301F090A4018091FE
:10493000D6010E94CC13E81AF90A8091D8010E948E
:104940006B134C01870120E030E0309520951095E5
:1049500001951F4F2F4F3F4FE091DB01F091DC019C
:104960008114910419F488248394912CC701881927
:104970009909B4010E94B43E6B01E12CF12CA0E135
:10498000B7E2A90198010E94393F9F012057354E97
:1049900040E050E00E94FE3E3093B2012093B1010E
:1049A00030E18316910408F07CC09091D20141E07F
:1049B000B4121DC08091CE01892B84B995B9809124
:1049C000D7010E94CC133C010091A3011091A401D6
:1049D0008091D8010E946B13F801E81BF90B430189
:1049E000A12CB12C0091D9011091DA0122C0809143
:1049F000CD01892B84B96090A3017090A4018091AE
:104A0000D6010E94CC13681A790A8091D8010E94BD
:104A10006B13FC014301A12CB12CB094A094909491
:104A20008094811C911CA11CB11C0091DB01109190
:104A3000DC01309711F4E1E0F0E0D30120EF3BE23C
:104A400047E050E00E94393F9F0140E050E00E9463
:104A5000DC3E0057154EAAE0B0E00E94393F9801B5
:104A600040E050E029833A834B835C830E94DC3E24
:104A700029013A01C216D306E406F50690F4A0E136
:104A8000B7E2A50194010E94393F29813A814B8107
:104A90005C810E94FE3E3093B2012093B10173010C
:104AA0006201C701B6012496E0E10C94623FA0E0E8
:104AB000B0E0EDE5F5E20C94453F382E8B010E9405
:104AC00060149091D20121E032122AC08091CD0170
:104AD000892B84B985B90E94EB3CC091A301D09188
:104AE000A4018091D6010E946B13C81BD90BE090E2
:104AF000A301F090A4018091D8010E946B13F701EB
:104B0000E81BF90B6E01E12CF12CA090DB01B090B9
:104B1000DC0188E49DE02DEF39E07724739423C015
:104B20008091CE01892B84B98091D7010E94CC134A
:104B3000EC018091D8010E946B13FC016E01E12C05
:104B4000F12CF094E094D094C094C11CD11CE11CD1
:104B5000F11CA090D901B090DA0180ED97E021ED31
:104B600033E062E0762E2E173F0708F0FCC08091FC
:104B70000B018E31D9F480910C01932D982311F4FF
:104B800084600CC031E033120BC09091AC01809175
:104B9000C701981305C030920B0182E080930C018D
:104BA00080910D01816080930D0105C08EE180939D
:104BB0000B0130920C010C171D0710F4C01BD10B18
:104BC000DE0120EF3BE247E050E00E94393F9F01C9
:104BD00040E050E00E94DC3EAAE0B0E00E94393F95
:104BE00020E7A21A25EEB20A4501A12CB12CA5019D
:104BF00094010E94DC3E29013A01832D0E945E242B
:104C0000461657066806790670F0A0E1B7E2A701DC
:104C100096010E94393FA50194010E94FE3E590170
:104C20006A01C1E00BC0A090B101B090B201CC24E8
:104C3000B7FCC094DC2C2B013C01C2E08091B50193
:104C40009091B601A091B701B091B8018415950576
:104C5000A605B70550F48093B9019093BA01A093CB
:104C6000BB01B093BC01D1E009C04092B9015092A0
:104C7000BA016092BB017092BC01D0E031E040E02B
:104C8000331205C06091C9018091C80104C06091D0
:104C9000C7018091C9010E94A5210E9457148091EB
:104CA0000C0182FF1EC000914E0110914F01209116
:104CB0005001309151016091C2017091C301809106
:104CC000C4019091C501E0904D014091C6010E9440
:104CD000960B813009F4DEC0832D846080930C0133
:104CE00003C0DD2309F4D6C080E00E945822409220
:104CF000B5015092B6016092B7017092B801C093AD
:104D0000AE01B092B401A092B30180914E01909196
:104D10004F01A0915001B09151018093C201909335
:104D2000C301A093C401B093C50180914D0180934C
:104D3000C6018091C9018093AB018091C701909118
:104D4000C80121E0321207C08093AC019093AD01FD
:104D5000109214019FC09093AC018093AD0181E04B
:104D60008093140197C00136110508F093C08C1789
:104D70009D0708F08FC08091D6010E946B138C01B3
:104D80008091D7010E946B139801281B390BC90130
:104D90002A3F3105C8F52FE120930B01272D24610F
:104DA00020930C0131E0731208C02091DB01309197
:104DB000DC012057354E42E007C02091D9013091E7
:104DC000DA012057354E43E0409314014AE0489FF2
:104DD000D001499FB00D11240E94233F9E0140E065
:104DE00050E00E94DC3E8091DD019091DE0182174F
:104DF000930718F4281B390B02C020E030E03093F1
:104E0000B0012093AF010FC080E280930B01872D8A
:104E1000846080930C0181E0781202C088E001C0B8
:104E200089E080931401872D0E94E62380910D0173
:104E3000816080930D018091C9018093AB019091B5
:104E4000C7012091C80131E0731205C09093AC01F5
:104E50002093AD0104C02093AC019093AD0140E0DC
:104E60006091AD010E94A52180914E0190914F016A
:104E7000A0915001B09151018093C2019093C30160
:104E8000A093C401B093C50180914D018093C601E8
:104E90000E945714CDB7DEB7E1E10C94613FA0E06A
:104EA000B0E0E5E5F7E20C944D3F8B3E914028F0F1
:104EB000E8EEEE2EFF24F39403C078E2E72EF12C07
:104EC0008091D2019091CE01892B84B98091D70134
:104ED0000E94DC136C018091D20185B98091D701C9
:104EE0000E94DC138C01C6018E0D9F1D8017910757
:104EF00008F066C08091CF0184B985B918B8809157
:104F0000D40187B98091D8010E94DC1317B8BB2463
:104F1000B3948C3B924008F0B12C8091D30187B9B7
:104F20008091D8010E94DC13EC018091D6010E948F
:104F30006B1317B88C179D0738F4C81BD90BC23CEC
:104F4000D14010F4BB24B3948091D40188B987B9BF
:104F50008091D2019091CD01892B84B915B88091AF
:104F6000D6010E94DC13EC018091D20185B98091B9
:104F7000D6010E94DC138C1B9D0BEC0118B88091AC
:104F8000D40187B98091D2019091CD01892B84B948
:104F900085B98091D8010E94DC1388349F4028F0A5
:104FA00089E180930C0184E006C0B11009C089E258
:104FB00080930C0186E0809314010C191D0963C0D5
:104FC00018B88091D40187B98091D2019091CD0118
:104FD000892B84B985B98091D6010E94DC13EC013C
:104FE0008091CD0185B98091D6010E94DC138E019C
:104FF000081B190BE80EF91EEC16FD0608F0EFC0B1
:105000008091CF0184B915B88091D40187B988B94E
:105010008091D8010E94DC137C0118B88091D301E3
:1050200087B98091D2019091CE01892B84B985B93D
:105030008091D7010E94DC13EC018091CE0185B9EB
:105040008091D7010E94DC13C81BD90B15B8809141
:10505000D30188B987B98091D8010E94DC13813DC2
:10506000934028F48AE180930C0185E00AC08DEC1E
:10507000E81680E1F80608F0B2C08AE280930C01DD
:1050800087E0809314018FE180930B0180910D01E3
:10509000816080930D014091C9014093AB018091E3
:1050A000C7019091C801C017D10728F48093AC01C3
:1050B0009093AD0104C09093AC018093AD01C80101
:1050C00062E370E00E94B43EC801861B970BC817CC
:1050D000D90750F0060F171F0C171D0728F08091F5
:1050E0000C01806480930C016091AD018091AC0152
:1050F0000E94EC138091D5019091D401892B87B93E
:105100009091CD0194B920910C0120FF13C018B8E3
:1051100095B9C091A301D091A4018091D6010E94BC
:10512000DC139E01281B390BC9014091DB01509112
:10513000DC010AC088B915B88091D6010E94DC1341
:105140004091D9015091DA014057554E9C01A0E1A0
:10515000B7E20E94233F9A0140E050E00E94DC3E0B
:105160002093BD013093BE014093BF015093C00115
:105170008AEF8093C1018091D2019091D101892B56
:1051800084B99091D30197B920910C0120FF03C0FD
:1051900015B898B902C085B918B80E94EF3C809143
:1051A000D7010E946B13EC018091D8010E946B1310
:1051B0008C1B9D0B9093B4018093B30120910C0143
:1051C00020FF0AC080549D4E813C924140F01092D5
:1051D000B4011092B30103C0813C9241C0F7CDB736
:1051E000DEB7E9E00C94693FEF92FF920F931F93B3
:1051F000CF93DF938091D8010E946B138C01809133
:10520000D7010E946B13EC0160E18091CF010E94F5
:10521000B2158091D6010E94CC137C0115B80E9472
:10522000F03C8091CD0185B98091D6010E94CC13CC
:1052300020E4E21626E0F20608F060C081339141D6
:1052400008F45CC014B815B88091D40188B90E94E4
:10525000F03C8091CD0184B98091D6010E94CC139D
:10526000853F910508F04AC060E18091CF010E941E
:10527000B2158091D6010E94CC137C018DEDE81609
:1052800082E0F80660F482E280930B0180910D01C8
:10529000816080930D018AE08093140131C0809178
:1052A000CD0185B90E94F03C15B88091D6010E94CD
:1052B000CC13853F910510F580910B01813229F4C3
:1052C00080910D01816080930D0181E280930B013B
:1052D0008BE0809314018091B5019091B6018E15F9
:1052E0009F0500F5A70160E070E04093B501509381
:1052F000B6016093B7017093B80102C080E013C09B
:105300008091C9018093AB018091C7018093AC016A
:105310008091C8018093AD010C1B1D0B1093B0014F
:105320000093AF0181E0CDB7DEB7E6E00C946C3FAF
:10533000EF92FF920F931F93CF93DF938091D6014B
:105340000E946B13EC018091D7010E946B137C01CA
:105350008091D8010E946B138C0117B88091D30102
:1053600088B99091D20195B98091CE01892B84B9E9
:1053700082E390E00E94E40E8091D30187B980918E
:10538000D7010E946B130A97F8F483E280930E0111
:105390008CE0809315018091C90180933801809140
:1053A000C701809339018091C80180933A01CE01F1
:1053B0008E199F0990933C0180933B01C01BD10B38
:1053C000D0933E01C0933D01CDB7DEB7E6E00C942B
:1053D0006C3FEF920F931F93CF93DF9380910F0158
:1053E00081117AC00E946C1B80910F01813009F0FD
:1053F00073C06091190170911A0180911B01909105
:105400001C01E12C08EB1BE020E030E0409118018A
:105410000E94960B813099F46091190170911A01E4
:1054200080911B0190911C0108E91AE320E030E013
:10543000409118010E94960B91E08F3F09F090E097
:1054400010920F01992309F447C015B88091CE013D
:1054500084B98091D30188B987B98091D7010E941E
:10546000CC13EC019091CF0195B98091CE01892B9D
:1054700084B98091D7010E94CC13C817D90760F571
:105480009C012C1B3D0B293E334030F120910E0135
:10549000243261F420910D01226020930D012091AE
:1054A0003B0130913C0182179307B0F024E2209336
:1054B0000E012DE0209315012091C90120933801A0
:1054C0002091C701209339012091C80120933A010E
:1054D00090933C0180933B01DF91CF911F910F91FD
:1054E000EF9008950F931F93CF93DF93EC01162F46
:1054F000009711F480E0D1C00E94001580910B014B
:105500008130C1F315B818B89091D301012F017003
:1055100010FF05C08091CE0184B997B905C014B8B9
:105520008091D401892B87B987E080937A0080E449
:1055300080937B008091D701806C80937C0084E411
:1055400080BF0E94F43CA8951092800010928100C8
:10555000109285001092840087E286BB9091D3015F
:10556000E12FE47012FF0BC098B980E10000815078
:10557000E9F78091810081608093810006C080916D
:10558000810081608093810098B940E050E081E023
:1055900066B365FD0AC060FFFBCF86BB4F5F5F4F00
:1055A00040345105A9F710E001C013E010928100CA
:1055B00080E286BB80918600909187002091CD018A
:1055C0003091CE01232B24B917B82091840030915B
:1055D00085008217930730F460FF04C021E026BBEA
:1055E0004F5F5F4F27E920937A0020917B002F7B4C
:1055F00020937B00112309F44CC0A0E0B0E060E0F0
:1056000070E0BA0155274427482B592B6A2B7B2B76
:10561000EE2331F0415C5F4F6F4F7F4F93E001C04D
:1056200094E0002311F083E001C081E0890F90E055
:10563000A0E0B0E084179507A607B70738F49A01F1
:10564000AB01281B390B4A0B5B0B03C020E030E099
:10565000A901A1E7B2E00E94393F6B5F7F4F8F4FF6
:105660009F4F2AE030E040E050E00E94DC3E28837B
:1056700039834A835B83002331F0223E3440410565
:10568000510530F006C0253631054105510508F4B5
:1056900012E080EC8093A001812FDF91CF911F91C8
:1056A0000F9108954F925F926F927F92BF92CF9227
:1056B000DF92EF92FF920F931F93CF93DF9300D06F
:1056C00000D0CDB7DEB76C011092E4011092E50175
:1056D0001092E6011092E7011092E801009709F498
:1056E0001BC1FC016381748185819681E12C00EDF1
:1056F00017E020E030E042810E94960B87FF0CC14A
:1057000040E0F601618180810E94EC1365E0CE01EA
:1057100001960E94722A833061F489819A81AB815B
:10572000BC8189389341A105B10528F0A5E0FA2E86
:1057300025C08111F1C061E0CE0101960E94722A5C
:105740008230B9F4F6016381748185819681E12C00
:1057500008E210E020E030E042810E94960B87FFD3
:10576000DBC062E0CE0101960E94722AF2E0FF2EB9
:1057700002C0FF24F394833009F0CEC0F6016381A8
:105780007481858196812FEF42810E94FD0B8B01F0
:105790009C018091DD019091DE010596E091D90197
:1057A000F091DA01C090DB01D090DC01CE0EDF1E5B
:1057B0006AE070E00E94B43EC60ED71EC00ED11E35
:1057C000F0FE18C020E7C21A25EED20AE057F54EC7
:1057D00089819A81AB81BC81803727E19207A1053D
:1057E000B105A0F0843D9043A105B10590F42DE2F0
:1057F00030E017C089819A818C3D25E0920760F0E6
:105800008838934160F42BEF3FEF0BC020E530E088
:1058100008C027E330E005C02AE030E002C02EECEB
:105820003FEF4091E1018091A1019091A201840F8D
:10583000911D47FD9A95442737FD4095542F280F19
:10584000391F411D511DE12CF12CC701B6010E94E9
:105850008A3E9F0140E050E00E94DC3ECA01B9014F
:1058600025E030E040E050E00E94DC3E63E0C9010A
:105870000E94CE158C0129813A814B815C8177EFA2
:10588000B72EEAE04E2E512C612C712C213A86E87D
:10589000380781E04807510560F0CA01B9016B5F24
:1058A0007F4F8F4F9F4FA30192010E94DC3EB39424
:1058B000EDCFD8010E94393F9B01AC016AE0462E32
:1058C000512C612C712C213AE6E83E07E1E04E07AD
:1058D000510560F0CA01B9016B5F7F4F8F4F9F4F39
:1058E000A30192010E94DC3EB394EDCFC701B60143
:1058F0000E948A3EB092E40120E137E240E050E0AD
:105900000E94DC3E2093E5013093E6014093E701DD
:105910005093E80181E001C080E00F900F900F905C
:105920000F90DF91CF911F910F91FF90EF90DF903B
:10593000CF90BF907F906F905F904F900895A1E0BF
:10594000B0E0E5EAFCE20C94543F89830E947918A8
:105950008981833078F4282F30E0F901EA5FFE4F27
:105960008081F901ED5FFE4F6081F901E050FF4F4A
:10597000408103C040E060E080E00E94E40460E118
:1059800088E893E10E94250C0E9479182196E2E0B4
:105990000C94703FA0E0B0E0E0EDFCE20C944F3FCF
:1059A0000E94243C87E093E00E942F180E940D186B
:1059B0000E944618CFEFDFEFD12CFF24F3948EE145
:1059C00090E00E94E40ED39488EC8D1510F42AE048
:1059D000D22EE12C4F992AC083E00E946B138C01D8
:1059E0008E2D877021F089E08E1588F014C00E94FA
:1059F0007918C801A0E0B0E026E54EEFBC01CD016A
:105A00000E940019E110EFCFCFEFDFEF04C00C17B9
:105A10001D0708F4E8018EE190E00E94E40EE39493
:105A200084E68E15B8F69CE0E92ED4CFEE2041F145
:105A300082E0F81207C0FF24F39488E08D1538F057
:105A4000F12C05C08AE08E1510F082E0F82E0E943D
:105A50007918CF3F8FEFD80781F0CE01A0E0B0E0FA
:105A600026E54EEFBC01CD010E9400190E944218AC
:105A700083E093E00E942F1802C00E944618D12CA8
:105A8000F1109DCFCDB7DEB7E7E00C946B3F1092DD
:105A900010010E94243C82ED91E00E942F1881E0C9
:105AA0000E949F2C0E9446186AE180E090E00E94CC
:105AB000250C833009F408950E94791885EB93E052
:105AC0000E942F1840E062E080E00E94A5210E9421
:105AD000791880910B018B3029F760914E017091FC
