:100000007DC2000098C2000096C2000094C20000A9
:1000100092C200000C94DD278EC20000F8C70000D9
:100020008AC2000088C200000C947E1C0C94C12778
:100030000C94CF270C94581C7EC200007CC2000098
:100040000C949A2778C2000076C2000074C20000A7
:1000500072C20000DDC700006EC200006CC200006A
:100060006AC2000068C20000705780508D4A664521
:10007000E340E83C5E3933365A33C6306D2E492CA6
:10008000532A8428DA264E25DF2389224A2120207C
:10009000081F011E091D201C431B731AAD19F118FE
:1000A0003F189517F4165A16C6153A15B31432149C
:1000B000B7134013CE126112F81193113111D310FE
:1000C00078100000140029003E00530069008000F1
:1000D0009700AE00C600DF00F80012012D014901B3
:1000E00065018201A001BE01DE01FF01210244027F
:1000F00068028E02B502DE0209033503640394032D
:10010000C803FE0337047304B404F90443059305DC
:10011000EA054906B3062907AE074808FF08DE09C5
:10012000B903870358032E030703E402C302A402A2
:10013000880254657374696E672E2E2E0077656190
:100140006B00656D707479210064616D6167656431
:1001500020007061727400547269616300546879A0
:10016000726973742E0020756E6B6E6F776E004E21
:100170006F2C20756E6B6E6F776E2C206F72006F18
:10018000722064616D61676564200054696D656FFC
:100190007574210053656C6674657374206D6F64AB
:1001A000652E2E0069736F6C6174652050726F62EA
:1001B000657321005465737420456E640053656C4B
:1001C000656374696F6E3A005472616E736973741B
:1001D0006F72004672657175656E637900566F6C5B
:1001E000746167650053686F7720646174610053C0
:1001F0007769746368206F666600662D47656E6573
:100200007261746F720031302D6269742050574DE5
:10021000004328E446292D636F7272656374696F29
:100220006E007475726E210053656C66746573742C
:100230000073686F72742050726F626573210042A0
:1002400061742E20004F4B00444320507772204DA4
:100250006F6465002D4D4F53004A464554002D49AB
:1002600047425400423D00433D00433D004E504E46
:1002700000504E5000203132333D005562653D0044
:1002800055663D002056743D004056673D002D03E5
:100290002D0043656C6C21005643433D00204553BF
:1002A000523D0020566C6F73733D004C3D00202082
:1002B00049723D004E6F742063616C6962726174B3
:1002C00065642120466F72FF63616C6962726174BC
:1002D000696F6E20636C616D70207468652033FFF8
:1002E00070696E7320746F67657468657220616EE3
:1002F000642073746172742077697468207468650F
:10030000FF6B65792E2041636B6E6F776C65646758
:1003100065207468652073656C662D746573742040
:100320007769746820746865206B657920776974D3
:1003300068696EFF32732E20446973636F6E6E6559
:1003400063742070696E73206166746572207468CE
:1003500065FF6D657373616765202269736F6C61FA
:100360007465FF50726F6265212220697320736883
:100370006F776E2E20536F66747761726520616EA1
:100380006420646F63756D656E746174696F6E204F
:1003900069732061742073766E3A2F2F206D696B1C
:1003A000726F636F6E74726F6C6C65722E206E6507
:1003B000742F7472616E736973746F7220746573D5
:1003C00074657220002D012D002D022D002040307B
:1003D0002D35560020696620007A20513D002A0103
:1003E0002020002D07062D002D77772D00566572F1
:1003F00073696F6E20312E31326B00494345303DB9
:1004000000494345733D005265663D005248663DD4
:100410000052482D0052482B002B524C2D203132D7
:10042000203133203233002B52482D2031322031FD
:10043000332032330052482F524C0052303D00528C
:10044000695F48693D0052695F4C6F3D0043302051
:1004500000433073616D702000203530487A0066AB
:100460004054503200432B455352405450313A339C
:1004700000312D07062D77772D332000312D032DE8
:100480003320005B435D005244533D001B1B1B1B8C
:100490001B1B1B0011191D1F1D1911001113171F04
:1004A00017131100000F0818080F0000001E0203A8
:1004B000021E0000041F111111111F040104100974
:1004C0000A0C66706EE46D006B4D203E3130306E6C
:1004D00046005245465F433D005245465F523D004F
:1004E000312D032D332031302D33306E46284C29E9
:1004F000002020202020205B524C5D0011241FBED4
:10050000CFEFD8E0DEBFCDBF12E0A0E0B2E001C087
:100510001D92A23CB107E1F712E0A0E0B1E0E2ECED
:10052000FCE702C005900D92A030B107D9F70E94F8
:10053000AA0C0C945F3E64CD80FD5C9A80FF5C98B1
:10054000549A00005D9A559A589859985A985B9811
:1005500064FD589A509A65FD599A519A66FD5A9AC7
:10056000529A67FD5B9A539A00005D9845D387FDC8
:1005700010C05D9A589859985A985B9860FD589A9F
:1005800061FD599A62FD5A9A63FD5B9A00005D987D
:1005900033C3089580914202809300028091A902A2
:1005A00080930202089508958DE0F0D28AE0EEC2B1
:1005B000682F80E0C1DF17C360934202813019F4D5
:1005C000862F805402C0862F8058F2CF809102027D
:1005D00060910002F1CFE8DF80EDEADF83E08093F5
:1005E000A902109242020895DFDF80E9E1DF82E094
:1005F0008093A902109242020895D6DF80ECD8DFE2
:1006000081E08093A902109242020895CDDF1092FA
:10061000A90280E8CDDF10924202089581E0C8DF90
:1006200082E0ECD2F3CF1F93182F809142028F5FAC
:100630008093420281E0612F7FDFD5D2183048F4E9
:100640001630C0F4123071F0133081F01130F1F433
:1006500007C0143E99F0143F99F01D32B9F40CC054
:100660008EE305C08CE792D28CE311C08CE78ED26A
:100670008CE70DC082E50BC08DE209C085E707C09D
:100680008FE484D288E682D28DE601C0812F7ED2AB
:100690001F9108950F931F93CF93DF938C01C0E0B8
:1006A000D0E0F801EC0FFD1FE4918E2FBCDF219606
:1006B000C830D105B1F7DF91CF911F910F91089507
:1006C00084E19CD283E374DF82E372DF82E096D21E
:1006D00080E26EDF80E26CDF8AE26ADF88E068DF5A
:1006E00086E066DF82E064DF99DF81E087D28CE01C
:1006F0005FDF88E45DDF84E994E0CCDF80E558DFEC
:100700008CE994E0C7DF88E553DF8CE894E0C2DF32
:1007100088E74EDF84EA94E0BDDF80E749DF8CEABA
:1007200094E0B8DF80E444DF84EB94E0B3CFCF9370
:10073000DF93EC01FE018491882329F0803819F0C1
:1007400072DF2196F7CFDF91CF9108950F9387E65F
:1007500092E0EDDF40918D024D3F64F460917B02A9
:1007600070917C0280917D0290917E0226E403E0EC
:10077000FAD002C08FE357DF0F910895CF93DF9334
:10078000EC0102C050DF219688818823D9F7DF91E0
:10079000CF9108958DE347CF80E245CF1F93182F67
:1007A00002C0FADF11501116E4F31F9108959091E1
:1007B000420280E1891BF2CF20DFF9DF1ECF26DF66
:1007C000F6DF24CF1F93182FF2DFEEDE8091A9020F
:1007D0008F5F8093A902823030F081E08093A9027C
:1007E0008093450202C0109245028091A902612FB8
:1007F000E3DE1F9108958F5C16CFE4DF6AC397FF95
:1008000009C08F939F938DE20EDF9F918F919095FA
:1008100081959F4F68E272E04AE050E00E940D3EF1
:10082000ADCFEDDF01C0EBDFB7CFEF92FF920F93BB
:100830001F93182F062FF42E85E792E078DFEE2421
:10084000E0914302F09144028685E81611F4812F6D
:1008500009C08485E81611F4802F04C08585E81648
:1008600011F48F2DE0DEE3948E2D833049F71F9134
:100870000F91FF90EF900895682F80E092E066233B
:1008800009F491E0623009F481E008950F93082F94
:10089000EAEAF2E0880F880FE80FF11D60817181AC
:1008A00082819381643671058105910570F42091F0
:1008B000010227FD0AC0802FDFDF692F0E943E253D
:1008C0006EEF23E044EF55D104C04FEF04E024EF76
:1008D0004AD062DF0F910895863058F4EDE9F2E0D6
:1008E000E80FF11DE80FF11D8081918163E036D1A1
:1008F00053CF08951F93182F80917602882319F003
:100900004BDF80E090DE79DE80E892E010DF812F1F
:1009100082958F70E1DF812F8F70DEDF1F91089548
:10092000CF93DF9380910D0282958F70C1E9D2E061
:10093000C80FD11D88815FDF85EC93E0F8DE8E81E2
:100940005ADF85EC93E0F3DEC1E9D2E080910D023D
:100950008370C80FD11D8E814EDF80910D02CADFDA
:10096000DF91CF910895AEE0B0E0E9EBF4E00C94B4
:10097000B53D142F422E602E9B01AC0169017A0116
:100980007FE0772E702280E389838A838B838C8338
:100990008D838E83F7FE0BC08DE245DEF094E094EC
:1009A000D094C094C11CD11CE11CF11C04C005FFF3
:1009B00002C08BE238DE83E0781609F4BAC094E016
:1009C000791639F460E1862E67E2962EA12CB12CBF
:1009D0003CC0A5E07A1641F450EA852E56E8952EE3
:1009E00051E0A52EB12C31C0B6E07B1641F440E4B5
:1009F000842E42E4942E4FE0A42EB12C26C087E032
:100A0000781641F430E8832E36E9932E38E9A32E88
:100A1000B12C1BC024E6822E912CA12CB12C15C028
:100A200085E090E0A0E0B0E0C80ED91EEA1EFB1EF3
:100A3000C701B6012AE030E040E050E00E94763D78
:100A4000C901DA016C017D011F5FC814D904EA04F1
:100A5000FB0430F7812F8F5E63E00E94433DA82E98
:100A600086E0811B0E94433DB92E8E01095F1F4F16
:100A7000C701B601A8012AE030E00E94EA3DF80172
:100A800001900020E9F731971E2F101BC12EDD24A5
:100A90008B2D90E004968C159D051CF4A39493E097
:100AA000B90EEA2DF0E0EE53FB4F549064FE05C002
:100AB000171518F4872D811B01C080E0F12EFB185B
:100AC000F80E1F1424F08EE2AEDD8B2D811BBB20AF
:100AD00011F498EFF92EEE2490E05C01AC0CBD1CF3
:100AE00006E010E0081B190B4E010894811C911CB4
:100AF000CF2CDD24C7FCD0940EC0E80DF91DE00F0B
:100B0000F11F808190DDE3948E2D90E08C159D0582
:100B100011F48EE288DDEE2DF0E0EA15FB056CF3B2
:100B2000552011F0852D7FDD442051F0842D7BDD93
:100B300007C088EE882E83E0982EA12CB12C85CF9B
:100B40002E96E0E10C94D13D0F93042F40E028E471
:100B50000ADF8AE768DD20DE0F9108950F93062FE4
:100B6000A0E0B0E0BC01CD014DEF26E5FCDE0F9129
:100B700008950F93362F542F022FA0E0B0E0BC0150
:100B8000CD01432F252FEFDE0F9108958F932F93E3
:100B90002AE080953B9A089410F4439802C0439A47
:100BA000000020D027D086952A95B1F72F918F91FC
:100BB000089503D002D001D000D000D003D002D0DD
:100BC00001D000D000D003D002D001D000D000D09E
:100BD000A89503D002D001D000D000D003D002D01D
:100BE00001D000D000D003D002D001D000D000D07E
:100BF00003D002D001D000D00000089590E0893CDD
:100C000028F0885C48EC849FC0011124009709F407
:100C1000089520918100277019F0DADF0197F6CF4F
:100C20008130910519F002973EE303C037E180E07F
:100C300090E02091B200230F2093B30042E0409354
:100C4000700027E023BF889526E023BF1092700034
:100C5000A895DCCF8F9384E0D1DF07C08F9382E02B
:100C6000CDDF03C08F9381E0C9DF8F911F93182FD1
:100C7000106410937C00E12FE07880913302E81734
:100C800059F0E0933302AEDF8EE980937A0083E07F
:100C900083BF889582E083BF20E030E0A901E0E0D7
:100CA0001FC08EE980937A0083E083BF889582E03D
:100CB00083BF6091780070917900260F371F411D26
:100CC000511DE43061F480913502803041F084E0C0
:100CD0002030380720F417FD02C01068CACFEF5F3C
:100CE00080913202E817E8F2609136027091370283
:100CF00017FF04C0609134027091350280E090E0EB
:100D00000E94243D2FEF33E040E050E00E94763D0A
:100D1000B901CA012091320230E040E050E00E9467
:100D2000763DC9011F91089589B190E023E0969521
:100D300087952A95E1F7282F2170499922608091A3
:100D40001802843050F08EE0809314022093150234
:100D50001092190281E08093180290911802E92FF5
:100D6000F0E0EC5EFD4FE081E217E1F19D5F892F3D
:100D700083709350222391F4E230D9F5E82FF0E00C
:100D8000EC5EFD4F8081833021F51EC0E82FF0E03E
:100D9000EC5EFD4F80818330E1F40BC02330C9F459
:100DA000E23051F5E82FF0E0EC5EFD4F80818823C2
:100DB00081F48091190281500AC0E82FF0E0EC5EC6
:100DC000FD4F8081882329F4809119028F5F8093E1
:100DD0001902E92FEF5FE370E0931802F0E0EC5E98
:100DE000FD4F20838091190287FD819580931A021F
:100DF0000895E13071F7CACFE13059F7DECFA0E0B6
:100E0000B0E0E5E0F7E00C94BC3D6C0153985198DC
:100E1000E4DE10921902E0911802F0E03196E370DE
:100E2000F070EC5EFD4F80EF808304E611C07CDF44
:100E30004F9906C0D6DE1F5F1931C9F7015040F443
:100E4000E60100E045E5E42EFF24BB24B39439C05D
:100E500010E0EDCF10E068DFC4DE1F5F1233D9F77A
:100E60008E2D880F4F9B8F5F3FE3E32EE8228FE3A9
:100E7000E81641F4002311F4E60104E00F5F06399F
:100E800028F021C0EE2011F40023E9F4A8951C16E7
:100E90001D0624F42A9711F4CFEFDFEF80911A0298
:100EA000882339F0F39480917702882311F4B0926B
:100EB000770284E18F1528F480911902882319F4B0
:100EC000FF24D7FFC7CF802FCDB7DEB7E9E00C9462
:100ED000D83D1F935FDB182F809145028823F1F0E6
:100EE000813049F4113039F46FE066DB8BE29BDB33
:100EF00081E06FE061DB80E49FE181DF882321F402
:100F000080911A028823B9F7113039F48091450293
:100F1000813019F460E050DB4ADC58DB1F91089502
:100F200081E090E00E94213E382F82E090E00E9414
:100F3000213E20913A02230F30913B02381F20932B
:100F40001D0230931E0283E0283E380720F0C901BD
:100F5000885E934002C080E090E062E370E00E940F
:100F60004F3D683008F067E0E0E2F1E0E60FF11D88
:100F7000E60FF11D459155912591359162E3681B6E
:100F8000421B530B649FC001659F900D112449962D
:100F900062E370E00E944F3D620F731F70937A020C
:100FA0006093790280E090E00E94213E992787FDBE
:100FB000909560913A0270913B02860F971F909333
:100FC00035028093340290937502809374020895E1
:100FD000CF93DF9324E130E0B9010E944F3DDC0163
:100FE000E2ECF0E0E60FF71FE60FF71FC591D59191
:100FF000459155914C1B4A9FC0011124B9010E9493
:101000004F3D6C0F7D1FCB01DF91CF910895189557
:1010100018951092210210921F0210926F021092E6
:101020005502109220021092410210927602109204
:101030005A0210925B0210925C0210928B0282E0C4
:1010400080938C021092010210928A0210928902FF
:1010500010927F02109280021092810210928202FE
:1010600081EF80938E020895EF92FF920F931F936A
:10107000CF93DF93E62EE82FF0E0E154FB4FE491AD
:10108000E8B9E860E7B915B8E62FF0E0E454FB4FA3
:10109000E491E4B908E813E1FE2EFF0C8E2DDADDB1
:1010A000EC01F4B88017910710F48C01F7CF00978A
:1010B000E1F08EEA92E03BDBBE0180E090E020EAC6
:1010C00036E841E050E00E94243D28E937EB40E05B
:1010D00050E00E94763DDA01C90167EF41E422E069
:1010E00048DD88E087B988B914B8CDB7DEB7E6E047
:1010F0000C94DB3D80913E02882369F483E090E00C
:101100000E94213E682F6F5F86E090E00E942E3E95
:1011100081E080933E0208951F93CF93DF93162FB3
:1011200098E097B998B9E82FF0E0E454FB4F949118
:1011300095B9262F281B332727FD3095E20FF31F83
:10114000E491E92BE4B992DDEC01812F8FDDBC0144
:10115000209136023091370236952795A9014350E8
:101160005040CE014E964817590780F4255E3F4FF8
:10117000C217D30758F4CB014E964817590730F4DD
:1011800080E06217730718F481E001C080E014B8B2
:10119000DF91CF911F9108950F931F9380E061E03D
:1011A000BBDF082F80E062E0B7DF182F81E062E04C
:1011B000B3DF100F810F1F910F9108955E9880E0AB
:1011C00090E01DCEAEE0B0E0E8EEF8E00C94B33D68
:1011D00010922102C82EDD24807F89F4DDDF833068
:1011E00009F0B4C31BDA84E991E0A1DA06DA8FE3EF
:1011F0001ADA80ED97E003DE8B30D0F414C010E0F3
:1012000000E00CDA81E392E092DAC6DF833011F07D
:1012100010E003C01F5F143058F488E2EFDC0F5F6A
:10122000063979F76CC0FAD98DEE93E080DA8EC377
:10123000E4D90E94B31F8BE394E079DA89E290E06D
:1012400060E00E942E3E8AE290E060E00E942E3E26
:1012500088E290E060E00E942E3E82E060E00E9422
:101260003E259A83898382E061E00E943E259C832B
:101270008B8381E060E00E943E258C019E838D83FC
:10128000E980FA80C7016EEF40E223E072DC8B81D7
:101290009C816EEF40E223E06CDCC8016EEF44EF0E
:1012A00023E067DC2AE5E216F10424F084E190E013
:1012B0009A83898389E290E069810E942E3E8B8126
:1012C0009C818A35910524F084E190E09C838B8396
:1012D0008AE290E06B810E942E3E8D819E818A354C
:1012E000910524F084E190E09E838D8388E290E074
:1012F0006D810E942E3E82E080934502EADD1FE070
:10130000612E712C6C207D2081E06816710409F03B
:1013100041C1B1E0AB2EB12CA2E08A2EF8E0CF2E75
:10132000E0E25E2E2EC148DA4ADA84E57CD9C501B6
:1013300071DA32DA91E0D916A9F487E094E0F7D9AE
:1013400080913A0290913B0264E008DC56D98CE02F
:1013500094E0EDD98091790290917A025BDA209243
:101360003202F4C0E2E0DE1689F560913602709137
:10137000370280E090E028E53BE140E050E00E9449
:10138000243D24EC36E340E050E00E94983D790192
:101390008A0181E085B9F5E0F4B980E05BDC8E1963
:1013A0009F099A83898321E124B980E053DC8E1957
:1013B0009F099C838B8345B834B881E04BDC8E1940
:1013C0009F099E838D8389E194E0AFC083E0D816A6
:1013D00059F585B89AE094B980E03CDC209136025A
:1013E000309137023695279538872F83821B930BD0
:1013F0009A838983E2E2E4B980E02CDC9C018F814E
:101400009885281B390B3C832B83C5B8F8E2F4B9C7
:1014100081E020DC9C018F819885281B390B3E835D
:101420002D8387E294E081C024E0D21651F484EA4F
:1014300091E07DD9B1DE882309F47CC062E0962E6C
:1014400079C085E0D81699F415B884B880E002DC3C
:101450009A838983C4B881E0FDDB9C838B8354B875
:1014600082E0F8DB9E838D8381E194E05EC096E0AC
:10147000D91639F584B885B880E0ECDB20913602C6
:1014800030913702821B930B9A838983C4B8C5B805
:1014900081E0E0DB2091360230913702821B930B12
:1014A0009C838B8354B855B882E0D4DB20913602FC
:1014B00030913702821B930B9E838D8385E194E0EC
:1014C00034C0E7E0DE1699F560913602709137027C
:1014D00080E090E028E53BE140E050E00E94243DC0
:1014E00028EB32ED47E450E00E94763D79018A0115
:1014F00085B8F3E0F4B980E0ADDB8E199F099A83DB
:101500008983C5B82CE024B981E0A4DB8E199F093A
:101510009C838B8355B880E384B982E09BDB8E1972
:101520009F099E838D8385E394E001D903C091E0F8
:10153000D91661F062D889819A8161D92DD98B81C0
:101540009C815DD929D98D819E8159D9C7B8C8B8E8
:1015500014B815B888EE93E052DCE4E0DE1611F022
:101560008B3028F49394F3E0F91508F0DCCE88EE84
:1015700093E045DC0894A11CB11C28E0A216B1043C
:1015800049F09924DA2C54E0452E44E1342E3EEB08
:10159000232EC9CE10E000DE882349F00DD984EA5D
:1015A00091E0C5D884E62ADB1F5F1837A1F736D84B
:1015B0008FE394E0BCD880913802909139026FEFAC
:1015C00044EF23E0D6DA19D886E494E0B0D88091CD
:1015D0003F02909140026FEF44EF23E0CADA82E0CD
:1015E0008093450276DC1092210218D88DE494E0B5
:1015F0009ED882E060E00E94A01C809183029091BE
:1016000084029C878B8782E061E00E94A01C80910D
:101610008302909184029E878D8781E060E00E9422
:10162000A01C80918302909184029E838D8380E030
:1016300062E00E94A01C80918302909184029C83AE
:101640008B8381E062E00E94A01C809183029091D4
:1016500084029A87898780E061E00E94A01C209123
:101660008302309184023A83298381E068167104F1
:1016700021F080913E02823029F42E5F3F4F38875F
:101680002F8307C038872F8310923E028CE00E9480
:10169000D8028B859C85C7D88D859E85C4D86D81E1
:1016A0007E81882777FD8095982F44EF26E403E01C
:1016B0005AD96E010894C11CD11C76019E01215F8C
:1016C0003F4FF701808191810A97853B9105E8F4AE
:1016D00082E090E0E80EF91EE216F30691F703E0CF
:1016E00010E0F60160816E5EC8010E942E3E82E02D
:1016F00090E0C80ED91E0F5F1F4FCE14DF0489F78C
:101700000E94FD0285E492E012D882E080934502B7
:10171000E0DB0E944D3291E06916710429F080915E
:101720003E02823009F0FBC0EE24FF242BE7C22EDC
:1017300022E0D22E6EDC0E940E0380E05CD88EE8A0
:1017400092E00E94970382E056D88AEC94E00E94CF
:1017500097031092210282E060E00E94A01C609139
:101760007B0270917C0280917D0290917E021091AB
:101770008D020BC02AE030E040E050E00E94763D50
:10178000C901DA01BC01CD011F5F173F9CF36093D3
:101790007B02F60171838283938310938D02173F3E
:1017A00009F0A6C0603671058105910508F4A0C056
:1017B000605F75458040904008F09AC060918F024C
:1017C000709190022FEF6B3672070CF491C066395E
:1017D00071050CF08DC0F39484E08F1508F089C07A
:1017E00081E090E00E943C3E0E940E0382ED94E076
:1017F0000E94970380918F029091900200D890DB15
:1018000088E088B989E087B980E284B982E02EDA7D
:10181000855D9340DCF714B81092350210923402C3
:1018200082E024DA9A838983809174029091750210
:10183000909335028093340282E018DA9C01220FE3
:10184000331F3C832B83109235021092340282E0C6
:101850000DDA9E838D83209174023091750230934E
:10186000350220933402EB80FC8069817A816E1905
:101870007F09680F791F882777FD8095982F40E0B2
:1018800050E00E94243D0027F7FC0095102FA8018E
:1018900097010E94983D022F0E94FD0289ED94E07D
:1018A0000E94970380E090E00E94213E182F1D5F68
:1018B000100F80E090E0612F0E942E3E812F99272B
:1018C00087FD90950E94FF032BDB82E08093450209
:1018D00000DB10923E028CE00E94D80283E090E090
:1018E0000E94213E682F86E090E00E942E3E17C0A5
:1018F000FF240E94FD0260917B0270917C02809126
:101900007D0290917E0240918D0226E404E02BD866
:1019100088E274D9E394F0E4EF1609F00BCF89E183
:10192000809332020E94C8320E940E038DEE93E033
:101930000E9497030E94FD0284EB91E00E949703AE
:101940001092210282E080934502C3DA2E96E2E1F2
:101950000C94CF3DA0E0B0E0E0EBFCE00C94B83D8F
:1019600080E48AB98BB916E810937A001092C1000E
:1019700025D904B784B7877F84BF88E10FB6F89470
:1019800080936000109260000FBE1093640088E3A3
:1019900080937E001092B00087E08093B10078942D
:1019A0000E94600303FF10C00E9406038BE891E0D1
:1019B0000E9497038BEC22D901DC80E090E0CDB748
:1019C000DEB7EDE00C94D43D80E185BF0E943D3050
:1019D00084E08093180210E04F9905C082E00ED990
:1019E0001F5F1C33C9F78FE59DE690931302809328
:1019F00012021F3130F080E69DE69093130280932F
:101A00001202109233020E94B31F2FE088E190E08F
:101A10000FB6F894A895809360000FBE20936000E5
:101A20001C3320F00E94492D8823E1F7F0E17F2E3E
:101A3000E6E48E2EE2E09E2E70E6A72E72E0B72E30
:101A40000E940E0388E087B9E4DA0E94B31F0E9467
:101A5000060379D580914102882371F00E94FD022E
:101A600088E992E00E9497038091360290913702B4
:101A700063E074D888ECC2D80E94FD020E94941BD7
:101A800080912102893019F50E940E0382E992E0CB
:101A90000E9497030E94FD0280910302909104022C
:101AA00063E05CD80E94CC0380910502909106020D
:101AB00063E054D80E94CC03809107029091080201
:101AC00063E04CD88AEC9AD881E17CDBA8C48CE036
:101AD0000E94D80286E090E00E94213E182F83E009
:101AE00090E00E94213E181B10933E02112319F032
:101AF0008EE00E94D80280E065DB0E94FD0282E356
:101B000091E00E94970383E041D880E061E042E0E9
:101B100068D581E060E042E064D580E062E041E0C9
:101B200060D582E060E041E05CD581E062E040E0C9
:101B300058D582E061E040E054D5809121028823AD
:101B400089F483E40E9413030E94941B82E060E006
:101B50000E94A01C82E061E00E94A01C81E060E085
:101B60000E94A01C0E940E039092440280924302A5
:101B700080912102863041F48DE591E00E94970327
:101B800083E467E441E409C08730B9F487E591E074
:101B90000E94970381E367E442E30E9415040E94D8
:101BA000FD0280E892E00E94970380914A029091A2
:101BB0004B0262E00E94AE0532C4883081F420916D
:101BC0008C0280918B0290E0820F911D029719F494
:101BD0000E946B213FC480E00E94D22020C4833049
:101BE00009F009C180911F02813009F05CC0909119
:101BF000910280919702981750F4892F0E94FB035D
:101C000085EC93E00E9497038091970208C00E94A0
:101C1000FB0389EC93E00E949703809191020E945C
:101C2000FB0380919702609191021EDA80E70E9487
:101C30007A04809197026091910240E00E943F31C6
:101C400060937B0270937C0280937D0290937E026E
:101C500080E00E94FD0360917B0270917C02809184
:101C60007D0290917E0242EF26E402E00E94B304DE
:101C70008DE20E941303809197026091910241E0EE
:101C80000E943F3160937B0270937C0280937D02BF
:101C900090937E0242EF26E40E94B3048EEC93E020
:101CA0000E94970335C4823009F046C082E30E9447
:101CB00013038EED93E00E9497038091910230917F
:101CC0009202831799F4809197020E94FB0389EC9A
:101CD00093E00E949703809191020E94FB0385ECA0
:101CE00093E00E9497038091980216C0909197020A
:101CF000209198029217A1F40E94FB0385EC93E0D7
:101D00000E949703809197020E94FB0389EC93E065
:101D10000E949703809192020E94FB0381E087CF8B
:101D2000931721F481E080930D024CC0281709F02D
:101D30004CC070920D0246C0833009F046C083E368
:101D400080930D029091970280919202981719F456
:101D500081E080930D0290919102809198029817F2
:101D600011F470920D02909197028091930298174E
:101D700019F482E080930D02909191028091990272
:101D8000981719F480E280930D0290919802809147
:101D90009302981719F482E180930D0290919202B8
:101DA00080919902981719F481E280930D02809135
:101DB0000D02823250F483E30E9413038EED93E010
:101DC0000E9497030E949004A3C382E591E00E94C1
:101DD000970386E691E00E9497030E94FD028FE739
:101DE00091E00E94970380911F02805D0E9413037F
:101DF00085EC93E00FC3843009F08EC180916F02AF
:101E0000882309F467C080915502882309F462C0D1
:101E100080915402609152020E94A01CC0907B02EB
:101E2000D0907C02E0907D02F0907E0210918D02B5
:101E300080916C0260916E020E94A01C209146026B
:101E4000309147024091480250914902243F61E09D
:101E5000360760E0460760E0560770F48091600244
:101E600090916102A0916202B0916302845F9140FF
:101E7000A040B04008F010EF8091600290916102A4
:101E8000A0916202B0916302845F9140A040B04093
:101E900040F4245F31404040504018F080EF809380
:101EA0008D0280918D02181771F480917B029091C0
:101EB0007C02A0917D02B0917E02C816D906EA0686
:101EC000FB0618F004C0181714F48DE001C08CE074
:101ED0008093200280916F02882361F080915502E7
:101EE000882341F04F9906C08091200291E0892714
:101EF00080932002809120028C3051F48DE692E094
:101F00000E94970380916F02882389F080E70DC0BB
:101F1000B0924402A092430281E792E00E949703AC
:101F200080915502882319F08EE60E9413030E94C7
:101F3000CC0320911F02A0914302B0914402E1E939
:101F4000F2E010E02EC01C969C911C9780818917AE
:101F500031F18681891719F1809120028C3049F482
:101F600020E030E09091530280915402891758F498
:101F700008C020E030E090916D0280916E029817C9
:101F800010F421E030E0E22E222319F085EC93E0FA
:101F900002C089EC93E00E949703F12E07C01F5FF7
:101FA0003196121780F2EE2464E1F62E85E462E4A5
:101FB00043E40E9415040E94FD0284E692E00E9420
:101FC0009703E0914302F091440260817181828124
:101FD00093814EEF20E003E00E94B3040E94CC0303
:101FE00089E40E941303E0914302F0914402868148
:101FF00097818051974270F085E60E941303E0912B
:102000004302F091440286819781805197429783E1
:10201000868303C083E60E9413030E94CA03E091F3
:102020004302F0914402868197816AEF41E422E005
:102030000E94B90580E00E94FD038BE792E00E94B8
:102040009703E0914302F09144028481958163E01B
:102050000E94AE05E0914302F09144028085918593
:10206000892B91F080E00E94FD038BEF93E00E94AA
:102070009703E0914302F0914402808591856AEFD5
:1020800041E423E00E94B905E0914302F09144024B
:1020900082859385892B91F080E00E94FD0381E089
:1020A00094E00E949703E0914302F09144028285FC
:1020B00093856AEF41E423E00E94B905F4E0FF153F
:1020C00008F4ADC180E00E94FD030F2D10E0EE206A
:1020D00069F00F561D4FF80180810E94FB0385ECCB
:1020E00093E00E949703F80186810CC00F561D4FA4
:1020F000F80186810E94FB0389EC93E00E9497031C
:10210000F80180810E94FB030E94CC0380E892E0EA
:102110000E9497038F2DE0C0853009F0E0C08091C8
:10212000200284FF08C080E50E941303B09244029D
:10213000A092430203C08EE40E9413038DE20E942A
:10214000130380912002182F1F70143019F489E5B1
:1021500092E013C085FF02C084E401C085E40E94C0
:102160001303133041F48EE592E00E94970385E457
:1021700067E443E407C084E592E00E94970383E5A7
:1021800067E444E40E94150480911F02813011F03D
:1021900010E018C08091200284FF09C020E030E0E8
:1021A00090916D0280916E02981758F408C020E05B
:1021B00030E09091530280915402891710F421E08D
:1021C00030E0122F8091200290E085FD2CC00E940B
:1021D000FD02E0914302F0914402848566850E94ED
:1021E000A01C0E94A60384E892E00E949703E0915D
:1021F0004302F09144028285938562E00E94AE051D
:1022000080E00E94FD0387E894E00E949703E0913C
:102210004302F0914402848195816FEF44EF22E004
:102220000E94B90531C08F709070049769F080E00A
:102230000E94E203E0914302F091440284856685A6
:102240000E94A01C0E94A60380E00E94FD0389E476
:102250000E9413030E94CA03E0914302F0914402DA
:10226000868197816AEF41E422E00E94B90589E8FE
:1022700092E00E949703E0914302F091440282852C
:10228000938562E00E94AE0580911F02813009F0C3
:10229000C6C080E00E94FD03112359F08091910295
:1022A0000E94FB0385EC93E00E94970380919702C4
:1022B0000AC0809197020E94FB0389EC93E00E9480
:1022C0009703809191020E94FB030E94CC0380E857
:1022D00092E00E94970380E00E946C04A0C00091ED
:1022E0007602002309F48AC00130B1F480915D02C6
:1022F0000E943C04282F692F80915D02813039F4BF
:1023000080911F02882319F40E949D22A3C0822F6E
:1023100040E00E94ED2183C070915D0260915E02F9
:10232000A62FB0E0AA0FBB1FAA0FBB1FA655BD4F1B
:10233000E72FF0E0EE0FFF1FEE0FFF1FE655FD4FFA
:102340002D913D914D915C9180819181A281B381CC
:1023500082179307A407B50710F4162F01C0172F93
:10236000023029F4172F1195161B1D5F20C06091B4
:102370005F02A62FB0E0AA0FBB1FAA0FBB1FA65576
:10238000BD4FE12FF0E0EE0FFF1FEE0FFF1FE655F0
:10239000FD4F2D913D914D915C9180819181A28164
:1023A000B38182179307A407B50708F4162FF12EFF
:1023B000F694112311F401E001C002E08F2D0E9478
:1023C000FB0383EE93E00E94970382E0811B0E944F
:1023D000FB0383EE93E00E949703802F0E94FB0390
:1023E00080E00E94E20380E0112309F481E00E9472
:1023F000460482E08F190E94460411C08FE691E0E6
:102400000E9497030E94FD0289E491E00E949703D5
:1024100082E591E00E94970300E41FE104C000916F
:1024200012021091130288E187B94F9BFECFC801B9
:102430000E94FF06823320F490911A02933028F014
:102440000E94492D8823E1F7FBCA882309F0F8CAC6
:10245000992369F78CE00E94D80280913E0288237C
:1024600009F453C0C0E0D0E092E0D92E3FC00491FF
:10247000003209F4C82E8F5F31968131C1F7DD201B
:1024800039F480E197E20E94FF06882309F039C001
:102490001D2D1170D0FC02C00E940E03812F60E040
:1024A0000E94DC02802F00E011C0F701149111237B
:1024B00041F11F3F19F40E94CC0303C0812F0E94F9
:1024C00013030F5F0894E11CF11C812F0C1568F3B6
:1024D0008823B9F0CC0DD11DFE01EC54FD4FE491E1
:1024E000E03209F42196D394F1E0DF2284EBE82E68
:1024F00082E0F82EEC0EFD1EF70180E000E1C02E18
:10250000B6CF80E197E20E94FF060E94DE0898CADB
:1025100080917602882309F482CF88E187B980917F
:102520001202909113020E94FF0688E087B90E9470
:102530000E0380911F02805D0E9413038EED93E0D5
:102540000E949703CCCE0F931F93CF93DF9385E028
:102550000E94360685E00E943206EC01880F991F22
:10256000880F991F8C010A561F4F10923C028E5EF5
:1025700092408959914250F088E492E00E9497037A
:102580000E94D70381E080933C0226C08FE392E053
:102590000E949703C80162E00E94AE050E94CC032E
:1025A00086E0CA3FD80790F4C353D64060F482E473
:1025B00091E00E9497030E94D7038DEC0E94FE05D4
:1025C0000E94DE0809C08DE391E002C085E492E03C
:1025D0000E9497030E94D703DF91CF911F910F9123
:1025E0000895AAE1B0E0E7EFF2E10C94B33D8E8BE1
:1025F0006F8B488FA895E62FF0E0E454FB4F3491A1
:10260000398B33964491488B588DE52FF0E0E45494
:10261000FB4F84918F879E89E92FF0E0E454FB4FB4
:10262000A491AE873396B491BD87B860BB8B4860E8
:102630004A8B85B9832B8D8B84B9B7B9ED85E8B901
:102640008F890E9432069E838D83F989F4B98F8920
:102650000E9432061C0114B80E94E80515B82D89A5
:1026600024B98F890E9432069C014D815E818417B6
:10267000950758F5205E3E4F4217530708F442C5B0
:102680005A8957B988E088B98E8585B98E859F8526
:10269000892B84B9A0913602B0913702BE83AD83F5
:1026A0008E890E943206ED81FE81E81BF90BFE83C4
:1026B000ED83FE85F4B920903602309037028E8982
:1026C0000E943206281A390A08C08D819E81805ED8
:1026D0009E4F2817390708F415C5309155022091EF
:1026E0006F02832F90E0820F911D029754F03130DA
:1026F00009F008C59091520280916C02981709F078
:1027000001C52F85220F2C8B4D815E8144375105E9
:1027100008F4BEC0CA01880F991F449628163906CE
:1027200008F0B6C05B8957B98D8588B9822F998921
:10273000892B84B98F890E942E067C01888D0E9486
:1027400036068C01AC89A5B98F890E942E069701A7
:10275000295A3D4F4C89BE854B2B2817390708F065
:1027600040C088E088B9EA89E7B944B945B9888D9D
:102770000E942E0688549F4028F085E08093210215
:1027800082E204C085E08093210284E280932002EB
:10279000F0924B02E0924A020E151F0540F4C70169
:1027A000801B910B909351028093500204C01092B1
:1027B000510210925002B70180E090E020E137E230
:1027C00040E050E00E94243D20911B0230911C0209
:1027D00040E050E00E94763D30934D0220934C0241
:1027E00088C488E088B92A8927B944B945B98E894F
:1027F0000E942E068C01888D0E9436067C013E8543
:1028000035B98E890E942E06895A9D4F80179107EF
:1028100008F078C44D8548B95B8957B9888D0E9406
:102820002E06815D934028F485E08093210282E3A7
:1028300004C085E08093210284E3809320020E157A
:102840001F0538F4E01AF10AF0926B02E0926A0276
:1028500004C010926B0210926A026091360270916D
:102860003702601B710B80E090E020E137E240E02E
:1028700050E00E94243D209122023091230240E04A
:1028800050E00E94763D3093670220936602DDC1DE
:1028900088E088B9BA89B7B9EE85E5B9FF85EF2B2D
:1028A000EC83E4B98E890E9432069A878987E0908A
:1028B0003602F0903702888D0E9436062C018A304D
:1028C000910568F514B881E00E94FE058C893E856B
:1028D000832B84B98E890E9432069A87898740911A
:1028E000360250913702481B590B5C874B87888D05
:1028F0000E9436062C018B859C857C0100E010E04F
:10290000209122023091230240E050E060E871EA19
:1029100083E09CE10E94763DC801B70110C0D70159
:10292000E985FA85AE1BBF0BBC87AB87BD01681B71
:10293000790B80E090E024E630E040E050E00E9437
:10294000243D920140E050E00E94763DC901DA0149
:102950004C015D0114B815B8FD85F8B92B8927B96C
:1029600081E00E94FE0539EB231637E0330608F0BC
:10297000C9C34D8944B98F890E9432068F559D4045
:1029800008F469C114B881E00E94FE058D8984B9FC
:1029900081E00E94FE059C89A9899A2B9B8394B9AA
:1029A0008F890E9432069A8F898F888D0E94360601
:1029B0003C018E890E9436066C01B1ED6B16B7E0C2
:1029C0007B0608F4C9C084E0809321028DE08093E7
:1029D0002002E98DFA8D2E163F0610F07F0104C00B
:1029E000E98CFA8CE218F30800E010E020911B0259
:1029F00030911C0240E050E060E871EA83E09CE125
:102A00000E94763DC801B7010E94243D930140E039
:102A100050E00E94763D79018A0180916F028823FF
:102A200079F08091600290916102A0916202B09170
:102A300063028E159F05A007B10710F020E026C0A5
:102A4000E0926002F09261020093620210936302CE
:102A5000298D3A8DB90180E090E020E137E240E035
:102A600050E00E94243D20911B0230911C0240E066
:102A700050E00E94763D3093670220936602C618AC
:102A8000D708D0926502C092640221E08091600272
:102A900090916102A0916202B0916302881599053C
:102AA000AA05BB0550F58092600290926102A09247
:102AB0006202B092630249855A85441955095093C0
:102AC000650240936402AB85BC85BD0180E090E067
:102AD00020E137E240E050E00E94243D20912202B4
:102AE0003091230240E050E00E94763D205F384D57
:102AF000309367022093660203C0222309F4C6C301
:102B0000B10180E090E020E137E240E050E00E9437
:102B1000243DE0901B02F0901C0200E010E0A801B0
:102B200097010E94763D3093690220936802ED81FF
:102B3000FE81BF0180E090E020E137E240E050E01C
:102B40000E94243DA80197010E94763D30936B02BC
:102B500020936A0221E09AC3F1E62F16310408F0AF
:102B60007AC0298D3A8D47E0213D340708F473C0BF
:102B700085E08093210282E180932002C901865082
:102B80009F4F8C159D0520F483E18093200222C085
:102B9000898D9A8D8C159D05C8F4C81AD90AB6017D
:102BA00080E090E020911B0230911C0240E050E058
:102BB0000E94243DA98DBA8D9D0140E050E00E9405
:102BC000763D309365022093640204C01092650242
:102BD000109264020A890770888D806480937C005B
:102BE00010E0E1E0CE2ED12C7FEFE72E73E0F72E40
:102BF000A8958F8561E07DD5BB81B4B986B180236E
:102C0000E9F3E989E4B980917A00806480937A00DD
:102C100080917A0086FDFCCF8091780090917900B8
:102C20009701281B390BC20ED31E1F5F1B3001F703
:102C3000C601880F991F880F991F69E070E00E94F4
:102C40004F3D70936B0260936A0280916F028F5FB9
:102C500080936F027FCF3D8934B94F8545B98F8905
:102C60000E94320698878F83888D0E9436069A8349
:102C700089830091360210913702081B190B0A3024
:102C8000110590F514B881E00E94FE058C895989E0
:102C9000852B84B98C8985B98F890E9432069887E3
:102CA0008F83888D0E9436069A838983AF81B88589
:102CB0007D0100E010E020911B0230911C0240E0F9
:102CC00050E060E871EA83E09CE10E94763DC80133
:102CD000B7010E94243D2091360230913702E981EC
:102CE000FA812E1B3F0B0DC06F817885601B710B25
:102CF00080E090E024E630E040E050E00E94243D97
:102D0000980140E050E00E94763DC901DA012C01B3
:102D10003D01FA89F7B988E088B92C8124B925B931
:102D20008E890E9432064C01888D0E9436067C01F5
:102D30008F890E9436065C0130E3831631E19306E9
:102D400008F0DDC14E8545B98E890E9432066C01BE
:102D50005E8554B98E890E9432068C0115B881E0D7
:102D60000E94FE058E8585B98E890E943206A6E0F6
:102D700000341A0708F059C08153914108F455C036
:102D8000C4018A569F4FC816D90608F04EC086E087
:102D900080932102809155028F5F80935502EA183B
:102DA000FB08F0924B02E0924A028A189B0890922C
:102DB00051028092500214B815B8E889E8B981E050
:102DC0000E94FE05FE85F4B98E890E943206853F79
:102DD000910508F06CC22C8124B9888D0E943206BE
:102DE000815D934008F463C28E890E9436068D5D32
:102DF000924008F45CC25E8554B98E890E94320606
:102E00008D5D924008F453C2BE85B5B981E00E9441
:102E1000FE0515B88E890E943206853F910508F09F
:102E200046C287E08093210242C2EC81E4B9E5B951
:102E300081E00E94FE05FC88FE85FF2AF4B8F5B803
:102E40008E890E9432068C01209136023091370221
:102E5000281B390B3A8F298F888D0E9436065C011A
:102E6000C0903602D0903702C81AD90A8F890E94C2
:102E700036064C013EEFC31639E0D30608F4CAC04B
:102E800084E0809321028CE080932002498D5A8D4A
:102E90002416350610F07A0104C0E98CFA8CE21889
:102EA000F30800E010E0209122023091230240E07C
:102EB00050E060E871EA83E09CE10E94763DC80141
:102EC000B7010E94243D960140E050E00E94763D0B
:102ED00079018A0180915502882379F08091460218
:102EE00090914702A0914802B09149028E159F052A
:102EF000A007B10710F020E026C0E0924602F09251
:102F000047020093480210934902A818B908B092EA
:102F10004B02A0924A02A98DBA8DBD0180E090E0DB
:102F200020E137E240E050E00E94243D209122025F
:102F30003091230240E050E00E94763D30934D02F4
:102F400020934C0221E08091460290914702A0918B
:102F50004802B091490284159505A605B70550F5BC
:102F60004092460250924702609248027092490293
:102F7000E981FA812F813885E21BF30BF0934B0234
:102F8000E0934A02B90180E090E020E137E240E0BE
:102F900050E00E94243D20911B0230911C0240E031
:102FA00050E00E94763D205F384D30934D022093D3
:102FB0004C0203C0222309F47BC1B10180E090E000
:102FC00020E137E240E050E00E94243D20911B02C6
:102FD00030911C0240E050E00E94763D30934F0259
:102FE00020934E024D815E81BA0180E090E020E1A5
:102FF00037E240E050E00E94243D209122023091CF
:10300000230240E050E00E94763D3093510220932D
:1030100050024DC151E62516310408F070C0898D6B
:103020009A8D89549D4008F46AC085E080932102FE
:1030300082E080932002C40186509F4F8017910741
:1030400020F483E08093200220C080169106C8F40B
:1030500008191909B80180E090E02091220230910E
:10306000230240E050E00E94243DE98DFA8D9F014B
:1030700040E050E00E94763D30934B0220934A029C
:1030800004C010924B0210924A020B890770888D7F
:10309000806480937C0010E051E0C52ED12CA8956F
:1030A0008F8560E026D3F4B8F5B886B18023E9F7C0
:1030B000FE85F4B980917A00806480937A008091D3
:1030C0007A0086FDFCCF8091780090917900C80E3F
:1030D000D91E1F5F1B3019F7C601880F991F880F73
:1030E000991F69E070E00E944F3D70935102609318
:1030F0005002809155028F5F80935502D8C088E0BE
:1031000087B988B914B815B888E087B927EC2216B2
:1031100021E0320608F4AEC088B910E00A893B8984
:10312000032B07B981E00E94FE054A8947B98E89C1
:103130000E943606429718F01F5F183C91F70989E4
:10314000000F1E85110F14B915B98F8561E0D1D21A
:103150008E890E9432066C0104B915B85B8957B993
:103160008D8588B98F8560E0C4D2809036029090BA
:1031700037028F890E9432065C01998994B98E8941
:103180000E9432063C018F890E943606681A790A2D
:1031900088E088B9AA89A7B9BE85B4B9B5B98F85C1
:1031A00061E0A7D28E890E9432067C018F890E943D
:1031B0003606E81AF90A6E147F0440F414B915B9FA
:1031C0008E890E9432068C01370115C06401CA182D
:1031D000DB0804B915B8EB89E7B9FD85F8B98F8527
:1031E00060E087D200913602109137028F890E94E9
:1031F0003206081B190BC301875990408958914129
:10320000C8F506151705B0F5C60133E09695879504
:103210003A95E1F7893C910510F088EC90E08C0D2F
:103220009D1D8615970530F5C30124E09695879579
:103230002A95E1F78C159D05E8F4809121028330F1
:1032400018F483E08093210280911F02E82FF0E0C0
:103250009F012F563D4F4E89D9014C935F89169699
:103260005C93EE0FFF1FE356FD4F718260828F5F0C
:1032700080931F028E896F892CD088E087B988B926
:1032800014B815B86A96E2E10C94CF3D80916F02B4
:103290008F5F80936F02222381F3888D80936C026D
:1032A0009F8990936D02AE89A0936E02E6CF21E0D4
:1032B000809155028F5F809355022223F1F2B88DE1
:1032C000B0935202EE89E0935302FF89F0935402C7
:1032D000D4CFA0E0B0E0EFE6F9E10C94B53D782E54
:1032E000662EA895E62FF0E0E454FB4FB490339699
:1032F0003491E82FF0E0E454FB4F04913396F490BE
:103300002091550280916F0290E0820F911D892BD0
:1033100009F0EAC1A8958091250290912602880FB4
:10332000991F880F991F90933702809336028091DE
:10333000740290917502880F991F880F991F9093BE
:103340003502809334028EEB8093320288E088B994
:10335000386037B904B905B911E0C0E0D0E0862D76
:103360000E943206582E492E872D0E9436066C0187
:103370008C1B9D0B97FF03C0909581959F4F0397E2
:1033800064F4102F110F15B814B9872D0E9432065E
:103390008135910508F095C107C0A8951F5F1931C7
:1033A00009F48FC1E601DBCF15B9872D0E943206E3
:1033B0004C018F2D886087B9F8B815B8B4B811E002
:1033C000C0E0D0E0872D0E943206082FA92E862D5E
:1033D0000E9436067C018C1B9D0B97FF03C09095C5
:1033E00081959F4F039764F4BB0CB4B8862D0E945F
:1033F0003206EC0120ECC21624E4D20640F00EC0E6
:10340000A8951F5F193109F45CC1E701DBCF35E8EE
:10341000831631E0930608F054C106C040EB8416D1
:103420004DE4940608F04DC154EAE51652E0F50665
:1034300008F06CC0C839D10508F443C1E0903602E9
:10344000F0903702B40180E090E028E937EB40E0EB
:1034500050E00E94243D97012819390940E050E0CE
:103460000E94763D59016A01EC1AFD0A00E010E065
:10347000C801B70128E937EB40E050E00E94243D45
:103480009E0140E050E00E94763DB901CA01A8E7E4
:103490008A16AFE09A0640F4F2E0AA0CBB1CCC1CE2
:1034A000DD1CFA95D1F70AC0C857DF40B0F4E2E05E
:1034B000660F771F881F991FEA95D1F76A0D7B1D4C
:1034C0008C1D9D1D25E030E040E050E00E94763DDF
:1034D000C901DA01BC01CD0108C06A0D7B1D8C1D3C
:1034E0009D1D969587957795679524E630E040E099
:1034F00050E00E94243D7B018C012CEA3DE040E03D
:1035000050E0E20EF31E041F151F77C0852D942D89
:103510009C01A901C216D30608F4A601802F9A2D9A
:103520009C0189012E153F0508F487014A014C15BD
:103530005D0508F44601B401641B750B80E090E062
:10354000209122023091230240E050E00E94243D6D
:1035500020913602309137022819390940E050E0B5
:103560000E94763D59016A01E801E016F10608F46F
:10357000E7010C1B1D0BB80180E090E020911B02BD
:1035800030911C0240E050E00E94243D9E0140E04A
:1035900050E00E94763DB901CA0138E783163FE04A
:1035A000930640F442E0AA0CBB1CCC1CDD1C4A95DF
:1035B000D1F70AC0C857DF40B0F432E0660F771F7A
:1035C000881F991F3A95D1F76A0D7B1D8C1D9D1D93
:1035D00025E030E040E050E00E94763DC901DA018C
:1035E0007C018D010AC07B018C01EA0CFB1C0C1DC7
:1035F0001D1D16950795F794E7948090210253E0DE
:10360000581508F45EC0972C9A94960CC92DD0E0FA
:10361000DE01A65ABD4F8C91FE01EE0FFF1FEE0F8B
:10362000FF1F882309F445C0E655FD4FA080B180F7
:10363000C280D380C801B7016A197B098C099D0932
:1036400097FF07C090958095709561957F4F8F4F3C
:103650009F4F2AE030E040E050E00E94243D24E605
:1036600030E040E050E0A20EB31EC41ED51EAE0CEA
:10367000BF1CC01ED11EA60195010E94763D2115DA
:10368000310541055105E9F433E0831619F081E075
:1036900080932102C65ADD4F82E0888380917602B2
:1036A000E82FF0E0E35AFD4F90828F5F809376021F
:1036B00008C0E655FD4FE082F1820283138381E06A
:1036C0008C938091250290912602909337028093EB
:1036D0003602809174029091750290933502809326
:1036E000340289E180933202CDB7DEB7E0E10C9479
:1036F000D13D1F93182F60FF03C085B1812B03C0FC
:1037000095B18095892385B984B1812B84B982E0F4
:103710000E94FE0584B1912F9095892384B985B1CB
:10372000982395B91F910895A0E0B0E0EAE9FBE184
:103730000C94BB3DDD2428E0C22E9FE3A92E89E036
:10374000B82EC7B8C8B815B8A4B880E00E94320631
:10375000EC0181E00E9436068C0182E00E94360670
:103760009C0180912102893049F0C430D105B0F428
:1037700004301105C0F424303105A8F488E087B97D
:1037800014B8D0930402C09303021093060200936E
:10379000050230930802209307024BC0C85ED34055
:1037A00010F088E001C089E0085E134008F48260F0
:1037B000285E334008F4846087B900E010E0A895E3
:1037C00080E00E942A067C0181E00E943606EC011E
:1037D00082E00E94360624E1E21625E0F20608F4B3
:1037E000389A25E0C431D20708F4399A25E08431AB
:1037F000920708F43A9A26E0E216F10420F426979C
:1038000010F4069740F00F5F1F4F81E0043F180748
:10381000B1F6B0922102C0E0D0E003C00E94ED05F5
:103820002196C017D107D0F3D3949AE0D91609F0A6
:1038300088CFCDB7DEB7EAE00C94D73D1F936091F7
:103840007B0270917C0280917D0290917E021091AA
:103850008D020AC02AE030E040E050E00E94763D50
:10386000C901DA01BC01CD01212F1F5F613A36E8A1
:10387000730731E0830730E0930760F720938D02F0
:10388000209136023091370240E050E00E94243D02
:1038900028E833E140E050E00E94763D20937B022F
:1038A00030937C0240937D0250937E021F910895D5
:1038B0001F920F920FB60F9211248F939F93B59979
:1038C00004C080917802882349F4B59B10C0809190
:1038D0008600909187008A3F910548F480915802B4
:1038E00090915902019690935902809358029F91AA
:1038F0008F910F900FBE0F901F9018951F920F92EF
:103900000FB60F9211248F939F9310927802B09B61
:1039100010C080918600909187008A3F910548F4FD
:103920008091580290915902019690935902809388
:1039300058029F918F910F900FBE0F901F90189576
:10394000A0E0B0E0E6EAFCE10C94B93D982E862EAA
:10395000C82EDD24262F2150C601880F991F8C0DFB
:103960009D1D280F20935702F601E454FB4FB4909D
:10397000262F30E0C90184549B4FFC01149121543F
:103980003B4FF901449180912102813009F4B7C283
:1039900030911F02E1E9F2E0DF011C9620E010C047
:1039A0008681881551F48081891539F48D919C9117
:1039B00011978C5D954008F4A2C22F5F3196129644
:1039C000231770F3042F0860109288021092870268
:1039D00081EF80938D0210927B0210927C021092F4
:1039E0007D0210927E02A0DE88E088B907B914B982
:1039F00015B9892D0E9436067C01882D0E94360655
:103A0000E81AF90A14B81092590210925802C0E04C
:103A1000D0E027C0B5B8B4B80E94E70514B815B80F
:103A20000E94EE05A895892D0E943606EC01CE195C
:103A3000DF0980915802909159028E37910520F04C
:103A4000CB34D1050CF456C281E0CD32D807ACF4AA
:103A50008091580290915902019690935902809357
:103A600058028091580290915902845F914090F2DF
:103A7000F1E0CD32DF070CF43DC280915802909105
:103A80005902892B89F425E0C531D2076CF091C029
:103A90000E94E805892D0E943606BC016E197F0937
:103AA000A8950F5F1F4F03C0BE0100E010E080919A
:103AB0005802909159028017910750F76E01C61A6B
:103AC000D70A1C141D041CF0AA24BB2418C039EC0E
:103AD000C316D1040CF00EC2B601882777FD80957D
:103AE000982F28EE33E040E050E00E94243D9E01F4
:103AF000442737FD4095542F0E94763D5901E090B0
:103B00005802F09059020894E11CF11C00E010E00A
:103B1000E0928302F0928402009385021093860261
:103B2000C6018C0F9D1FF0D1A0E0B0E0BC01CD011B
:103B3000A80197010E94243D609383027093840240
:103B4000809385029093860260937B0270937C023F
:103B500080937D0290937E0287EF80938D026EDECC
:103B600086E290E00E94213E282F332727FD3095E2
:103B700068EE73E0621B730B882777FD8095982FA2
:103B800020917B0230917C0240917D0250917E0217
:103B90000E94243D24E630E040E050E00E94763D63
:103BA00020937B0230937C0240937D0250937E02EF
:103BB0005FC11B2D110FB8DD15B88FE087B988E004
:103BC00088B914B980E480937B0084E580BF892D97
:103BD000806480937C0086E180937A000E94F105E6
:103BE0001092590210925802109280001092850093
:103BF0001092840087E286BB81E280936F0091E09F
:103C00009093780215B980912102853071F49093D8
:103C1000810081E090E00C2C02C0880F991F0A946B
:103C2000E2F780958F7087B903C09093810007B940
:103C3000F89483B7817F83BF11C083B7816083BF4E
:103C40007894889583B78E7F83BFF894A8958091E8
:103C50005802909159028054964021F08091780248
:103C6000882359F7789410928100C0918600D091F2
:103C7000870010926F0086E980937A0014B815B817
:103C8000892D0E94360620913A0230913B02821B18
:103C9000930B0C969093900280938F028091580220
:103CA000909159028052934008F024C180915802AB
:103CB000909159029093860280938502D09384025A
:103CC000C093830284EF80938D028091580290917B
:103CD000590282349105C8F0609183027091840288
:103CE000809185029091860224E630E040E050E029
:103CF0000E94763D20938302309384024093850294
:103D00005093860286EF80938D02609179027091C4
:103D10007A0280E090E02091830230918402409109
:103D20008502509186020E94243D20E233E040E06B
:103D300050E00E94763D20938302309384024093AA
:103D4000850250938602EBE7F2E020937B023183F9
:103D50004283538373DD80918D02843F09F078C0E4
:103D6000E0907B02F0907C0200917D0210917E0237
:103D700080EAE8168FE0F80680E0080780E0180780
:103D8000C0F4A80197012C543F4F4F4F5F4F60EA9A
:103D90007FE080E090E00E94763DE20EF31E041F7B
:103DA000151FE0927B02F0927C0200937D0210933B
:103DB0007E02E0907B02F0907C0200917D021091E7
:103DC0007E02E0E0EE16E0E0FE06E1E00E07E0E055
:103DD0001E0728F4F092BB02E092BA0206C081E00E
:103DE00090E09093BB028093BA028091570290E0DA
:103DF0008D5F9F4F0E94213E90E0A0E0B0E08E15C5
:103E00009F05A007B10768F4E81AF90A0A0B1B0B13
:103E1000E0927B02F0927C0200937D0210937E027E
:103E200017C024E130E040E050E0E20EF31E041F32
:103E3000151FE816F9060A071B0710F40E947A08F6
:103E400010927B0210927C0210927D0210927E02F0
:103E5000B4B880917B0290917C02A0917D02B091D8
:103E60007E024997A105B10508F444C0AA24BB24E9
:103E700080911F02882321F0809121028530D1F5A5
:103E800088E08093210260918D0280918E028617D6
:103E9000BCF0681779F520917B0230917C0240914B
:103EA0007D0250917E0280917F0290918002A091CC
:103EB0008102B091820282179307A407B507D0F45C
:103EC00080917B0290917C02A0917D02B0917E0254
:103ED00080937F0290938002A0938102B09382022C
:103EE00060938E02B0928A02A092890280928B0225
:103EF00090928C0288E087B988B914B815B8CDB70C
:103F0000DEB7ECE00C94D53D0F9221E08C329207A5
:103F100010F48CE291E08C52914069E170E00E94D3
:103F20004F3D99E16B3210F0982F6BE2981BE8E659
:103F3000F0E0E60FF11DE60FF11D45915591259139
:103F40003591692F421B530B649FC001659F900DF3
:103F500011240C9669E170E00E944F3D620F731FBF
:103F6000CB010F9008952F923F924F925F926F92E4
:103F70007F928F929F92AF92BF92CF92DF92EF92F9
:103F8000FF920F931F9388E893E19093260280930A
:103F9000250290933702809336028EEB8093320293
:103FA00018E018B988E187B90E94F60517B984E0CE
:103FB0000E9432068C018B5C9840835F9140C0F474
:103FC00081E080934102609136027091370280E077
:103FD00090E02FEB39E040E050E00E94243D980152
:103FE00040E050E00E94763D309326022093250267
:103FF0008091250290912602909337028093360299
:104000008EE00E9436068EE00E94320690933B02BC
:1040100080933A020E94900787DB68E0862E88B87A
:1040200059E0F52EF7B885E185B9EE24E394E4B8BC
:1040300080E00E9432066C011AE017B944E0B42E09
:10404000B4B881E00E9432063C010CE007B930E1CF
:10405000932E94B882E00E9432066C0C7D1C680E90
:10406000791E15B8F8B8F7B8E4B840903602509009
:10407000370280E00E9432061C0118B917B9B4B8A3
:10408000A0903602B090370281E00E9432067C0197
:1040900008B907B994B8009136021091370282E04E
:1040A0000E943206A40CB51CA00EB11EA81AB90AB3
:1040B000AE18BF08A218B30887B888B814B88091A2
:1040C0003602909137027C01EE0CFF1CE80EF91EBF
:1040D000E618F708EA18FB0800E010E088249924A5
:1040E000C401B30120E93AE140E050E00E94243DE0
:1040F000A80197010E94763D490130934002209328
:104100003F02CC24DD24C601B50120E93AE140E0BC
:1041100050E00E94243DA80197010E94763DC9010C
:1041200030933902209338028057954E90932302A2
:104130008093220280E99AE1880E991E90921C02D7
:1041400080921B0289E1809332021F910F91FF90B0
:10415000EF90DF90CF90BF90AF909F908F907F9027
:104160006F905F904F903F902F900895982F8F30D1
:1041700031F480913C02813011F480E00895892F60
:104180008F5F089590E08F709070892B51F488ECC8
:104190000E94FE050E94FD020E94A31288EC0C946E
:1041A000FE050895EF92FF920F931F93E82E0E9451
:1041B000060380918B020E94FB038EE892E00E942E
:1041C000970304D680918C0260918B0257D4909310
:1041D00088028093870210E08A5F9F4F08F411E005
:1041E000FF248091890290918A02892B11F0FF248B
:1041F000F394112371F0FF2041F080E090E0EE2075
:1042000011F081E090E0882321F084EE93E00E9499
:10421000970380918C020E94FB03EE2059F090914D
:1042200042028DE0891B0E94CE0383E894E00E9445
:10423000970315C08091890290918A02892B69F0B9
:1042400083EA92E00E9497038091890290918A020A
:104250006FEF45E222E00E94B9050E94D7030E9459
:10426000FD0260917F0270918002809181029091A5
:10427000820240918E0226E404E00E94B3041123DE
:1042800069F08DE992E00E949703809187029091F6
:1042900088026EEF44EF22E00E94B9050E94D70326
:1042A000EE2091F0FF2081F080E00E94FD0384EA7F
:1042B00092E00E9497038091890290918A026FEFA9
:1042C00045E222E00E94B9050E94D7031F910F9199
:1042D000FF90EF900895EF92FF920F931F9310E0DD
:1042E00098E0E92E82EFF82E0DE001C010E00E9468
:1042F000090882E060E024DBE092210280918D02D7
:10430000843FE1F480917B0290917C02A0917D0238
:10431000B0917E0284369105A105B10578F482E062
:1043200060E040E00E943F3160937B0270937C022A
:1043300080937D0290937E02F0928D0280918D0297
:10434000823FACF080938E0280917B0290917C0240
:10435000A0917D02B0917E0280937F0290938002B3
:10436000A0938102B093820281E01CDF18C00E94FA
:1043700006038CE794E00E94970380914202902FFD
:10438000981B892F0E94CE0383E894E00E94970334
:104390000E94FD028FE30E9413030E94D703812F26
:1043A000F1DE80ED97E00E94FF06882379F480918A
:1043B0001A02843058F41F3029F480913C02813075
:1043C00009F494CF1F5F1A3F08F491CF0E940E03A7
:1043D0001F910F91FF90EF900895FF920F931F93FD
:1043E000182F062FF42E0E94FB0383EE93E00E9409
:1043F0009703E6D0812F602F0E94333410E0809124
:10440000BE029091BF02A091C002B091C10200977C
:10441000A105B10509F411E08091010287FD02C0F8
:10442000112321F489EE93E00E949703802F0E94CC
:10443000FB03112331F40E94CC0380915D020E94A2
:104440004604FF2049F0809142028D3028F490E02C
:1044500085519B4F0E94970380E00E94FD0311232A
:10446000D9F46091BE027091BF028091C002909118
:10447000C10247EF28E403E00E94B30484ED93E017
:104480000E9497038BE290E00E94293E64EF46E48D
:1044900022E00E94B9051AC080915D020E94460484
:1044A000809101028E3F94F48BEA92E00E94970380
:1044B0006091090270910A0280910B0290910C02A6
:1044C0004091010228E403E00E94B3048091B60207
:1044D0009091B702A091B802B091B9020097A105DE
:1044E000B105F1F080E00E94FD036091B602709189
:1044F000B7028091B8029091B90240E028E404E04C
:104500000E94B30489ED93E00E9497038091BC025E
:104510009091BD026FEF40E223E00E94B90507C011
:1045200080E00E94E20380914502882311F40E94FA
:10453000D7031F910F91FF9008951F9381E794E097
:104540000E94922D10E00E94090882E060E00E9423
:10455000691980E062E00E9469190E940603809157
:104560007602882329F080E062E041E036DF0FC068
:1045700081E794E00E94970385EF94E00E949703FF
:104580000E94FD028FE30E9413030E94D703812F34
:10459000F9DD88EE93E00E94FF06882369F480919C
:1045A0001A02843048F41F3021F480913C0281309B
:1045B00049F21F5F1A3F38F20E940E031F910895BF
:1045C000A6E1B0E0E6EEF2E20C94B33D82E0809327
:1045D000010280912102813009F04CC28091760263
:1045E000813009F047C220915D022C8BE22FF0E070
:1045F000EE0FFF1FEE0FFF1FE655FD4F80819181EB
:10460000A281B381893032E5930730E0A30730E01F
:10461000B30708F02FC29E8B8D8B1B8A8B8982304B
:1046200030F48C890E943C04F82ED92E05C08C8968
:104630000E943C04F92ED82EED2DF0E0E154FB4F02
:10464000A490EF2DF0E0E454FB4F849115B898E06E
:1046500098B9AD89BE89A03FB105B8F4BB89B0FD5A
:1046600014C040901B0250901C0220E735EE420E11
:10467000531E81E090E00F2C02C0880F991F0A940E
:10468000E2F788608A2987B908C084B98A2D8860D2
:1046900087B940901B0250901C02EE248F2D0E947F
:1046A0002E068C018D2D0E9436060430110510F463
:1046B000049720F0E39434E1E31681F780E48093DB
:1046C0007B0094E590BF8F2D806480937C00A6E1F1
:1046D000A0937A00109280001092850010928400BE
:1046E000B7E2B6BB0E94F1052B89222E3324C1010B
:1046F000817090709A8B898B20FD05C091E8909312
:104700008100A8B808C0A8B80E94FA05A0E2A6BB1C
:10471000B1E8B093810020E030E086B3482F85FFF8
:1047200002C049010DC080FFF8CF81E086BBA8958B
:104730002F5F3F4F2035310581F7F0E58F2E912C0B
:1047400098E098B910928100A0E2A6BB2091860063
:10475000309187003901809184009091850028175D
:10476000390738F440FF05C0B1E0B6BB0894811C9E
:10477000911C26E920937A00EE248F2D0E942E06AC
:104780008C018D2D0E9436060430110510F404971B
:1047900020F0E39434E1E31681F720913F02309159
:1047A00040028D899E89280F391F240D351DE09107
:1047B0001D02F0911E0290E949169AE15906C8F4CB
:1047C000A1EE6A1671048104910410F089E107C01A
:1047D000C30165E070E00E944F3D862F8451BF0108
:1047E00068527040992787FD9095681B790B86E089
:1047F0000AC0C90160EB76E30E944F3D862F895FB6
:10480000BF01685D7F4F90E0A0E0B0E0861597059E
:10481000A805B90528F4681A790A8A0A9B0A03C010
:1048200066247724430189899A89892B41F082E2A1
:1048300090E0A0E0B0E0680E791E8A1E9B1E90E515
:104840008916910418F0662477244301ABE06A16B8
:1048500071048104910428F00894610871088108AA
:1048600091085901CC24DD2480E090E028EE33E06B
:1048700040E050E00E94243D7B018C01B20180E0C9
:1048800090E0209136023091370240E050E00E94E3
:10489000243DA60195010E94763D40E050E0C8010C
:1048A000B7010E94763DDA01C9010E94E8077C0148
:1048B000C601B501A40193010E94243D5B016C0176
:1048C00000E010E0E3E0EE0CFF1C001F111FEA9572
:1048D000D1F785E090E0A0E0B0E0E80EF91E0A1FF5
:1048E0001B1FC801B7012AE030E040E050E00E9401
:1048F000763D40E050E0C601B5010E94763DF101F1
:10490000EE0FFF1FEE0FFF1FA1E0B0E0AC0FBD1FC9
:10491000EA0FFB1F208331834283538389899A895D
:10492000892BA9F49CE0691671048104910478F044
:10493000F1013196EE0FFF1FEE0FFF1FEA0FFB1F75
:104940002083318342835383AB89AF5FAB8BA895C0
:10495000BB89BF5FBB8BB43008F460CE88E088B9F8
:1049600084E00E94FE0570E02D813E814F815885D4
:1049700089819A81AB81BC8182179307A407B5070F
:1049800008F471E02D853E854F85588989859A8583
:10499000AB85BC8582179307A407B50710F463E0C5
:1049A00001C062E0E62FF0E0EE0FFF1FEE0FFF1FE9
:1049B000DE011196EA0FFB1F872F90E0880F991FE9
:1049C000880F991FA80FB91F20813181428153811F
:1049D0008D919D910D90BC91A02D281739074A0704
:1049E0005B0708F4762F872F90E0FC01EE0FFF1F86
:1049F000EE0FFF1FEC0FFD1F418152816381748117
:104A00004093090250930A0260930B0270930C02C8
:104A10002BEF2093010280FD05C02D893E89203FA8
:104A20003105B8F08CEF809301024B5F5F4F6F4F01
:104A30007F4FCB01BA012AE030E040E050E00E9415
:104A4000763D2093090230930A0240930B02509363
:104A50000C028091090290910A02A0910B02B09180
:104A60000C020097A105B10511F41092010288E033
:104A700087B914B86696E2E10C94CF3DAEE1B0E0A0
:104A8000E4E4F5E20C94B33D662EB82E860F8983DC
:104A900020912102283059F520917F023091800227
:104AA000409181025091820257FD15C010918E02F3
:104AB00009C0CA01B9012AE0312D412D512D0E94B2
:104AC000763D1F5F173FACF391F4243160E0360769
:104AD0004105510518F48FEF9FEF45C1173F39F499
:104AE00080E028178DE738074105410510F020E0E8
:104AF0003DE72C8B3D8B26EDA22EEFEBF4E0E60D8F
:104B0000F11D859188608E87EFEBF4E0EB0DF11DD0
:104B1000859188608F87ECEBF4E0E60DF11D7590D0
:104B2000ECEBF4E0EB0DF11DC59090EC692AB92A8D
:104B300081E0E82EF12C012D112D8E831F82188625
:104B400019861A861B861C861D86188E198E1B8E4A
:104B50001A8E0E94941B88E088B960927C000E94A3
:104B6000F2053F8537B975B874B852E05A95F1F738
:104B70000000000014B815B8DD243E8537B975B8BB
:104B800074B860927C00A895A0927A0080917A0017
:104B900086FDFCCF2090780030907900B0927C00A8
:104BA0004C2DE5D02091780030917900288B398BFD
:104BB0003F8537B9C5B8C4B8A895B0927C00A0921B
:104BC0007A0080917A0086FDFCCF60917800709128
:104BD000790060927C00472DCAD0409178005091B6
:104BE000790014B8CB01820D931DE80EF91E011D4A
:104BF000111DEA82FB820C831D8388899989840FA9
:104C0000951F2E813F8168857985280F391F611D89
:104C1000711D2E833F836887798722E32417150649
:104C200050F075B874B80E94FC0514B815B8888D9A
:104C30008395888F07C0483E73E0570718F08A8D28
:104C400083958A8F888999892817190660F03E858F
:104C500037B9C5B8C4B80E94FC0514B815B8898D19
:104C60008395898F07C0883E73E0970718F08B8D76
:104C700083958B8FD3945D2D5F3F49F05F3731F47F
:104C80005C2D550FC50E572D550F750E76CF4090E4
:104C90003F0250904002440C551C9201E4E0240D68
:104CA000351DEA95E1F72901570168016E807F8083
:104CB00088849984209121022830C1F46C897D89EF
:104CC000812D912D65507040804090409B01AC013A
:104CD0000E94243D9B01AC0160E779E786E190E00A
:104CE0000E94763D621A730A840A950AA614B704D4
:104CF000C804D90428F46A187B088C089D0803C0EE
:104D0000662477244301B20180E090E09301A4017E
:104D10000E94243D9501A6010E94763D87E290E025
:104D20007981870F911D0E94213E682EC90160E1A3
:104D300070E00E944F3D260F371FC9016816190603
:104D400018F4861991090FC08C5E9F4F8615910546
:104D500040F48C899D89843981E1980710F00E9484
:104D60007A08812D912D6E96E2E10C94CF3D109240
:104D700081001092800010926F0010928B001092B0
:104D80008A0057E056BB5FEF509385005093840034
:104D900055E050937B0056EB50937A0051E05093CE
:104DA000810058E25A95F1F7000045B944B955E041
:104DB0005A95F1F7000014B815B81092810080914F
:104DC0007A0084FFFCCF80937A000895A0E0B0E0E1
:104DD000ECEEF6E20C94BD3D8091890290918A023E
:104DE000892B09F0A2C080918B02E82FF0E0E154FA
:104DF000FB4F14911860E0918C02F0E0E454FB4FFB
:104E0000F4900E94941B88E088B915B817B9F4B8DB
:104E100080918C020E9436066C0120918E02822FB6
:104E2000845F843008F081C060917F0270918002BD
:104E30008091810290918202122F115F0FC06B5FEF
:104E40007F4F8F4F9F4F2AE030E040E050E00E94BC
:104E5000763DC901DA01BC01CD011F5F173078F33F
:104E6000693823E1720720E0820720E0920708F00A
:104E70005CC08B016530710508F457C0F5B8F4B813
:104E8000C0E0D0E00E94F8052296C017D107D0F309
:104E900014B815B8A89585E08093320280918C02F1
:104EA0000E943606C816D90618F0EE24FF2403C067
:104EB0007C01EC18FD08C0E0D0E00E94F8052196C6
:104EC000C017D107D0F380918C020E9436069C0156
:104ED00089E180933202A895C216D30618F060E0EB
:104EE00070E003C0B9016C197D096E157F05B0F43F
:104EF000C701861B970BBC0189F080E090E024EF8E
:104F000031E040E050E00E94243D970140E050E055
:104F10000E94763D30938A02209389020E94941B5E
:104F200088E087B988B914B815B8CDB7DEB7E8E01E
:104F30000C94D93D1F920F920FB60F9211248F93AC
:104F40009F93AF93BF93789480910E0290910F023C
:104F5000A0911002B091110280509F4FAF4FBF4FF0
:104F600080930E0290930F02A0931002B09311024F
:104F7000BF91AF919F918F910F900FBE0F901F9097
:104F800018951F920F920FB60F9211248F9386E0FF
:104F900085BD8F910F900FBE0F901F9018951F9297
:104FA0000F920FB60F921124A8951092810015BC94
:104FB0000F900FBE0F901F9018951F920F920FB673
:104FC0000F9211242F933F938F939F9320917202FE
:104FD000309173022115310511F481E085BD809176
:104FE0007002909171022817390730F015BC80913A
:104FF0006D008F7E80936D002F5F3F4F3093730263
:10500000209372029F918F913F912F910F900FBE2D
:105010000F901F901895A5E0B0E0E1E1F8E20C9444
:10502000B33D83ED91E07ED51B8254980E94ED053F
:1050300014BC16BC10920E0210920F0210921002B5
:105040001092110261E065BB60936E0010928000C7
:1050500083E19AE790938B0080938A00E1E0F0E08F
:10506000F0938900E09388001092850010928400EC
:1050700083B5816083BDF6E0F6BBF0936F00789452
:1050800064E060938100198210E00E94E605A89513
:105090004F9902C081E0898385B5882319F01F5F8D
:1050A000123399F715BC86B580930E020E940E0349
:1050B00086E60E9413030E94CA0360910E0270915B
:1050C0000F02809110029091110247E00E94A40506
:1050D000549880918100882319F08FE30E94130374
:1050E0001092810010926F0020910E0230910F02F9
:1050F0004091100250911102DA01C9010197A109F2
:10510000B109895D9146A040B04008F026C1CA01AE
:10511000B9012AE030E040E050E00E94243D685FA1
:105120007F4F8F4F9F4F13E09695879577956795A3
:105130001A95D1F7660F771F709371026093700212
:1051400054980E94ED0516BC10920E0210920F02A8
:105150001092100210921102F1E0F5BBF0936E0074
:10516000109273021092720264E06BBB809168002F
:10517000846080936800789480916D008061809352
:105180006D001A820E94E605A8954F9902C081E041
:10519000898380916D0084FF05C09A819F5F9A8307
:1051A0009A3F81F715BC80916D008F7E80936D00D2
:1051B000809168008B7F8093680086B580930E0293
:1051C0000E94FD0284E50E9413030E94CA03E0913D
:1051D0007002F0917102FD83EC83A0900E02B090FA
:1051E0000F02C0901002D09011029501A60160E05C
:1051F00070E080E090E0A8EAAA2EF1E6BF2ECC2471
:10520000DD24EE24FF2400E010E00E94DB35EC8179
:10521000FD815F010E94CE36722E232E942E852EA4
:10522000662E572E482E392E8C819D81803891050F
:1052300030F0672D722D892D982D45EF16C0272D42
:10524000322D492D582D662D752D842D932DE4E694
:10525000AE2EBB24CC24DD24EE24FF2400E010E09D
:105260000E94CE36B901CA0147EF23E707E00E944A
:10527000B3049A819A3F21F48FE30E9413036DC017
:105280003320C1F44420B1F45520A1F4662091F4F8
:10529000882081F4E3E0E91568F09E1609F05DC00E
:1052A000FEECF21538F02F1609F057C06CE96715BF
:1052B00008F053C00E94060386E60E9413030E9472
:1052C000CA033320B9F44420A9F4552099F4662088
:1052D00089F48BE3881570F0881611F59AE9991511
:1052E00048F09916E9F4EAECE21520F02E16C1F424
:1052F0007720B1F020E030E04AE85DE568E775E44A
:1053000083E691E0A72CB22CC92CD82CE62CF52CE6
:10531000042D132D0E94CE36B901CA014AEF15C0E3
:1053200020E030E846EC54EA6EE77DE883E090E068
:10533000A72CB22CC92CD82CEE24FF2400E010E0BE
:105340000E94CE36B901CA014CEF28E407E00E9462
:10535000B3048AE70E941303549810926E0080ED04
:1053600097E00E94FF06F981F80F51F480911A022C
:10537000833030F46B816F5F6B83603F09F055CEF3
:105380002596E2E10C94CF3D08950F931F93CF93A0
:10539000DF9381E192E0C6D386E290E00E94213E55
:1053A000182F00E00E94FD02C12FDD27C7FDD09518
:1053B00017FF08C08DE20E941303882799278C1BD2
:1053C0009D0B01C0CE016FEF45E223E00E94B905BD
:1053D0000E94D70380E496E00E94FF06982F88235E
:1053E00029F480911A02882319F403C08238E0F46A
:1053F00000E080911A028B30B8F480911902180FE6
:10540000992329F0993210F01F5F01C01150113516
:105410000CF015561C3E0CF41B59802F0E94B62030
:10542000082F803F08F4BECF86E290E0612F0E94F3
:105430002E3EDF91CF911F910F910895A4E0B0E02F
:10544000E4E2FAE20C94BD3D86E092E06BD383E2A5
:105450008093800010926F008FEF90E090938B000C
:1054600080938A0083E086BB1092820015B881E1A8
:1054700084B988E088B929E027B9229A81E090E0D0
:10548000909389008093880020938100CC24DD24B0
:1054900002E310E0011709F447C0043608F004568F
:1054A000602F70E080E090E02FEF33E040E050E0CC
:1054B0000E94243D6E5C7F4F8F4F9F4F24E630E06B
:1054C00040E050E00E94763D790130938B002093BC
:1054D0008A000E94FD02C701A0E0B0E089839A83A0
:1054E000AB83BC83BC01CD0128EE33E040E050E04B
:1054F0000E94243D61507E4F8F4F9F4F2FEF33E02E
:1055000040E050E00E94763DDA01C9016FEF45E2CC
:1055100025E00E94B9050E94D70398E29D1518F472
:105520008CE30E94FE05102F80E496E00E94FF06A7
:10553000D82EA2E8A817E0F090911A029B30C0F490
:105540008091190287FD8C59080FB2E3BD1510F444
:10555000065F05C0DD2011F00F5F01C09111CC2462
:105560008C2D0E94B620C82EEFEEE81708F092CFDF
:1055700088E087B9109281001092800014B82298B8
:105580002496E8E00C94D93D8B3008F08B508823AA
:1055900019F488EC91E031C0813019F483ED91E089
:1055A0002CC0823019F48AEF91E027C0833019F4BF
:1055B00086E092E022C0843019F485E694E01DC0B4
:1055C000853019F481E794E018C0863019F48CE72F
:1055D00094E013C0873019F481E192E00EC0883066
:1055E00019F488E292E009C0893019F485EE91E05F
:1055F00004C08A3021F48FEE91E00E9497030C944E
:10560000D703A6E0B0E0E7E0FBE20C94B33D8AEFFD
:1056100091E088D280E18093800010926F0081E059
:1056200090E0909389008093880010928B001092F4
:105630008A0083E086BB1092820098E090938100FC
:1056400015B881E184B998B989E087B9229A809325
:10565000810021E12E83F1E02F2E312C412C512CA1
:1056600031E03D838AE08C8320E01A8201C02981E9
:10567000EA818E2F90E00A966EE170E00E94633D11
:105680006983621789F00E9406038AEF91E00E9405
:10569000970300E004C08EE20E9413030F5FF981BC
:1056A0000F17C8F30E94D7032E812231D8F0C4010E
:1056B000B301A20191010E94763D7B018C018D8195
:1056C0006C810E94433D692F70E080E090E0A20170
:1056D00091010E94243D3B014C016E0C7F1C801EF9
:1056E000911E0EC08D816C810E94433D692F70E038
:1056F00080E090E0A20191010E94243D3B014C0119
:105700000E94FD023D818C81381719F080E090E005
:1057100007C080E090E0EE81E23110F081E090E09F
:105720008B83882311F08CE306C0FE81F63110F0E4
:1057300082E501C08EE30E941303C401B3014E81D0
:105740000E94A405C401B30160507E4E85489F4F5E
:10575000A4019301220F331F441F551F0E94763D61
:10576000B9014F3F510539F030F02DE02093810011
:1057700020E034E020C04034510530F03CE030936C
:10578000810020E031E017C04830510530F08BE057
:105790008093810020E430E00EC04115510531F0C6
:1057A0009AE09093810028E030E005C0E9E0E093C2
:1057B000810021E030E05901CC24DD24CA01A6019A
:1057C00095010E94763D215030403093890020930E
:1057D00088008091880090918900892B31F421E024
:1057E00030E03093890020938800E0908800F090AA
:1057F000890060E079E08DE390E0A60195010E94C8
:10580000763DCA01B90124E630E040E050E00E9454
:10581000243D0894E11CF11C00E010E0A801970170
:105820000E94763D79018A01C401B30124E630E08B
:1058300040E050E00E94243DE61AF70A080B190BDD
:10584000C801B7014EEF28E402E20E94B3048AE7E0
:105850000E9413030E94D7038CED95E00E94FF067F
:10586000982F882331F480911A02882309F040C0D0
:1058700045C0863908F063C08135D0F13B813323C0
:1058800009F18E8181508E83C201B1012AE030E09E
:1058900040E050E00E94763DC901DA011C012D0173
:1058A000C401B301A20191010E94763DCA01B90170
:1058B0002AE030E040E050E00E94763D6D839AE0BF
:1058C0009C8354C0EE81E63108F045C0EF5FEE8363
:1058D000E63111F4F5E1FC83C201B1012AE030E0C8
:1058E00040E050E00E94243D1B012C011D823EC07F
:1058F0001A829B3018F02D812F5F2D8380911A0220
:105900008B30E8F48091190287FD02C00D8105C03B
:10591000082F0F5F3C81030F8D81080F8A810E9441
:10592000B6208A83803F58F49C81692F70E06F5FB6
:105930007F4F802F90E00E94633D8D8398CE109220
:1059400081001092800088E087B914B822982696CA
:10595000E2E10C94CF3DE1E1EE8381E0282E312C91
:10596000412C512CF1E0FD832AE02C831A827FCE5A
:105970000F931F9385E694E0D5D010E0109221029A
:1059800082E060E0E5D0809121028830D1F50E946C
:10599000060383E40E9413030E94CA0360917F02FE
:1059A00070918002809181029091820240918E02DA
:1059B00026E403E00E94B3040E94D70380918C0286
:1059C00060918B025BD890938802809387020E943B
:1059D000FD028EE992E00E949703809187029091E8
:1059E00088022FEF8A3F920730F46EEF44EF22E0F7
:1059F0000E94B90503C08FE30E9413030E94D703DE
:105A00000AC00E94060385E694E00E9497030E9464
:105A1000D7030E94DC03812F0E94C22088EE93E00E
:105A20000E94FF06882359F480911A02843038F4CA
:105A3000812F0E94B620182F8A3F08F49FCF1F9114
:105A40000F910895813011F480E0E5CA823009F4A5
:105A5000D8CD833009F4F2CC843009F489CF853075
:105A600011F40C949D22863021F40E940E030C94B4
:105A70006B21873009F489CC883019F481E10C94CA
:105A8000E208893009F4AEC18A3011F40C94DE08C2
:105A900008950F931F938DEB91E044D010E000E048
:105AA00003C01B3008F01B500E94FD02812F6CDDEB
:105AB00080E49FE10E94FF06982F811100E0809111
:105AC0003C02813009F400E0923330F48091770297
:105AD000882371F0992361F0112301F1812FB2DF46
