:020000040000FA
:100000000C945E010C9486010C9486010C9486017C
:100010000C9486010C9486010C9486010C94860144
:100020000C9486010C9486010C9486010C94860134
:100030000C9486010C9486010C9486010C94860124
:100040000C9459040C9486010C9486010C9486013E
:100050000C9486010C9486010C9486010C94860104
:100060000C9486010C9486010000000024002700F7
:100070002A00000000000000000000000000000056
:10008000000000000000000000000101010101016A
:100090000101010101010202020202020202030344
:1000A0000303030304040404050505050506060609
:1000B000060707070808080909090A0A0A0B0B0BB3
:1000C0000C0C0D0D0D0E0E0F0F101011111212133E
:1000D0001314141515161617181819191A1B1B1CAA
:1000E0001D1D1E1F1F2021222223242526262728EE
:1000F000292A2A2B2C2D2E2F303132333435363706
:1001000038393A3B3C3D3E3F4041424445464748F2
:10011000494B4C4D4E50515254555658595A5C5DAE
:100120005E606163646667696A6C6D6F7072737537
:1001300077787A7C7D7F8182848688898B8D8F9188
:10014000929496989A9C9EA0A2A4A6A8AAACAEB09F
:10015000B2B4B6B8BABCBFC1C3C5C7CACCCED1D37E
:10016000D5D7DADCDFE1E3E6E8EBEDF0F2F5F7FA1C
:10017000FCFF000000000000000000000000000084
:100180000000000000000000000001010101010169
:100190000101010101010202020202020202030343
:1001A0000303030304040404050505050506060608
:1001B000060707070808080909090A0A0A0B0B0BB2
:1001C0000C0C0D0D0D0E0E0F0F101011111212133D
:1001D0001314141515161617181819191A1B1B1CA9
:1001E0001D1D1E1F1F2021222223242526262728ED
:1001F000292A2A2B2C2D2E2F303132333435363705
:1002000038393A3B3C3D3E3F4041424445464748F1
:10021000494B4C4D4E50515254555658595A5C5DAD
:100220005E606163646667696A6C6D6F7072737536
:1002300077787A7C7D7F8182848688898B8D8F9187
:10024000929496989A9C9EA0A2A4A6A8AAACAEB09E
:10025000B2B4B6B8BABCBFC1C3C5C7CACCCED1D37D
:10026000D5D7DADCDFE1E3E6E8EBEDF0F2F5F7FA1B
:10027000FCFF00000000250028002B0004040404FB
:100280000404040402020202020203030303030340
:10029000010204081020408001020408102001021D
:1002A00004081020000000080002010000030407F9
:1002B0000000000000000000F0064F0711241FBEE0
:1002C000CFEFD8E0DEBFCDBF21E0A6E0B1E001C0B6
:1002D0001D92A932B207E1F711E0A0E0B1E0ECE233
:1002E000F2E102C005900D92A630B107D9F711E0F6
:1002F000CDE5D1E004C02197FE010E94DE07CC3598
:10030000D107C9F70E94A3040C9409090C940000BA
:1003100090E0FC01EC55FD4F2491FC01E057FD4FAE
:100320003491FC01E458FD4FE491EE23B9F022230F
:1003300039F02330F1F098F4213009F1223019F12D
:10034000F0E0EE0FFF1FEE58FD4FA591B4918FB76F
:10035000F894EC9130953E233C938FBF089527305D
:10036000A9F02830C9F0243059F7809180008F7DA2
:1003700003C0809180008F7780938000E1CF84B5A7
:100380008F7784BDDDCF84B58F7DFBCF8091B000AA
:100390008F778093B000D4CF8091B0008F7DF9CF5C
:1003A0008F929F92AF92BF92CF92DF92EF92FF9285
:1003B000CF93209111013091120182179307E8F534
:1003C0004B01AA24BB24C82DC52ED62EE72EFF2410
:1003D000BC2DA42F20911701222361F0829E4001A1
:1003E0001124C92D2C9D60011124BD2D249FF001E5
:1003F0001124AF2FE0911D01E0901801F090190138
:1004000030911A01E31323C09C01220F331F820F86
:10041000931F8E0D9F1DE0911A01E80FF92FF11D1A
:10042000C083E0911B01E80FF92FF11DB0832091EB
:100430001C01820F911DFC01A083CF91FF90EF90D2
:10044000DF90CF90BF90AF909F908F900895880FCE
:10045000991F880F991F8E0D9F1D472F55276627BF
:100460007727222349F030E0249F7001259FF00C6C
:10047000349FF00C11244F2DE80FF92FF11D40830C
:10048000CACFCF92DF92EF92FF92E62F9C01AAEFA4
:10049000B5E00E94A607DC01CB019058AF4FBF4FDB
:1004A000CD01BB2797FDB095AB2F8E3F41E0940760
:1004B00098F5782F8F3F910508F44DC04EEF481BFB
:1004C00050E07FEFF0E0319630E0272FDF010E940F
:1004D000B5076B017C01CC24EE24FF24252F0E945C
:1004E000B507672F782F892F9927C62AD72AE82A98
:1004F000F92A242F0E94B507982F872F762F662779
:100500006627772799276C297D298E299F29FF90B7
:10051000EF90DF90CF9008958C3F43E0940760F414
:1005200052E0580F7FEF8D3F42E0940718F07CEFC8
:10053000781B5FEF40E0C6CF8A3F45E0940771F03B
:100540005AEF581B8B3F44E0940748F444E0480FAF
:100550005FEF70E0B7CF50E04FEFB4CF50E070E006
:10056000FBCFCF92DF92EF92FF920F931F93CF9327
:10057000DF9300911101109112010115110569F02D
:100580006B017C01D0E0C0E0B701A601CE010E9462
:10059000D00121960C171D07B9F7DF91CF911F915C
:1005A0000F91FF90EF90DF90CF900895CF93DF935E
:1005B00090E0FC01E057FD4F249184589D4FFC01D1
:1005C00084918823D1F090E0880F991FFC01E859AD
:1005D000FF4FA591B491FC01EE58FD4FC591D49108
:1005E00061110EC09FB7F8948C91E22FE0958E2395
:1005F0008C932881E223E8839FBFDF91CF910895F8
:100600008FB7F894EC91E22BEC938FBFF6CF3FB706
:10061000F8948091070190910801A0910901B0918F
:100620000A0126B5A89B05C02F3F19F00196A11D10
:10063000B11D3FBFBA2FA92F982F8827BC01CD012C
:10064000620F711D811D911D42E0660F771F881F8B
:10065000991F4A95D1F708950F931F93CF93DF9376
:10066000CDB7DEB729970FB6F894DEBF0FBECDBF6A
:100670008091180190911901892B09F47CC00E9486
:10068000070300911E0110911F012091200130915C
:100690002101601771078207930740F460931E01E0
:1006A00070931F01809320019093210100911E01FE
:1006B00010911F012091200130912101601B710BCD
:1006C000820B930B6C32714081059105C0F2F89456
:1006D00080911301909114019A838983E09118010C
:1006E000F0911901DF0111968081898790910F01A6
:1006F000E0912201F091230180912401992309F4D2
:1007000045C09081982B98879081809589238F830D
:100710008F818C8388E08B8358856F8149853B81ED
:100720002C8189819A81508347FD252F3A9520831A
:10073000262F39F0441F00C000006083000000C075
:10074000F2CF38E04D9160830000019761F7F0939C
:100750002301E093220149873B832C839A83898379
:1007600078940E94070360931E0170931F01809389
:1007700020019093210129960FB6F894DEBF0FBE99
:10078000CDBFDF91CF911F910F9108959081982B4C
:1007900098879081809589238F838F818E8388E0CD
:1007A0008D8358856F8149853D812E8189819A810C
:1007B000508347FD252F00C000C0208300C000C02B
:1007C00000C000C000C060830000262F3A9541F0B1
:1007D000441F000000C000C000C000C000C0E8CF3F
:1007E00038E04D9100C0608300C0019709F7F09395
:1007F0002301E093220149873D832E83AFCF8F925F
:100800009F92AF92BF92CF92DF92EF92FF926B01D5
:100810007C010E9407034B015C01C114D104E10477
:10082000F104B9F00E940703681979098A099B0944
:10083000683E73408105910580F321E0C21AD1081A
:10084000E108F10888EE880E83E0981EA11CB11C17
:10085000E4CFFF90EF90DF90CF90BF90AF909F904C
:100860008F900895CF92DF92EF92FF92CF93DF9314
:100870006B017C01D0E0C0E08091110190911201E8
:10088000C817D90778F4B701A601CE010E94D0019C
:100890000E942C0364E170E080E090E00E94FF037E
:1008A0002196EACFDF91CF91FF90EF90DF90CF902C
:1008B00008951F920F920FB60F9211242F933F931A
:1008C0008F939F93AF93BF9380910B0190910C01F5
:1008D000A0910D01B0910E013091060123E0230F8C
:1008E0002D3758F50196A11DB11D20930601809367
:1008F0000B0190930C01A0930D01B0930E01809118
:10090000070190910801A0910901B0910A01019697
:10091000A11DB11D8093070190930801A0930901C7
:10092000B0930A01BF91AF919F918F913F912F9109
:100930000F900FBE0F901F90189526E8230F029678
:10094000A11DB11DD2CFCF93DF93CDB7DEB72E97C8
:100950000FB6F894DEBF0FBECDBF789484B5826029
:1009600084BD84B5816084BD85B5826085BD85B553
:10097000816085BD80916E00816080936E001092D1
:10098000810080918100826080938100809181004C
:1009900081608093810080918000816080938000DD
:1009A0008091B10084608093B1008091B00081603B
:1009B0008093B00080917A00846080937A00809167
:1009C0007A00826080937A0080917A0081608093BF
:1009D0007A0080917A00806880937A001092C1003A
:1009E000809115019091160197FD07C061E00E946A
:1009F000D602809115010E94880181E08093100148
:100A00000E942C03609117016B3F29F1209118017E
:100A1000309119016150C9F070E08FEF9AEF0E9498
:100A20005F07F9014091130150911401CF01821B1E
:100A3000930B8417950760F44081469FC001479F40
:100A4000900D112490833196EDCF70E060E0E9CFF6
:100A50008BEF80931701CE0109969A878987FE0153
:100A60003596FC87EB8760E070E08FEF90E00E94A6
:100A7000320460E07FEF80E090E00E9432046FEF8C
:100A800070E080E090E00E94320460E070E080E07E
:100A90009FEF0E9432040091110110911201063063
:100AA000110560F501501109015011098FB7F89433
:100AB00040900B0150900C0160900D0170900E0160
:100AC0008FBF1E861D86312C212CD12CC12C812C50
:100AD000912C5401F12CE12C209111013091120143
:100AE000E216F30600F5EC14FD040CF44FC10E15EC
:100AF0001F055CF40C151D0544F04CC105E010E029
:100B0000D3CF0E151F050CF445C140E050E060E066
:100B10007FEFC7010E94D0019FEFE91AF90AEFEFBA
:100B2000AE1ABE0AD9CF0E942C032FB7F894809139
:100B30000B0190910C01A0910D01B0910E012FBFFE
:100B400084199509A609B7098C349105A105B10549
:100B500028F10F5F1F4F809111019091120108172A
:100B6000190748F0FFEF2F1A3F0A23E0221631043D
:100B7000DCF410E000E0EFEFCE1ADE0AC816D9066A
:100B800010F0D12CC12C8FB7F89440900B015090ED
:100B90000C0160900D0170900E018FBF8D859E85B8
:100BA00088969E878D8793CF62E7A62E61E0B62E4A
:100BB000F501649170E090E080E0962F8827772718
:100BC00066270E94B1020E942C0365E070E080E07D
:100BD00090E00E94FF03FFEFAF1ABF0A82E792E0A6
:100BE0008A159B0529F70FEF10E0F801EE58FE4F2C
:100BF000649170E090E080E0962F88277727662741
:100C00000E94B1020E942C0365E070E080E090E059
:100C10000E94FF030150110940F710E000E0C12CD1
:100C2000D12C760122242A94209EC001219E900D71
:100C3000112464E670E00E947307362E412C512C7B
:100C40003201912C812C20911101309112018216D8
:100C5000930688F550E040E0C301B2010E94870787
:100C6000DA01C9018C0D9D1DAE1DBF1D632D0E94B3
:100C7000410269837A838B839C83DE011196ED9117
:100C8000F0E0EE58FF4F2491CD010197FC01208345
:100C90008B859C858A179B0791F749815A816B81C7
:100CA0007C81C4010E94D0019FEF891A990AEFEF5D
:100CB0006E1A7E0AC8CF0E942C0363E070E080E0C9
:100CC00090E00E94FF03C114D104F1E0EF06F104AB
:100CD00008F04CC00436110514F40F5F1F4F8FEF5E
:100CE000D81AE80AF80AC114D10493E0E906F1041D
:100CF00009F09ACF02E711E0F801649170E090E00A
:100D000080E0962F8827772766270E94B1020E94ED
:100D10002C030F5F1F4F0A151B0571F768EE73E078
:100D200080E090E00E94FF030FEF10E0F801EE5822
:100D3000FE4F649170E090E080E0962F882777273F
:100D400066270E94B1020E942C030150110970F71E
:100D500064EF71E080E090E00E94FF03E0E0F0E0EB
:100D6000EF2B09F480CE0E9400007DCEC114D10487
:100D700022E0E206F10438F00115110509F4AFCFC5
:100D800001501109ACCF04E610E0A9CF0C151D05E8
:100D90000CF4B7CE50E040E0C501B4010E948707D3
:100DA0008D859E85820F931F6FEF0E9441026D8398
:100DB0007E838F839887DE011596ED91F0E0EE58E3
:100DC000FF4F2491CD010197FC01208389859A85ED
:100DD000A817B90791F74D815E816F81788599CE0B
:100DE000109210011092170110921E0110921F0113
:100DF000109220011092210181E080931D018093C7
:100E00001A0110921B0192E090931C0180930F0134
:100E100088E790E090931401809313010E94E40707
:100E20009093190180931801009781F128E7FC0144
:100E300011922A95E9F788E290E09093120180934D
:100E4000110186E090E09093160180931501809146
:100E50001001882339F061E086E00E94D60286E026
:100E60000E948801E2E8F2E0E491F0E0EE0FFF1F5B
:100E7000EE58FD4F85919491909323018093220128
:100E8000E6E9F2E0E491E093240108951092140160
:100E9000109213011092120110921101D2CF809181
:100EA0001801909119010E9480088091150190917C
:100EB000160197FD03C060E00C94D6020895AA1BAA
:100EC000BB1B51E107C0AA1FBB1FA617B70710F035
:100ED000A61BB70B881F991F5A95A9F78095909567
:100EE000BC01CD01089597FB072E16F4009407D09E
:100EF00077FD09D00E945F0707FC05D03EF490956E
:100F000081959F4F0895709561957F4F0895052EA7
:100F100097FB1EF400940E949E0757FD07D00E9485
:100F2000BC0707FC03D04EF40C949E0750954095E7
:100F3000309521953F4F4F4F5F4F08959095809585
:100F4000709561957F4F8F4F9F4F0895A29FB0017D
:100F5000B39FC001A39F700D811D1124911DB29FED
:100F6000700D811D1124911D08950E94A607B7FFE1
:100F70000895821B930B0895A1E21A2EAA1BBB1B96
:100F8000FD010DC0AA1FBB1FEE1FFF1FA217B30755
:100F9000E407F50720F0A21BB30BE40BF50B661F6B
:100FA000771F881F991F1A9469F76095709580952F
:100FB00090959B01AC01BD01CF010895EE0FFF1F7D
:100FC0000590F491E02D09940F931F93CF93DF9335
:100FD0008230910510F482E090E0E0912701F091D9
:100FE000280130E020E0B0E0A0E0309799F421152E
:100FF000310509F44AC0281B390B24303105D8F5D6
:101000008A819B816115710589F1FB01938382833C
:10101000FE0111C040815181028113814817590797
:10102000E0F04817590799F4109761F012960C9365
:10103000129713961C933296CF01DF91CF911F9197
:101040000F9108950093270110932801F4CF2115E3
:10105000310551F04217530738F0A901DB019A011D
:10106000BD01DF01F801C1CFEF01F9CF9093280155
:1010700080932701CDCFFE01E20FF31F819391935F
:101080002250310939832883D7CF2091250130910F
:101090002601232B41F4209102013091030130936A
:1010A0002601209325012091000130910101211595
:1010B000310541F42DB73EB740910401509105012F
:1010C000241B350BE0912501F0912601E217F3076F
:1010D000A0F42E1B3F0B2817390778F0AC014E5FA8
:1010E0005F4F2417350748F04E0F5F1F50932601BE
:1010F00040932501819391939FCFF0E0E0E09CCF56
:10110000CF93DF930097E9F0FC01329713821282AC
:10111000A0912701B0912801ED0130E020E0109767
:10112000A1F420813181820F931F209125013091FC
:1011300026012817390709F061C0F0932601E093D2
:101140002501DF91CF910895EA01CE17DF07E8F579
:101150004A815B819E0141155105B1F7E901FB838D
:10116000EA8349915991C40FD51FEC17FD0761F42B
:10117000808191810296840F951FE901998388836C
:10118000828193819B838A83F0E0E0E012968D91C7
:101190009C9113970097B9F52D913C911197CD0132
:1011A0000296820F931F2091250130912601281766
:1011B000390739F6309751F510922801109227011E
:1011C000B0932601A0932501BCCFD383C283408175
:1011D0005181840F951FC817D90761F44E5F5F4F87
:1011E00088819981480F591F518340838A819B814F
:1011F000938382832115310509F0B0CFF093280144
:10120000E09327019ECFFD01DC01C0CF1382128243
:10121000D7CF11E0CDE5D1E004C0FE010E94DE078A
:101220002196CE35D107C9F7F894FFCF00002901E8
:0212300080003C
:107E0000112484B714BE81FFF0D085E080938100F7
:107E100082E08093C00088E18093C10086E0809377
:107E2000C20080E18093C4008EE0C9D0259A86E02C
:107E300020E33CEF91E0309385002093840096BBD3
:107E4000B09BFECF1D9AA8958150A9F7CC24DD24C4
:107E500088248394B5E0AB2EA1E19A2EF3E0BF2EE7
:107E6000A2D0813461F49FD0082FAFD0023811F036
:107E7000013811F484E001C083E08DD089C08234E0
:107E800011F484E103C0853419F485E0A6D080C0E4
:107E9000853579F488D0E82EFF2485D0082F10E0AE
:107EA000102F00270E291F29000F111F8ED06801E7
:107EB0006FC0863521F484E090D080E0DECF843638
:107EC00009F040C070D06FD0082F6DD080E0C81688
:107ED00080E7D80618F4F601B7BEE895C0E0D1E017
:107EE00062D089930C17E1F7F0E0CF16F0E7DF06D8
:107EF00018F0F601B7BEE89568D007B600FCFDCFD4
:107F0000A601A0E0B1E02C9130E011968C91119780
:107F100090E0982F8827822B932B1296FA010C0160
:107F200087BEE89511244E5F5F4FF1E0A038BF0790
:107F300051F7F601A7BEE89507B600FCFDCF97BE46
:107F4000E89526C08437B1F42ED02DD0F82E2BD052
:107F50003CD0F601EF2C8F010F5F1F4F84911BD097
:107F6000EA94F801C1F70894C11CD11CFA94CF0C13
:107F7000D11C0EC0853739F428D08EE10CD085E9AC
:107F80000AD08FE07ACF813511F488E018D01DD067
:107F900080E101D065CF982F8091C00085FFFCCF94
:107FA0009093C60008958091C00087FFFCCF809118
:107FB000C00084FD01C0A8958091C6000895E0E648
:107FC000F0E098E1908380830895EDDF803219F02E
:107FD00088E0F5DFFFCF84E1DECF1F93182FE3DFCA
:107FE0001150E9F7F2DF1F91089580E0E8DFEE27F6
:047FF000FF270994CA
:027FFE00040479
:00000001FF
