:100000000C945F000C9487000C9487000C9487007C
:100010000C9487000C9487000C9487000C94870044
:100020000C9487000C9487000C9487000C94870034
:100030000C9487000C9487000C9487000C94870024
:100040000C94B0030C9487000C949A020C94CC028C
:100050000C9487000C9487000C9487000C94870004
:100060000C9487000C948700000000080002010037
:100070000003040700000000000000000102040863
:100080001020408001020408102001020408102002
:10009000040404040404040402020202020203032E
:1000A0000303030300000000250028002B000000CC
:1000B0000000240027002A009C00FC02A20011245A
:1000C0001FBECFEFD8E0DEBFCDBF11E0A0E0B1E0B2
:1000D000E2ECF1E102C005900D92A434B107D9F72A
:1000E00021E0A4E4B1E001C01D92A43FB207E1F712
:1000F00010E0CEE5D0E004C02197FE010E949C06EE
:10010000CC35D107C9F70E942A030C94D4080C946B
:10011000000026E040E855E260E070E08AE491E00B
:100120000E94380261E08DE00E94BC0466E071E04C
:100130008AE491E00C94990363E471E084E491E033
:100140000C94980584E491E00C9426050F931F937A
:10015000CF93DF93CDB7DEB72C970FB6F894DEBF01
:100160000FBECDBF8C0163E471E0CE0107960E9403
:1001700098058AE491E00E945E01892B81F08AE46F
:1001800091E00E947801682FCE0107960E9409062F
:1001900062E070E080E090E00E941F04EACF8B856F
:1001A0009C85892BD1F0BE01695F7F4FC8010E94F9
:1001B000B70562E171E0CE0101960E949805B80191
:1001C000CE0101960E941C06BC018AE491E00E94C7
:1001D0008703CE0101960E942605CE0107960E9454
:1001E00026052C960FB6F894DEBF0FBECDBFDF916B
:1001F000CF911F910F9108950F931F93CF93DF938A
:1002000000D000D000D0CDB7DEB784E491E00E94EA
:10021000A60063E471E084E491E00E945C06811131
:1002200042C061E271E0CE0101960E949805BE01D4
:100230006F5F7F4F84E491E00E942F068C01CE0116
:1002400001960E942605012B51F464E271E08AE4D4
:1002500091E00E94990361E08DE00E94F80467E25A
:1002600071E0CE0101960E949805BE016F5F7F4F3D
:1002700084E491E00E942F068C01CE0101960E9439
:100280002605012B51F46BE271E08AE491E00E94B3
:10029000990360E08DE00E94F80463E471E084E477
:1002A00091E00E94CE0526960FB6F894DEBF0FBEF1
:1002B000CDBFDF91CF911F910F910895FC01918DDA
:1002C000228D892F90E0805C9F4F821B91098F7354
:1002D00099270895FC01918D828D981731F0828DB8
:1002E000E80FF11D858D90E008958FEF9FEF089541
:1002F000FC01918D828D981761F0A28DAE0FBF2FFA
:10030000B11D5D968C91928D9F5F9F73928F90E04F
:1003100008958FEF9FEF0895FC01538D448D252F95
:1003200030E0842F90E0821B930B541710F0CF968F
:1003300008950197089582EF92E0892B49F080E0BB
:1003400090E0892B29F00E94F20281110C940000A8
:100350000895FC01A48DA80FB92FB11DA35ABF4F5A
:100360002C91848D90E001968F739927848FA689B4
:10037000B7892C93A089B1898C91837080648C9308
:10038000938D848D981306C00288F389E02D8081B7
:100390008F7D80830895CF93DF93EC01888D882330
:1003A000B9F0AA89BB89E889F9898C9185FD03C0D8
:1003B000808186FD0DC00FB607FCF7CF8C9185FFBD
:1003C000F2CF808185FFEDCFCE010E94A901E9CF58
:1003D000DF91CF910895EF92FF920F931F93CF93E8
:1003E000DF93EC0181E0888F9B8D8C8D98131AC070
:1003F000E889F989808185FF15C09FB7F894EE8957
:10040000FF896083E889F9898081837080648083B3
:100410009FBF81E090E0DF91CF911F910F91FF90FE
:10042000EF900895F62E0B8D10E00F5F1F4F0F73A6
:100430001127E02E8C8D8E110CC00FB607FCFACF61
:10044000E889F989808185FFF5CFCE010E94A90155
:10045000F1CFEB8DEC0FFD2FF11DE35AFF4FF08232
:100460009FB7F8940B8FEA89FB8980818062CFCF98
:10047000CF92DF92EF92FF921F93CF93DF93EC0125
:100480006A017B01122FE889F98982E08083C11417
:1004900081EED806E104F104A1F060E079E08DE39B
:1004A00090E0A70196010E947A0621503109410986
:1004B00051095695479537952795211580E13807BD
:1004C00098F0E889F989108260E874E88EE190E09C
:1004D000A70196010E947A0621503109410951096C
:1004E0005695479537952795EC85FD853083EE85A4
:1004F000FF852083188EEC89FD891083EA89FB89AA
:10050000808180618083EA89FB8980818860808323
:10051000EA89FB89808180688083EA89FB89808100
:100520008F7D8083DF91CF911F91FF90EF90DF90BF
:10053000CF9008951F920F920FB60F9211242F9310
:100540008F939F93EF93FF93E0915A01F0915B019A
:100550008081E0916001F091610182FD1BC090817A
:10056000809163018F5F8F7320916401821741F046
:10057000E0916301F0E0E65BFE4F958F80936301AD
:10058000FF91EF919F918F912F910F900FBE0F9040
:100590001F9018958081F4CF1F920F920FB60F9283
:1005A00011242F933F934F935F936F937F938F9378
:1005B0009F93AF93BF93EF93FF938AE491E00E94E0
:1005C000A901FF91EF91BF91AF919F918F917F9181
:1005D0006F915F914F913F912F910F900FBE0F90B0
:1005E0001F9018958AE491E00E945E0121E0892B1A
:1005F00009F420E0822F0895EAE4F1E013821282E8
:1006000088EE93E0A0E0B0E084839583A683B7836F
:1006100083E391E09183808385EC90E095878487E4
:1006200084EC90E09787868780EC90E0918B808BBC
:1006300081EC90E0938B828B82EC90E0958B848BA5
:1006400086EC90E0978B868B118E128E138E148E13
:10065000089508950E9458040E9429030E94890069
:10066000CBE9D1E00E94FC002097E1F30E949B01BE
:10067000F9CFAF92BF92CF92DF92EF92FF920F939A
:100680001F93CF93DF936C017B018B01040F151F28
:10069000EB015E01AE18BF08C017D10759F0699190
:1006A000D601ED91FC910190F081E02DC6010995F4
:1006B000892B79F7C501DF91CF911F910F91FF90A1
:1006C000EF90DF90CF90BF90AF900895FB01019025
:1006D0000020E9F73197AF01461B570BDC01ED9184
:1006E000FC910280F381E02D0994DB0114964D9179
:1006F0005C9115976D917C91DC01ED91FC910280EC
:10070000F381E02D099461E471E00C9466030F938A
:100710001F93CF93DF93EC010E9475038C01CE01F0
:100720000E948303800F911FDF91CF911F910F9142
:1007300008950F931F93CF93DF938C01D0E0C0E017
:100740006115710519F00E946603EC01C8010E9451
:1007500083038C0F9D1FDF91CF911F910F910895FF
:100760001F920F920FB60F9211242F933F938F93E6
:100770009F93AF93BF938091E8019091E901A0917D
:10078000EA01B091EB013091E70123E0230F2D370F
:1007900058F50196A11DB11D2093E7018093E80152
:1007A0009093E901A093EA01B093EB018091EC01F1
:1007B0009091ED01A091EE01B091EF010196A11D84
:1007C000B11D8093EC019093ED01A093EE01B093E5
:1007D000EF01BF91AF919F918F913F912F910F901A
:1007E0000FBE0F901F90189526E8230F0296A11DAB
:1007F000B11DD2CF3FB7F8948091EC019091ED01FB
:10080000A091EE01B091EF0126B5A89B05C02F3F46
:1008100019F00196A11DB11D3FBFBA2FA92F982F26
:100820008827BC01CD01620F711D811D911D42E021
:10083000660F771F881F991F4A95D1F708958F92E9
:100840009F92AF92BF92CF92DF92EF92FF926B0195
:100850007C010E94FA034B015C01C114D104E10444
:10086000F104E9F00E9479060E94FA0368197909F7
:100870008A099B09683E73408105910570F321E068
:10088000C21AD108E108F10888EE880E83E0981EAC
:10089000A11CB11CC114D104E104F10429F7FF909B
:1008A000EF90DF90CF90BF90AF909F908F90089582
:1008B000789484B5826084BD84B5816084BD85B53B
:1008C000826085BD85B5816085BDEEE6F0E0808102
:1008D00081608083E1E8F0E0108280818260808323
:1008E000808181608083E0E8F0E0808181608083A6
:1008F000E1EBF0E0808184608083E0EBF0E08081D8
:1009000081608083EAE7F0E0808184608083808179
:100910008260808380818160808380818068808321
:100920001092C1000895833081F028F4813099F04D
:100930008230A9F008958730A9F08830C9F084305A
:10094000B1F4809180008F7D03C0809180008F770B
:1009500080938000089584B58F7784BD089584B511
:100960008F7DFBCF8091B0008F778093B00008958A
:100970008091B0008F7DF9CFCF93DF9390E0FC01A1
:10098000E458FF4F249180579F4FFC0184918823A6
:10099000C9F090E0880F991FFC01E255FF4FA59127
:1009A000B491FC01EC55FF4FC591D49161110DC07C
:1009B0009FB7F8948C91209582238C93888128236B
:1009C00028839FBFDF91CF910895623051F49FB784
:1009D000F8943C91822F809583238C93E8812E2B71
:1009E000EFCF8FB7F894EC912E2B2C938FBFEACFDB
:1009F0001F93CF93DF93282F30E0F901E859FF4F81
:100A00008491F901E458FF4FD491F901E057FF4F69
:100A1000C491CC23A9F0162F81110E949304EC2FCE
:100A2000F0E0EE0FFF1FEC55FF4FA591B4918FB78B
:100A3000F894EC91111108C0D095DE23DC938FBFA0
:100A4000DF91CF911F910895DE2BF8CFFC018081BB
:100A50009181009711F00C943E070895CF93DF9396
:100A6000EC0188819981009711F00E943E0719825C
:100A700018821D821C821B821A82DF91CF910895F9
:100A80000F931F93CF93DF93EC018B016F5F7F4F29
:100A9000888199810E94C707009751F099838883C4
:100AA0001B830A8381E0DF91CF911F910F910895FD
:100AB00080E0F9CFCF93DF93EC0188819981892B76
:100AC00049F08A819B818617970720F081E0DF91AA
:100AD000CF910895CE010E9440058823C1F38C81F7
:100AE0009D81892B99F7E881F9811082EFCFEF92F0
:100AF000FF920F931F93CF93DF93EC017B018A0149
:100B0000BA010E945A0581110BC0CE010E942E0528
:100B1000CE01DF91CF911F910F91FF90EF9008953B
:100B20001D830C83B701888199810E949608F0CFBC
:100B3000FC011182108213821282158214826115C7
:100B4000710551F0FB0101900020E9F73197AF01E9
:100B5000461B570B0C9477050895FB01019000206C
:100B6000E9F73197AF01461B570B0C947705CF93EC
:100B7000DF93EC01FB018617970749F060817181D3
:100B80006115710541F0448155810E947705CE01C0
:100B9000DF91CF9108950E942E05F9CFCF93DF9377
:100BA000EC016115710531F00E94AD05CE01DF91B8
:100BB000CF9108950E942E05F9CFEF92FF920F93E7
:100BC0001F93CF93DF936115710541F480E0DF91AE
:100BD000CF911F910F91FF90EF900895411551050E
:100BE000B1F07B01EC010C811D81040F151FB801D0
:100BF0000E945A05882351F3288139818C819D8177
:100C0000B701820F931F0E9496081D830C8381E019
:100C1000DECFCF93DF9300D0CDB7DEB769831A82E2
:100C200041E050E0BE016F5F7F4F0E94DD050F90F5
:100C30000F90DF91CF910895CF93DF93EC01FB01EB
:100C400044815581608171810E94DD05811103C05D
:100C5000CE010E942E05CE01DF91CF910895CF9352
:100C6000DF93EC01A881B981EB01E881F98110974C
:100C7000F1F03097B1F4EC018C819D81892BC9F0A2
:100C80008C9190E00BC0DB0114968D919C91892B87
:100C900081F0808190E0919581959109DF91CF91CC
:100CA0000895BF01CD01DF91CF910C948D0830974D
:100CB00051F790E080E0F2CFFC0124813581232BB5
:100CC00031F421E0FB01672B49F4822F08958081E4
:100CD00091816115710539F421E0FC01808188233F
:100CE000A1F320E0F2CF0E948D0821E0892B69F367
:100CF000F8CF0895A1E21A2EAA1BBB1BFD010DC05F
:100D0000AA1FBB1FEE1FFF1FA217B307E407F507BB
:100D100020F0A21BB30BE40BF50B661F771F881F97
:100D2000991F1A9469F760957095809590959B012D
:100D3000AC01BD01CF010895EE0FFF1F0590F491A6
:100D4000E02D09940F931F93CF93DF938230910589
:100D500010F482E090E0E091F201F091F30130E0D4
:100D600020E0B0E0A0E0309799F42115310509F4B6
:100D70004AC0281B390B24303105D8F58A819B8164
:100D80006115710589F1FB0193838283FE0111C016
:100D9000408151810281138148175907E0F04817BB
:100DA000590799F4109761F012960C9312971396C5
:100DB0001C933296CF01DF91CF911F910F9108952F
:100DC0000093F2011093F301F4CF2115310551F096
:100DD0004217530738F0A901DB019A01BD01DF0179
:100DE000F801C1CFEF01F9CF9093F3018093F201A5
:100DF000CDCFFE01E20FF31F819391932250310971
:100E000039832883D7CF2091F0013091F101232B32
:100E100041F420910201309103013093F1012093BC
:100E2000F00120910001309101012115310541F4BB
:100E30002DB73EB74091040150910501241B350B9D
:100E4000E091F001F091F101E217F307A0F42E1BFD
:100E50003F0B2817390778F0AC014E5F5F4F24171E
:100E6000350748F04E0F5F1F5093F1014093F0019A
:100E7000819391939FCFF0E0E0E09CCFCF93DF93FD
:100E80000097E9F0FC01329713821282A091F201DF
:100E9000B091F301ED0130E020E01097A1F4208142
:100EA0003181820F931F2091F0013091F1012817B9
:100EB000390709F061C0F093F101E093F001DF918F
:100EC000CF910895EA01CE17DF07E8F54A815B81EB
:100ED0009E0141155105B1F7E901FB83EA83499170
:100EE0005991C40FD51FEC17FD0761F480819181E2
:100EF0000296840F951FE9019983888382819381EB
:100F00009B838A83F0E0E0E012968D919C91139789
:100F10000097B9F52D913C911197CD010296820F62
:100F2000931F2091F0013091F1012817390739F60C
:100F3000309751F51092F3011092F201B093F10144
:100F4000A093F001BCCFD383C28340815181840F31
:100F5000951FC817D90761F44E5F5F4F888199814B
:100F6000480F591F518340838A819B8193838283D9
:100F70002115310509F0B0CFF093F301E093F201B0
:100F80009ECFFD01DC01C0CF13821282D7CFB0E02B
:100F9000A0E0EDECF7E00C949F088C01009751F471
:100FA000CB010E94A2068C01C801CDB7DEB7E0E1FB
:100FB0000C94BB08FC01E60FF71F9C01225031097D
:100FC000E217F30708F49DC0D901CD91DC91119788
:100FD000C617D70798F0C530D10530F3CE01049776
:100FE0008617970708F3C61BD70B2297C193D19397
:100FF0006D937C93CF010E943E07D6CF5B01AC1A64
:10100000BD0A4C018C0E9D1EA091F201B091F3011E
:10101000512C412CF12CE12C109731F58091F001ED
:101020009091F1018815990509F05CC046165706A4
:1010300008F058C08091000190910101009741F49F
:101040008DB79EB74091040150910501841B950B0B
:10105000E817F90708F055C0F093F101E093F001AB
:10106000F90171836083A0CF8D919C9111971296A5
:101070006C90129713967C901397A815B90559F5A3
:101080006C0142E0C40ED11CCA14DB0420F1AC0197
:101090004A195B09DA011296159780F06282738211
:1010A00051834083D9016D937C93E114F10471F075
:1010B000D7011396FC93EE93129776CF22968C0F5E
:1010C0009D1FF90191838083F301EFCFF093F3012A
:1010D000E093F20169CF4816590608F42C017D010E
:1010E000D3019ACFCB010E94A2067C01009749F060
:1010F000AE01B8010E948408C8010E943E07870122
:1011000053CF10E000E050CFFB01DC0102C00190A2
:101110000D9241505040D8F70895FB01DC018D91AC
:10112000019080190110D9F3990B0895FB01DC019E
:1011300001900D920020E1F708952F923F924F9277
:101140005F926F927F928F929F92AF92BF92CF9257
:10115000DF92EF92FF920F931F93CF93DF93CDB760
:10116000DEB7CA1BDB0B0FB6F894DEBF0FBECDBFD8
:1011700009942A88398848885F846E847D848C84A9
:101180009B84AA84B984C884DF80EE80FD800C81B2
:101190001B81AA81B981CE0FD11D0FB6F894DEBF95
:1011A0000FBECDBFED01089510E0CEE5D0E004C044
:1011B000FE010E949C062196CF35D107C9F7F8940D
:0211C000FFCF5F
:1011C2000000F401800068656C6C6F20776F726CB0
:1011D2006400726563656976656420646174613A6E
:1011E200006F6E004F4E006F6666004F464600006D
:1011F200000000EB0139038C01CB015E0178016A2A
:04120200010D0A00D0
:00000001FF
