:020000040000FA
:100000000C945C000C9479000C9479000C947900A9
:100010000C9479000C9479000C9479000C9479007C
:100020000C9479000C9479000C9479000C9479006C
:100030000C9479000C9479000C9479000C9479005C
:100040000C94EC000C9479000C9479000C947900D9
:100050000C9479000C9479000C9479000C9479003C
:100060000C9479000C947900000000080002010053
:100070000003040700000000000000000000000072
:10008000250028002B0000000000240027002A0083
:10009000040404040404040402020202020203032E
:1000A0000303030301020408102040800102040836
:1000B000102001020408102011241FBECFEFD8E049
:1000C000DEBFCDBF12E0A0E0B1E0E8E4F4E002C0A2
:1000D00005900D92A233B107D9F722E0A2E3B2E076
:1000E00001C01D92AF33B207E1F70E9436010C94B4
:1000F00022020C94000090E0FC01E859FF4F24918B
:10010000FC01EC55FF4F3491FC01E057FF4FE491A7
:10011000EE23C9F0222339F0233001F1A8F4213075
:1001200019F1223029F1F0E0EE0FFF1FE458FF4FE4
:10013000A591B4918FB7F894EC91611126C03095D8
:100140003E233C938FBF08952730A9F02830C9F093
:10015000243049F7809180008F7D03C0809180001A
:100160008F7780938000DFCF84B58F7784BDDBCF1E
:1001700084B58F7DFBCF8091B0008F778093B000E6
:10018000D2CF8091B0008F7DF9CF3E2BDACF3FB731
:10019000F8948091370290913802A0913902B09181
:1001A0003A0226B5A89B05C02F3F19F00196A11D64
:1001B000B11D3FBFBA2FA92F982F8827BC01CD01B1
:1001C000620F711D811D911D42E0660F771F881F10
:1001D000991F4A95D1F708951F920F920FB60F926B
:1001E00011242F933F938F939F93AF93BF9380914D
:1001F000330290913402A0913502B09136023091D1
:10020000320223E0230F2D3758F50196A11DB11DB1
:10021000209332028093330290933402A0933502EC
:10022000B09336028091370290913802A091390242
:10023000B0913A020196A11DB11D809337029093AF
:100240003802A0933902B0933A02BF91AF919F91C7
:100250008F913F912F910F900FBE0F901F90189587
:1002600026E8230F0296A11DB11DD2CF789484B544
:10027000826084BD84B5816084BD85B5826085BDA2
:1002800085B5816085BD80916E00816080936E0030
:100290001092810080918100826080938100809122
:1002A00081008160809381008091800081608093D3
:1002B00080008091B10084608093B1008091B00093
:1002C00081608093B00080917A00846080937A008E
:1002D00080917A00826080937A0080917A008160B8
:1002E00080937A0080917A00806880937A001092DF
:1002F000C10010923E0210923D0280913D02909109
:100300003E0280319105ECF150E0E52E50E0F52EF3
:1003100010923E0210923D0200913D0210913E0269
:10032000083811050CF087C010923C0210923B0275
:10033000C801880F991F9C012C5D3E4F5901C09147
:100340003B02D0913C02C031D1050CF049C0FE0106
:10035000EE0FFF1FE050FF4F8081F50120813181BA
:100360000C2E02C0369527950A94E2F761E020FD35
:1003700060E00E947B002196D0933C02C0933B0238
:10038000DECF880F991FFC01E050FF4F80819181E3
:100390009927FC01EC55FF4F249180579F4FFC019A
:1003A0008491882399F090E0880F991FFC01EA5707
:1003B000FF4FA591B491FC01E458FF4F85919491B2
:1003C0008FB7F894EC91E22BEC938FBF80913D02B4
:1003D00090913E02019690933E0280933D028DCF14
:1003E0000E94C7002B013C0182E3882E912CA12C96
:1003F000B12C0E94C7006419750986099709683EE7
:10040000734081059105A8F321E0821A9108A108A3
:10041000B10838EE430E33E0531E611C711C811489
:100420009104A104B10429F70F5F1F4F10933E02FE
:1004300000933D0271CFE114F10409F469CF0E94E9
:10044000000066CFF894FFCF02000300040005000F
:1004500006000700080009000A000B000C000D0050
:100460000E000F001000110012001300FFFCFFF936
:10047000FFF3FFE7FFCFFF9FFF3FFE7FFCFFF9FF8A
:10048000F3FFE7FFCFFF9FFF3FFFFFFFE7E7DBDB68
:10049000BDBD7E7EBDBDDBDBE7E7FFFFE7E7C3C396
:1004A000818100008181C3C3E7E7FFFFAAAA5555F8
:1004B0001818FFFFF0F00F0F0000FFFFF8F8F1F140
:1004C000E3E3C7C78F8F1F1F3F3F7F7F7F7F3F3F84
:1004D0001F1F8F8FC7C7E3E3F1F1F8F8FFFF00009C
:1004E0000000FFFFFFFF0F0FF0F0FFFEFFFDFFFB1F
:1004F000FFF7FFEFFFDFFFBFFF7FFEFFFDFFFBFF0B
:10050000F7FFEFFFDFFFBFFF7FFF7FFFBFFFDFFFD3
:10051000EFFFF7FFFBFFFDFFFEFFFF7FFFBFFFDFEA
:10052000FFEFFFF7FFFBFFFDFFFEFFFEFFFCFFF805
:10053000FFF0FFE0FFC0FF80FF00FE00FC00F800BE
:10054000F000E000C0008000000000008000C0005B
:10055000E000F000F800FC00FE00FF00FF80FFC09C
:10056000FFE0FFF0FFF8FFFCFFFE0000FFFF0000D0
:0A057000FFFF0000FFFF0000FFFF87
:107E0000112484B714BE81FFF0D085E080938100F7
:107E100082E08093C00088E18093C10086E0809377
:107E2000C20080E18093C4008EE0C9D0259A86E02C
:107E300020E33CEF91E0309385002093840096BBD3
:107E4000B09BFECF1D9AA8958150A9F7CC24DD24C4
:107E500088248394B5E0AB2EA1E19A2EF3E0BF2EE7
:107E6000A2D0813461F49FD0082FAFD0023811F036
:107E7000013811F484E001C083E08DD089C08234E0
:107E800011F484E103C0853419F485E0A6D080C0E4
:107E9000853579F488D0E82EFF2485D0082F10E0AE
:107EA000102F00270E291F29000F111F8ED06801E7
:107EB0006FC0863521F484E090D080E0DECF843638
:107EC00009F040C070D06FD0082F6DD080E0C81688
:107ED00080E7D80618F4F601B7BEE895C0E0D1E017
:107EE00062D089930C17E1F7F0E0CF16F0E7DF06D8
:107EF00018F0F601B7BEE89568D007B600FCFDCFD4
:107F0000A601A0E0B1E02C9130E011968C91119780
:107F100090E0982F8827822B932B1296FA010C0160
:107F200087BEE89511244E5F5F4FF1E0A038BF0790
:107F300051F7F601A7BEE89507B600FCFDCF97BE46
:107F4000E89526C08437B1F42ED02DD0F82E2BD052
:107F50003CD0F601EF2C8F010F5F1F4F84911BD097
:107F6000EA94F801C1F70894C11CD11CFA94CF0C13
:107F7000D11C0EC0853739F428D08EE10CD085E9AC
:107F80000AD08FE07ACF813511F488E018D01DD067
:107F900080E101D065CF982F8091C00085FFFCCF94
:107FA0009093C60008958091C00087FFFCCF809118
:107FB000C00084FD01C0A8958091C6000895E0E648
:107FC000F0E098E1908380830895EDDF803219F02E
:107FD00088E0F5DFFFCF84E1DECF1F93182FE3DFCA
:107FE0001150E9F7F2DF1F91089580E0E8DFEE27F6
:047FF000FF270994CA
:027FFE00040479
:00000001FF
