:100000000C945C000C946E000C946E000C946E00CA
:100010000C946E000C946E000C946E000C946E00A8
:100020000C946E000C946E000C946E000C946E0098
:100030000C946E000C946E000C946E000C946E0088
:100040000C94DB000C946E000C946E000C946E000B
:100050000C946E000C946E000C946E000C946E0068
:100060000C946E000C946E00000000080002010069
:100070000003040700000000000000000000000072
:10008000250028002B0000000000240027002A0083
:10009000040404040404040402020202020203032E
:1000A0000303030301020408102040800102040836
:1000B000102001020408102011241FBECFEFD8E049
:1000C000DEBFCDBF21E0A0E0B1E001C01D92AF30A6
:1000D000B207E1F70E9425010C940F020C94000076
:1000E00090E0FC01EC55FF4F249180579F4FFC019D
:1000F0008491882399F090E0880F991FFC01EA57BA
:10010000FF4FA591B491FC01E458FF4F8591949164
:100110008FB7F894EC91E22BEC938FBF089590E0A9
:10012000FC01E859FF4F2491FC01EC55FF4F34913D
:10013000FC01E057FF4FE491EE23C9F0222339F090
:10014000233001F1A8F4213019F1223029F1F0E037
:10015000EE0FFF1FE458FF4FA591B4918FB7F894AD
:10016000EC91611126C030953E233C938FBF0895DA
:100170002730A9F02830C9F0243049F78091800059
:100180008F7D03C0809180008F7780938000DFCFC8
:1001900084B58F7784BDDBCF84B58F7DFBCF809115
:1001A000B0008F778093B000D2CF8091B0008F7D68
:1001B000F9CF3E2BDACF1F920F920FB60F92112478
:1001C0002F933F938F939F93AF93BF9380910B0196
:1001D00090910C01A0910D01B0910E0130910A0196
:1001E00023E0230F2D3758F50196A11DB11D209353
:1001F0000A0180930B0190930C01A0930D01B09321
:100200000E018091060190910701A0910801B09123
:1002100009010196A11DB11D80930601909307016C
:10022000A0930801B0930901BF91AF919F918F9165
:100230003F912F910F900FBE0F901F90189526E8B9
:10024000230F0296A11DB11DD2CF789484B5826090
:1002500084BD84B5816084BD85B5826085BD85B56A
:10026000816085BD80916E00816080936E001092E8
:100270008100809181008260809381008091810063
:1002800081608093810080918000816080938000F4
:100290008091B10084608093B1008091B000816052
:1002A0008093B00080917A00846080937A0080917E
:1002B0007A00826080937A0080917A0081608093D6
:1002C0007A0080917A00806880937A001092C10051
:1002D00087E00E94700086E00E94700085E00E9426
:1002E000700024E1D22E30E0E32E30E0F32E1092A5
:1002F000050110920401809104019091050184315F
:1003000091050CF085C0D89E8001D99E100D112456
:1003100060E085E00E948F0060E086E00E948F0030
:10032000E801D595C795D595C795D0930301C0939E
:10033000020161E0C7FF60E087E00E948F0061E09A
:1003400086E00E948F0060E086E00E948F0061E0FE
:10035000C6FF60E087E00E948F0061E086E00E94B7
:100360008F0060E086E00E948F00109303010093ED
:1003700002011092010110920001C0910001D09180
:100380000101C830D105F4F400910201109103017C
:1003900061E007FF60E087E00E948F0061E086E097
:1003A0000E948F0060E086E00E948F00000F111F06
:1003B00010930301009302012196D0930101C09391
:1003C0000001DBCF60E087E00E948F0061E086E003
:1003D0000E948F0060E086E00E948F0060E087E06E
:1003E0000E948F0061E086E00E948F0060E086E05E
:1003F0000E948F0061E085E00E948F0080910401DF
:10040000909105010196909305018093040173CFAB
:10041000E114F10409F46BCF0E94000068CFF89456
:02042000FFCF0C
:00000001FF
