:100000000C945D000C9485000C9485000C94850084
:100010000C9485000C9485000C9485000C9485004C
:100020000C9485000C9485000C9485000C9485003C
:100030000C9485000C9485000C9485000C9485002C
:100040000C9424020C9485000C9494020C946E027F
:100050000C9485000C9485000C9485000C9485000C
:100060000C9485000C94850000000008000201003B
:100070000003040700000000000000000000000072
:10008000250028002B0000000000240027002A0083
:10009000040404040404040402020202020203032E
:1000A0000303030301020408102040800102040836
:1000B0001020010204081020C10311241FBECFEF3D
:1000C000D8E0DEBFCDBF11E0A0E0B1E0ECE3F8E0A6
:1000D00002C005900D92A232B107D9F721E0A2E249
:1000E000B1E001C01D92A83CB207E1F710E0CDE5F8
:1000F000D0E004C02197FE010E941604CC35D10740
:10010000C9F70E94C6020C941C040C94000090E0F5
:10011000FC01EC55FF4F249180579F4FFC018491C7
:10012000882399F090E0880F991FFC01EA57FF4F50
:10013000A591B491FC01E458FF4F859194918FB73C
:10014000F894EC91E22BEC938FBF089590E0FC01C2
:10015000E859FF4F2491FC01EC55FF4F3491FC010D
:10016000E057FF4FE491EE23C9F0222339F023300A
:1001700001F1A8F4213019F1223029F1F0E0EE0F5D
:10018000FF1FE458FF4FA591B4918FB7F894EC91FD
:10019000611126C030953E233C938FBF08952730D0
:1001A000A9F02830C9F0243049F7809180008F7D74
:1001B00003C0809180008F7780938000DFCF84B56B
:1001C0008F7784BDDBCF84B58F7DFBCF8091B0006E
:1001D0008F778093B000D2CF8091B0008F7DF9CF20
:1001E0003E2BDACF3FB7F8948091C4019091C501BE
:1001F000A091C601B091C70126B5A89B05C02F3FAD
:1002000019F00196A11DB11D3FBFBA2FA92F982F3C
:100210008827BC01CD01620F711D811D911D42E037
:10022000660F771F881F991F4A95D1F70895AF92DF
:10023000BF92CF92DF92EF92FF920F931F93CF93D3
:10024000DF936C017B018B01040F151FEB015E0135
:10025000AE18BF08C017D10759F06991D601ED91CA
:10026000FC910190F081E02DC6010995892B79F769
:10027000C501DF91CF911F910F91FF90EF90DF901B
:10028000CF90BF90AF900895FC01538D448D252FE2
:1002900030E0842F90E0821B930B541710F0CF9620
:1002A000089501970895FC01918D828D981761F052
:1002B000A28DAE0FBF2FB11D5D968C91928D9F5F69
:1002C0009F73928F90E008958FEF9FEF0895FC0148
:1002D000918D828D981731F0828DE80FF11D858DFB
:1002E00090E008958FEF9FEF0895FC01918D228D8E
:1002F000892F90E0805C9F4F821B91098F73992713
:10030000089582E291E00E94750121E0892B09F4B1
:1003100020E0822F089580E090E0892B29F00E9450
:10032000810181110C9400000895FC01A48DA80F97
:10033000B92FB11DA35ABF4F2C91848D90E0019627
:100340008F739927848FA689B7892C93A089B18947
:100350008C91837080648C93938D848D981306C0E8
:100360000288F389E02D80818F7D80830895EF924C
:10037000FF920F931F93CF93DF93EC0181E0888F5F
:100380009B8D8C8D98131AC0E889F989808185FF2F
:1003900015C09FB7F894EE89FF896083E889F989D1
:1003A00080818370806480839FBF81E090E0DF91D3
:1003B000CF911F910F91FF90EF900895F62E0B8D26
:1003C00010E00F5F1F4F0F731127E02E8C8D8E11E1
:1003D0000CC00FB607FCFACFE889F989808185FF48
:1003E000F5CFCE010E949501F1CFEB8DEC0FFD2FE3
:1003F000F11DE35AFF4FF0829FB7F8940B8FEA8903
:10040000FB8980818062CFCFCF93DF93EC01888D11
:100410008823B9F0AA89BB89E889F9898C9185FD7F
:1004200003C0808186FD0DC00FB607FCF7CF8C910D
:1004300085FFF2CF808185FFEDCFCE010E9495012F
:10044000E9CFDF91CF9108951F920F920FB60F92CF
:1004500011242F933F938F939F93AF93BF938091DA
:10046000C0019091C101A091C201B091C30130912E
:10047000BF0123E0230F2D3758F50196A11DB11DB3
:100480002093BF018093C0019093C101A093C2014A
:10049000B093C3018091C4019091C501A091C601A0
:1004A000B091C7010196A11DB11D8093C401909325
:1004B000C501A093C601B093C701BF91AF919F91B1
:1004C0008F913F912F910F900FBE0F901F90189515
:1004D00026E8230F0296A11DB11DD2CF1F920F92C5
:1004E0000FB60F9211242F933F934F935F936F9307
:1004F0007F938F939F93AF93BF93EF93FF9382E28A
:1005000091E00E949501FF91EF91BF91AF919F9172
:100510008F917F916F915F914F913F912F910F90AC
:100520000FBE0F901F9018951F920F920FB60F924B
:1005300011242F938F939F93EF93FF93E0913201B8
:10054000F09133018081E0913801F091390182FD11
:100550001BC0908180913B018F5F8F7320913C0184
:10056000821741F0E0913B01F0E0EE5DFE4F958F88
:1005700080933B01FF91EF919F918F912F910F906D
:100580000FBE0F901F9018958081F4CF789484B59A
:10059000826084BD84B5816084BD85B5826085BD7F
:1005A00085B5816085BD80916E00816080936E000D
:1005B00010928100809181008260809381008091FF
:1005C00081008160809381008091800081608093B0
:1005D00080008091B10084608093B1008091B00070
:1005E00081608093B00080917A00846080937A006B
:1005F00080917A00826080937A0080917A00816095
:1006000080937A0080917A00806880937A001092BB
:10061000C100E0913201F091330182E08083E091EA
:100620002E01F0912F011082E0913001F091310103
:100630008FEC808310923A01E0913601F0913701FE
:1006400086E08083E0913401F09135018081806102
:100650008083E0913401F09135018081886080834E
:10066000E0913401F0913501808180688083E091D0
:100670003401F091350180818F7D80838CE00E9470
:1006800087008BE00E9487008DE00E94870060E079
:100690008BE00E94A6008AE00E94870061E08AE069
:1006A0000E94A6002AE0822E912C30E0A32E30E09A
:1006B000B32E0AE010E0D0E0C0E061E08AE00E94E2
:1006C000A60060E08CE00E94A600FE01EE5EFE4FF8
:1006D000E08098E0F92E6E2D661F6627661F8BE07E
:1006E0000E94A600EE0C61E08DE00E94A60060E092
:1006F0008DE00E94A600FA94F110EDCF61E08CE04D
:100700000E94A6000E94F2002B013C0184EFC82E3B
:10071000DD24D394E12CF12C0E94F20064197509B8
:1007200086099709683E734081059105A8F321E089
:10073000C21AD108E108F10888EE480E83E0581E7D
:10074000611C711CC114D104E104F10429F760E0BB
:100750008AE00E94A600CE010196B4010E94EE0339
:10076000EC010150110909F0A8CFA114B10409F45A
:10077000A0CF0E948101882309F49BCF0E94000032
:1007800098CFE2E2F1E01382128288EE93E0A0E0DB
:10079000B0E084839583A683B78384E091E091835E
:1007A000808385EC90E09587848784EC90E0978740
:1007B000868780EC90E0918B808B81EC90E0938B2E
:1007C000828B82EC90E0958B848B86EC90E0978B0B
:1007D000868B118E128E138E148E089597FB072E22
:1007E00016F4009407D077FD09D00E94020407FC9C
:1007F00005D03EF4909581959F4F08957095619531
:100800007F4F0895AA1BBB1B51E107C0AA1FBB1F46
:10081000A617B70710F0A61BB70B881F991F5A958C
:10082000A9F780959095BC01CD010895EE0FFF1FAB
:0C0830000590F491E02D0994F894FFCF9E
:10083C0000000000B70117014401040275015301C7
:10084C006701C0F9A4B0999282F880908883C6A100
:02085C00868E86
:00000001FF
