:020000040000FA
:100000000C9461000C947E000C947E000C947E0095
:100010000C947E000C947E000C947E000C947E0068
:100020000C947E000C947E000C947E000C947E0058
:100030000C947E000C947E000C947E000C947E0048
:100040000C9488010C947E000C947E000C947E002D
:100050000C947E000C947E000C947E000C947E0028
:100060000C947E000C947E00000000002400270009
:100070002A0000000000250028002B0000000000DE
:1000800023002600290004040404040404040202DA
:100090000202020203030303030301020408102007
:1000A0004080010204081020010204081020000012
:1000B0000008000201000003040700000000000027
:1000C000000011241FBECFEFD8E0DEBFCDBF11E08E
:1000D000A0E0B1E0E0EBF6E002C005900D92A631A1
:1000E000B107D9F721E0A6E1B1E001C01D92A63227
:1000F000B207E1F70E94D2010C9456030C94000061
:10010000833081F028F4813099F08230A9F008958D
:100110008730A9F08830C9F08430B1F48091800034
:100120008F7D03C0809180008F7780938000089539
:1001300084B58F7784BD089584B58F7DFBCF809182
:10014000B0008F778093B00008958091B0008F7DCC
:10015000F9CFCF93DF93282F30E0F901E255FF4F1D
:100160008491F901E656FF4FD491F901EA57FF4F08
:10017000C491CC23A1F081110E948000EC2FF0E00B
:10018000EE0FFF1FE458FF4FA591B491EC91ED23C2
:1001900081E090E009F480E0DF91CF91089580E064
:1001A00090E0FACF1F93CF93DF93282F30E0F9012F
:1001B000E255FF4F8491F901E656FF4FD491F901C2
:1001C000EA57FF4FC491CC23A9F0162F81110E944A
:1001D0008000EC2FF0E0EE0FFF1FEE58FF4FA591CF
:1001E000B4918FB7F894EC91111108C0D095DE232B
:1001F000DC938FBFDF91CF911F910895DE2BF8CF55
:10020000CF93DF9390E0FC01E656FF4F24918A578D
:100210009F4FFC0184918823D1F090E0880F991FB3
:10022000FC01E859FF4FA591B491FC01EE58FF4F36
:10023000C591D491623071F49FB7F8943C91822FAC
:10024000809583238C93E8812E2B28839FBFDF9199
:10025000CF9108958FB7F894EC912E2B2C938FBFEC
:10026000F6CF3FB7F89480911B0190911C01A091AB
:100270001D01B0911E0126B5A89B05C02F3F19F0A6
:100280000196A11DB11D3FBFBA2FA92F982F882716
:10029000BC01CD01620F711D811D911D42E0660FF1
:1002A000771F881F991F4A95D1F708958F929F92C3
:1002B000AF92BF92CF92DF92EF92FF924B015C011F
:1002C0000E9431016B017C010E9431016C197D0992
:1002D0008E099F09683E734081059105A8F321E0CE
:1002E000821A9108A108B10888EEC80E83E0D81ED2
:1002F000E11CF11C81149104A104B10429F7FF90C1
:10030000EF90DF90CF90BF90AF909F908F90089527
:100310001F920F920FB60F9211242F933F938F933A
:100320009F93AF93BF938091170190911801A09173
:100330001901B0911A013091160123E0230F2D37D6
:1003400058F50196A11DB11D209316018093170148
:1003500090931801A0931901B0931A0180911B0189
:1003600090911C01A0911D01B0911E010196A11D4B
:10037000B11D80931B0190931C01A0931D01B093AC
:100380001E01BF91AF919F918F913F912F910F903F
:100390000FBE0F901F90189526E8230F0296A11DFF
:1003A000B11DD2CFCF93DF9300D0CDB7DEB7789415
:1003B00084B5826084BD84B5816084BD85B582606A
:1003C00085BD85B5816085BD80916E00816080931B
:1003D0006E00109281008091810082608093810084
:1003E0008091810081608093810080918000816094
:1003F000809380008091B10084608093B1008091EF
:10040000B00081608093B00080917A008460809316
:100410007A0080917A00826080937A0080917A00DD
:10042000816080937A0080917A00806880937A005E
:100430001092C10010922501109125011A3060F42C
:10044000E12FF0E0EC5FFE4F61E080810E9400014F
:100450001F5F10932501F0CF109225011091250107
:10046000123060F4E12FF0E0EE5FFE4F61E080813A
:100470000E9400011F5F10932501F0CF8AE0809356
:100480002501109125011D3030F19AE0492E512CA3
:1004900020E0622E20E0722E3CE3C32ED12CAA2451
:1004A000A394B12C8091000190910101B2010E94AE
:1004B0002E0369838A83109225013090250182E002
:1004C000831508F4C3C031100EC061E088E00E94BB
:1004D000D20060E010C062E0812F0E9400011F5F27
:1004E00010932501CECF60E088E00E94D200E1E0C9
:1004F00061E03E12EECF89E00E94D200E1E0F0E040
:10050000EC0FFD1FE30DF11DE081F0E0E45FFE4F15
:10051000E08084E0882E81E0982E10E000E0F12C4D
:10052000F40181914F019701002E02C03595279566
:100530000A94E2F761E020FF60E00E94D2000F5FC2
:100540001F4F0830110561F761E070E080E090E036
:100550000E94560100912301109124010F5F1F4F4B
:1005600010932401009323018AE00E94A900892BA3
:1005700079F46AE070E080E090E00E9456018AE041
:100580000E94A900892B21F4B0922201A09221019E
:100590008BE00E94A900892B79F46AE070E080E08A
:1005A00090E00E9456018BE00E94A900892B21F463
:1005B00010922201109221018CE00E94A900892B47
:1005C00079F46AE070E080E090E00E9456018CE0EF
:1005D0000E94A900892B21F4B0922001A0921F0152
:1005E0008091210190912201019781F40D321140F7
:1005F0006CF08091000190910101019790930101AD
:1006000080930001109224011092230180911F0118
:1006100090912001019761F4D0920101C0920001F4
:100620001092200110921F011092220110922101BC
:10063000809100019091010197FF04C0D0920101C7
:10064000C092000133943092250137CF61147104B8
:1006500009F428CF0E94000025CF089597FB072EAC
:1006600016F4009407D077FD09D00E94420307FCDE
:1006700005D03EF4909581959F4F089570956195B2
:100680007F4F0895AA1BBB1B51E107C0AA1FBB1FC8
:10069000A617B70710F0A61BB70B881F991F5A950E
:1006A000A9F780959095BC01CD010895F894FFCFEE
:1006B0003C0008090001020304050607C0F9A4B0C4
:0606C000999282F880907F
:107E0000112484B714BE81FFF0D085E080938100F7
:107E100082E08093C00088E18093C10086E0809377
:107E2000C20080E18093C4008EE0C9D0259A86E02C
:107E300020E33CEF91E0309385002093840096BBD3
:107E4000B09BFECF1D9AA8958150A9F7CC24DD24C4
:107E500088248394B5E0AB2EA1E19A2EF3E0BF2EE7
:107E6000A2D0813461F49FD0082FAFD0023811F036
:107E7000013811F484E001C083E08DD089C08234E0
:107E800011F484E103C0853419F485E0A6D080C0E4
:107E9000853579F488D0E82EFF2485D0082F10E0AE
:107EA000102F00270E291F29000F111F8ED06801E7
:107EB0006FC0863521F484E090D080E0DECF843638
:107EC00009F040C070D06FD0082F6DD080E0C81688
:107ED00080E7D80618F4F601B7BEE895C0E0D1E017
:107EE00062D089930C17E1F7F0E0CF16F0E7DF06D8
:107EF00018F0F601B7BEE89568D007B600FCFDCFD4
:107F0000A601A0E0B1E02C9130E011968C91119780
:107F100090E0982F8827822B932B1296FA010C0160
:107F200087BEE89511244E5F5F4FF1E0A038BF0790
:107F300051F7F601A7BEE89507B600FCFDCF97BE46
:107F4000E89526C08437B1F42ED02DD0F82E2BD052
:107F50003CD0F601EF2C8F010F5F1F4F84911BD097
:107F6000EA94F801C1F70894C11CD11CFA94CF0C13
:107F7000D11C0EC0853739F428D08EE10CD085E9AC
:107F80000AD08FE07ACF813511F488E018D01DD067
:107F900080E101D065CF982F8091C00085FFFCCF94
:107FA0009093C60008958091C00087FFFCCF809118
:107FB000C00084FD01C0A8958091C6000895E0E648
:107FC000F0E098E1908380830895EDDF803219F02E
:107FD00088E0F5DFFFCF84E1DECF1F93182FE3DFCA
:107FE0001150E9F7F2DF1F91089580E0E8DFEE27F6
:047FF000FF270994CA
:027FFE00040479
:00000001FF
