:100000000EC300001EC300001CC300001AC3000082
:1000100018C300000C94842814C300000C94310809
:1000200010C300000EC300000C94641D0C946828DB
:100030000C9476280C943E1D04C3000002C30000FB
:1000400000C30000FEC20000FCC20000FAC20000B3
:10005000F8C200000C943208F4C20000F2C20000A2
:10006000F0C20000EEC20000E62FF72F903009F436
:100070009395E5B8C4B8B6EFB0937A00A5E0A09325
:100080007B00A8E0A093810010928000AFEFA093C6
:100090008500A0938400A6E0A093360010928B0008
:1000A00010928A00B3E0AFE3A91B51E0392F33303F
:1000B0002AF0A05CBC4F53953350F9CFB093890020
:1000C000A0938800A0917A00A4FFFCCFB6EBB09378
:1000D0007A00A2E0A0936F00A9E0A093810062E003
:1000E000A0E0A0937B00A1E0A09353008895E5B821
:1000F000C4B884FF1AC0A8E10000AA95F1F7EF93F5
:10010000FF93E7B1F8B1A4E0C2FCA2E0C0FCA1E01B
:10011000BF2FBA2BAE2BB8B904B9A7B9E7B9F8B954
:10012000FF91EF910BC00C947300ACE10000000054
:10013000AA95F1F725B9E5B8000004B9A0918400AB
:10014000A0918500B0918900A395AB1760F7A091AD
:100150007A00A4FFF3CFB6EBB0937A006A9571F7FB
:100160006091780070917900308186FD630F619312
:10017000308186FD731F80FF7193652F4A9579F753
:1001800010926F0010928100B6E0B0937A0008954B
:10019000705780508D4A6645E340E83C5E393336FF
:1001A0005A33C6306D2E492C532A8428DA264E2520
:1001B000DF2389224A212020081F011E091D201C3F
:1001C000431B731AAD19F1183F189517F4165A16F8
:1001D000C6153A15B3143214B7134013CE12611278
:1001E000F81193113111D310781000001400290078
:1001F0003E005300690080009700AE00C600DF009B
:10020000F80012012D01490165018201A001BE0122
:10021000DE01FF012102440268028E02B502DE0205
:100220000903350364039403C803FE03370473040E
:10023000B404F90443059305EA054906B306290702
:10024000AE074808FF08DE09FD0A930C480F991B0A
:10025000B903870358032E030703E402C302A40271
:10026000880254657374696E672E007765616B0050
:10027000656D707479210064616D6167656420004B
:1002800070617274005472696163005468797269B4
:1002900073742E0020756E6B6E6F776E004E6F2C30
:1002A00020756E6B6E6F776E2C206F720020646508
:1002B0007465637465640054696D656F75742100BD
:1002C00053656C6674657374206D6F64652E2E00C3
:1002D00069736F6C6174652050726F626573210081
:1002E0005465737420456E640053656C656374696E
:1002F0006F6E3A005472616E736973746F72005658
:100300006F6C746167650053686F77206461746116
:1003100000537769746368206F666600662D4765D1
:100320006E657261746F720031302D626974205095
:10033000574D004328E446292D636F72726563743C
:10034000696F6E007475726E210053656C6674651A
:1003500073740073686F72742050726F62657321DA
:10036000004261742E20004F4B00444320507772AE
:10037000204D6F6465002D4D4F53004A4645540093
:100380002D4947425400423D00433D00433D004E4D
:10039000504E00504E5000203132333D00556265C2
:1003A0003D0055663D002056743D004056673D00B7
:1003B0002D032D0043656C6C21005643433D002006
:1003C0004553523D0020566C6F73733D004C3D0009
:1003D000202049723D004E6F742063616C69627227
:1003E000617465642120466F72FF63616C6962729B
:1003F0006174696F6E20636C616D70207468652034
:1004000033FF70696E7320746F676574686572205E
:10041000616E6420737461727420776974682074EB
:100420006865FF6B65792E2041636B6E6F776C6535
:10043000646765207468652073656C662D746573E8
:1004400074207769746820746865206B65792077FB
:10045000697468696EFF32732E20446973636F6E2E
:100460006E6563742070696E7320616674657220B6
:10047000746865FF6D657373616765202269736FCA
:100480006C617465FF50726F626521222069732070
:1004900073686F776E2E20536F6674776172652074
:1004A000616E6420646F63756D656E746174696FED
:1004B0006E2069732061742073766E3A2F2F206D41
:1004C000696B726F636F6E74726F6C6C65722E20E5
:1004D0006E65742F7472616E736973746F722074B9
:1004E000657374657220002D012D002D022D0020F2
:1004F00040302D35560020696620007A20513D009D
:100500002A012020002D07062D002D77772D00567B
:10051000657273696F6E20312E31336B004943452C
:10052000303D00494345733D005265663D005248E9
:10053000663D0052482D0052482B002B524C2D2076
:100540003132203133203233002B52482D203132CA
:100550002031332032330052482F524C0052303D6C
:100560000052695F48693D0052695F4C6F3D00432E
:10057000302000433073616D702000203530487AA0
:1005800000664054503200432B4553524054503182
:100590003A3300312D07062D77772D332000312D8A
:1005A000032D3320005B435D005244533D001B1B71
:1005B0001B1B1B1B1B0011191D1F1D1911001113E3
:1005C000171F17131100000F0818080F0000001E56
:1005D0000203021E0000041F111111111F04010467
:1005E00010090A0C66706EE46D006B4D203E3130D0
:1005F000306E46005245465F433D005245465F52CD
:100600003D00312D032D3320342D33306E46284CE0
:1006100029002020202020205B524C5D0000112466
:100620001FBECFEFD8E0DEBFCDBF11E0A0E0B1E04C
:1006300001C01D92AA3BB107E1F70E94080D0C947E
:100640008F34DECC80FD5C9A80FF5C98549A000069
:100650005D9A559A589859985A985B9864FD589A9B
:10066000509A65FD599A519A66FD5A9A529A67FDB9
:100670005B9A539A00005D9874D387FD10C05D9A11
:10068000589859985A985B9860FD589A61FD599A04
:1006900062FD5A9A63FD5B9A00005D9862C30895FB
:1006A00080913B01809300018091A1018093020120
:1006B000089508958DE01FD38AE01DC3682F80E060
:1006C000C1DF46C360933B01813019F4862F80540B
:1006D00002C0862F8058F2CF809102016091000104
:1006E000F1CF83E08093A10180EDE8DF10923B0120
:1006F000E1CF82E08093A10180E9E0DF10923B012D
:10070000D9CF81E08093A10180ECD8DF10923B012A
:10071000D1CF1092A10180E8D1DF10923B01CACF66
:1007200081E0CCDF82E01FD3F4CF1F93182F80919C
:100730003B018F5F80933B0181E0612F83DF08D312
:10074000183048F41630C0F4123071F0133081F0D4
:100750001130F1F407C0143E99F0143F99F01D32A6
:10076000B9F40CC08EE305C08CE7C5D28CE311C090
:100770008CE7C1D28CE70DC082E50BC08DE209C0C9
:1007800085E707C08FE4B7D288E6B5D28DE601C011
:10079000812FB1D2A8951F9108950F931F93CF93E6
:1007A000DF938C01C0E0D0E0F801EC0FFD1FE49175
:1007B0008E2FBBDF2196C830D105B1F7DF91CF91E5
:1007C0001F910F91089584E1CED283E377DF82E316
:1007D00075DF82E0C8D280E271DF80E26FDF8AE2FB
:1007E0006DDF88E06BDF86E069DF82E067DF98DF3E
:1007F00081E0B9D28CE062DF88E460DF86EB95E0CF
:10080000CCDF80E55BDF8EEB95E0C7DF88E556DF68
:100810008EEA95E0C2DF88E751DF86EC95E0BDDF28
:1008200080E74CDF8EEC95E0B8DF80E447DF86EDB3
:1008300095E0B3CFCF93DF93EC01FE018491882341
:1008400029F0803819F071DF2196F7CFDF91CF9131
:1008500008950F9389E893E0EDDF409185014D3FC6
:1008600064F46091730170917401809175019091AD
:10087000760126E403E02CD102C08FE356DF0F910E
:100880000895CF93DF93EC0102C04FDF219688815A
:100890008823D9F7DF91CF9108958DE346CF80E289
:1008A00044CF1F93182F02C0FADF11501116E4F342
:1008B0001F91089590913B0180E1891BF2CF21DFC8
:1008C000F9DF1FCF26DFF6DF24CF1F93182FF2DFCB
:1008D0008091A1018F5F8093A101823030F081E08F
:1008E0008093A10180933E0102C010923E0180914D
:1008F000A101612FE7DEDEDE1F9108958F5C15CF29
:10090000E4DF12D38091A101833008F0D3CE0895A3
:10091000982F809119018F70823079F4892FF0DF40
:1009200089EA95E087DFE0913C01F0913D01848107
:1009300095816FEF44EF22E0D1C1089597FF09C080
:100940008F939F938DE2F1DE9F918F91909581958A
:100950009F4F61E271E04AE050E00E943D3491CF48
:10096000EDDF01C0EBDF9BCFEF92FF920F931F9360
:10097000182F062FF42E87E993E05CDFEE24E09138
:100980003C01F0913D018685E81611F4812F09C0E4
:100990008485E81611F4802F04C08585E81611F4CB
:1009A0008F2DC3DEE3948E2D833049F71F910F9175
:1009B000FF90EF900895682F80E092E0662309F49D
:1009C00091E0623009F481E008950F93082FE2EA84
:1009D000F1E0880F880FE80FF11D6081718182813D
:1009E0009381643671058105910570F420910101B0
:1009F00027FD0AC0802FDFDF692F0E940C266EEFD3
:100A000023E044EF6BD104C04FEF04E024EF60D04B
:100A100046DF0F910895863058F4E5E9F1E0E80FDC
:100A2000F11DE80FF11D8081918163E04CD137CF3A
:100A300008951F93182F80916F01882319F02FDFDD
:100A400080E073DE5EDE82EA93E0F4DE812F829541
:100A50008F70E1DF812F8F70DEDF1F91089580910D
:100A60000D0182958F7018D080910D0183701AD07E
:100A700080910D01DECFE9E8F1E0E80FF11D089566
:100A8000CF93F9DF9081C681C91710F405D001C05A
:100A900011D005DFCF910895EEDF8F9380812EDF97
:100AA0008F9100C08F9387EE94E0C4DE8F91E3DFD7
:100AB000868124CFE0DF8F93868120DF8F9100C075
:100AC0008F938BEE94E0B6DE8F91D5DF808116CFC9
:100AD000AEE0B0E0EEE6F5E00C94E533142F422EE4
:100AE000602E9B01AC0169017A017FE0772E7022B4
:100AF00080E389838A838B838C838D838E83F7FE47
:100B00000BC08DE212DEF094E094D094C094C11C2E
:100B1000D11CE11CF11C04C005FF02C08BE205DE04
:100B200083E0781609F4BAC094E0791639F460E1EC
:100B3000862E67E2962EA12CB12C3CC0A5E07A1639
:100B400041F450EA852E56E8952E51E0A52EB12CA1
:100B500031C0B6E07B1641F440E4842E42E4942E8A
:100B60004FE0A42EB12C26C087E0781641F430E87F
:100B7000832E36E9932E38E9A32EB12C1BC024E630
:100B8000822E912CA12CB12C15C085E090E0A0E024
:100B9000B0E0C80ED91EEA1EFB1EC701B6012AE04E
:100BA00030E040E050E00E94A633C901DA016C0158
:100BB0007D011F5FC814D904EA04FB0430F7812FBC
:100BC0008F5E63E00E947333A82E86E0811B0E9433
:100BD0007333B92E8E01095F1F4FC701B601A801FB
:100BE0002AE030E00E941A34F80101900020E9F771
:100BF00031971E2F101BC12EDD248B2D90E0049603
:100C00008C159D051CF4A39493E0B90EEA2DF0E039
:100C1000EC51FA4F549064FE05C0171518F4872D57
:100C2000811B01C080E0F12EFB18F80E1F1424F088
:100C30008EE27BDD8B2D811BBB2011F498EFF92E0A
:100C4000EE2490E05C01AC0CBD1C06E010E0081B3B
:100C5000190B4E010894811C911CCF2CDD24C7FC7C
:100C6000D0940EC0E80DF91DE00FF11F80815DDD0D
:100C7000E3948E2D90E08C159D0511F48EE255DDE8
:100C8000EE2DF0E0EA15FB056CF3552011F0852DF3
:100C90004CDD442051F0842D48DD07C088EE882EBD
:100CA00083E0982EA12CB12C85CF2E96E0E10C94F8
:100CB00001340F93042F40E028E40ADF8AE735DD92
:100CC000EEDD0F9108950F93062FA0E0B0E0BC0178
:100CD000CD014DEF26E5FCDE0F9108950F93362FE1
:100CE000542F022FA0E0B0E0BC01CD01432F252FEF
:100CF000EFDE0F9108958F932F932AE080953B9A12
:100D0000089410F4439802C0439A000020D027D0E2
:100D100086952A95B1F72F918F91089503D002D02F
:100D200001D000D000D003D002D001D000D000D03C
:100D300003D002D001D000D000D0A89503D002D0BB
:100D400001D000D000D003D002D001D000D000D01C
:100D500003D002D001D000D000D003D002D001D007
:100D600000D00000089590E0893C28F0885C48ECB1
:100D7000849FC0011124009709F4089520918100F7
:100D8000277019F0DADF0197F6CF8130910519F05D
:100D900002973EE303C037E180E090E02091B2008B
:100DA000230F2093B30042E04093700027E023BF5D
:100DB000889526E023BF10927000A895DCCF8F9312
:100DC00084E0D1DF07C08F9382E0CDDF03C08F9333
:100DD00081E0C9DF8F911F93182F106410937C005E
:100DE000E12FE07880912C01E81759F0E0932C0175
:100DF000AEDF8EE980937A0083E083BF889582E03E
:100E000083BF20E030E0A901E0E01FC08EE98093BD
:100E10007A0083E083BF889582E083BF6091780089
:100E200070917900260F371F411D511DE43061F488
:100E300080912E01803041F084E02030380720F48A
:100E400017FD02C01068CACFEF5F80912B01E81731
:100E5000E8F260912F017091300117FF04C060919A
:100E60002D0170912E0180E090E00E9454332FEF0D
:100E700033E040E050E00E94A633B901CA0120915E
:100E80002B0130E040E050E00E94A633C9011F91E1
:100E900008959B01281B390B50F0C9010895BC012E
:100EA00080912F01909130016817790718F4861B03
:100EB000970B089580E090E00895EF92FF920F93D2
:100EC0001F93CF93DF937C0114E64F9922C081E0FA
:100ED0004ADF1150D0F71DC082E045DF802F880F18
:100EE0004F9B8F5F082F0F730F3341F4112311F4C1
:100EF000E70114E01F5F183C28F010C0002311F434
:100F0000112361F4A8951C161D0634F42A9721F4C8
:100F100005C0E70110E005E5D7FFDECF812FCDB793
:100F2000DEB7E6E00C940B341F93BADB182F8091E8
:100F30003E018823C1F0813049F4113039F46FE06B
:100F4000C1DB8BE2F2DB81E06FE0BCDB80E49FE1A0
:100F5000B4DF113039F480913E01813019F460E042
:100F6000B1DBA8DCB9DB1F91089581E090E00E941D
:100F70005134382F82E090E00E94513420913301A7
:100F8000230F30913401381F20931601309317013D
:100F900083E0283E380720F0C901885E934002C0F4
:100FA00080E090E062E370E00E947F33683008F0F8
:100FB00067E0E0E5F2E0E60FF11DE60FF11D459177
:100FC00055912591359162E3681B421B530B649F39
:100FD000C001659F900D1124499662E370E00E9464
:100FE0007F33620F731F709372016093710180E011
:100FF00090E00E945134992787FD909560913301CC
:1010000070913401860F971F90932E0180932D01CC
:1010100090936E0180936D010895CF93DF9324E147
:1010200030E0B9010E947F33DC01EAEEF1E0E60F27
:10103000F71FE60FF71FC591D591459155914C1BB0
:101040005D0B4A9FC0014B9F900D5A9F900D11243C
:10105000B9010E947F336C0F7D1FCB01DF91CF91CF
:10106000089518951895CF93DF9330911801C0918A
:101070003C01D0913D01A9E8B1E0E0E0F0E015C00D
:101080009C858C91891779F016968C911697891703
:1010900051F0EE0FFF1FEB56FE4F80819181895E6C
:1010A000934030F406C0319611962E2FE31740F38B
:1010B00024E1822FDF91CF91089510921A011092AE
:1010C00018011092680110924E01109219011092AD
:1010D0003A0110926F011092530110925401109234
:1010E00055011092830182E08093840110920101E6
:1010F0001092820110928101109277011092780172
:101100001092790110927A0181EF809386010895FF
:10111000EF92FF920F931F93CF93DF93E62EE82F6A
:10112000F0E0EF51FA4FE491E8B9E860E7B915B89B
:10113000E62FF0E0E252FA4FE491E4B908E813E157
:10114000FE2EFF0C8E2D3BDEEC01F4B880179107CC
:1011500010F48C01F7CF0097E1F080ED93E06ADBAB
:10116000BE0180E090E020EA36E841E050E00E94D5
:10117000543328E937EB40E050E00E94A633DA010F
:10118000C90167EF41E422E0A9DD88E087B988B9A9
:1011900014B8CDB7DEB7E6E00C940B34809137017C
:1011A000882369F483E090E00E945134682F6F5FD8
:1011B00086E090E00E945E3481E0809337010895DC
:1011C0001F93CF93DF93162F98E097B998B9E82F24
:1011D000F0E0E252FA4F949195B9262F281B33275D
:1011E00027FD3095E20FF31FE491E92BE4B9F3DD1D
:1011F000EC01812FF0DDBC0120912F0130913001F5
:1012000036952795A90143505040CE014E96481778
:10121000590780F4255E3F4FC217D30758F4CB011E
:101220004E964817590730F480E06217730718F498
:1012300081E001C080E014B8DF91CF911F91089543
:101240000F931F9380E061E0BBDF082F80E062E036
:10125000B7DF182F81E062E0B3DF100F810F1F911D
:101260000F910895AEE0B0E0E8E3F9E00C94E333C9
:1012700010921A01C82EDD24807F89F4E1DF8330CB
:1012800009F0B5C34DDA80EC92E0D4DA3ADA8FE3B4
:101290004CDA80ED97E011DE8B30D0F414C010E012
:1012A00000E03EDA83E593E0C5DACADF833011F06F
:1012B00010E003C01F5F143058F488E254DD0F5F64
:1012C000063979F76CC02CDA8FE095E0B3DA8FC37A
:1012D00018DA0E9499208DE595E0ACDA89E290E079
:1012E00060E00E945E348AE290E060E00E945E343A
:1012F00088E290E060E00E945E3482E060E00E945C
:101300000C269A83898382E061E00E940C269C83EC
:101310008B8381E060E00E940C268C019E838D838C
:10132000E980FA80C7016EEF40E223E0D7DC8B81D1
:101330009C816EEF40E223E0D1DCC8016EEF44EF08
:1013400023E0CCDC2AE5E216F10424F084E190E00D
:101350009A83898389E290E069810E945E348B815F
:101360009C818A35910524F084E190E09C838B83F5
:101370008AE290E06B810E945E348D819E818A3585
:10138000910524F084E190E09E838D8388E290E0D3
:101390006D810E945E3482E080933E01C5DD9FE056
:1013A000692E712C6C207D2081E06816710409F093
:1013B00041C181E0A82EB12C02E0802E18E0C12EA0
:1013C000B0E25B2E2EC17BDA7DDA84E5AED9C501B1
:1013D000C0DA65DA91E0D916A9F489E295E02ADA53
:1013E000809133019091340164E06DDC8AD98EE202
:1013F00095E020DA8091710190917201AADA209231
:101400002B01F4C0E2E0DE1689F560912F017091A6
:10141000300180E090E028E53BE140E050E00E94B0
:10142000543324EC36E340E050E00E94C8337901A5
:101430008A0181E085B9F5E0F4B980E0C0DC8E195D
:101440009F099A83898321E124B980E0B8DC8E1951
:101450009F099C838B8345B834B881E0B0DC8E193A
:101460009F099E838D838BE395E0AFC083E0D81600
:1014700059F585B89AE094B980E0A1DC20912F015C
:10148000309130013695279538872F83821B930B37
:101490009A838983E2E2E4B980E091DC9C018F8148
:1014A0009885281B390B3C832B83C5B8F8E2F4B927
:1014B00081E085DC9C018F819885281B390B3E8358
:1014C0002D8389E495E081C024E0D21651F480EDAB
:1014D00092E0B0D9B5DE882309F47CC0F2E09F2EFB
:1014E00079C085E0D81699F415B884B880E067DC37
:1014F0009A838983C4B881E062DC9C838B8354B86F
:1015000082E05DDC9E838D8383E395E05EC096E0A0
:10151000D91639F584B885B880E051DC20912F01C7
:1015200030913001821B930B9A838983C4B8C5B86C
:1015300081E045DC20912F0130913001821B930B1B
:101540009C838B8354B855B882E039DC20912F01FD
:1015500030913001821B930B9E838D8387E395E04E
:1015600034C0E7E0DE1699F560912F0170913001EB
:1015700080E090E028E53BE140E050E00E945433F9
:1015800028EB32ED47E450E00E94A63379018A014E
:1015900085B8F3E0F4B980E012DC8E199F099A83D4
:1015A0008983C5B82CE024B981E009DC8E199F0934
:1015B0009C838B8355B880E384B982E000DC8E196C
:1015C0009F099E838D8387E595E034D903C091E020
:1015D000D91661F096D889819A81B0D960D98B816A
:1015E0009C81ACD95CD98D819E81A8D9C7B8C8B877
:1015F00014B815B888EE93E060DCE4E0DE1611F074
:101600008B3028F49394F3E0F91508F0DCCE88EEE3
:1016100093E053DC0894A11CB11C28E0A216B1048D
:1016200049F09924DA2CE4E04E2E74E1372E6EEB6B
:10163000262EC9CE10E004DE882349F040D980ED83
:1016400092E0F8D884E68FDB1F5F1837A1F768D8DF
:1016500081E695E0EFD880913101909132016FEFF2
:1016600044EF23E03BDB4DD888E695E0E3D880915A
:101670003801909139016FEF44EF23E02FDB82E0D6
:1016800080933E0151DC10921A014AD88FE695E012
:10169000D1D882E060E00E94861D80917B0190910C
:1016A0007C019C878B8782E061E00E94861D80918F
:1016B0007B0190917C019E878D8781E060E00E9494
:1016C000861D80917B0190917C019E838D8380E0BB
:1016D00062E00E94861D80917B0190917C019C8339
:1016E0008B8381E062E00E94861D80917B01909156
:1016F0007C019A87898780E061E00E94861D2091A5
:101700007B0130917C013A83298381E06816710462
:1017100021F080913701823029F42E5F3F4F3887C6
:101720002F8307C038872F83109237018CE00E94E7
:101730005E038B859C8516D98D859E8513D96D8119
:101740007E81882777FD8095982F44EF26E403E07B
:10175000BFD96E010894C11CD11C76019E01215F86
:101760003F4FF701808191810A97853B9105E8F40D
:1017700082E090E0E80EF91EE216F30691F703E02E
:1017800010E0F60160816E5EC8010E945E3482E066
:1017900090E0C80ED91E0F5F1F4FCE14DF0489F7EB
:1017A0000E94810387E693E045D882E080933E0162
:1017B000BBDB0E94EE2F91E06916710429F0809145
:1017C0003701823009F0FBC00E94900380E096D878
:1017D00080EB93E02FD882E091D88CEE95E02AD868
:1017E000EE24FF2453E7C52E51E0D52E66DC10927F
:1017F0001A0182E060E00E94861D60917301709181
:1018000074018091750190917601109185010BC052
:101810002AE030E040E050E00E94A633C901DA013E
:10182000BC01CD011F5F173F9CF360937301F6016C
:1018300071838283938310938501173F09F0A6C0BB
:10184000603671058105910508F4A0C0605F75459B
:101850008040904008F09AC06091870170918801A3
:101860002FEF6B3672070CF491C0663971050CF0DE
:101870008DC0F39484E08F1508F089C081E090E07A
:101880000E946C340E94900384EF95E00E941A0439
:10189000809187019091880151D867DB88E088B9F1
:1018A00089E087B980E284B982E095DA855D93406A
:1018B000DCF714B810922E0110922D0182E08BDA21
:1018C0009A83898380916D0190916E0190932E018E
:1018D00080932D0182E07FDA9C01220F331F3C832D
:1018E0002B8310922E0110922D0182E074DA9E83D8
:1018F0008D8320916D0130916E0130932E012093E4
:101900002D01EB80FC8069817A816E197F09680F57
:10191000791F882777FD8095982F40E050E00E943E
:1019200054330027F7FC0095102FA80197010E945F
:10193000C833022F0E9481038BEF95E00E941A04A6
:1019400080E090E00E945134182F1D5F100F80E05E
:1019500090E0612F0E945E34812F992787FD90953A
:101960000E949E0402DB82E080933E01DDDA109249
:1019700037018CE00E945E0383E090E00E945134C6
:10198000682F86E090E00E945E3419C0FF240E9418
:101990008103609173017091740180917501909140
:1019A00076014091850126E404E092D80E945A0411
:1019B00088E2D9D9E394F0E4EF1609F017CF89E172
:1019C00080932B0180E00E9467300E9490038FE09B
:1019D00095E00E941A040E94810380EE92E00E942A
:1019E0001A0410921A0182E080933E019DDA2E962D
:1019F000E2E10C94FF338FE47ED986E47CD986E45F
:101A00007AD90E945A035E988CD980E090E055CA3A
:101A1000A0E0B0E0EEE0FDE00C94E83380E48AB9A9
:101A20008BB916E810937A001092C1007CD904B7E4
:101A300084B7877F84BF88E10FB6F89480936000F5
:101A4000109260000FBE1093640088E380937E00C4
:101A50001092B00087E08093B10078940E94E30375
:101A600003FF10C00E94890387EB92E00E941A04D2
:101A70008BEC79D9C0DF80E090E0CDB7DEB7EDE048
:101A80000C94043480E185BF0E947E2E10E04F99B3
:101A900005C082E068D91F5F1C33C9F78FE59DE65A
:101AA00090931301809312011F3130F080E69DE680
:101AB000909313018093120110922C010E9499209F
:101AC0002FE088E190E00FB6F894A895809360002D
:101AD0000FBE209360001C3320F00E94F82B882357
:101AE000E1F730E1732E2FE3822E21E0922E99E56B
:101AF000A92E91E0B92E0E94900388E087B9DDDA23
:101B00000E9499200E94890303D580913A0188237D
:101B100071F00E9481038AEB93E00E941A04809185
:101B20002F019091300163E0CED888EC1CD90E943F
:101B300081030E947A1C80911A01893019F50E9454
:101B4000900384EB93E00E941A040E948103809129
:101B500003019091040163E0B6D80E944F04809184
:101B600005019091060163E0AED80E944F04809178
:101B700007019091080163E0A6D88AECF4D881E1CE
:101B800071DB34C48CE00E945E0386E090E00E942A
:101B90005134182F83E090E00E945134181B1093A9
:101BA0003701112319F08EE00E945E0380E05ADBBA
:101BB0000E945F0482E692E00E941A0483E09BD8B0
:101BC0000E945A0380E061E042E0FAD481E060E0E4
:101BD00042E0F6D480E062E041E0F2D482E060E0EE
:101BE00041E0EED481E062E040E0EAD482E061E0EE
:101BF00040E0E6D480911A01882371F40E947A1C97
:101C000082E060E00E94861D82E061E00E94861D05
:101C100081E060E00E94861D0E94900390923D0149
:101C200080923C0180911A01863041F48BE892E069
:101C30000E941A0483E467E441E409C08730B1F4E8
:101C400085E892E00E941A0481E367E442E30E947F
:101C5000B4040E94810382EA93E00E941A048091F6
:101C600043019091440162E02ED8BEC3883081F4D4
:101C7000209184018091830190E0820F911D029751
:101C800019F40E944122C7C380E00E94A821AEC37C
:101C9000833009F0DEC080911801813009F047C01F
:101CA00080E00E94400580918F016091890130DAC7
:101CB00080E70E94190580918F016091890140E0C1
:101CC0000E94E72E609373017093740180937501F5
:101CD0009093760180E00E9480046091730170917E
:101CE0007401809175019091760142EF26E402E043
:101CF0000E9468058DE20E94950380918F0160919A
:101D0000890141E00E94E72E609373017093740192
:101D1000809375019093760142EF26E40E94680556
:101D200080EF94E00E941A040E945A03D4C38230C8
:101D300071F582E30E94950380E095E00E941A0409
:101D40003091890120918A01321739F480E00E9494
:101D50005A0581E00E9452050CC080918F0190913C
:101D60009001891741F480E00E944C0581E00E94B7
:101D7000600581E09ECF821721F481E080930D0100
:101D80004CC0931709F04CC070920D0146C08330CF
:101D900009F046C083E380930D0190918F018091FB
:101DA0008A01981719F481E080930D0190918901BF
:101DB00080919001981711F470920D0190918F010C
:101DC00080918B01981719F482E080930D01909116
:101DD000890180919101981719F480E280930D0197
:101DE0009091900180918B01981719F482E1809372
:101DF0000D0190918A0180919101981719F481E267
:101E000080930D0180910D01823250F483E30E9492
:101E1000950380E095E00E941A040E942F055BC3A1
:101E200080E892E00E941A0484E992E00E941A0479
:101E30000E94810380911801805D0E9495038AE2CF
:101E40000E94950387EE94E00E941A048DEA92E0C6
:101E5000C4C2843009F058C180916801882309F414
:101E600067C080914E01882309F462C080914D01C2
:101E700060914B010E94861DC0907301D090740147
:101E8000E0907501F09076011091850180916501D7
:101E9000609167010E94861D20913F0130914001B1
:101EA0004091410150914201243F61E0360760E0DA
:101EB000460760E0560770F48091590190915A01ED
:101EC000A0915B01B0915C01845F9140A040B04063
:101ED00008F010EF8091590190915A01A0915B0197
:101EE000B0915C01845F9140A040B04040F4245F19
:101EF00031404040504018F080EF80938501809140
:101F00008501181771F48091730190917401A0916B
:101F10007501B0917601C816D906EA06FB0618F0DD
:101F200004C0181714F48DE001C08CE080931901EF
:101F300080916801882361F080914E01882341F0EF
:101F40004F9906C08091190191E08927809319016A
:101F5000809119018C3051F48FE893E00E941A04AB
:101F600080916801882389F080E70DC0B0923D011F
:101F7000A0923C0183E993E00E941A0480914E01F3
:101F8000882319F08EE60E9495030E944F046BD8B7
:101F9000182F853000F5809119018C3049F420E02C
:101FA00030E090914C0180914D01891758F408C0A0
:101FB00020E030E09091660180916701981710F45D
:101FC00021E030E0222319F087EE94E002C08BEE8E
:101FD00094E00E941A0485E462E443E40E94B4049D
:101FE0000E94810386E893E00E941A04E0913C017C
:101FF000F0913D0160817181828193814EEF20E0FB
:1020000003E00E9468050E944F0489E40E94950342
:10201000E0913C01F0913D0186819781805197428A
:1020200070F085E60E949503E0913C01F0913D013E
:1020300086819781805197429783868303C083E688
:102040000E9495030E944D04E0913C01F0913D01F6
:10205000868197816AEF41E422E00E946E0680E06B
:102060000E9480048DE993E00E941A04E0913C01F3
:10207000F0913D018481958163E00E946306E091C7
:102080003C01F0913D0180859185892B91F080E0A4
:102090000E9480048DE195E00E941A04E0913C01C9
:1020A000F0913D01808591856AEF41E423E00E9433
:1020B0006E06E0913C01F0913D0182859385892B6C
:1020C00091F080E00E94800483E295E00E941A046F
:1020D000E0913C01F0913D01828593856AEF41E4F6
:1020E00023E00E946E06153008F080C180E00E9457
:1020F0008004812F0E94400582EA93E00E941A0426
:10210000812F0E940B0570C1853009F0CBC08091F2
:10211000190184FF08C080E50E949503B0923D013B
:10212000A0923C0103C08EE40E9495038DE20E94C0
:10213000950380911901182F1F70143041F48BE71B
:1021400093E00E941A048FE367E44FE318C085FF11
:1021500002C084E401C085E40E949503133041F479
:1021600080E893E00E941A0485E467E443E407C032
:1021700086E793E00E941A0483E567E444E40E9442
:10218000B4040E9433088091190190E085FD17C0C6
:102190000E948103E0913C01F0913D0184856685B8
:1021A0000E94861D0E94290486EA93E00E941A0478
:1021B000E0913C01F0913D018285938553C08F7081
:1021C0009070049769F080E00E946504E0913C0102
:1021D000F0913D01848566850E94861D0E94290438
:1021E00080E00E94800489E40E9495030E944D04CF
:1021F000E0913C01F0913D01868197816AEF41E4D5
:1022000022E00E946E068BEA93E00E941A04E0919D
:102210003C01F0913D018285938562E00E94630656
:10222000E0913C01F0913D0180859185805C924177
:10223000E0F480E00E94800489E40E9495030E94FB
:102240004D0480E090E06BEF41E422E00E946E06D6
:102250008BEA93E00E941A04E0913C01F0913D0169
:102260008085918562E00E94630680E00E94880478
:10227000143009F4BBC010E010C080E00E9480045C
:10228000812F0E94400582EA93E00E941A04812F68
:102290000E940B050E945A031F5F809118011817B6
:1022A00060F3A4C000916F01002309F48AC00130DB
:1022B000B1F4809156010E94DB04282F692F809190
:1022C0005601813039F480911801882319F40E9455
:1022D0006F23A1C0822F40E00E94BF2287C070916F
:1022E000560160915701A62FB0E0AA0FBB1FAA0F9D
:1022F000BB1FAE55BE4FE72FF0E0EE0FFF1FEE0FF6
:10230000FF1FEE55FE4F2D913D914D915C918081C7
:102310009181A281B38182179307A407B50710F4B6
:10232000162F01C0172F023029F4172F1195161BF5
:102330001D5F20C060915801A62FB0E0AA0FBB1FFF
:10234000AA0FBB1FAE55BE4FE12FF0E0EE0FFF1FEF
:10235000EE0FFF1FEE55FE4F2D913D914D915C917B
:1023600080819181A281B38182179307A407B50769
:1023700008F4162FF12EF694112311F401E001C098
:1023800002E08F2D0E947E0485E095E00E941A04F1
:1023900082E0811B0E947E0485E095E00E941A0481
:1023A000802F0E947E0480E00E94650480E011235B
:1023B00009F481E00E94E50482E08F190E94E5049F
:1023C00015C08DE992E00E941A040E94810387E7FC
:1023D00092E00E941A0480E892E00E941A040E948F
:1023E0005A0320E43FE106C00E945A0320911201E3
:1023F0003091130188E187B94F9BFECFC9010E943C
:102400005D07823328F00E94F82B8823E1F773CB15
:10241000882309F070CB8CE00E945E038091370125
:10242000882309F456C0C0E0D0E042E0D42E42C078
:102430000491003209F4C82E8F5F31968131C1F7C3
:10244000DD2039F480E197E20E945D07882309F0DE
:102450003CC01D2D1170D0FC02C00E949003812F42
:1024600060E00E9462030E945A03A895802F00E05A
:1024700011C0F7011491112341F11F3F19F40E947B
:102480004F0403C0812F0E9495030F5F0894E11C45
:10249000F11C812F0C1568F38823B9F0CC0DD11DE8
:1024A000FE01EA52FC4FE491E03209F42196D39404
:1024B000F1E0DF2236EDE32E33E0F32EEC0EFD1ECD
:1024C000F70180E020E1C22EB3CF80E197E20E94C5
:1024D0005D0791DA10CB0E945A0380916F01882327
:1024E00009F484CF88E187B980911201909113019A
:1024F0000E945D0788E087B90E94900380911801CF
:10250000805D0E94950380E095E00E941A04CACE87
:102510000F931F93CF93DF9385E00E94EB0685E036
:102520000E94E706EC01BC0180E090E02AE530E083
:1025300040E050E00E94543326E130E040E050E0BB
:102540000E94A63389010A561F4F109235012E5E54
:1025500032402959314250F08AE693E00E941A0431
:102560000E945A0481E08093350125C081E693E002
:102570000E941A04C80162E00E9463060E944F0490
:1025800086E0C03ED80788F4CC51D64058F480E7A6
:1025900092E00E941A040E945A048DEC0E94B30635
:1025A0002ADA09C08BE692E002C087E693E00E9437
:1025B0001A040E945A04DF91CF911F910F91089540
:1025C000A1E2B0E0E6EEF2E10C94E3338D8F6E8F82
:1025D0004F8FA895E62FF0E0E252FA4F3491398BF5
:1025E000330F3E8B33964491488B5F8DE52FF0E09F
:1025F000E252FA4F84918F873396B4909D8DE92FE4
:10260000F0E0E252FA4FA491AE87AA0FAC8B33965A
:10261000B491BD87B860BB8B48604A8B85B9E989A6
:102620008E2B8C8F84B9B7B9FD85F8B98E8D0E9439
:10263000E7069E838D83298924B98E8D0E94E70643
:102640001C0114B80E949C0615B83C8D34B98E8DBF
:102650000E94E7066D817E810E9449077C014A89BC
:1026600047B988E088B95E858F85582B5B8F55B94F
:1026700054B98D8D0E94E7060E944F078C0115B852
:102680000E949C069E8595B98D8D0E94E7060E944A
:102690004F074C01AE85A4B98D8D0E94E7060E94BC
:1026A0004F07D82EC92EC801B4010E944907B1E0D6
:1026B00080329B0730F4E0E2EE16E1E0FE0608F41B
:1026C000A5C5E80CF91C2D813E81820F931FE816E9
:1026D000F90630F48D2D9C2D9C0119019E828D826E
:1026E00030914E0120916801832F90E0820F911D5F
:1026F000029754F0313009F089C590914B018091D7
:102700006501981709F082C53F85330F3D8B4D81D8
:102710005E814437510508F448C1CA01880F991FEA
:1027200044962816390608F040C15B8957B98D8553
:1027300088B9832F9989892B84B98E8D0E94E306ED
:102740007C018F8D0E94EB068C01AD89A5B98E8D21
:102750000E94E3069701295A3D4F4D89BE854B2BB8
:102760002817390708F086C088E088B9EA89E7B9F0
:1027700044B945B98F8D0E94E30688549F4028F0E4
:1027800085E080931A0182E204C085E080931A01FB
:1027900084E280931901F0924401E0924301C70161
:1027A000B8010E94540790934A0180934901B701F0
:1027B00080E090E020E137E240E050E00E945433B6
:1027C000209114013091150140E050E00E94A633A1
:1027D00030934601209345012D893E89232B24B94E
:1027E00015B84B8947B95D8558B98E8D0E94E306AF
:1027F0008C018F8D0E94EB06BC01C8010E9454071A
:102800009093480180934701809119018F70843023
:1028100009F4F3C488E088B98A898B2987B99E8531
:1028200094B9AB8DA5B98D8D0E94E7064C010E942D
:102830004F075C018E8D0E94EB06BC01E0901B01EE
:10284000F0901C0100E010E0C4010E945407A0E0D9
:10285000B0E0BC01CD01A80197010E945433CC2403
:10286000DD24A60195010E94A633309344012093F4
:102870004301C3C488E088B9BA89B7B944B945B936
:102880008D8D0E94E3067C018F8D0E94EB068C01EA
:10289000EE85E5B98D8D0E94E306895A9D4F8E1510
:1028A0009F0508F0B3C4FD85F8B92B8927B98F8D32
:1028B0000E94E306815D934028F485E080931A012D
:1028C00082E304C085E080931A0184E380931901B8
:1028D000C801B7010E94540790936401809363017B
:1028E000C7010E944F07A0E0B0E0BC01CD0120E18C
:1028F00037E240E050E00E94543320911B013091B8
:102900001C0140E050E00E94A63330936001209308
:102910005F0188E088B94A8947B98C895D89852B30
:1029200084B985B98F8D0E94E3068C018D8D0E943C
:10293000EB06BC01C8010E9454079093620180938A
:102940006101809119018F70843009F4FCC18D857B
:102950008B2988B99B899B2997B915B8AB8DA4B9E8
:102960008D8D0E94E7064C018E8D0E94EB065C0166
:10297000E0901401F090150100E010E0C401B501F1
:102980000E945407A0E0B0E0BC01CD01A80197016E
:102990000E945433CC24DD24A60195010E94A63365
:1029A00030935E0120935D01CEC188E088B9BA8979
:1029B000B7B9EE85E5B9FD89FE2BFC83F4B98D8DA1
:1029C0000E94E70698878F830E944F079C878B871A
:1029D0008F8D0E94EB062C0191012C593F4F3A8FAD
:1029E000298F4B855C8524173507B0F4CA01B101E6
:1029F0000E9454077C0100E010E020911B013091FF
:102A00001C0140E050E060E871EA83E09CE10E9434
:102A1000A633C801B70121C08B859C85B1010E94F6
:102A200054078C015B8D54B98D8D0E94E706988701
:102A30008F830E944F079C878B878F8D0E94EB06A8
:102A40002C01C801B2010E945407A0E0B0E0BC0113
:102A5000CD0124E630E040E050E00E945433920182
:102A600040E050E00E94A633C901DA015C016D012B
:102A700014B815B88D8588B99B8997B981E00E94F3
:102A8000B306AC8DA4B98E8D0E94E7068F559D408C
:102A900008F45FC1ED89F989EF2BEB83E4B98E8DE2
:102AA0000E94E30699A388A38F8D0E94EB064C0138
:102AB0008D8D0E94EB063C0121ED821627E09206E7
:102AC00008F4CCC084E080931A018DE08093190152
:102AD00048A159A12416350610F07A0104C0E8A0D7
:102AE000F9A0E218F30800E010E020911401309101
:102AF000150140E050E060E871EA83E09CE10E944B
:102B0000A633C801B7010E945433940140E050E05D
:102B10000E94A63379018A0180916801882379F0A7
:102B20008091590190915A01A0915B01B0915C0193
:102B30008E159F05A007B10710F020E028C0E09295
:102B40005901F0925A0100935B0110935C01A8A116
:102B5000B9A1BD0180E090E020E137E240E050E023
:102B60000E945433209114013091150140E050E04F
:102B70000E94A6333093600120935F01C301B4012A
:102B80000E94540790935E0180935D0121E0809143
:102B9000590190915A01A0915B01B0915C018A1595
:102BA0009B05AC05BD0558F5A0925901B0925A019C
:102BB000C0925B01D0925C018F819885B2010E9426
:102BC000540790935E0180935D01EB85FC85BF0106
:102BD00080E090E020E137E240E050E00E94543392
:102BE00020911B0130911C0140E050E00E94A6336F
:102BF000205F384D3093600120935F0103C0222392
:102C000009F4EFC3B10180E090E020E137E240E059
:102C100050E00E945433E0901401F090150100E060
:102C200010E0A80197010E94A6333093620120931F
:102C300061012D813E81B90180E090E020E137E221
:102C400040E050E00E945433A80197010E94A6334F
:102C5000309364012093630121E0C3C331E623165E
:102C6000310408F076C048A159A187E0413D5807DA
:102C700008F46FC085E080931A0182E18093190106
:102C8000CA0186509F4F8615970520F483E18093F3
:102C900019011EC0E0901401F090150100E010E051
:102CA000C30168A179A10E945407A0E0B0E0BC0173
:102CB000CD01A80197010E945433A8A1B9A19D019B
:102CC00040E050E00E94A63330935E0120935D0106
:102CD0000A8907708F8D806480937C0010E0A1E0EA
:102CE000CA2ED12CFFEFEF2EF3E0FF2EA8958F8593
:102CF00061E0E5D5BB81B4B986B18023E9F3E98908
:102D0000E4B980917A00806480937A0080917A009F
:102D100086FDFCCF80917800909179009701281B67
:102D2000390BC20ED31E1F5F1B3001F7C601880F7F
:102D3000991F880F991F69E070E00E947F3370939C
:102D4000640160936301809168018F5F80936801E3
:102D500083CF8D893989832B84B94D8945B98E8D6F
:102D60000E94E7069A8789878F8D0E94EB069A83D7
:102D700089830E944F076C0189859A85A98DBA8D38
:102D8000A817B90700F5B1010E9454077C0100E0C3
:102D900010E0209114013091150140E050E060E80E
:102DA00071EA83E09CE10E94A633C801B7010E944A
:102DB0005433960140E050E00E94A633C901DA0185
:102DC0003C014D0130C0BC8DB4B9EF85E5B98E8DA5
:102DD0000E94E7067C018F8D0E94EB069A8389830F
:102DE0000E944F078C012E143F0410F0C70103C04E
:102DF000C70182199309B8010E945407A0E0B0E00E
:102E0000BC01CD0124E630E040E050E00E945433A4
:102E1000980140E050E00E94A633C901DA013C016C
:102E20004D01FA86E986FA89F7B988E088B92B8DD1
:102E300024B925B98D8D0E94E7062C018F8D0E9443
:102E4000EB065C018E8D0E94EB066C0130E34316AD
:102E500031E1530608F0D7C14E8545B98D8D0E94EA
:102E6000E7067C015E8554B98D8D0E94E7068C01D2
:102E700015B881E00E94B3068E8585B98D8D0E94BC
:102E8000E706A6E000341A0708F05DC081539141BF
:102E900008F459C0C2018A569F4FE816F90608F097
:102EA00052C086E080931A0180914E018F5F80931B
:102EB0004E01C501B6010E945407909344018093CE
:102EC0004301C201B6010E94540790934A018093C6
:102ED000490114B815B8E889E8B981E00E94B30641
:102EE000FE85F4B98D8D0E94E706853F910508F0B7
:102EF00089C22B8D24B98F8D0E94E706815D934096
:102F000008F480C28D8D0E94EB068D5D924008F41E
:102F100079C25E8554B98D8D0E94E7068D5D924021
:102F200008F470C2BE85B5B981E00E94B30615B839
:102F30008D8D0E94E706853F910508F063C287E00A
:102F400080931A015FC2EA89E7B9FF85F4B9F5B940
:102F500081E00E94B3062C8124B925B98D8D0E9491
:102F6000E70699A388A30E944F075C018F8D0E94FA
:102F7000EB06988F8F8B0E944F072C018E8D0E943D
:102F8000EB066C013EEF431639E0530608F4C7C068
:102F900084E080931A018CE080931901C501B1018E
:102FA0000E9454077C0100E010E020911B01309149
:102FB0001C0140E050E060E871EA83E09CE10E947F
:102FC000A633C801B7010E945433920140E050E09B
:102FD0000E94A63379018A0180914E01882379F0FD
:102FE00080913F0190914001A0914101B091420137
:102FF0008E159F05A007B10710F020E027C0E092D2
:103000003F01F092400100934101109342018F89EA
:10301000988DB6010E945407909344018093430118
:10302000B50180E090E020E137E240E050E00E940E
:10303000543320911B0130911C0140E050E00E946C
:10304000A633309346012093450121E080913F0152
:1030500090914001A0914101B091420186159705E0
:10306000A805B90560F560923F0170924001809219
:1030700041019092420189819A8169857A850E94F5
:103080005407909344018093430149855A85BA01BE
:1030900080E090E020E137E240E050E00E945433CD
:1030A000209114013091150140E050E00E94A633B8
:1030B000205F384D309346012093450103C0222301
:1030C00009F4A1C1B10180E090E020E137E240E0E5
:1030D00050E00E945433209114013091150140E0DA
:1030E00050E00E94A6333093480120934701AD8100
:1030F000BE81BD0180E090E020E137E240E050E099
:103100000E94543320911B0130911C0140E050E09B
:103110000E94A63330934A012093490173C1B1E65E
:103120002B16310408F06FC0E9E4AE16EDE0BE06E0
:1031300008F469C085E080931A0182E08093190148
:10314000C60186509F4F28A139A18217930720F40A
:1031500083E0809319011CC0E0901B01F0901C01DA
:1031600000E010E088A199A1B6010E945407A0E0F8
:10317000B0E0BC01CD01A80197010E945433950134
:1031800040E050E00E94A633309344012093430175
:103190000B8907708F8D806480937C0010E071E054
:1031A000E72EF12CA8958F8560E089D33C8134B956
:1031B00035B986B18023E9F74E8544B980917A000C
:1031C000806480937A0080917A0086FDFCCF8091A4
:1031D000780090917900E80EF91E1F5F1B3011F7FF
:1031E000C701880F991F880F991F69E070E00E943E
:1031F0007F3370934A016093490180914E018F5F44
:1032000080934E01FFC088E087B988B914B815B81B
:1032100088E087B957EC251651E0350608F4D2C08E
:1032200088B98C8984B910E00A899B89092B07B970
:1032300081E00E94B306AA89A7B98D8D0E94EB0692
:10324000429718F01F5F183C91F7BC89B4B9B5B923
:103250008F8561E034D38D8D0E94E706D82EC92E6C
:10326000EE89E4B915B8FB89F7B92D8528B98F85A2
:1032700060E025D38E8D0E94E7060E944F077C01F7
:10328000398934B98D8D0E94E7068C018E8D0E949C
:10329000EB06BC01C8010E9454075C018D8D0E94A1
:1032A000E7068C018E8D0E94EB06BC01C8010E94CE
:1032B000540795012C5E3F4F2817390708F485C045
:1032C00088E088B94A8947B95E8554B955B98F8570
:1032D00061E0F5D28D8D0E94E7068C018E8D0E94F3
:1032E000EB06BC01C8010E9454078C01A816B90660
:1032F00068F48C8984B985B98D8D0E94E706FC013C
:103300008D2D9C2D9C017901580110C09E8994B986
:1033100015B8AB89A7B9BD85B8B98F8560E0CFD2A4
:103320008E8D0E94E7060E944F07FC0128EEA21630
:1033300023E0B20638F4C50164E670E00E947F33F2
:103340009B0106C0950154E0369527955A95E1F703
:10335000C5018759904089589141A0F5EA15FB05B0
:1033600088F5C70143E0969587954A95E1F7893C32
:10337000910510F088EC90E08E0D9F1D8A159B053D
:1033800008F52E153F05F0F480911A01833018F4EA
:1033900083E080931A0180911801E82FF0E09F01EB
:1033A00027573E4F4D8DD9014C935E8D16965C93F9
:1033B000EE0FFF1FEB56FE4FB182A0828F5F80930E
:1033C000180103C08D8D6E8D2FD088E087B988B924
:1033D00014B815B88EE20E949503A196E2E10C9410
:1033E000FF33809168018F5F80936801222369F326
:1033F0008F8D809365019E8D90936601AD8DA09316
:103400006701E3CF21E080914E018F5F80934E01F1
:103410002223D9F2BF8DB0934B01ED8DE0934C0187
:10342000FE8DF0934D01D1CFA4E0B0E0EAE1FAE1E6
:103430000C94E3338B836C83A89570E0FB01E2521C
:10344000FA4FB49033961491482F50E0FA01E252AB
:10345000FA4FE4903396A49020914E018091680138
:1034600090E0820F911D892B09F025C2A8958091CB
:103470001E0190911F01880F991F880F991F90932B
:10348000300180932F0180916D0190916E01880F22
:10349000991F880F991F90932E0180932D018EEB19
:1034A00080932B0100911801A9E8B1E030E0FB0105
:1034B000E40FF51F0CC016962C9116978D9190E095
:1034C000820F911D8E179F0709F4E2C13F5F3017ED
:1034D00090F388E088B9186017B9E4B8E5B8FF241C
:1034E000F394CC24DD248C810E94E706682E592EAB
:1034F0008B810E94EB068C018C199D0997FF03C0FC
:10350000909581959F4F039764F4FE2CFF0C15B89E
:10351000F4B88B810E94E7068135910508F0B8C1A7
:1035200008C0A895F39439E1F31609F4B1C1680114
:10353000DACFF5B88B810E94E7066C018A2D88608E
:1035400087B9A8B815B8B4B8FF24F394882499248F
:103550008B810E94E706E82EA92E8C810E94EB0643
:103560001C018819990997FF03C0909581959F4F79
:1035700003975CF4BB0CB4B88C810E94E7064C0145
:1035800044E4003C140748F00FC0A895F39459E1B7
:10359000F51609F47DC14101DBCF85E8C81681E04D
:1035A000D80608F075C106C090EBC9169DE4D9068F
:1035B00008F06EC1A4EA2A16A2E03A0608F075C027
:1035C000B8E98B16910408F463C1C6010E944F0745
:1035D0007C01B60180E090E028E937EB40E050E064
:1035E0000E94543300E010E0A80197010E94A63326
:1035F00079018A01C4010E944F07A0E0B0E0BC013C
:10360000CD0128E937EB40E050E00E9454339401AB
:1036100040E050E00E94A633B901CA01E8E7CE16A7
:10362000EFE0DE0670F4F2E0EE0CFF1C001F111F4D
:10363000FA95D1F7E60EF71E081F191FC801B7014A
:1036400010C0F8E78F16FFE09F06B0F4E2E0660FC7
:10365000771F881F991FEA95D1F76E0D7F1D801F78
:10366000911F25E030E040E050E00E94A633C90100
:10367000DA01BC01CD0108C06E0D7F1D801F911FB6
:10368000969587957795679524E630E040E050E081
:103690000E9454335B016C012CEA3DE040E050E0B5
:1036A000A20EB31EC41ED51E8BC0862D952D9C0167
:1036B000B9010217130708F4B8018E2D9A2D9C0149
:1036C00029012215330508F421017A8369836017E3
:1036D000710710F41A83098360901B0170901C011C
:1036E0008824992489819A810E9454077C018981C8
:1036F0009A810E944F075C0100E010E0C801B70109
:10370000A40193010E945433CC24DD24A601950129
:103710000E94A63359016A0142012414350408F4B9
:103720004101E0901401F090150100E010E0C201A9
:10373000B4010E945407A0E0B0E0BC01CD01A80193
:1037400097010E945433940140E050E00E94A63358
:10375000B901CA0149815A8148575F4070F442E07B
:10376000AA0CBB1CCC1CDD1C4A95D1F7A60EB71EBB
:10377000C81ED91EC601B50110C0B8E78B16BFE040
:103780009B06B0F432E0660F771F881F991F3A95A9
:10379000D1F76A0D7B1D8C1D9D1D25E030E040E0BA
:1037A00050E00E94A633C901DA015C016D0108C036
:1037B000A60EB71EC81ED91ED694C794B794A79458
:1037C00050901A01E3E0E51508F462C06B806A943A
:1037D000FC816F0E862C9924D401AD5ABE4F8C917A
:1037E000F401EE0FFF1FEE0FFF1F882309F448C0FE
:1037F000EE55FE4FE080F18002811381C601B501D4
:103800006E197F09800B910B97FF07C090958095EB
:10381000709561957F4F8F4F9F4F2AE030E040E0D9
:1038200050E00E94543324E630E040E050E0E20EE5
:10383000F31E041F151FEA0CFB1C0C1D1D1DA80107
:1038400097010E94A633211531054105510501F567
:1038500033E0531619F081E080931A0143E551E0FB
:10386000840E951E82E0D4018C9380916F01E82F25
:10387000F0E0EA5AFE4F60828F5F80936F0108C0CC
:10388000EE55FE4FA082B182C282D38281E08C933A
:1038900080911E0190911F019093300180932F0120
:1038A00080916D0190916E0190932E0180932D0176
:1038B00089E180932B012496E2E10C94FF331F935E
:1038C000182F60FF03C085B1812B03C095B180958F
:1038D000892385B984B1812B84B982E00E94B30623
:1038E00084B1912F9095892384B985B1982395B996
:1038F0001F910895A0E0B0E0E0E8FCE10C94EB3308
:10390000DD2428E0C22E9FE3A92E89E0B82EC7B897
:10391000C8B815B8A4B880E00E94E706EC0181E0C1
:103920000E94EB068C0182E00E94EB069C018091D4
:103930001A01893049F0C430D105B0F404301105C2
:10394000C0F424303105A8F488E087B914B8D093C6
:103950000401C09303011093060100930501309305
:103960000801209307014BC0C85ED34010F088E0E7
:1039700001C089E0085E134008F48260285E33408D
:1039800008F4846087B900E010E0A89580E00E9408
:10399000DF067C0181E00E94EB06EC0182E00E94E0
:1039A000EB0624E1E21625E0F20608F4389A25E059
:1039B000C431D20708F4399A25E08431920708F41B
:1039C0003A9A26E0E216F10420F4269710F40697BE
:1039D00040F00F5F1F4F81E0043F1807B1F6B0922F
:1039E0001A01C0E0D0E003C00E94A2062196C017D1
:1039F000D107D0F3D3949AE0D91609F088CFCDB788
:103A0000DEB7EAE00C9407341F9360917301709164
:103A100074018091750190917601109185010AC021
:103A20002AE030E040E050E00E94A633C901DA010C
:103A3000BC01CD01212F1F5F613A36E8730731E0E9
:103A4000830730E0930760F72093850120912F01D1
:103A50003091300140E050E00E94543328E833E1D7
:103A600040E050E00E94A63320937301309374012C
:103A700040937501509376011F9108951F920F9204
:103A80000FB60F9211248F939F93B59904C0809124
:103A90007001882349F4B59B10C0809186009091F5
:103AA00087008A3F910548F480915101909152011D
:103AB000019690935201809351019F918F910F90A5
:103AC0000FBE0F901F9018951F920F920FB60F9276
:103AD00011248F939F9310927001B09B10C080911E
:103AE0008600909187008A3F910548F480915101AA
:103AF00090915201019690935201809351019F91B0
:103B00008F910F900FBE0F901F901895A0E0B0E01E
:103B1000ECE8FDE10C94E933982E862EC82EDD24C6
:103B2000262F2150C601880F991F8C0D9D1D280F2F
:103B300020935001F601E252FA4FB490262F30E064
:103B4000C90182529A4FFC0114912F513A4FF90149
:103B5000449180911A01813009F4B7C23091180163
:103B6000E9E8F1E0DF011C9620E010C086818815AD
:103B700051F48081891539F48D919C9111978C5D58
:103B8000954008F4A2C22F5F31961296231770F366
:103B9000042F08601092800110927F0181EF8093C2
:103BA00085011092730110927401109275011092A8
:103BB0007601A0DE88E088B907B914B915B9892D56
:103BC0000E94EB067C01882D0E94EB06E81AF90A98
:103BD00014B81092520110925101C0E0D0E027C0F9
:103BE000B5B8B4B80E949C0614B815B80E94A306D4
:103BF000A895892D0E94EB06EC01CE19DF09809172
:103C00005101909152018E37910520F0CB34D105AE
:103C10000CF456C281E0CD32D807ACF4809151014A
:103C2000909152010196909352018093510180919D
:103C3000510190915201845F914090F2F1E0CD32B8
:103C4000DF070CF43DC28091510190915201892B04
:103C500089F425E0C531D2076CF091C00E949D0621
:103C6000892D0E94EB06BC016E197F09A8950F5F94
:103C70001F4F03C0BE0100E010E080915101909100
:103C800052018017910750F76E01C61AD70A1C140B
:103C90001D041CF0AA24BB2418C039ECC316D1049F
:103CA0000CF00EC2B601882777FD8095982F28EE7C
:103CB00033E040E050E00E9454339E01442737FD3A
:103CC0004095542F0E94A6335901E0905101F09085
:103CD00052010894E11CF11C00E010E0E0927B012D
:103CE000F0927C0100937D0110937E01C6018C0F40
:103CF0009D1FF0D1A0E0B0E0BC01CD01A80197016B
:103D00000E94543360937B0170937C0180937D010A
:103D100090937E0160937301709374018093750199
:103D20009093760187EF809385016EDE86E290E0C6
:103D30000E945134282F332727FD309568EE73E019
:103D4000621B730B882777FD8095982F2091730154
:103D50003091740140917501509176010E94543365
:103D600024E630E040E050E00E94A6332093730147
:103D70003093740140937501509376015FC11B2D00
:103D8000110FB8DD15B88FE087B988E088B914B98C
:103D900080E480937B0084E580BF892D80648093DC
:103DA0007C0086E180937A000E94A6061092520160
:103DB00010925101109280001092850010928400A0
:103DC00087E286BB81E280936F0091E0909370015F
:103DD00015B980911A01853071F49093810081E0CA
:103DE00090E00C2C02C0880F991F0A94E2F780958E
:103DF0008F7087B903C09093810007B9F89483B797
:103E0000817F83BF11C083B7816083BF7894889519
:103E100083B78E7F83BFF894A895809151019091CC
:103E200052018054964021F080917001882359F707
:103E3000789410928100C0918600D09187001092F2
:103E40006F0086E980937A0014B815B8892D0E9416
:103E5000EB062091330130913401821B930B0C96B9
:103E60009093880180938701809151019091520134
:103E70008052934008F024C18091510190915201E9
:103E800090937E0180937D01D0937C01C0937B0150
:103E900084EF809385018091510190915201823489
:103EA0009105C8F060917B0170917C0180917D014A
:103EB00090917E0124E630E040E050E00E94A6337D
:103EC00020937B0130937C0140937D0150937E01D0
:103ED00086EF80938501609171017091720180E09D
:103EE00090E020917B0130917C0140917D015091C7
:103EF0007E010E94543320E233E040E050E00E9413
:103F0000A63320937B0130937C0140937D01509335
:103F10007E01E3E7F1E02093730131834283538311
:103F200073DD80918501843F09F078C0E0907301D2
:103F3000F0907401009175011091760180EAE81605
:103F40008FE0F80680E0080780E01807C0F4A801B9
:103F500097012C543F4F4F4F5F4F60EA7FE080E066
:103F600090E00E94A633E20EF31E041F151FE0929C
:103F70007301F09274010093750110937601E09043
:103F80007301F09074010091750110917601E0E0E9
:103F9000EE16E0E0FE06E1E00E07E0E01E0728F482
:103FA000F092B301E092B20106C081E090E09093FC
:103FB000B3018093B2018091500190E08D5F9F4FDB
:103FC0000E94513490E0A0E0B0E08E159F05A0075C
:103FD000B10768F4E81AF90A0A0B1B0BE0927301A7
:103FE000F0927401009375011093760117C024E1DB
:103FF00030E040E050E0E20EF31E041F151FE8160B
:10400000F9060A071B0710F40E94CE0810927301EC
:10401000109274011092750110927601B4B88091DB
:10402000730190917401A0917501B0917601499747
:10403000A105B10508F444C0AA24BB24809118014D
:10404000882321F080911A018530D1F588E0809392
:104050001A0160918501809186018617BCF068176E
:1040600079F520917301309174014091750150915F
:1040700076018091770190917801A0917901B091BA
:104080007A0182179307A407B507D0F480917301D2
:1040900090917401A0917501B091760180937701A0
:1040A00090937801A0937901B0937A01609386018F
:1040B000B0928201A092810180928301909284014A
:1040C00088E087B988B914B815B8CDB7DEB7ECE089
:1040D0000C9405340F9221E08C32920710F48CE29C
:1040E00091E08C52914069E170E00E947F3399E148
:1040F0006B3210F0982F6BE2981BE0E9F1E0E60FCD
:10410000F11DE60FF11D4591559125913591692FCE
:10411000421B530B649FC001659F900D11240C96A8
:1041200069E170E00E947F33620F731FCB010F9033
:1041300008954F925F926F927F928F929F92AF926B
:10414000BF92CF92DF92EF92FF920F931F9388E876
:1041500093E190931F0180931E019093300180930F
:104160002F018EEB80932B0118E018B988E187B9F5
:104170000E94AB0617B984E00E94E7068C018B5CB5
:104180009840835F9140C0F481E080933A01609150
:104190002F017091300180E090E02FEB39E040E09A
:1041A00050E00E945433980140E050E00E94A63352
:1041B00030931F0120931E0180911E0190911F01D9
:1041C0009093300180932F018EE00E94EB068EE0E9
:1041D0000E94E70690933401809333010E94B50753
:1041E00089DB68E0562E58B859E0F52EF7B885E11E
:1041F00085B9EE24E394E4B880E00E94E7066C0100
:104200001AE017B944E0B42EB4B881E00E94E70682
:104210003C010CE007B930E1432E44B882E00E9433
:10422000E7066C0C7D1C680E791E15B8F8B8F7B857
:10423000E4B880E00E94E7060E944F077C0118B9AD
:1042400017B9B4B881E00E94E7060E944F075C01ED
:1042500008B907B944B882E00E94E7060E944F07F8
:10426000AE0CBF1CA80EB91E57B858B814B8809130
:104270002F01909130017C01EE0CFF1CE80EF91E1D
:10428000E618F708EA18FB0800E010E088249924F3
:10429000C401B30120E93AE140E050E00E94543308
:1042A000A80197010E94A633490130933901209358
:1042B0003801CC24DD24C601B50120E93AE140E013
:1042C00050E00E945433A80197010E94A633C9010F
:1042D00030933201209331018057954E90931C0109
:1042E00080931B0180E99AE1880E991E9092150136
:1042F0008092140189E180932B011F910F91FF900F
:10430000EF90DF90CF90BF90AF909F908F907F9075
:104310006F905F904F900895982F8F3031F4809177
:104320003501813011F480E00895892F8F5F089561
:1043300090E08F709070892B51F488EC0E94B30646
:104340000E9481030E94881288EC0C94B3060895A1
:10435000EF92FF920F931F93E82E0E9489038091A2
:1043600083010E947E0480EB93E00E941A04FCD536
:1043700080918401609183014FD490938001809358
:104380007F0110E08A5F9F4F08F411E0FF248091C5
:10439000810190918201892B11F0FF24F394112364
:1043A00071F0FF2041F080E090E0EE2011F081E01C
:1043B00090E0882321F086E095E00E941A04809125
:1043C00084010E947E04EE2059F090913B018DE023
:1043D000891B0E94510485EA95E00E941A0415C0C9
:1043E0008091810190918201892B69F085EC93E0A5
:1043F0000E941A0480918101909182016FEF45E241
:1044000022E00E946E060E945A040E94810360917D
:104410007701709178018091790190917A014091B2
:10442000860126E404E00E946805112369F08FEB01
:1044300093E00E941A0480917F01909180016EEFB9
:1044400044EF22E00E946E060E945A04EE2091F092
:10445000FF2081F080E00E94800486EC93E00E94BF
:104460001A0480918101909182016FEF45E222E070
:104470000E946E060E945A041F910F91FF90EF90C8
:104480000895EF92FF920F931F9310E098E0E92EAA
:1044900082EFF82E0DE001C010E00E945D0882E07E
:1044A00060E034DBE0921A0180918501843FE1F401
:1044B0008091730190917401A0917501B091760182
:1044C00084369105A105B10578F482E060E040E012
:1044D0000E94E72E609373017093740180937501BD
:1044E00090937601F092850180918501823FACF036
:1044F000809386018091730190917401A091750160
:10450000B09176018093770190937801A09379011F
:10451000B0937A0181E01CDF18C00E9489038EE904
:1045200095E00E941A0480913B01902F981B892FDF
:104530000E94510485EA95E00E941A040E948103BA
:104540008FE30E9495030E945A04812FF1DE80EDD3
:1045500097E00E945D07882359F41F3029F4809169
:104560003501813009F498CF1F5F1A3F08F495CFC9
:104570000E9490031F910F91FF90EF900895FF927A
:104580000F931F93182F062FF42E0E947E0485E0B0
:1045900095E00E941A04E2D0812F602F0E94CC3156
:1045A00010E08091B6019091B701A091B801B0914F
:1045B000B9010097A105B10509F411E0809101014D
:1045C00087FD02C0112321F48BE095E00E941A04BC
:1045D000802F0E947E04112331F40E944F048091A9
:1045E00056010E94E504FF2049F080913B018D3087
:1045F00028F490E0845F994F0E941A0480E00E94A2
:1046000080041123D9F46091B6017091B7018091B3
:10461000B8019091B90147EF28E403E00E946805D2
:1046200086EF94E00E941A048BE290E00E945934D5
:1046300064EF46E422E00E946E061AC080915601A3
:104640000E94E504809101018E3F94F48DEC93E08B
:104650000E941A046091090170910A0180910B0176
:1046600090910C014091010128E403E00E9468054B
:104670008091AE019091AF01A091B001B091B101D4
:104680000097A105B105F1F080E00E9480046091DF
:10469000AE017091AF018091B0019091B10140E005
:1046A00028E404E00E9468058BEF94E00E941A045D
:1046B0008091B4019091B5016FEF40E223E00E9438
:1046C0006E0607C080E00E94650480913E01882349
:1046D00011F40E945A041F910F91FF9008951F93A7
:1046E00083E995E00E94262C10E00E945D0882E09C
:1046F00060E00E94141A80E062E00E94141A0E9496
:10470000890380916F01882329F080E062E041E015
:1047100036DF0FC083E995E00E941A0486E196E037
:104720000E941A040E9481038FE30E9495030E9455
:104730005A04812FFDDD88EE93E00E945D078823F7
:1047400049F41F3021F480913501813069F21F5FF7
:104750001A3F58F20E9490031F910895A6E1B0E01D
:10476000E4EBF3E20C94E33382E080930101809167
:104770001A01813009F04CC280916F01813009F03B
:1047800047C2209156012C8BE22FF0E0EE0FFF1F65
:10479000EE0FFF1FEE55FE4F80819181A281B38104
:1047A000893032E5930730E0A30730E0B30708F023
:1047B0002FC29E8B8D8B1B8A8B89823030F48C8923
:1047C0000E94DB04F82ED92E05C08C890E94DB04E0
:1047D000F92ED82EED2DF0E0EF51FA4FA490EF2DE9
:1047E000F0E0E252FA4F849115B898E098B9AD899B
:1047F000BE89A03FB105B8F4BB89B0FD14C040909C
:1048000014015090150120E735EE420E531E81E051
:1048100090E00F2C02C0880F991F0A94E2F788607D
:104820008A2987B908C084B98A2D886087B94090E1
:10483000140150901501EE248F2D0E94E3068C0187
:104840008D2D0E94EB060430110510F4049720F022
:10485000E39434E1E31681F780E480937B0094E5F0
:1048600090BF8F2D806480937C00A6E1A0937A0096
:10487000109280001092850010928400B7E2B6BBBF
:104880000E94A6062B89222E3324C10181709070CC
:104890009A8B898B20FD05C091E890938100A8B880
:1048A00008C0A8B80E94AF06A0E2A6BBB1E8B093CA
:1048B000810020E030E086B3482F85FF02C0490127
:1048C0000DC080FFF8CF81E086BBA8952F5F3F4FDA
:1048D0002035310581F7F0E58F2E912C98E098B9BD
:1048E00010928100A0E2A6BB209186003091870043
:1048F000390180918400909185002817390738F498
:1049000040FF05C0B1E0B6BB0894811C911C26E9AC
:1049100020937A00EE248F2D0E94E3068C018D2DCA
:104920000E94EB060430110510F4049720F0E39484
:1049300034E1E31681F720913801309139018D89F6
:104940009E89280F391F240D351DE0911601F09125
:10495000170190E949169AE15906C8F4A1EE6A16C2
:1049600071048104910410F089E107C0C30165E07E
:1049700070E00E947F33862F8451BF0168527040DF
:10498000992787FD9095681B790B86E00AC0C901BD
:1049900060EB76E30E947F33862F895FBF01685DFD
:1049A0007F4F90E0A0E0B0E086159705A805B90517
:1049B00028F4681A790A8A0A9B0A03C066247724B5
:1049C000430189899A89892B41F082E290E0A0E035
:1049D000B0E0680E791E8A1E9B1E90E58916910430
:1049E00018F0662477244301ABE06A167104810451
:1049F000910428F008946108710881089108590110
:104A0000CC24DD2480E090E028EE33E040E050E06C
:104A10000E9454337B018C01B20180E090E0209130
:104A20002F013091300140E050E00E945433A60144
:104A300095010E94A63340E050E0C801B7010E94F2
:104A4000A633DA01C9010E940D087C01C601B50137
:104A5000A40193010E9454335B016C0100E010E05B
:104A6000E3E0EE0CFF1C001F111FEA95D1F785E073
:104A700090E0A0E0B0E0E80EF91E0A1F1B1FC8017D
:104A8000B7012AE030E040E050E00E94A63340E069
:104A900050E0C601B5010E94A633F101EE0FFF1FE1
:104AA000EE0FFF1FA1E0B0E0AC0FBD1FEA0FFB1F30
:104AB000208331834283538389899A89892BA9F47E
:104AC0009CE0691671048104910478F0F10131963B
:104AD000EE0FFF1FEE0FFF1FEA0FFB1F2083318336
:104AE00042835383AB89AF5FAB8BA895BB89BF5F14
:104AF000BB8BB43008F460CE88E088B984E00E94B3
:104B0000B30670E02D813E814F81588589819A815D
:104B1000AB81BC8182179307A407B50708F471E045
:104B20002D853E854F85588989859A85AB85BC85BD
:104B300082179307A407B50710F463E001C062E091
:104B4000E62FF0E0EE0FFF1FEE0FFF1FDE011196C4
:104B5000EA0FFB1F872F90E0880F991F880F991F7E
:104B6000A80FB91F20813181428153818D919D9180
:104B70000D90BC91A02D281739074A075B0708F450
:104B8000762F872F90E0FC01EE0FFF1FEE0FFF1F27
:104B9000EC0FFD1F418152816381748140930901B3
:104BA00050930A0160930B0170930C012BEF20933B
:104BB000010180FD05C02D893E89203F3105B8F0F7
:104BC0008CEF809301014B5F5F4F6F4F7F4FCB01A5
:104BD000BA012AE030E040E050E00E94A633209382
:104BE000090130930A0140930B0150930C0180910D
:104BF000090190910A01A0910B01B0910C0100975D
:104C0000A105B10511F41092010188E087B914B82B
:104C10006696E2E10C94FF33AEE1B0E0E2E1F6E249
:104C20000C94E333662EB82E860F898320911A01E7
:104C3000283059F520917701309178014091790120
:104C400050917A0157FD15C01091860109C0CA0123
:104C5000B9012AE0312D412D512D0E94A6331F5F4D
:104C6000173FACF391F4243160E03607410551055C
:104C700018F48FEF9FEF45C1173F39F480E02817F4
:104C80008DE738074105410510F020E03DE72C8B0A
:104C90003D8B26EDA22EE1EEF5E0E60DF11D8591AE
:104CA00088608E87E1EEF5E0EB0DF11D859188605F
:104CB0008F87EEEDF5E0E60DF11D7590EEEDF5E078
:104CC000EB0DF11DC59090EC692AB92A81E0E82E20
:104CD000F12C012D112D8E831F82188619861A86BC
:104CE0001B861C861D86188E198E1B8E1A8E0E949E
:104CF0007A1C88E088B960927C000E94A7063F85F4
:104D000037B975B874B852E05A95F1F70000000051
:104D100014B815B8DD243E8537B975B874B86092FB
:104D20007C00A895A0927A0080917A0086FDFCCF45
:104D30002090780030907900B0927C004C2DE5D026
:104D40002091780030917900288B398B3F8537B9D5
:104D5000C5B8C4B8A895B0927C00A0927A008091A2
:104D60007A0086FDFCCF60917800709179006092A6
:104D70007C00472DCAD0409178005091790014B83A
:104D8000CB01820D931DE80EF91E011D111DEA8253
:104D9000FB820C831D8388899989840F951F2E813E
:104DA0003F8168857985280F391F611D711D2E830C
:104DB0003F836887798722E32417150650F075B87A
:104DC00074B80E94B10614B815B8888D8395888F81
:104DD00007C0483E73E0570718F08A8D83958A8F85
:104DE000888999892817190660F03E8537B9C5B8B2
:104DF000C4B80E94B10614B815B8898D8395898FFF
:104E000007C0883E73E0970718F08B8D83958B8FD2
:104E1000D3945D2D5F3F49F05F3731F45C2D550F22
:104E2000C50E572D550F750E76CF40903801509016
:104E30003901440C551C9201E4E0240D351DEA951E
:104E4000E1F72901570168016E807F808884998489
:104E500020911A012830C1F46C897D89812D912D12
:104E600065507040804090409B01AC010E945433DB
:104E70009B01AC0160E779E786E190E00E94A633F0
:104E8000621A730A840A950AA614B704C804D904DE
:104E900028F46A187B088C089D0803C066247724D0
:104EA0004301B20180E090E09301A4010E945433D9
:104EB0009501A6010E94A63387E290E07981870FD1
:104EC000911D0E945134682EC90160E170E00E947A
:104ED0007F33260F371FC9016816190618F4861983
:104EE00091090FC08C5E9F4F8615910540F48C8907
:104EF0009D89843981E1980710F00E94CE08812DA8
:104F0000912D6E96E2E10C94FF3310928100109285
:104F1000800010926F0010928B0010928A0057E070
:104F200056BB5FEF509385005093840055E050933B
:104F30007B0056EB50937A0051E05093810058E289
:104F40005A95F1F7000045B944B955E05A95F1F783
:104F5000000014B815B81092810080917A0084FF87
:104F6000FCCF80937A000895A0E0B0E0EAEBF7E28E
:104F70000C94ED338091810190918201892B09F08D
:104F8000A2C080918301E82FF0E0EF51FA4F149115
:104F90001860E0918401F0E0E252FA4FF4900E9430
:104FA0007A1C88E088B915B817B9F4B880918401E3
:104FB0000E94EB066C0120918601822F845F843071
:104FC00008F081C06091770170917801809179013A
:104FD00090917A01122F115F0FC06B5F7F4F8F4F3F
:104FE0009F4F2AE030E040E050E00E94A633C90124
:104FF000DA01BC01CD011F5F173078F3693823E176
:10500000720720E0820720E0920708F05CC08B0165
:105010006530710508F457C0F5B8F4B8C0E0D0E0C9
:105020000E94AD062296C017D107D0F314B815B868
:10503000A89585E080932B01809184010E94EB0666
:10504000C816D90618F0EE24FF2403C07C01EC1822
:10505000FD08C0E0D0E00E94AD062196C017D10740
:10506000D0F3809184010E94EB069C0189E180933A
:105070002B01A895C216D30618F060E070E003C0BB
:10508000B9016C197D096E157F05B0F4C701861B47
:10509000970BBC0189F080E090E024EF31E040E024
:1050A00050E00E945433970140E050E00E94A63344
:1050B00030938201209381010E947A1C88E087B995
:1050C00088B914B815B8CDB7DEB7E8E00C94093448
:1050D0001F920F920FB60F9211248F9386E085BD19
:1050E0008F910F900FBE0F901F9018951F920F92E7
:1050F0000FB60F921124A8951092810015BC0F9045
:105100000FBE0F901F9018951F920F920FB60F921F
:1051100011242F933F938F939F9320916B01309194
:105120006C012115310511F481E085BD8091690183
:1051300090916A012817390730F015BC80916D00F5
:105140008F7E80936D002F5F3F4F30936C012093D3
:105150006B019F918F913F912F910F900FBE0F90F8
:105160001F90189508950F931F93CF93DF9383E3B8
:1051700093E06CD386E290E00E945134182F00E057
:105180000E948103C12FDD27C7FDD09517FF08C0FE
:105190008DE20E949503882799278C1B9D0B01C0E7
:1051A000CE016FEF45E223E00E946E060E945A0492
:1051B00080E496E00E945D07882341F0823888F4FD
:1051C000893210F01F5F01C0115000E011350CF062
:1051D00015561C3E0CF41B59802F9ED8082F803F7B
:1051E00078F286E290E0612F0E945E34DF91CF91E9
:1051F0001F910F910895A4E0B0E0E1E0F9E20C9472
:10520000ED3388E293E022D383E280938000109212
:105210006F008FEF90E090938B0080938A0083E083
:1052200086BB1092820015B881E184B988E088B904
:1052300029E027B9229A81E090E090938900809339
:1052400088002093810002E310E0CC24DD240117C4
:1052500009F447C0043608F00456602F70E080E07F
:1052600090E02FEF33E040E050E00E9454336E5C5A
:105270007F4F8F4F9F4F24E630E040E050E00E9488
:10528000A633790130938B0020938A000E9481031A
:10529000C701A0E0B0E089839A83AB83BC83BC01E3
:1052A000CD0128EE33E040E050E00E9454336150DD
:1052B0007E4F8F4F9F4F2FEF33E040E050E00E9432
:1052C000A633DA01C9016FEF45E225E00E946E06C0
:1052D0000E945A0498E29D1518F48CE30E94B306CC
:1052E000102F80E496E00E945D07D82EA2E8A81750
:1052F00080F0B2E3B81710F4065F03C0882311F002
:105300000F5FCC248C2D08D8C82EEFEEE81708F0DC
:105310009ECF88E087B9109281001092800014B867
:1053200022982496E8E00C940934A6E0B0E0EBE97A
:10533000F9E20C94E3338CE193E088D280E180932E
:10534000800010926F0081E090E09093890080933C
:10535000880010928B0010928A0083E086BB109226
:10536000820098E09093810015B881E184B998B9E2
:1053700089E087B9229A8093810021E12E83F1E0B0
:105380002F2E312C412C512C31E03D838AE08C832F
:1053900020E01A8201C02981EA818E2F90E00A96CE
:1053A0006EE170E00E9493336983621789F00E9476
:1053B00089038CE193E00E941A0400E004C08EE2AD
:1053C0000E9495030F5FF9810F17C8F30E945A04DA
:1053D0002E812231D8F0C401B301A20191010E94B3
:1053E000A6337B018C018D816C810E947333692F00
:1053F00070E080E090E0A20191010E9454333B01F3
:105400004C016E0C7F1C801E911E0EC08D816C8124
:105410000E947333692F70E080E090E0A201910157
:105420000E9454333B014C010E9481033D818C81D9
:10543000381719F080E090E007C080E090E0EE813E
:10544000E23110F081E090E08B83882311F08CE34F
:1054500006C0FE81F63110F082E501C08EE30E94A5
:105460009503C401B3014E810E945906C401B301E2
:1054700060507E4E85489F4FA4019301220F331F39
:10548000441F551F0E94A633B9014F3F510539F003
:1054900030F02DE02093810020E034E020C0403443
:1054A000510530F03CE03093810020E031E017C03E
:1054B0004830510530F08BE08093810020E430E0EB
:1054C0000EC04115510531F09AE09093810028E01B
:1054D00030E005C0E9E0E093810021E030E05901CF
:1054E000CC24DD24CA01A60195010E94A6332150D7
:1054F00030403093890020938800809188009091FB
:105500008900892B31F421E030E030938900209329
:105510008800E0908800F090890060E079E08DE3F9
:1055200090E0A60195010E94A633CA01B90124E6C4
:1055300030E040E050E00E9454330894E11CF11C3C
:1055400000E010E0A80197010E94A63379018A01CA
:10555000C401B30124E630E040E050E00E9454333F
:10556000E61AF70A080B190BC801B7014EEF28E439
:1055700002E20E9468058AE70E9495030E945A048D
:1055800080ED97E00E945D07882309F444C0883CC1
:1055900008F052C08135C8F13B81332309F18E8177
:1055A00081508E83C201B1012AE030E040E050E03A
:1055B0000E94A633C901DA011C012D01C401B30107
:1055C000A20191010E94A633CA01B9012AE030E08C
:1055D00040E050E00E94A6336D839AE09C8343C074
:1055E000EE81E631A8F5EF5FEE83E63111F4F5E1E7
:1055F000FC83C201B1012AE030E040E050E00E94AB
:1056000054331B012C011D822EC08B3018F02D81CC
:105610002F5F2D831A828A810E948C218A83803F8A
:1056200058F43C81632F70E06F5F7F4F8D8190E075
:105630000E9493338D83AFCE109281001092800030
:1056400088E087B914B822982696E2E10C94FF33DB
:1056500081E18E8381E0282E312C412C512C91E068
:105660009D83EAE0EC831A8296CE0F931F9387E81E
:1056700095E0ECD010E010921A0182E060E0FCD0DE
:1056800080911A018830D1F50E94890383E40E9439
:1056900095030E944D04609177017091780180918B
:1056A000790190917A014091860126E403E00E94FD
:1056B00068050E945A048091840160918301ACDAEC
:1056C0009093800180937F010E94810380EC93E09E
:1056D0000E941A0480917F01909180012FEF8A3FF0
:1056E000920730F46EEF44EF22E00E946E0603C092
:1056F0008FE30E9495030E945A040AC00E94890306
:1057000087E895E00E941A040E945A040E945F04F0
:10571000812F0E94982188EE93E00E945D078823E4
:1057200039F4812F0E948C21182F8A3F08F4A3CFCF
:105730001F910F9108958A3008F08A50882319F438
:1057400084EF92E02CC0813019F48CE193E027C003
:10575000823019F488E293E022C0833019F487E89C
:1057600095E01DC0843019F483E995E018C08530B8
:1057700019F48EE995E013C0863019F483E393E0C1
:105780000EC0873019F48AE493E009C0883019F418
:1057900087E093E004C0893021F481E193E00E9426
:1057A0001A040E945A040C945A03813009F4BDCDA6
:1057B000823009F420CD833009F457CF843011F4BE
:1057C0000C946F23853021F40E9490030C944122A5
:1057D000863009F4C8CC873019F481E10C94320981
:1057E000883009F48AC1893011F40C94FB0C0895B7
:1057F0000F931F9389EE92E029D010E000E003C0E0
:105800001A3008F01A500E948103812F94DF80E43F
:105810009FE10E945D07982F811100E08091350182
:10582000813009F400E0923340F0112359F0812FC8
:10583000BCDF89EE92E00AD002C091111F5F0F5FBA
:105840000436F0F280E01F910F9108950F931F939B
:105850008C010E949003C8010E941A0400E082E0BB
:105860000E94B3064F9903C00F5F0436C1F70E9430
:1058700081031F910F910895A0E0B0E0E1E4FCE204
:10588000A8C7D82EC62E862F90E08C010F511A4F34
:10589000F80104910860ED2DF0E0E252FA4FF49027
:1058A00082529A4FFC01E4901092800110927F0185
:1058B000109273011092740110927501109276018A
:1058C00087EF809385010E947A1C88E088B907B928
:1058D000E4B8E5B88D2D0E94EB068C018C2D0E945A
:1058E000EB06081B190B14B81092520110925101CB
:1058F000E0E0F0E07CE2872E71E0972E64E6A62ED1
:10590000B12C6DC0F5B88091510190915201892B55
:10591000B1F0E401CE1BDF0B609151017091520197
:10592000CF01880F991F9F0143E0220F331F4A9533
:10593000E1F7820F931FE3D6C617D70750F4F4B8E8
:105940000E94A60614B880915101909152010196CF
:1059500029C080915101909152010B97D0F0609134
:10596000510170915201EA9DC001EB9D900DFA9D8D
:10597000900D1124C4D66C177D0758F4F4B80E941A
:105980009B0614B880915101909152018C599F4F00
:1059900009C0F4B80E94A10614B8809151019091F9
:1059A00052010A96909352018093510115B80E94BA
:1059B000A806A8958D2D0E94EB06FC01E01BF10BBB
:1059C00080915101909152018B51964020F0E53227
:1059D000F1050CF489C081E0ED32F8076CF4809198
:1059E000510190915201845D904308F48BCF81E086
:1059F000ED32F8070CF478C080915101909152017A
:105A0000019729F425E0E531F2070CF06DC0E09034
:105A10005101F0905201EE0CFF1C00E010E0E0920A
:105A20007B01F0927C0100937D0110937E01CF01F8
:105A300068E270E078D6CB018E0F9F1F0E946A202B
:105A4000A0E0B0E0BC01CD01A80197012DD6609384
:105A50007B0170937C0180937D0190937E01609324
:105A600073017093740180937501909376010E9485
:105A7000041D86E290E015D7282F332727FD3095A7
:105A800068EE73E0621B730B882777FD8095982F73
:105A9000209173013091740140917501509176010C
:105AA00003D620E137E240E050E050D62093730166
:105AB00030937401409375015093760188E0809390
:105AC0001A01E7E7F1E020937701318342835383A2
:105AD000809185018093860110928201109281014C
