:020000040000FA
:100000000C9468000C9490000C9490000C94900058
:100010000C9490000C9490000C9490000C94900020
:100020000C9490000C9490000C9490000C94900010
:100030000C9490000C9490000C9490000C94900000
:100040000C9449070C9490000C9417070C94F1063B
:100050000C9490000C9490000C9490000C949000E0
:100060000C9493070C9490000000000025002800D9
:100070002B00040404040404040402020202020229
:10008000030303030303010204081020408001025C
:1000900004081020010204081020000000080002DB
:1000A00001000003040700000000000000003138D8
:1000B0003A30313A3436004A756E202035203230DD
:1000C0003232001F1C1F1E1F1E1F1F1E1F1EBF08B7
:1000D00011241FBECFEFD8E0DEBFCDBF23E0A8E9DB
:1000E000B1E001C01D92AC31B207E1F711E0A0E030
:1000F000B1E0E6E8FBE102C005900D92A839B10736
:10010000D9F710E0C8E6D0E004C02197FE010E94B4
:10011000960CC736D107C9F70E9446090C94C10D49
:100120000C94000008950895AF92BF92CF92DF9291
:10013000EF92FF920F931F93CF93DF936C017B019C
:100140008B01040F151FEB015E01AE18BF08C0172D
:10015000D10759F06991D601ED91FC910190F081A0
:10016000E02DC6010995892B79F7C501DF91CF9163
:100170001F910F91FF90EF90DF90CF90BF90AF90C5
:100180000895FC01538D448D252F30E0842F90E09D
:10019000821B930B541710F0CF9608950197089582
:1001A000FC01918D828D981761F0A28DAE0FBF2F4B
:1001B000B11D5D968C91928D9F5F9F73928F90E0A1
:1001C00008958FEF9FEF0895FC01918D828D981710
:1001D00031F0828DE80FF11D858D90E008958FEF4D
:1001E0009FEF0895FC01918D228D892F90E0805C16
:1001F0009F4F821B91098F73992708958DE592E097
:100200000E94F20021E0892B09F420E0822F08955A
:1002100080E090E0892B29F00E94FE0081110C946F
:1002200000000895FC01A48DA80FB92FB11DA35A99
:10023000BF4F2C91848D90E001968F739927848F06
:10024000A689B7892C93A089B1898C918370806429
:100250008C93938D848D981306C00288F389E02DCA
:1002600080818F7D80830895EF92FF920F931F937B
:10027000CF93DF93EC0181E0888F9B8D8C8D981359
:100280001AC0E889F989808185FF15C09FB7F89465
:10029000EE89FF896083E889F989808183708064B1
:1002A00080839FBF81E090E0DF91CF911F910F91FC
:1002B000FF90EF900895F62E0B8D10E00F5F1F4F0B
:1002C0000F731127E02E8C8D8E110CC00FB607FC1A
:1002D000FACFE889F989808185FFF5CFCE010E94A8
:1002E0001201F1CFEB8DEC0FFD2FF11DE35AFF4F03
:1002F000F0829FB7F8940B8FEA89FB898081806236
:10030000CFCFCF93DF93EC01888D8823B9F0AA89F2
:10031000BB89E889F9898C9185FD03C0808186FDC0
:100320000DC00FB607FCF7CF8C9185FFF2CF80810F
:1003300085FFEDCFCE010E941201E9CFDF91CF9171
:10034000089590E0FC01E656FF4F2491FC01EA5726
:10035000FF4F3491FC01EE58FF4FE491EE23C9F0BA
:10036000222339F0233001F1A8F4213019F1223091
:1003700029F1F0E0EE0FFF1FE859FF4FA591B4916E
:100380008FB7F894EC91611126C030953E233C93D1
:100390008FBF08952730A9F02830C9F0243049F7DD
:1003A000809180008F7D03C0809180008F77809343
:1003B0008000DFCF84B58F7784BDDBCF84B58F7DA0
:1003C000FBCF8091B0008F778093B000D2CF809127
:1003D000B0008F7DF9CF3E2BDACF3FB7F8948091F4
:1003E000E1019091E201A091E301B091E40126B511
:1003F000A89B05C02F3F19F00196A11DB11D3FBF5D
:10040000BA2FA92F982F8827BC01CD01620F711D2B
:10041000811D911D42E0660F771F881F991F4A9525
:10042000D1F708958F929F92AF92BF92CF92DF92B1
:10043000EF92FF924B015C010E94ED016B017C0188
:100440000E94ED016C197D098E099F09683E734079
:1004500081059105A8F321E0821A9108A108B1084D
:1004600088EEC80E83E0D81EE11CF11C81149104B3
:10047000A104B10429F7FF90EF90DF90CF90BF90D7
:10048000AF909F908F90089508952091B901260F05
:100490003327331F21323105ECF420913302FC0164
:1004A00090E080E0243069F082E00895A091B901E5
:1004B0002191AC0147565E4FA40FB52FB11D2C936F
:1004C0000196861798F38091B901680F6093B9017E
:1004D00080E0089581E008951092330281E08093D6
:1004E000320210920D0261E082E10E94A10161E0FE
:1004F00083E10E94A101E9EBF0E080818E7F80839F
:1005000080818D7F808388E48093B80085E4809328
:10051000BC0008951092EC011092EB0110923A0287
:1005200010925C020E946C0282E990E09093E801D4
:100530008093E70183E990E09093E6018093E501E1
:100540000895CF93DF9391E0909398018823B9F0B9
:10055000C091B800D091BA008091BC008A7B809392
:10056000BC0060E082E10E94A10160E083E10E94A2
:10057000A1010E946C02D093BA00C093B800DF9131
:10058000CF9108958F929F92AF92BF92CF92DF92B8
:10059000EF92FF920F931F93CF93DF93D0915C0262
:1005A000D13208F0D7C0182FC0915B020E94ED0134
:1005B0006B017C018091330281116BC082E08093DA
:1005C0003302109332028FEF809331021092300287
:1005D000D0932F02ABE3B2E0EFE0F2E080E0D8137B
:1005E00091C010920E0280910E02CC0FC82BC093C6
:1005F0000E0280910D02813009F088C010920D0228
:100600000E94ED016B017C0180910E028093BB0082
:100610008091350290913602A0913702B091380254
:10062000892B8A2B8B2BA1F00E94ED0100913502C2
:100630001091360220913702309138026C197D09F1
:100640008E099F09061717072807390708F442C0C3
:100650008091BC0083FDD8CF85EC8093BC000E94C4
:10066000ED016B017C0180913302823009F450C0AE
:10067000809131028F3F09F46FC080913102803246
:1006800009F46CC080913102803309F469C084E0C0
:1006900026C08091350290913602A0913702B09128
:1006A0003802892B8A2B8B2B09F484CF0E94ED0111
:1006B0008090350290903602A0903702B0903802B8
:1006C0006C197D098E099F0986169706A806B9063A
:1006D00008F070CF809134020E94A10285E0109250
:1006E0003A0210925C0210923902DF91CF911F9171
:1006F0000F91FF90EF90DF90CF90BF90AF909F90C1
:100700008F9008959D9191938F5F69CF85EEA5CFCE
:100710008091350290913602A0913702B091380253
:10072000892B8A2B8B2B09F49ECF0E94ED0100911F
:1007300035021091360220913702309138026C193F
:100740007D098E099F09061717072807390708F042
:100750008ACFC0CF81E0C3CF80E0C1CF82E0BFCFDE
:1007600083E0BDCFCF93DF93EC018B818823A1F091
:10077000888191E09093390280935B0210923A0253
:1007800010925C0281E00E94C20291E0811190E02F
:10079000892FDF91CF9108950E948A0281E08B8397
:1007A000CE010E94B203982F8111E2CFF1CF0895BC
:1007B000E091EC018091EB01E81730F4F0E0E351B7
:1007C000FE4F808190E008958FEF9FEF0895909104
:1007D000EC018091EB012FEF3FEF981748F4E92FE0
:1007E000F0E0E351FE4F208130E09F5F9093EC01F9
:1007F000C90108958091EB019091EC01891B990B3F
:100800000895CF92DF92EF92FF920F931F93CF93B1
:10081000DF937C01CB018A0120913902222389F0E8
:10082000EB016B01C40ED51ECC15DD0569F0699195
:10083000D701ED91FC910190F081E02DC701099560
:10084000F3CF642F0E944502C801DF91CF911F9121
:100850000F91FF90EF90DF90CF900895CF93DF93AB
:100860001F92CDB7DEB76983209139022223F9F0B8
:1008700020915C02203258F021E030E0FC0133830B
:10088000228390E080E00F90DF91CF9108958091D6
:100890003A02E82FF0E0E55CFD4F998190838F5F8D
:1008A00080933A0280935C0281E090E0ECCF61E0BB
:1008B000CE0101960E944502F7CFFC01248131E070
:1008C0003093390220935B0210923A0210925C023C
:1008D0008385682B8AEF92E00E942E0481E00C94BD
:1008E000C20290E080E008951F93CF93DF93DC0174
:1008F0001496ED91FC91E417F50710F490E01FC0F9
:10090000122FEA01FC0181819281208131E0309334
:10091000390220935B0210923A0210925C02DC01D1
:10092000ED91FC910280F381E02D0995C817D9075C
:1009300029F7812F0E94C20291E08111DFCF892F18
:10094000DF91CF911F9108952F923F924F925F9226
:100950006F927F928F929F92AF92BF92CF92DF92CF
:10096000EF92FF920F931F93CF93DF935C011B01D4
:100970006A01F12CE12CD50114968D919C91860190
:100980000E191F098017910708F48C01F501D08119
:100990000E94ED012B013C0180913302811172C054
:1009A000C02F013208F0C0E2F1E0F093330221E001
:1009B000C601801B910BE816F90608F420E020938D
:1009C00032028FEF80933102109230028C0F8093AD
:1009D0002F02A1E0A0930E0280910E02DD0FD82B12
:1009E000D0930E0280910D02813009F090C01092D8
:1009F0000D020E94ED012B013C0180910E028093BB
:100A0000BB008091350290913602A0913702B091DF
:100A10003802892B8A2B8B2BA1F00E94ED012091AB
:100A200035023091360240913702509138026419F4
:100A3000750986099709261737074807590708F4E3
:100A400042C08091BC0083FDD8CFB5ECB093BC0010
:100A50000E94ED012B013C0180913302813009F4A9
:100A60005AC0809130028C1710F4C0913002AFE070
:100A7000B2E0EDEEF1E080E08C1751F19D919193A1
:100A80008F5FFACF8091350290913602A0913702A4
:100A9000B0913802892B8A2B8B2B09F47DCF0E94D1
:100AA000ED0120913502309136024091370250918C
:100AB0003802641975098609970926173707480708
:100AC000590708F069CF809134020E94A102C0E06A
:100AD0001092EC01C093EB01C017110609F057C04A
:100AE00041018E0C9F1CE401CE01881999098017E1
:100AF000910798F5D50111968D919C91DC01ED91AE
:100B0000FC910284F385E02D09958993EDCFE5EE04
:100B1000E093BC009DCF8091350290913602A09168
:100B20003702B0913802892B8A2B8B2B09F494CF92
:100B30000E94ED012091350230913602409137023A
:100B400050913802641975098609970926173707E5
:100B50004807590708F080CFB6CFE00EF11EEC141D
:100B6000FD0408F408CF81E0DF91CF911F910F9130
:100B7000FF90EF90DF90CF90BF90AF909F908F90BD
:100B80007F906F905F904F903F902F90089580E0FE
:100B9000EBCFCF93DF9300D0CDB7DEB78FE08A8362
:100BA00021E041E050E0BE016E5F7F4F8091E9019E
:100BB0009091EA010E94740441E050E0BE016F5F31
:100BC0007F4F8091E9019091EA010E94A4048981FC
:100BD0000F900F90DF91CF9108950F931F93CF93B4
:100BE0008C01C62F0E945D046C2F6460C8010E94B6
:100BF0005D046C2F6B7FC8010E945D0483EC90E064
:100C00000197F1F7CF911F910F9108950F931F93C3
:100C1000CF93DF938C01D62FC42F607F642B0E946B
:100C2000ED0580E1D89FB00111246C2BC801DF9144
:100C3000CF911F910F910C94ED0541E00E940606A3
:100C400081E090E0089541E0682F86E093E00E9403
:100C5000060681E090E00895CF93DF93CDB7DEB72D
:100C600028970FB6F894DEBF0FBECDBF98E0E6E040
:100C7000F1E0DE01119601900D929A95E1F79091C5
:100C80000E03981708F48FEF90E0880F991F21E06A
:100C900030E02C0F3D1F820F931FFC0160816068C4
:100CA00040E086E093E028960FB6F894DEBF0FBED2
:100CB000CDBFDF91CF910C940606FB01019000207F
:100CC000E9F73197AF01461B570BDC01ED91FC9121
:100CD0000280F381E02D09948F929F92AF92BF9290
:100CE0000F931F93CF93DF93CDB7DEB7A1970FB6C6
:100CF000F894DEBF0FBECDBF19A2423008F44AE01F
:100D00008E010F5D1F4F842E912CB12CA12CA501BB
:100D100094010E94740CE62FB901CA01EA3004F56F
:100D2000E05DD801EE938D01232B242B252B79F741
:100D300090E080E0109729F0BD0186E093E00E94EA
:100D40005D06A1960FB6F894DEBF0FBECDBFDF9152
:100D5000CF911F910F91BF90AF909F908F9008956A
:100D6000E95CDFCF682F70E090E080E04AE00C940F
:100D70006C0685ED8093BC0080913502909136021F
:100D8000A0913702B09138020796A11DB11D23E052
:100D9000B695A795979587952A95D1F72091BC0090
:100DA00024FD03C010923302089540913502509102
:100DB00036026091370270913802452B462B472B43
:100DC00069F30097A105B10541F02AE22A95F1F7F0
:100DD00000C00197A109B109E1CF809134020C94C0
:100DE000A1021F920F920FB60F9211242F933F93DF
:100DF0004F935F936F937F938F939F93AF93BF9323
:100E0000EF93FF938DE592E00E941201FF91EF9125
:100E1000BF91AF919F918F917F916F915F914F9112
:100E20003F912F910F900FBE0F901F9018951F921A
:100E30000F920FB60F9211242F938F939F93EF93DE
:100E4000FF93E0916D02F0916E028081E091730258
:100E5000F091740282FD1BC09081809176028F5FB9
:100E60008F7320917702821741F0E0917602F0E0D3
:100E7000E35AFD4F958F80937602FF91EF919F91FA
:100E80008F912F910F900FBE0F901F90189580811A
:100E9000F4CF1F920F920FB60F9211242F933F930E
:100EA0008F939F93AF93BF938091DD019091DE016B
:100EB000A091DF01B091E0013091DC0123E0230F2C
:100EC0002D3758F50196A11DB11D2093DC018093AB
:100ED000DD019093DE01A093DF01B093E0018091EA
:100EE000E1019091E201A091E301B091E40101964A
:100EF000A11DB11D8093E1019093E201A093E30154
:100F0000B093E401BF91AF919F918F913F912F9149
:100F10000F900FBE0F901F90189526E8230F029692
:100F2000A11DB11DD2CF1F920F920FB60F921124A7
:100F30002F933F934F935F936F937F938F939F93E1
:100F4000AF93BF93EF93FF938091B900887F803672
:100F500009F44AC0F0F5883209F4A7C018F58031C9
:100F600009F49BC0B8F4882309F4F9C0883009F467
:100F700094C0FF91EF91BF91AF919F918F917F911D
:100F80006F915F914F913F912F910F900FBE0F90F6
:100F90001F901895883109F488C0803251F78093EA
:100FA000310214C0803409F49DC040F48033B9F399
:100FB0008833F9F68093310285ECB0C0803509F4AE
:100FC00085C0883509F496C0883499F60E94B90620
:100FD000D0CF883909F48CC038F5883729F050F41F
:100FE000883611F0803729F683E08093330210921F
:100FF000DB0157C0883809F47BC0803919F080388C
:1010000009F0B7CF8091DB01803208F071C0E09128
:10101000DB0181E08E0F8093DB018091BB00F0E06B
:10102000E554FE4F80833DC0803B39F0E0F4803AC8
:1010300009F479C0883A09F09CCF84E080933302A8
:101040001092BA011092B901E091E701F091E80124
:1010500009958091B90181110FC081E08093B90198
:101060001092990109C0803C09F4A6CF883C09F48C
:10107000A3CF883B09F07DCFE091BA0181E08E0FCC
:101080008093BA01F0E0E756FE4F80818093BB0069
:101090009091BA018091B90129C080910E0280938C
:1010A000BB0085EC8093BC0064CF909130028091AE
:1010B0002F02981758F5E091300281E08E0F80934F
:1010C0003002F0E0E15FFD4F8081E9CFE091300236
:1010D00081E08E0F809330028091BB00F0E0E15FF1
:1010E000FD4F80839091300280912F029817C8F2B3
:1010F00085E8D8CFE091300281E08E0F80933002F6
:101100008091BB00F0E0E15FFD4F8083809132026F
:1011100081115CCF81E080930D0284EA8093BC0052
:101120001092330226CF85EC8093BC0010923302DC
:101130008091DB01803230F4E091DB01F0E0E55496
:10114000FE4F10826091DB0170E0E091E501F091CB
:10115000E6018BEB91E009951092DB010ACF10922A
:10116000310234CFFC01908190539A3008F090E026
:10117000818180532AE0929F800D1124089510925E
:10118000600210925F0288EE93E0A0E0B0E08093EE
:10119000610290936202A0936302B093640222E121
:1011A00031E030935E0220935D0225EC30E0309315
:1011B0006A022093690224EC30E030936C022093A1
:1011C0006B0220EC30E030936E0220936D0221EC34
:1011D00030E03093700220936F0222EC30E03093C5
:1011E00072022093710226EC30E030937402209357
:1011F0007302109276021092770210927802109287
:1012000079021092FD021092FC028093FE029093EC
:10121000FF02A0930003B093010384E291E0909356
:10122000FB028093FA021092170310921603109299
:10123000150310921203E3ECF0E081E08C3049F0EA
:101240009491823009F49F5F21E0280F3196992311
:10125000D9F08093130381E0809314031092090363
:101260001092080386E391E09093070380930603AE
:1012700087E280930A0380E180930F0382E08093EA
:101280001003109211030895822FD8CFCF93DF93CC
:10129000CDB7DEB72D970FB6F894DEBF0FBECDBF2A
:1012A000789484B5826084BD84B5816084BD85B541
:1012B000826085BD85B5816085BD80916E0081604D
:1012C00080936E00109281008091810082608093F3
:1012D00081008091810081608093810080918000F5
:1012E0008160809380008091B10084608093B10020
:1012F0008091B00081608093B00080917A0084601A
:1013000080937A0080917A00826080937A00809145
:101310007A00816080937A0080917A00806880935F
:101320007A001092C100E0916D02F0916E0282E0AD
:101330008083E0916902F0916A021082E0916B0271
:10134000F0916C028FEC808310927502E091710233
:10135000F091720286E08083E0916F02F09170025A
:10136000808180618083E0916F02F09170028081C2
:1013700088608083E0916F02F091700280818068C4
:101380008083E0916F02F091700280818F7D808375
:101390000E948A0210920B0380911003823018F091
:1013A00098E090930B0380930E0362E370E080E07B
:1013B00090E00E9412026091110386E093E00E9487
:1013C0005D0468EE73E080E090E00E94120260E34A
:1013D00086E093E00E94ED050BE4E02E06E4F02E9B
:1013E000C7010197F1F760E386E093E00E94ED0505
:1013F000C7010197F1F760E386E093E00E94ED05F5
:1014000083E592E00197F1F760E286E093E00E94C5
:10141000ED0560910B03606240E086E093E00E947E
:10142000060684E080930C0340E06CE086E093E0E5
:101430000E94060640E061E086E093E00E94060616
:101440008BE3E82E8FE1F82EC7010197F1F782E0D8
:1014500080930D0340E066E086E093E00E9406067C
:1014600040E062E086E093E00E940606C701019733
:10147000F1F788E08093110360E086E093E00E943A
:101480005D048091E9019091EA01009711F00E94BA
:10149000380D86E090E00E949C0C7C0188E6F70104
:1014A00080838AEF92E092838183138280E290E0CE
:1014B00095838483F092EA01E092E9010E948A0216
:1014C00081E0F7018383C7010E94B20381110DC03F
:1014D0006EE371E08DE592E00E945D066CE571E0DF
:1014E0008DE592E00E945D06FFCF0E94C90590E065
:1014F000880F892F881F990B892B09F402C16FE58A
:1015000071E08DE592E00E945D066CE571E08DE58D
:1015100092E00E945D064BE050E067EB70E0CE0188
:1015200001960E944B0CCE010A960E94B208082F29
:10153000E981E154E331D8F40E2E000CFF0BED5598
:10154000F54F0C94960C0C0BB70AB70A200BB70A90
:10155000B60AB70AB70AB70A000BB70AB70A130BDD
:101560001E0B1C0BB70AB70AB70A1A0B12E0CE0102
:1015700005960E94B208F82E48E050E06EEA70E04E
:10158000CE0101960E944B0CCE0101960E94B2083A
:10159000E82ECE0104960E94B208D82ECE010796FE
:1015A0000E94B208382F1A8219822AE0622F0E9404
:1015B000540C982F880F890F880F830F8A838D2DE5
:1015C0000E94540C982F880F890F880F8D0D8B83E4
:1015D0008E2D0E94540C982F880F890F880F8E0D26
:1015E0008C83602F70E02F2D30E0E3ECF0E081E0A1
:1015F000811740F59491290F311D8F5F3196F8CFF7
:101600008A8111E0813609F4B2CF8B8117E08E36E2
:1016100009F0ADCF16E0ABCF8B8118E0823709F02F
:10162000A6CF14E0A4CF8B8115E0823709F09FCFBD
:1016300013E09DCF19E09BCF1AE099CF1BE097CF25
:101640001CE095CF133028F0802F837011F42F5FAA
:101650003F4FCB0103969695879596958795EDE636
:10166000F1E06E9FA0016F9F500D7E9F500D1124E1
:101670004B5F5F4F840F951F820F931F67E070E0F1
:101680000E94600C811101C087E08D832AE08F2DBC
:10169000622F0E94540C982F880F890F880F8F0D8E
:1016A0008E83812F0E94540C982F990F890F880FD9
:1016B000180F1F83802F0E94540C982F880F890FBA
:1016C000880F800F888721E048E050E0BE016F5FFF
:1016D0007F4F8091E9019091EA010E9474040E9479
:1016E000C9059FE09C878F778D8721E042E050E01D
:1016F000BE01645F7F4F8091E9019091EA010E94F1
:10170000740400E010E01982E090E901F090EA0131
:1017100020E041E050E0BE016F5F7F4FC7010E94B3
:101720007404882341F047E050E0BE016F5F7F4FB3
:10173000C7010E94A404E981EF77FA81AB815D8142
:101740004E814F778F81282F30E094E03595279593
:101750009A95E1F7922F990F990F291B220F280FC5
:1017600020931203842F90E024E0959587952A9585
:10177000E1F7982F990F990F891B880F840F809399
:101780001303652F70E034E0759567953A95E1F79E
:10179000862F880F880F681B660F650F60931403F0
:1017A0004A2F50E064E0559547956A95E1F7842FFC
:1017B000880F880F481B440F4A0F409315032F2FA3
:1017C00030E074E0359527957A95E1F7822F880F00
:1017D000880F281B220F2F0F209316038E2F90E0C7
:1017E000F4E095958795FA95E1F7982F990F990F61
:1017F000891B880F8E0F8093170381E00E942C06AF
:1018000066E871E086E093E00E945D068091140333
:101810000E94B2068FE20E942306809113030E9469
:10182000B2068FE20E9423066091120370E06053BB
:10183000784F90E080E04AE00E946C0680E00E94D1
:101840002C066CE871E086E093E00E945D068091D2
:1018500015030E94B2068AE30E94230680911603B4
:101860000E94B2068AE30E942306809117030E9419
:10187000B20662E971E086E093E00E945D06011520
:10188000110509F440CF0E94FE00882309F43BCFE4
:101890000E94000038CFFB01DC0102C005900D92D0
:1018A00041505040D8F70895991B79E004C0991F22
:1018B000961708F0961B881F7A95C9F780950895AA
:1018C000AA1BBB1B51E107C0AA1FBB1FA617B70766
:1018D00010F0A61BB70B881F991F5A95A9F7809582
:1018E0009095BC01CD010895A1E21A2EAA1BBB1B45
:1018F000FD010DC0AA1FBB1FEE1FFF1FA217B307DC
:10190000E407F50720F0A21BB30BE40BF50B661FF1
:10191000771F881F991F1A9469F7609570958095B5
:1019200090959B01AC01BD01CF010895EE0FFF1F03
:101930000590F491E02D09940F931F93CF93DF93BB
:101940008230910510F482E090E0E0911A03F0916A
:101950001B0330E020E0B0E0A0E0309799F42115BF
:10196000310509F44AC0281B390B24303105D8F55C
:101970008A819B816115710589F1FB0193838283C3
:10198000FE0111C04081518102811381481759071E
:10199000E0F04817590799F4109761F012960C93EC
:1019A000129713961C933296CF01DF91CF911F911E
:1019B0000F91089500931A0310931B03F4CF211580
:1019C000310551F04217530738F0A901DB019A01A4
:1019D000BD01DF01F801C1CFEF01F9CF90931B03E7
:1019E00080931A03CDCFFE01E20FF31F81939193F1
:1019F0002250310939832883D7CF209118033091A1
:101A00001903232B41F420910201309103013093FB
:101A10001903209318032091000130910101211531
:101A2000310541F42DB73EB74091040150910501B5
:101A3000241B350BE0911803F0911903E217F3070B
:101A4000A0F42E1B3F0B2817390778F0AC014E5F2E
:101A50005F4F2417350748F04E0F5F1F509319034F
:101A600040931803819391939FCFF0E0E0E09CCFE7
:101A7000CF93DF930097E9F0FC0132971382128233
:101A8000A0911A03B0911B03ED0130E020E0109704
:101A9000A1F420813181820F931F2091180330918E
:101AA00019032817390709F061C0F0931903E0936F
:101AB0001803DF91CF910895EA01CE17DF07E8F50B
:101AC0004A815B819E0141155105B1F7E901FB8314
:101AD000EA8349915991C40FD51FEC17FD0761F4B2
:101AE000808191810296840F951FE90199838883F3
:101AF000828193819B838A83F0E0E0E012968D914E
:101B00009C9113970097B9F52D913C911197CD01B8
:101B10000296820F931F2091180330911903281702
:101B2000390739F6309751F510921B0310921A03BA
:101B3000B0931903A0931803BCCFD383C283408111
:101B40005181840F951FC817D90761F44E5F5F4F0D
:101B500088819981480F591F518340838A819B81D5
:101B6000938382832115310509F0B0CFF0931B03D5
:101B7000E0931A039ECFFD01DC01C0CF13821282D5
:101B8000D7CFF894FFCF00001C0380000000400076
:101B9000140054000000000034019400C1008101D1
:101BA000F200D000E400000000002E0401047104E3
:101BB000D703FA03E703D803000000001D069400D2
:101BC0007104440244533133303720525443204D82
:101BD0006F64756C65206E6F742050726573656EEE
:101BE00074000D0A0052544320706F7765722066AE
:101BF00061696C7572652C20726573657474696EA9
:101C000067207468652074696D652100446174659E
:0E1C10003A0054696D653A0020202020000043
:107E0000112484B714BE81FFF0D085E080938100F7
:107E100082E08093C00088E18093C10086E0809377
:107E2000C20080E18093C4008EE0C9D0259A86E02C
:107E300020E33CEF91E0309385002093840096BBD3
:107E4000B09BFECF1D9AA8958150A9F7CC24DD24C4
:107E500088248394B5E0AB2EA1E19A2EF3E0BF2EE7
:107E6000A2D0813461F49FD0082FAFD0023811F036
:107E7000013811F484E001C083E08DD089C08234E0
:107E800011F484E103C0853419F485E0A6D080C0E4
:107E9000853579F488D0E82EFF2485D0082F10E0AE
:107EA000102F00270E291F29000F111F8ED06801E7
:107EB0006FC0863521F484E090D080E0DECF843638
:107EC00009F040C070D06FD0082F6DD080E0C81688
:107ED00080E7D80618F4F601B7BEE895C0E0D1E017
:107EE00062D089930C17E1F7F0E0CF16F0E7DF06D8
:107EF00018F0F601B7BEE89568D007B600FCFDCFD4
:107F0000A601A0E0B1E02C9130E011968C91119780
:107F100090E0982F8827822B932B1296FA010C0160
:107F200087BEE89511244E5F5F4FF1E0A038BF0790
:107F300051F7F601A7BEE89507B600FCFDCF97BE46
:107F4000E89526C08437B1F42ED02DD0F82E2BD052
:107F50003CD0F601EF2C8F010F5F1F4F84911BD097
:107F6000EA94F801C1F70894C11CD11CFA94CF0C13
:107F7000D11C0EC0853739F428D08EE10CD085E9AC
:107F80000AD08FE07ACF813511F488E018D01DD067
:107F900080E101D065CF982F8091C00085FFFCCF94
:107FA0009093C60008958091C00087FFFCCF809118
:107FB000C00084FD01C0A8958091C6000895E0E648
:107FC000F0E098E1908380830895EDDF803219F02E
:107FD00088E0F5DFFFCF84E1DECF1F93182FE3DFCA
:107FE0001150E9F7F2DF1F91089580E0E8DFEE27F6
:047FF000FF270994CA
:027FFE00040479
:00000001FF
