:100000000C94D5000C94FD000C94FD000C94FD00A4
:100010000C94FD000C94FD000C94FD000C94FD006C
:100020000C94FD000C94FD000C94FD000C94FD005C
:100030000C94FD000C94FD000C94FD000C94FD004C
:100040000C9477060C94FD000C94FD000C94FD00BC
:100050000C94FD000C94FD000C94FD000C94FD002C
:100060000C94FD000C94FD000000FF0080808000D7
:10007000FF000000000000000000FF008080800002
:10008000FF000000000000000000FF000000FF0073
:100090008080800080808000FF000000FF00000062
:1000A0000000000000000000AB0055007C00840050
:1000B0004B00B5001B00E5000017E8000047B80042
:1000C0000077AB0000ABAB000055AB000022DD00B9
:1000D0000E00F2003E00C20071008F00A1005F0020
:1000E000D0002F00F9070000FF0000008B00000087
:1000F0008B0000008B0000008B0000008B000000D4
:100100008B0000008B000000FF0000008B0000004F
:10011000EBCE8700EBCE8700E6D8AD00FFFFFF00F7
:10012000E6D8AD00EBCE87000000FF000000000025
:100130000055AB000000000000ABAB000000000069
:1001400000FF00000000000055AB000000000000B0
:10015000FF00000000000000AB00550000000000A0
:100160005500AB00000000000000FF00002AD50091
:100170000055AB00007FAB0000ABAB0000D55600D4
:1001800000FF00002AD5000055AB0000AA56000071
:10019000FF000000D5002A00AB00550081007F0061
:1001A0005500AB002B00D500180911241FBECFEF5E
:1001B000D8E0DEBFCDBF11E0A0E0B1E0E0E6F3E1C2
:1001C00002C005900D92A632B107D9F722E0A6E24F
:1001D000B1E001C01D92A838B207E1F710E0C5ED0B
:1001E000D0E004C02197FE010E949409C43DD107CC
:1001F000C9F70E94C1060C94AE090C94000020E3DC
:1002000030E048E552E0FC01DA0120FF05C002C001
:1002100001900D9201900D922250D0F73040C0F71E
:10022000CA010895A8E5B2E0FC0145915591659198
:1002300074916C9311965C93119712964C9312974C
:100240000496139622E0A838B20771F788E592E089
:100250000895FB01DC016C9112967C91962F990F09
:10026000990F990F35E5292F239F020E20E0211DBC
:100270001124822F562F5074462F407267FD40C0C4
:1002800051112CC0411105C0922F9095892F90E0FB
:1002900004C025E5280F90E08BEA7F3FD9F030E0DD
:1002A000772321F0779F312D09F03F5F332309F445
:1002B00048C0482F439F040E40E0411D842F239FD8
:1002C000020E20E0211D492F439F040E40E0411DF6
:1002D000942F1124808321839283089541110BC0B0
:1002E000392F2AEA329F030E30E0311D11249BEA98
:1002F000931B280FCBCF90E02095982F80E0CDCF97
:10030000511112C041110CC0392F2AEA329F030E3D
:1003100030E0311D11242BEA231B95E5930FEECF1E
:10032000922F909520E0B9CF411106C025E5280F06
:100330009BEA981B822FF6CF2AEA280F90E0932F92
:10034000F8CF90E020E080E0C5CF80E991E008950B
:100350003FB7F89480912D0190912E01A0912F012B
:10036000B091300126B5A89B05C02F3F19F001962A
:10037000A11DB11D3FBFBA2FA92F982F8827BC01FF
:10038000CD01620F711D811D911D42E0660F771F27
:10039000881F991F4A95D1F708952FB7F894609157
:1003A000290170912A0180912B0190912C012FBF7E
:1003B00008954F925F926F927F929F92AF92BF92F9
:1003C000CF92DF92EF92FF920F931F93CF93DF9321
:1003D00000D01F92CDB7DEB7D82E80914802909101
:1003E0004902A0914A02B0914B02892B8A2B8B2B98
:1003F000D9F00E94A8010091540210915502209159
:10040000560230915702601B710B820B930B0091C7
:1004100048021091490220914A0230914B02601724
:10042000710782079307C8F20E94A80160935402E3
:10043000709355028093560290935702E0915002B8
:10044000F0915102309759F040914C0250914D0279
:1004500060914E0270914F028D2D0995D82EE0903B
:100460005202F09053024D2C512C712C612CE1144E
:10047000F10409F459C0D7011C96CC901C978091C7
:100480004602909147028436910510F41C961C9206
:10049000D701ED91FC91A280B38019821A821B8250
:1004A000DD2079F1F701369610E000E0219122235A
:1004B00019F19280992001F130E050E040E02F5F87
:1004C0003F4F4F4F5F4FC301B2010E9428099B016C
:1004D000AC01892D90E0B0E0A0E0BC01CD016F5FE0
:1004E0007F4F8F4F9F4F0E942809A1E0B0E0AC0FD3
:1004F000BD1FA00FB11F8C930F5F1F4F033011055D
:10050000A9F609811A812B81F701458556856281FB
:100510007381C701F5010995D7011C96CC921C97F0
:100520001496ED90FC90A3CF8091430290914402E9
:100530008C010F5F1F4F10934402009343024997B1
:10054000B4F10E94CD01C0903F02D0904002E090F3
:100550004102F09042029B01AC012C193D094E0969
:100560005F0921F421E030E040E050E088EE93E0C4
:10057000089FB001099F700D189F700D1124072E60
:10058000000C880B990B0E944C0930934702209372
:10059000460210924402109243020E94CD016093E1
:1005A0003F027093400280934102909342020F9069
:1005B0000F900F90DF91CF911F910F91FF90EF90CF
:1005C000DF90CF90BF90AF909F907F906F905F90A3
:1005D0004F9008950F931F93CF93DF93209127019E
:1005E0002F5F322F37703093270120FF2BC020E878
:1005F00031FD2064347009F02062205FFC01EC01C1
:10060000239600E011E06485662329F070E0C801BC
:100610000E9438096F5F6187322F369F030E30E0EA
:10062000311D1124311110C01682662311F0615062
:1006300061873196EC17FD0731F7DF91CF911F915C
:100640000F91089520E0D4CF31503683EECF4F92F2
:100650005F927F928F929F92AF92BF92CF92DF92E2
:10066000EF92FF920F931F93CF93DF932C01EB0137
:100670000E94A801F20127853089621B730B6A3042
:100680007105B0F3F8948A819B81181619060CF055
:10069000CDC1E881F9816BB1862E689486F83BB1B3
:1006A0003F7B3BB9DA848F812D2D281B822F2F832E
:1006B0004F85042E000C550BAA81BB817D85FC84DF
:1006C000EE847F5FF394E3949E819884B984AB8435
:1006D0001181C12C6C2D0C2D2C2D2181112788947A
:1006E0002111280F08F42FEF8195889470FD120FC7
:1006F0001795889471FD120F1795889472FD120F4B
:100700001795889473FD120F1795889474FD120F36
:100710001795889475FD120F1795889476FD120F22
:100720001795889477FD120F17958894622F711191
:10073000612F8D0D162F002C8BB800C000C017FF45
:100740003BB920816627889400C0002C3BB9211159
:10075000290F00C0002C8BB800C000C016FF3BB9A9
:1007600008F42FEF9195889400C0002C3BB9F0FC61
:10077000620F00C0002C8BB800C000C015FF3BB951
:1007800067958894F1FC620F00C0002C3BB9679517
:10079000889400C0002C8BB800C000C014FF3BB987
:1007A000F2FC620F6795889400C0002C3BB9F3FC03
:1007B000620F00C0002C8BB800C000C013FF3BB913
:1007C00067958894F4FC620F00C0002C3BB96795D4
:1007D000889400C0002C8BB800C000C012FF3BB949
:1007E000F5FC620F6795889400C0002C3BB9F6FCBD
:1007F000620F00C0002C8BB800C000C011FF3BB9D5
:1008000067958894F7FC620F00C0002C3BB9679590
:10081000889400C0002C8BB800C000C010FF3BB90A
:10082000122FF110162F9B0D00C0002C3BB900C0F9
:1008300000C0002C8BB800C000C017FF3BB922815C
:100840006627889400C0002C3BB92111290D00C0F7
:10085000002C8BB800C000C016FF3BB908F42FEF86
:10086000E40FF51F00C0002C3BB9E0FC620F00C094
:10087000002C8BB800C000C015FF3BB96795889469
:10088000E1FC620F00C0002C3BB96795889400C062
:10089000002C8BB800C000C014FF3BB9E2FC620F13
:1008A0006795889400C0002C3BB9E3FC620F00C040
:1008B000002C8BB800C000C013FF3BB9679588942B
:1008C000E4FC620F00C0002C3BB96795889400C01F
:1008D000002C8BB800C000C012FF3BB9E5FC620FD2
:1008E0006795889400C0002C3BB9E6FC620F00C0FD
:1008F000002C8BB800C000C011FF3BB967958894ED
:10090000E7FC620F00C0002C3BB96795889400C0DB
:10091000002C8BB800C000C010FF3BB9122FE110B3
:10092000162F919400C0002C3BB99A0C00C000C057
:100930008BB800C000C017FF3BB92181662788949F
:1009400000C0002C3BB92111280F00C0002C8BB82F
:1009500000C000C016FF3BB908F42FEF81958894C2
:1009600000C0002C3BB970FD620F00C0002C8BB89A
:1009700000C000C015FF3BB96795889471FD620FF8
:1009800000C0002C3BB96795889400C0002C8BB840
:1009900000C000C014FF3BB972FD620F67958894D8
:1009A00000C0002C3BB973FD620F00C0002C8BB857
:1009B00000C000C013FF3BB96795889474FD620FB7
:1009C00000C0002C3BB96795889400C0002C8BB800
:1009D00000C000C012FF3BB975FD620F6795889497
:1009E00000C0002C3BB976FD620F00C0002C8BB814
:1009F00000C000C011FF3BB96795889477FD620F76
:100A000000C0002C3BB96795889400C0002C8BB8BF
:100A100000C000C010FF3BB9122F7111162F8D0DB1
:100A200000C0002C3BB9119709F086CE4A815B814A
:100A300020EE31E0DA010E946E09DC01CB01F4E026
:100A4000B695A79597958795FA95D1F730E020E070
:100A5000B901EAE94E9F040E611D5E9F600D711D94
:100A60001124650F711D860F971FA11DB11D893EB1
:100A700043E09407A105B10508F434C0885E9340B3
:100A8000A109B10942E0B695A795979587954A9532
:100A9000D1F747E0849F080E211D949F200D311D42
:100AA0001124290F311D6091260170E0860F971FD8
:100AB000820F931F4091290150912A0160912B01CF
:100AC00070912C01292F3327420F531F611D711D77
:100AD0004093290150932A0160932B0170932C01BC
:100AE0008093260178940E94A801F201708B678799
:100AF000DF91CF911F910F91FF90EF90DF90CF90FA
:100B0000BF90AF909F908F907F905F904F9008958F
:100B1000569A08956F927F928F92CF92DF92EF92C2
:100B2000FF920F931F93CF93DF93CDB7DEB76297FA
:100B30000FB6F894DEBF0FBECDBF6C017A0138014D
:100B4000822EDC011C962C91CA0157FF04C0882715
:100B50009927841B950B7A8369839C838B839E835F
:100B60008D836D867E868F86213049F5CE01019674
:100B70000E94EA0283E0888B1A8A198AF7FE02C073
:100B80008DEF888BD601ED91FC910484F585E02DE5
:100B9000BE016F5F7F4FC601099562960FB6F8944C
:100BA000DEBF0FBECDBFDF91CF911F910F91FF90A0
:100BB000EF90DF90CF908F907F906F9008951C867C
:100BC0001B861A86198618861F82D4CFEF92FF9251
:100BD0000F931F93CF93DF93CDB7DEB762970FB616
:100BE000F894DEBF0FBECDBF7C01DC011C968C915A
:100BF0007A8369835C834B835E834D830D871E8775
:100C00002F878130F9F4CE0101960E94EA02188AFA
:100C10001A8A198AD701ED91FC910484F585E02D9B
:100C2000BE016F5F7F4FC701099562960FB6F894BA
:100C3000DEBF0FBECDBFDF91CF911F910F91FF900F
:100C4000EF9008951C861B861A86198618861F82C7
:100C5000DECFE8E5F2E0108211821282339682E064
:100C6000E838F807C1F78FEF809358028093590254
:100C700080935A0280936402809365028093660297
:100C800080937002809371028093720280937C0241
:100C900080937D0280937E02089590E080E0089525
:100CA000FC018585968508950F931F93CF93DF935D
:100CB00000D01F92CDB7DEB7AB0119821A821B821A
:100CC000DC01ED91FC910190F081E02D00E010E05D
:100CD00020E0BE016F5F7F4F09950F900F900F903E
:100CE000DF91CF911F910F9108950E94A9091F9242
:100CF0000F920FB60F9211242F933F938F939F93D0
:100D0000AF93BF938091290190912A01A0912B016B
:100D1000B0912C013091280123E0230F2D3758F595
:100D20000196A11DB11D2093280180932901909364
:100D30002A01A0932B01B0932C0180912D01909159
:100D40002E01A0912F01B09130010196A11DB11D7E
:100D500080932D0190932E01A0932F01B093300129
:100D6000BF91AF919F918F913F912F910F900FBEA7
:100D70000F901F90189526E8230F0296A11DB11D14
:100D8000D2CFCF93DF93CDB7DEB7E6970FB6F89407
:100D9000DEBF0FBECDBF789484B5826084BD84B5BC
:100DA000816084BD85B5826085BD85B5816085BD66
:100DB00080916E00816080936E001092810080911E
:100DC00081008260809381008091810081608093A6
:100DD0008100809180008160809380008091B100CB
:100DE00084608093B1008091B00081608093B000F6
:100DF00080917A00846080937A0080917A0082608A
:100E000080937A0080917A00816080937A0080914B
:100E10007A00806880937A001092C100809144012A
:100E2000811145C010923601109235018FEF8093E9
:100E3000390180933A0180933B0180933C01809378
:100E40003D0180933E0181E080933F01109241017A
:100E50001092400110923801109237018091520295
:100E600090915302892B31F483E391E090935302E4
:100E700080935202E0913101F0913201309721F0DC
:100E800083E391E09583848383E391E0909332013F
:100E900080933101109243011092420187E191E069
:100EA000909334018093330181E080934401569AFA
:100EB0008CE491E0909336018093350180E590E0D9
:100EC00090934101809340018091480290914902A2
:100ED000A0914A02B0914B02843C29E09207A105FF
:100EE000B10520F484EC99E0A0E0B0E080934802E2
:100EF00090934902A0934A02B0934B028FEF8093E4
:100F0000390180EB80933A0180EF80933B0180931D
:100F1000450288E691E00E94120181E090E0909302
:100F20003D0280933C02CE0101967C016E0191E36B
:100F3000C90ED11C01E010E095E0292E98E0392E71
:100F40000E94CD0128EE33E040E050E00E944C09C1
:100F5000CA01B9012CE330E040E050E00E944C09A6
:100F600090910201691709F4BEC0609302016111FA
:100F700005C088E691E00E94120162C06A3029F43F
:100F800088E291E00E941201AAC06F3019F488E251
:100F900091E0F1CF643109F06AC080EC89832FEFD2
:100FA0002A832B83BE016C5C7F4FC7010E942901FD
:100FB00080E689833FEF3A833B83B601C7010E94F5
:100FC000290129A93AA94BA929833A834B832C8368
:100FD0003D834E831F82188619861A861B861C86BF
:100FE0008CA99DA9AEA98D879E87AF87888B998B89
:100FF000AA8B1B8A1C8A1D8A1E8A1F8A188E298F1B
:101000003A8F4B8F2C8F3D8F4E8F1F8E18A219A2B7
:101010001AA21BA21CA28DA39EA3AFA388A799A767
:10102000AAA71BA61CA61DA61EA61FA618AA68E591
:10103000E61662E0F60649F040F0C7010E94FF00A4
:1010400010933D0200933C024EC080E390E028E8FC
:1010500032E0F601D90180FF05C002C002900E9275
:1010600002900E928250D0F79040C0F7E9CF6931DC
:1010700089F588E5A82E82E0B82E209100013091F4
:101080000101229DC001239D900D329D900D1124E0
:10109000875E994C829D9001839D300D929D300D0D
:1010A0001124275E394C3093010120930001230F56
:1010B00029833FEF3A83890F8B83B501C7010E94D3
:1010C000290163E0A60EB11C88E892E08A159B0511
:1010D000A1F6B6CF6E3109F091C00E942906109298
:1010E0003D0210923C0250913E0241E0450F409378
:1010F0003E02A0903C02B0903D02ACE4B1E05F50F3
:10110000642F62956F70342F3F70E62FEE0FE60F5D
:10111000F0E0E85AFD4F332321F071E0A114B1044F
:1011200009F470E0208191818281772309F42DC038
:1011300033966F3011F4E8E5F2E03295307F732F8B
:101140007095279F020E20E0211D6081639F060E8F
:1011500060E0611D260F692F679F060E60E0611D2C
:10116000962F6181639F060E60E0611D960F682FC8
:10117000679F060E60E0611D8281782F739F070EC6
:1011800070E0711D862F870F11242C9311969C936C
:10119000119712968C9312974D5F13964513B0CF0B
:1011A000809145020E94D9010E94CD014B015C0152
:1011B0000E94A8012B013C010E94A8016419750935
:1011C00086099709683E734081059105A8F38091CF
:1011D00045020E94D9010E94CD01681979098A0946
:1011E0009B096A3071058105910510F380E090E05C
:1011F000892B09F4A5CE0E9400009ECE633219F41B
:101200000E9429061DCF683219F488EE90E0B3CE13
:101210006D3219F488EA90E0AECE623319F488E6B4
:1012200090E0B0CE673309F05ECF88E690E0A3CEC1
:10123000E5E4F2E08FEF8083128211821486138638
:101240008FEF9FEFDC0187839087A187B287089596
:10125000DB018F939F930E947509BF91AF91A29F6D
:10126000800D911DA39F900DB29F900D11240895A4
:1012700097FB072E16F4009407D077FD09D00E9443
:10128000800907FC05D03EF4909581959F4F089505
:10129000709561957F4F0895A1E21A2EAA1BBB1B82
:1012A000FD010DC0AA1FBB1FEE1FFF1FA217B30732
:1012B000E407F50720F0A21BB30BE40BF50B661F48
:1012C000771F881F991F1A9469F76095709580950C
:1012D00090959B01AC01BD01CF0108950E949A0930
:1012E000B7FF0895821B930B08950E949A09A59F4A
:1012F000900DB49F900DA49F800D911D1124089511
:10130000AA1BBB1B51E107C0AA1FBB1FA617B7072B
:1013100010F0A61BB70B881F991F5A95A9F7809547
:101320009095BC01CD010895EE0FFF1F0590F4913B
:10133000E02D0994A29FB001B39FC001A39F700D3F
:10134000811D1124911DB29F700D811D1124911DCD
:10135000089581E090E0F8940C94AE09F894FFCFE2
:1013600039056300000000750675067506540650C1
:10137000064D0600000000E6058A05880554065063
:0613800006A50127030091
:00000001FF
